{
  "contractName": "Auctions",
  "abi": [
    {
      "constant": true,
      "inputs": [
        {
          "name": "interfaceId",
          "type": "bytes4"
        }
      ],
      "name": "supportsInterface",
      "outputs": [
        {
          "name": "",
          "type": "bool"
        }
      ],
      "payable": false,
      "stateMutability": "view",
      "type": "function"
    },
    {
      "constant": true,
      "inputs": [],
      "name": "name",
      "outputs": [
        {
          "name": "",
          "type": "string"
        }
      ],
      "payable": false,
      "stateMutability": "view",
      "type": "function"
    },
    {
      "constant": true,
      "inputs": [
        {
          "name": "tokenId",
          "type": "uint256"
        }
      ],
      "name": "getApproved",
      "outputs": [
        {
          "name": "",
          "type": "address"
        }
      ],
      "payable": false,
      "stateMutability": "view",
      "type": "function"
    },
    {
      "constant": false,
      "inputs": [
        {
          "name": "to",
          "type": "address"
        },
        {
          "name": "tokenId",
          "type": "uint256"
        }
      ],
      "name": "approve",
      "outputs": [],
      "payable": false,
      "stateMutability": "nonpayable",
      "type": "function"
    },
    {
      "constant": true,
      "inputs": [],
      "name": "totalSupply",
      "outputs": [
        {
          "name": "",
          "type": "uint256"
        }
      ],
      "payable": false,
      "stateMutability": "view",
      "type": "function"
    },
    {
      "constant": false,
      "inputs": [
        {
          "name": "_address",
          "type": "address"
        }
      ],
      "name": "setBreedingAddr",
      "outputs": [],
      "payable": false,
      "stateMutability": "nonpayable",
      "type": "function"
    },
    {
      "constant": false,
      "inputs": [
        {
          "name": "from",
          "type": "address"
        },
        {
          "name": "to",
          "type": "address"
        },
        {
          "name": "tokenId",
          "type": "uint256"
        }
      ],
      "name": "transferFrom",
      "outputs": [],
      "payable": false,
      "stateMutability": "nonpayable",
      "type": "function"
    },
    {
      "constant": false,
      "inputs": [
        {
          "name": "_addr",
          "type": "address"
        }
      ],
      "name": "setGOPCreator",
      "outputs": [],
      "payable": false,
      "stateMutability": "nonpayable",
      "type": "function"
    },
    {
      "constant": false,
      "inputs": [
        {
          "name": "_owner",
          "type": "address"
        },
        {
          "name": "_hash",
          "type": "string"
        },
        {
          "name": "_genotype",
          "type": "uint256"
        },
        {
          "name": "_gender",
          "type": "bytes32"
        }
      ],
      "name": "mintCustomHorse",
      "outputs": [
        {
          "name": "",
          "type": "uint256"
        }
      ],
      "payable": false,
      "stateMutability": "nonpayable",
      "type": "function"
    },
    {
      "constant": true,
      "inputs": [
        {
          "name": "owner",
          "type": "address"
        },
        {
          "name": "index",
          "type": "uint256"
        }
      ],
      "name": "tokenOfOwnerByIndex",
      "outputs": [
        {
          "name": "",
          "type": "uint256"
        }
      ],
      "payable": false,
      "stateMutability": "view",
      "type": "function"
    },
    {
      "constant": false,
      "inputs": [
        {
          "name": "_horseId",
          "type": "uint256"
        },
        {
          "name": "_baseValue",
          "type": "uint256"
        }
      ],
      "name": "setBaseValue",
      "outputs": [],
      "payable": false,
      "stateMutability": "nonpayable",
      "type": "function"
    },
    {
      "constant": true,
      "inputs": [
        {
          "name": "_horse",
          "type": "uint256"
        }
      ],
      "name": "getBaseValue",
      "outputs": [
        {
          "name": "",
          "type": "uint256"
        }
      ],
      "payable": false,
      "stateMutability": "view",
      "type": "function"
    },
    {
      "constant": false,
      "inputs": [],
      "name": "unpause",
      "outputs": [],
      "payable": false,
      "stateMutability": "nonpayable",
      "type": "function"
    },
    {
      "constant": false,
      "inputs": [
        {
          "name": "from",
          "type": "address"
        },
        {
          "name": "to",
          "type": "address"
        },
        {
          "name": "tokenId",
          "type": "uint256"
        }
      ],
      "name": "safeTransferFrom",
      "outputs": [],
      "payable": false,
      "stateMutability": "nonpayable",
      "type": "function"
    },
    {
      "constant": true,
      "inputs": [
        {
          "name": "account",
          "type": "address"
        }
      ],
      "name": "isPauser",
      "outputs": [
        {
          "name": "",
          "type": "bool"
        }
      ],
      "payable": false,
      "stateMutability": "view",
      "type": "function"
    },
    {
      "constant": true,
      "inputs": [
        {
          "name": "_tokenId",
          "type": "uint256"
        }
      ],
      "name": "exists",
      "outputs": [
        {
          "name": "",
          "type": "bool"
        }
      ],
      "payable": false,
      "stateMutability": "view",
      "type": "function"
    },
    {
      "constant": true,
      "inputs": [
        {
          "name": "index",
          "type": "uint256"
        }
      ],
      "name": "tokenByIndex",
      "outputs": [
        {
          "name": "",
          "type": "uint256"
        }
      ],
      "payable": false,
      "stateMutability": "view",
      "type": "function"
    },
    {
      "constant": false,
      "inputs": [
        {
          "name": "to",
          "type": "address"
        },
        {
          "name": "tokenId",
          "type": "uint256"
        },
        {
          "name": "tokenURI",
          "type": "string"
        }
      ],
      "name": "mintWithTokenURI",
      "outputs": [
        {
          "name": "",
          "type": "bool"
        }
      ],
      "payable": false,
      "stateMutability": "nonpayable",
      "type": "function"
    },
    {
      "constant": false,
      "inputs": [
        {
          "name": "_tokenId",
          "type": "uint256"
        }
      ],
      "name": "tokenSold",
      "outputs": [],
      "payable": false,
      "stateMutability": "nonpayable",
      "type": "function"
    },
    {
      "constant": false,
      "inputs": [
        {
          "name": "_owner",
          "type": "address"
        },
        {
          "name": "_hash",
          "type": "string"
        },
        {
          "name": "_male",
          "type": "uint256"
        },
        {
          "name": "_female",
          "type": "uint256"
        }
      ],
      "name": "createOffspring",
      "outputs": [
        {
          "name": "",
          "type": "uint256"
        }
      ],
      "payable": true,
      "stateMutability": "payable",
      "type": "function"
    },
    {
      "constant": true,
      "inputs": [],
      "name": "horseDataContract",
      "outputs": [
        {
          "name": "",
          "type": "address"
        }
      ],
      "payable": false,
      "stateMutability": "view",
      "type": "function"
    },
    {
      "constant": true,
      "inputs": [],
      "name": "paused",
      "outputs": [
        {
          "name": "",
          "type": "bool"
        }
      ],
      "payable": false,
      "stateMutability": "view",
      "type": "function"
    },
    {
      "constant": false,
      "inputs": [
        {
          "name": "_owner",
          "type": "address"
        },
        {
          "name": "_hash",
          "type": "string"
        },
        {
          "name": "_batchNumber",
          "type": "uint256"
        }
      ],
      "name": "mintToken",
      "outputs": [
        {
          "name": "",
          "type": "uint256"
        }
      ],
      "payable": true,
      "stateMutability": "payable",
      "type": "function"
    },
    {
      "constant": true,
      "inputs": [
        {
          "name": "tokenId",
          "type": "uint256"
        }
      ],
      "name": "ownerOf",
      "outputs": [
        {
          "name": "",
          "type": "address"
        }
      ],
      "payable": false,
      "stateMutability": "view",
      "type": "function"
    },
    {
      "constant": false,
      "inputs": [],
      "name": "renouncePauser",
      "outputs": [],
      "payable": false,
      "stateMutability": "nonpayable",
      "type": "function"
    },
    {
      "constant": true,
      "inputs": [
        {
          "name": "owner",
          "type": "address"
        }
      ],
      "name": "balanceOf",
      "outputs": [
        {
          "name": "",
          "type": "uint256"
        }
      ],
      "payable": false,
      "stateMutability": "view",
      "type": "function"
    },
    {
      "constant": false,
      "inputs": [],
      "name": "renounceOwnership",
      "outputs": [],
      "payable": false,
      "stateMutability": "nonpayable",
      "type": "function"
    },
    {
      "constant": true,
      "inputs": [
        {
          "name": "_horse",
          "type": "uint256"
        }
      ],
      "name": "getHorseSex",
      "outputs": [
        {
          "name": "",
          "type": "bytes32"
        }
      ],
      "payable": false,
      "stateMutability": "view",
      "type": "function"
    },
    {
      "constant": true,
      "inputs": [
        {
          "name": "_horse",
          "type": "uint256"
        }
      ],
      "name": "getBloodline",
      "outputs": [
        {
          "name": "",
          "type": "bytes32"
        }
      ],
      "payable": false,
      "stateMutability": "view",
      "type": "function"
    },
    {
      "constant": true,
      "inputs": [],
      "name": "gender",
      "outputs": [
        {
          "name": "",
          "type": "bytes32"
        }
      ],
      "payable": false,
      "stateMutability": "view",
      "type": "function"
    },
    {
      "constant": false,
      "inputs": [
        {
          "name": "account",
          "type": "address"
        }
      ],
      "name": "addPauser",
      "outputs": [],
      "payable": false,
      "stateMutability": "nonpayable",
      "type": "function"
    },
    {
      "constant": false,
      "inputs": [],
      "name": "pause",
      "outputs": [],
      "payable": false,
      "stateMutability": "nonpayable",
      "type": "function"
    },
    {
      "constant": true,
      "inputs": [],
      "name": "owner",
      "outputs": [
        {
          "name": "",
          "type": "address"
        }
      ],
      "payable": false,
      "stateMutability": "view",
      "type": "function"
    },
    {
      "constant": true,
      "inputs": [],
      "name": "isOwner",
      "outputs": [
        {
          "name": "",
          "type": "bool"
        }
      ],
      "payable": false,
      "stateMutability": "view",
      "type": "function"
    },
    {
      "constant": true,
      "inputs": [
        {
          "name": "",
          "type": "uint256"
        }
      ],
      "name": "horses",
      "outputs": [
        {
          "name": "buyer",
          "type": "address"
        },
        {
          "name": "genotype",
          "type": "uint256"
        },
        {
          "name": "baseValue",
          "type": "uint256"
        },
        {
          "name": "timestamp",
          "type": "uint256"
        },
        {
          "name": "lastTimeSold",
          "type": "uint256"
        },
        {
          "name": "amountOfTimesSold",
          "type": "uint256"
        },
        {
          "name": "horseHash",
          "type": "string"
        },
        {
          "name": "bloodline",
          "type": "bytes32"
        },
        {
          "name": "sex",
          "type": "bytes32"
        },
        {
          "name": "hType",
          "type": "bytes32"
        }
      ],
      "payable": false,
      "stateMutability": "view",
      "type": "function"
    },
    {
      "constant": true,
      "inputs": [],
      "name": "symbol",
      "outputs": [
        {
          "name": "",
          "type": "string"
        }
      ],
      "payable": false,
      "stateMutability": "view",
      "type": "function"
    },
    {
      "constant": false,
      "inputs": [
        {
          "name": "account",
          "type": "address"
        }
      ],
      "name": "addMinter",
      "outputs": [],
      "payable": false,
      "stateMutability": "nonpayable",
      "type": "function"
    },
    {
      "constant": false,
      "inputs": [
        {
          "name": "_horse",
          "type": "uint256"
        },
        {
          "name": "_hash",
          "type": "string"
        }
      ],
      "name": "setHorseHash",
      "outputs": [],
      "payable": false,
      "stateMutability": "nonpayable",
      "type": "function"
    },
    {
      "constant": false,
      "inputs": [],
      "name": "renounceMinter",
      "outputs": [],
      "payable": false,
      "stateMutability": "nonpayable",
      "type": "function"
    },
    {
      "constant": false,
      "inputs": [
        {
          "name": "to",
          "type": "address"
        },
        {
          "name": "approved",
          "type": "bool"
        }
      ],
      "name": "setApprovalForAll",
      "outputs": [],
      "payable": false,
      "stateMutability": "nonpayable",
      "type": "function"
    },
    {
      "constant": true,
      "inputs": [
        {
          "name": "account",
          "type": "address"
        }
      ],
      "name": "isMinter",
      "outputs": [
        {
          "name": "",
          "type": "bool"
        }
      ],
      "payable": false,
      "stateMutability": "view",
      "type": "function"
    },
    {
      "constant": true,
      "inputs": [
        {
          "name": "_horse",
          "type": "uint256"
        }
      ],
      "name": "getTimestamp",
      "outputs": [
        {
          "name": "",
          "type": "uint256"
        }
      ],
      "payable": false,
      "stateMutability": "view",
      "type": "function"
    },
    {
      "constant": false,
      "inputs": [
        {
          "name": "from",
          "type": "address"
        },
        {
          "name": "to",
          "type": "address"
        },
        {
          "name": "tokenId",
          "type": "uint256"
        },
        {
          "name": "_data",
          "type": "bytes"
        }
      ],
      "name": "safeTransferFrom",
      "outputs": [],
      "payable": false,
      "stateMutability": "nonpayable",
      "type": "function"
    },
    {
      "constant": true,
      "inputs": [
        {
          "name": "tokenId",
          "type": "uint256"
        }
      ],
      "name": "tokenURI",
      "outputs": [
        {
          "name": "",
          "type": "string"
        }
      ],
      "payable": false,
      "stateMutability": "view",
      "type": "function"
    },
    {
      "constant": false,
      "inputs": [
        {
          "name": "_address",
          "type": "address"
        }
      ],
      "name": "setHorseDataAddr",
      "outputs": [],
      "payable": false,
      "stateMutability": "nonpayable",
      "type": "function"
    },
    {
      "constant": true,
      "inputs": [
        {
          "name": "_spender",
          "type": "address"
        },
        {
          "name": "_tokenId",
          "type": "uint256"
        }
      ],
      "name": "isTokenApproved",
      "outputs": [
        {
          "name": "",
          "type": "bool"
        }
      ],
      "payable": false,
      "stateMutability": "view",
      "type": "function"
    },
    {
      "constant": true,
      "inputs": [
        {
          "name": "owner",
          "type": "address"
        },
        {
          "name": "operator",
          "type": "address"
        }
      ],
      "name": "isApprovedForAll",
      "outputs": [
        {
          "name": "",
          "type": "bool"
        }
      ],
      "payable": false,
      "stateMutability": "view",
      "type": "function"
    },
    {
      "constant": false,
      "inputs": [
        {
          "name": "newOwner",
          "type": "address"
        }
      ],
      "name": "transferOwnership",
      "outputs": [],
      "payable": false,
      "stateMutability": "nonpayable",
      "type": "function"
    },
    {
      "constant": true,
      "inputs": [
        {
          "name": "_horse",
          "type": "uint256"
        }
      ],
      "name": "getHorseData",
      "outputs": [
        {
          "name": "",
          "type": "string"
        },
        {
          "name": "",
          "type": "bytes32"
        },
        {
          "name": "",
          "type": "uint256"
        },
        {
          "name": "",
          "type": "uint256"
        },
        {
          "name": "",
          "type": "uint256"
        },
        {
          "name": "",
          "type": "uint256"
        },
        {
          "name": "",
          "type": "bytes32"
        },
        {
          "name": "",
          "type": "bytes32"
        }
      ],
      "payable": false,
      "stateMutability": "view",
      "type": "function"
    },
    {
      "constant": true,
      "inputs": [],
      "name": "lastHorseSex",
      "outputs": [
        {
          "name": "",
          "type": "bytes32"
        }
      ],
      "payable": false,
      "stateMutability": "view",
      "type": "function"
    },
    {
      "anonymous": false,
      "inputs": [
        {
          "indexed": false,
          "name": "_auctionId",
          "type": "uint256"
        }
      ],
      "name": "LogAuctionCreated",
      "type": "event"
    },
    {
      "anonymous": false,
      "inputs": [
        {
          "indexed": false,
          "name": "_horseId",
          "type": "uint256"
        },
        {
          "indexed": false,
          "name": "_amountOfTimesSold",
          "type": "uint256"
        }
      ],
      "name": "LogHorseSell",
      "type": "event"
    },
    {
      "anonymous": false,
      "inputs": [
        {
          "indexed": false,
          "name": "_buyer",
          "type": "address"
        },
        {
          "indexed": false,
          "name": "_timestamp",
          "type": "uint256"
        },
        {
          "indexed": false,
          "name": "_tokenId",
          "type": "uint256"
        }
      ],
      "name": "LogOffspringBuy",
      "type": "event"
    },
    {
      "anonymous": false,
      "inputs": [
        {
          "indexed": false,
          "name": "_buyer",
          "type": "address"
        },
        {
          "indexed": false,
          "name": "_timestamp",
          "type": "uint256"
        },
        {
          "indexed": false,
          "name": "_tokenId",
          "type": "uint256"
        }
      ],
      "name": "LogGOPCreated",
      "type": "event"
    },
    {
      "anonymous": false,
      "inputs": [
        {
          "indexed": true,
          "name": "previousOwner",
          "type": "address"
        }
      ],
      "name": "OwnershipRenounced",
      "type": "event"
    },
    {
      "anonymous": false,
      "inputs": [
        {
          "indexed": true,
          "name": "previousOwner",
          "type": "address"
        },
        {
          "indexed": true,
          "name": "newOwner",
          "type": "address"
        }
      ],
      "name": "OwnershipTransferred",
      "type": "event"
    },
    {
      "anonymous": false,
      "inputs": [],
      "name": "Paused",
      "type": "event"
    },
    {
      "anonymous": false,
      "inputs": [],
      "name": "Unpaused",
      "type": "event"
    },
    {
      "anonymous": false,
      "inputs": [
        {
          "indexed": true,
          "name": "account",
          "type": "address"
        }
      ],
      "name": "PauserAdded",
      "type": "event"
    },
    {
      "anonymous": false,
      "inputs": [
        {
          "indexed": true,
          "name": "account",
          "type": "address"
        }
      ],
      "name": "PauserRemoved",
      "type": "event"
    },
    {
      "anonymous": false,
      "inputs": [
        {
          "indexed": true,
          "name": "account",
          "type": "address"
        }
      ],
      "name": "MinterAdded",
      "type": "event"
    },
    {
      "anonymous": false,
      "inputs": [
        {
          "indexed": true,
          "name": "account",
          "type": "address"
        }
      ],
      "name": "MinterRemoved",
      "type": "event"
    },
    {
      "anonymous": false,
      "inputs": [
        {
          "indexed": true,
          "name": "from",
          "type": "address"
        },
        {
          "indexed": true,
          "name": "to",
          "type": "address"
        },
        {
          "indexed": true,
          "name": "tokenId",
          "type": "uint256"
        }
      ],
      "name": "Transfer",
      "type": "event"
    },
    {
      "anonymous": false,
      "inputs": [
        {
          "indexed": true,
          "name": "owner",
          "type": "address"
        },
        {
          "indexed": true,
          "name": "approved",
          "type": "address"
        },
        {
          "indexed": true,
          "name": "tokenId",
          "type": "uint256"
        }
      ],
      "name": "Approval",
      "type": "event"
    },
    {
      "anonymous": false,
      "inputs": [
        {
          "indexed": true,
          "name": "owner",
          "type": "address"
        },
        {
          "indexed": true,
          "name": "operator",
          "type": "address"
        },
        {
          "indexed": false,
          "name": "approved",
          "type": "bool"
        }
      ],
      "name": "ApprovalForAll",
      "type": "event"
    },
    {
      "constant": false,
      "inputs": [
        {
          "name": "name",
          "type": "string"
        },
        {
          "name": "symbol",
          "type": "string"
        }
      ],
      "name": "initialize",
      "outputs": [],
      "payable": false,
      "stateMutability": "nonpayable",
      "type": "function"
    },
    {
      "constant": false,
      "inputs": [],
      "name": "initialize",
      "outputs": [],
      "payable": false,
      "stateMutability": "nonpayable",
      "type": "function"
    },
    {
      "constant": false,
      "inputs": [
        {
          "name": "_owner",
          "type": "address"
        }
      ],
      "name": "initialize",
      "outputs": [],
      "payable": false,
      "stateMutability": "nonpayable",
      "type": "function"
    },
    {
      "constant": false,
      "inputs": [
        {
          "name": "name",
          "type": "string"
        },
        {
          "name": "symbol",
          "type": "string"
        },
        {
          "name": "minters",
          "type": "address[]"
        },
        {
          "name": "pausers",
          "type": "address[]"
        }
      ],
      "name": "initialize",
      "outputs": [],
      "payable": false,
      "stateMutability": "nonpayable",
      "type": "function"
    },
    {
      "constant": false,
      "inputs": [
        {
          "name": "_duration",
          "type": "uint256"
        },
        {
          "name": "_horseId",
          "type": "uint256"
        },
        {
          "name": "_minimum",
          "type": "uint256"
        }
      ],
      "name": "createAuction",
      "outputs": [],
      "payable": true,
      "stateMutability": "payable",
      "type": "function"
    },
    {
      "constant": false,
      "inputs": [
        {
          "name": "_nft",
          "type": "address"
        }
      ],
      "name": "setSaleAuctionAddress",
      "outputs": [],
      "payable": false,
      "stateMutability": "nonpayable",
      "type": "function"
    }
  ],
  "bytecode": "0x608060405261019f805460ff1916905534801561001b57600080fd5b506142da8061002b6000396000f30060806040526004361061029d5763ffffffff7c010000000000000000000000000000000000000000000000000000000060003504166301ffc9a781146102a257806306fdde03146102d8578063081812fc14610362578063095ea7b31461039657806318160ddd146103bc578063195c8c7e146103e357806323b872dd1461040457806325b1a0721461042e5780632d6ae4fa1461044f5780632f745c59146104bf5780633bdf2c0c146104e35780633ef5d325146104fe5780633f4ba83a1461051657806342842e0e1461052b57806346fbf68e146105555780634cd88b76146105765780634f558e791461060d5780634f6ccce71461062557806350bb4e7f1461063d5780635653de64146106a657806357a15c4f146106be57806359660d17146106e45780635c975abb146106f9578063611b2fed1461070e5780636352211e1461076a5780636ef8d66d146107825780636fbde40d1461079757806370a08231146107b8578063715018a6146107d957806376fe8228146107ee5780637866ed6e1461080657806379caad861461081e5780638129fc1c1461083357806382dc1ec4146108485780638456cb59146108695780638da5cb5b1461087e5780638f32d59b146108935780638f8b5cde146108a857806395d89b411461098e578063983b2d56146109a3578063983bd3d4146109c45780639865027514610a22578063a22cb46514610a37578063aa271e1a14610a5d578063b633620c14610a7e578063b88d4fde14610a96578063c4d66de814610b05578063c87b56dd14610b26578063cda4beef14610b3e578063d94cc0e014610b4f578063e068e8a114610c58578063e8a4b79714610c79578063e985e9c514610c9d578063f2fde38b14610cc4578063f66b48da14610ce5578063fffda87014610dad575b600080fd5b3480156102ae57600080fd5b506102c4600160e060020a031960043516610dc2565b604080519115158252519081900360200190f35b3480156102e457600080fd5b506102ed610de1565b6040805160208082528351818301528351919283929083019185019080838360005b8381101561032757818101518382015260200161030f565b50505050905090810190601f1680156103545780820380516001836020036101000a031916815260200191505b509250505060405180910390f35b34801561036e57600080fd5b5061037a600435610e78565b60408051600160a060020a039092168252519081900360200190f35b3480156103a257600080fd5b506103ba600160a060020a0360043516602435610eaa565b005b3480156103c857600080fd5b506103d1610ec9565b60408051918252519081900360200190f35b3480156103ef57600080fd5b506103ba600160a060020a0360043516610ecf565b34801561041057600080fd5b506103ba600160a060020a0360043581169060243516604435610f05565b34801561043a57600080fd5b506103ba600160a060020a0360043516610f26565b34801561045b57600080fd5b5060408051602060046024803582810135601f81018590048502860185019096528585526103d1958335600160a060020a0316953695604494919390910191908190840183828082843750949750508435955050506020909201359150610f5c9050565b3480156104cb57600080fd5b506103d1600160a060020a0360043516602435611109565b3480156104ef57600080fd5b506103ba600435602435611156565b34801561050a57600080fd5b506103d16004356111d3565b34801561052257600080fd5b506103ba6111e9565b34801561053757600080fd5b506103ba600160a060020a0360043581169060243516604435611245565b34801561056157600080fd5b506102c4600160a060020a0360043516611261565b34801561058257600080fd5b506040805160206004803580820135601f81018490048402850184019095528484526103ba94369492936024939284019190819084018382808284375050604080516020601f89358b018035918201839004830284018301909452808352979a99988101979196509182019450925082915084018382808284375094975061127b9650505050505050565b34801561061957600080fd5b506102c460043561139c565b34801561063157600080fd5b506103d16004356113ae565b34801561064957600080fd5b50604080516020600460443581810135601f81018490048402850184019095528484526102c4948235600160a060020a03169460248035953695946064949201919081908401838280828437509497506113e39650505050505050565b3480156106b257600080fd5b506103ba600435611417565b6103d160048035600160a060020a03169060248035908101910135604435606435611481565b3480156106f057600080fd5b5061037a611546565b34801561070557600080fd5b506102c4611556565b60408051602060046024803582810135601f81018590048502860185019096528585526103d1958335600160a060020a031695369560449491939091019190819084018382808284375094975050933594506115609350505050565b34801561077657600080fd5b5061037a600435611706565b34801561078e57600080fd5b506103ba61172a565b3480156107a357600080fd5b506103ba600160a060020a0360043516611735565b3480156107c457600080fd5b506103d1600160a060020a036004351661176b565b3480156107e557600080fd5b506103ba61179e565b3480156107fa57600080fd5b506103d16004356117fd565b34801561081257600080fd5b506103d1600435611813565b34801561082a57600080fd5b506103d1611829565b34801561083f57600080fd5b506103ba611830565b34801561085457600080fd5b506103ba600160a060020a0360043516611927565b34801561087557600080fd5b506103ba611947565b34801561088a57600080fd5b5061037a6119a5565b34801561089f57600080fd5b506102c46119b5565b3480156108b457600080fd5b506108c06004356119c7565b60408051600160a060020a038c16815260208082018c90529181018a9052606081018990526080810188905260a0810187905260e081018590526101008101849052610120810183905261014060c0820181815287519183019190915286519192909161016084019188019080838360005b8381101561094a578181015183820152602001610932565b50505050905090810190601f1680156109775780820380516001836020036101000a031916815260200191505b509b50505050505050505050505060405180910390f35b34801561099a57600080fd5b506102ed611aaf565b3480156109af57600080fd5b506103ba600160a060020a0360043516611b10565b3480156109d057600080fd5b5060408051602060046024803582810135601f81018590048502860185019096528585526103ba958335953695604494919390910191908190840183828082843750949750611b2d9650505050505050565b348015610a2e57600080fd5b506103ba611b66565b348015610a4357600080fd5b506103ba600160a060020a03600435166024351515611b6f565b348015610a6957600080fd5b506102c4600160a060020a0360043516611b8a565b348015610a8a57600080fd5b506103d1600435611b9e565b348015610aa257600080fd5b50604080516020601f6064356004818101359283018490048402850184019095528184526103ba94600160a060020a038135811695602480359092169560443595369560849401918190840183828082843750949750611bb49650505050505050565b348015610b1157600080fd5b506103ba600160a060020a0360043516611bdc565b348015610b3257600080fd5b506102ed600435611caa565b6103ba600435602435604435611d5f565b348015610b5b57600080fd5b506040805160206004803580820135601f81018490048402850184019095528484526103ba94369492936024939284019190819084018382808284375050604080516020601f89358b018035918201839004830284018301909452808352979a999881019791965091820194509250829150840183828082843750506040805187358901803560208181028481018201909552818452989b9a998901989297509082019550935083925085019084908082843750506040805187358901803560208181028481018201909552818452989b9a998901989297509082019550935083925085019084908082843750949750611ec89650505050505050565b348015610c6457600080fd5b506103ba600160a060020a0360043516612038565b348015610c8557600080fd5b506102c4600160a060020a036004351660243561206e565b348015610ca957600080fd5b506102c4600160a060020a0360043581169060243516612081565b348015610cd057600080fd5b506103ba600160a060020a03600435166120af565b348015610cf157600080fd5b50610cfd6004356120cb565b6040805160208082018a9052918101889052606081018790526080810186905260a0810185905260c0810184905260e081018390526101008082528a51908201528951909182916101208301918c019080838360005b83811015610d6b578181015183820152602001610d53565b50505050905090810190601f168015610d985780820380516001836020036101000a031916815260200191505b50995050505050505050505060405180910390f35b348015610db957600080fd5b506103d1612252565b600160e060020a03191660009081526033602052604090205460ff1690565b60d28054604080516020601f6002600019610100600188161502019095169490940493840181900481028201810190925282815260609390929091830182828015610e6d5780601f10610e4257610100808354040283529160200191610e6d565b820191906000526020600020905b815481529060010190602001808311610e5057829003601f168201915b505050505090505b90565b6000610e8382612259565b1515610e8e57600080fd5b50600090815260676020526040902054600160a060020a031690565b61019f5460ff1615610ebb57600080fd5b610ec58282612276565b5050565b609e5490565b610ed76119b5565b1515610ee257600080fd5b61023c8054600160a060020a031916600160a060020a0392909216919091179055565b61019f5460ff1615610f1657600080fd5b610f2183838361231f565b505050565b610f2e6119b5565b1515610f3957600080fd5b61023f8054600160a060020a031916600160a060020a0392909216919091179055565b61023f5460009081908190606090600160a060020a03163314610fc9576040805160e560020a62461bcd02815260206004820152600f60248201527f54206e6f74417574686f72697a65640000000000000000000000000000000000604482015290519081900360640190fd5b610fd1610ec9565b61023d54604080517f3ef5d325000000000000000000000000000000000000000000000000000000008152600481018a90529051929550600160a060020a0390911691633ef5d325916024808201926020929091908290030181600087803b15801561103c57600080fd5b505af1158015611050573d6000803e3d6000fd5b505050506040513d602081101561106657600080fd5b505160408051606081018252602681527f68747470733a2f2f6170692e7a65642e72756e2f6170692f76312f686f72736560208201527f732f6765742f0000000000000000000000000000000000000000000000000000918101919091529092506110d9906110d4856123ad565b6124d4565b90506110e5888461258f565b6110ef83826125de565b6110fd888885858a8a612611565b50909695505050505050565b60006111148361176b565b821061111f57600080fd5b600160a060020a0383166000908152609c6020526040902080548390811061114357fe5b9060005260206000200154905092915050565b61023c54600090600160a060020a031633146111bc576040805160e560020a62461bcd02815260206004820152601060248201527f4342206e6f74417574686f72697a656400000000000000000000000000000000604482015290519081900360640190fd5b50600091825261023e602052604090912060020155565b600090815261023e602052604090206002015490565b6111f233611261565b15156111fd57600080fd5b61019f5460ff16151561120f57600080fd5b61019f805460ff191690556040517fa45f47fdea8a1efdd9029a5691c7f759c32b7c698632b563573e155625d1693390600090a1565b610f218383836020604051908101604052806000815250611bb4565b600061127561016c8363ffffffff61292d16565b92915050565b60008054610100900460ff16806112955750611295612964565b806112a3575060005460ff16155b15156112fb576040805160e560020a62461bcd02815260206004820152602e602482015260008051602061426f833981519152604482015260008051602061428f833981519152606482015290519081900360840190fd5b5060008054600161010061ff00198316811760ff1916919091179092550460ff1661132461296e565b151561132f57600080fd5b82516113429060d2906020860190614133565b5081516113569060d3906020850190614133565b506113807f5b5e139f0000000000000000000000000000000000000000000000000000000061299e565b600080549115156101000261ff00199092169190911790555050565b60006113a6610ec9565b909110919050565b60006113b8610ec9565b82106113c357600080fd5b609e8054839081106113d157fe5b90600052602060002001549050919050565b60006113ee33611b8a565b15156113f957600080fd5b611403848461258f565b61140d83836125de565b5060019392505050565b8061142233826129da565b1515611478576040805160e560020a62461bcd02815260206004820152601560248201527f4e6f74206f776e6572206f7220617070726f7665640000000000000000000000604482015290519081900360640190fd5b610ec582612a3b565b61023c546000908190600160a060020a031633146114e9576040805160e560020a62461bcd02815260206004820152601060248201527f4342206e6f74417574686f72697a656400000000000000000000000000000000604482015290519081900360640190fd5b6114f1610ec9565b90506114fd878261258f565b61153c8787878080601f016020809104026020016040519081016040528093929190818152602001838380828437820191505050505050838787612a9a565b9695505050505050565b61023d54600160a060020a031681565b61019f5460ff1690565b61023f5460009081908190606090600160a060020a031633146115cd576040805160e560020a62461bcd02815260206004820152600f60248201527f54206e6f74417574686f72697a65640000000000000000000000000000000000604482015290519081900360640190fd5b6115d5610ec9565b61023d54604080517f3ef5d325000000000000000000000000000000000000000000000000000000008152600481018990529051929550600160a060020a0390911691633ef5d325916024808201926020929091908290030181600087803b15801561164057600080fd5b505af1158015611654573d6000803e3d6000fd5b505050506040513d602081101561166a57600080fd5b505160408051606081018252602681527f68747470733a2f2f6170692e7a65642e72756e2f6170692f76312f686f72736560208201527f732f6765742f0000000000000000000000000000000000000000000000000000918101919091529092506116d8906110d4856123ad565b90506116e4878461258f565b6116ee83826125de565b6116fb8787858886612d57565b509095945050505050565b600081815260666020526040812054600160a060020a031680151561127557600080fd5b61173333613007565b565b61173d6119b5565b151561174857600080fd5b6102428054600160a060020a031916600160a060020a0392909216919091179055565b6000600160a060020a038216151561178257600080fd5b50600160a060020a031660009081526068602052604090205490565b6117a66119b5565b15156117b157600080fd5b61020454604051600160a060020a03909116907ff8df31144d9c2f0f6b59d69b8b98abd5459d07f2742c4df920b25aae33c6482090600090a26102048054600160a060020a0319169055565b600090815261023e602052604090206008015490565b600090815261023e602052604090206007015490565b6102385481565b60008054610100900460ff168061184a575061184a612964565b80611858575060005460ff16155b15156118b0576040805160e560020a62461bcd02815260206004820152602e602482015260008051602061426f833981519152604482015260008051602061428f833981519152606482015290519081900360840190fd5b5060008054600161010061ff00198316811760ff1916919091179092550460ff166118d961296e565b15156118e457600080fd5b61190d7f780e9d630000000000000000000000000000000000000000000000000000000061299e565b600080549115156101000261ff0019909216919091179055565b61193033611261565b151561193b57600080fd5b61194481613050565b50565b61195033611261565b151561195b57600080fd5b61019f5460ff161561196c57600080fd5b61019f805460ff191660011790556040517f9e87fac88ff661f02d44f95383c817fece4bce600a3dab7a54406878b965e75290600090a1565b61020454600160a060020a031690565b61020454600160a060020a0316331490565b61023e6020908152600091825260409182902080546001808301546002808501546003860154600487015460058801546006890180548c51601f6000199a831615610100029a909a01909116969096049788018b90048b0286018b01909b52868552600160a060020a039097169994989297919690959094919392830182828015611a935780601f10611a6857610100808354040283529160200191611a93565b820191906000526020600020905b815481529060010190602001808311611a7657829003601f168201915b505050505090806007015490806008015490806009015490508a565b60d38054604080516020601f6002600019610100600188161502019095169490940493840181900481028201810190925282815260609390929091830182828015610e6d5780601f10610e4257610100808354040283529160200191610e6d565b611b1933611b8a565b1515611b2457600080fd5b61194481613099565b611b356119b5565b1515611b4057600080fd5b600082815261023e602090815260409091208251610f2192600690920191840190614133565b611733336130e2565b61019f5460ff1615611b8057600080fd5b610ec5828261312b565b60006112756101078363ffffffff61292d16565b600090815261023e602052604090206003015490565b611bbf848484610f05565b611bcb848484846131af565b1515611bd657600080fd5b50505050565b60008054610100900460ff1680611bf65750611bf6612964565b80611c04575060005460ff16155b1515611c5c576040805160e560020a62461bcd02815260206004820152602e602482015260008051602061426f833981519152604482015260008051602061428f833981519152606482015290519081900360840190fd5b5060008054600161010061ff00198316811760ff1916919091179092550460ff16611c868261331c565b611c8f8261356e565b600080549115156101000261ff001990921691909117905550565b6060611cb582612259565b1515611cc057600080fd5b600082815260d4602090815260409182902080548351601f600260001961010060018616150201909316929092049182018490048402810184019094528084529091830182828015611d535780601f10611d2857610100808354040283529160200191611d53565b820191906000526020600020905b815481529060010190602001808311611d3657829003601f168201915b50505050509050919050565b6000611d6a83611706565b600160a060020a03163314611dc9576040805160e560020a62461bcd02815260206004820152600d60248201527f6e6f74546f6b656e4f776e657200000000000000000000000000000000000000604482015290519081900360640190fd5b61024254611de2903390600160a060020a031685611245565b61024254604080517f36e5d7c10000000000000000000000000000000000000000000000000000000081523360048201526024810187905260448101869052606481018590529051600160a060020a03909216916336e5d7c1913491608480830192602092919082900301818588803b158015611e5e57600080fd5b505af1158015611e72573d6000803e3d6000fd5b50505050506040513d6020811015611e8957600080fd5b50516040805182815290519192507f6337fdda80acf4bb618d6e98b2ac25a50a9a47fbaa452130485db1faf1de5c73919081900360200190a150505050565b600080548190610100900460ff1680611ee45750611ee4612964565b80611ef2575060005460ff16155b1515611f4a576040805160e560020a62461bcd02815260206004820152602e602482015260008051602061426f833981519152604482015260008051602061428f833981519152606482015290519081900360840190fd5b5060008054600161010061ff00198316811760ff1916919091179092550460ff16611f7361363e565b611f7b611830565b611f85868661127b565b611f8e30613710565b611f96611b66565b611f9f306137e0565b611fa761172a565b600091505b8351821015611fe057611fd58483815181101515611fc657fe5b90602001906020020151613099565b816001019150611fac565b600091505b82518210156120195761200e8383815181101515611fff57fe5b90602001906020020151613050565b816001019150611fe5565b600080549115156101000261ff00199092169190911790555050505050565b6120406119b5565b151561204b57600080fd5b61023d8054600160a060020a031916600160a060020a0392909216919091179055565b600061207a83836129da565b9392505050565b600160a060020a03918216600090815260696020908152604080832093909416825291909152205460ff1690565b6120b76119b5565b15156120c257600080fd5b6119448161389d565b606060008060008060008060006120e06141ad565b60008a815261023e60209081526040918290208251610140810184528154600160a060020a0316815260018083015482850152600280840154838701526003840154606084015260048401546080840152600584015460a084015260068401805487516101009482161594909402600019011691909104601f81018690048602830186019096528582529194929360c0860193919291908301828280156121c85780601f1061219d576101008083540402835291602001916121c8565b820191906000526020600020905b8154815290600101906020018083116121ab57829003601f168201915b50505050508152602001600782015460001916600019168152602001600882015460001916600019168152602001600982015460001916600019168152505090508060c00151816101000151826040015183606001518460a0015185602001518660e001518761012001518797509850985098509850985098509850985050919395975091939597565b6102385490565b600090815260666020526040902054600160a060020a0316151590565b600061228182611706565b9050600160a060020a03838116908216141561229c57600080fd5b33600160a060020a03821614806122b857506122b88133612081565b15156122c357600080fd5b6000828152606760205260408082208054600160a060020a031916600160a060020a0387811691821790925591518593918516917f8c5be1e5ebec7d5bd14f71427d1e84f3dd0314c0f7b2291e5b200ac8c7c3b92591a4505050565b61232933826129da565b151561233457600080fd5b600160a060020a038216151561234957600080fd5b6123538382613910565b61235d8382613972565b6123678282613a79565b8082600160a060020a031684600160a060020a03167fddf252ad1be2c89b69c2b068fc378daa952ba7f163c4a11628f55a4df523b3ef60405160405180910390a4505050565b606060008082818515156123f65760408051808201909152600181527f3000000000000000000000000000000000000000000000000000000000000000602082015294506124cb565b8593505b831561241157600190920191600a840493506123fa565b826040519080825280601f01601f19166020018201604052801561243f578160200160208202803883390190505b5091505060001982015b85156124c75781516000198201917f01000000000000000000000000000000000000000000000000000000000000006030600a8a06010291849190811061248c57fe5b9060200101907effffffffffffffffffffffffffffffffffffffffffffffffffffffffffffff1916908160001a905350600a86049550612449565b8194505b50505050919050565b606082826040516020018083805190602001908083835b6020831061250a5780518252601f1990920191602091820191016124eb565b51815160209384036101000a600019018019909216911617905285519190930192850191508083835b602083106125525780518252601f199092019160209182019101612533565b6001836020036101000a03801982511681845116808217855250505050505090500192505050604051602081830303815290604052905092915050565b6125998282613ac2565b609e80546000838152609f60205260408120829055600182018355919091527fcfe2a20ff701a1f3e14f63bd70d6c6bc6fba8172ec6d5a505cdab3927c0a9de6015550565b6125e782612259565b15156125f257600080fd5b600082815260d4602090815260409091208251610f2192840190614133565b600061261b6141ad565b6001841015801561262d5750600a8411155b1515612683576040805160e560020a62461bcd02815260206004820152601160248201527f47656e206f7574206f6620626f756e6473000000000000000000000000000000604482015290519081900360640190fd5b61023b5461947010156126e0576040805160e560020a62461bcd02815260206004820152600b60248201527f474f5020636170206d6574000000000000000000000000000000000000000000604482015290519081900360640190fd5b61023d54604080517f7866ed6e000000000000000000000000000000000000000000000000000000008152600481018790529051600160a060020a0390921691637866ed6e916024808201926020929091908290030181600087803b15801561274857600080fd5b505af115801561275c573d6000803e3d6000fd5b505050506040513d602081101561277257600080fd5b5051426060830152600160a060020a038916825260c08201889052604082018690526020820185905260e0820181905291507f4d616c650000000000000000000000000000000000000000000000000000000083141561280257610239546101008201527f436f6c7400000000000000000000000000000000000000000000000000000000610120820152612834565b61023a546101008201527f46696c6c790000000000000000000000000000000000000000000000000000006101208201525b600086815261023e602090815260409182902083518154600160a060020a031916600160a060020a03909116178155838201516001820155918301516002830155606083015160038301556080830151600483015560a0830151600583015560c083015180518493926128ae926006850192910190614133565b5060e0820151600782015561010082015160088201556101209091015160099091015561023b8054600101905560408051600160a060020a038a16815242602082015280820188905290517f8bb39788f6fcc3db6d28b8c1980260c5163d715d3b99e1b48d3202af7dc2b4319181900360600190a15050505050505050565b6000600160a060020a038216151561294457600080fd5b50600160a060020a03166000908152602091909152604090205460ff1690565b303b8015905b5090565b60006129997f80ac58cd00000000000000000000000000000000000000000000000000000000610dc2565b905090565b600160e060020a031980821614156129b557600080fd5b600160e060020a0319166000908152603360205260409020805460ff19166001179055565b6000806129e683611706565b905080600160a060020a031684600160a060020a03161480612a21575083600160a060020a0316612a1684610e78565b600160a060020a0316145b80612a315750612a318185612081565b91505b5092915050565b600081815261023e602090815260409182902060058101805460010190819055426004830155835185815292830152825190927f972e3bea11df51754bcb88d2a3d51858ebdd0f5ffb99320d008b2c74901d67e4928290030190a15050565b6000806000612aa76141ad565b612aaf613b1d565b1515612ae557610239547f436f6c7400000000000000000000000000000000000000000000000000000000610237559350612b11565b61023a547f46696c6c790000000000000000000000000000000000000000000000000000006102375593505b600086815261023e602052604080822087835291207f5374616c6c696f6e0000000000000000000000000000000000000000000000006009808401919091557f4d6172650000000000000000000000000000000000000000000000000000000090820155600160a060020a038b16835242606084015260c083018a9052610100830186905260018083015490820154929550909350612baf91613b29565b60208083019190915261023d5460078086015490850154604080517ffe50ce600000000000000000000000000000000000000000000000000000000081526004810193909352602483019190915251600160a060020a039092169263fe50ce60926044808401938290030181600087803b158015612c2c57600080fd5b505af1158015612c40573d6000803e3d6000fd5b505050506040513d6020811015612c5657600080fd5b505160e082015261023754610120820152600087815261023e602090815260409182902083518154600160a060020a031916600160a060020a03909116178155818401516001820155918301516002830155606083015160038301556080830151600483015560a0830151600583015560c08301518051849392612ce1926006850192910190614133565b5060e0820151600782015561010082015160088201556101209091015160099091015560408051600160a060020a038b16815242602082015280820189905290517f5979c04b0d7f0107e1fb66acd8a8950f758e0591c1915a39536e4cf9e6b54cfd9181900360600190a1505050505050505050565b600080612d626141ad565b61023b546194701015612dbf576040805160e560020a62461bcd02815260206004820152600b60248201527f474f5020636170206d6574000000000000000000000000000000000000000000604482015290519081900360640190fd5b61023954610238541415612dff5761023a54610238557f46696c6c7900000000000000000000000000000000000000000000000000000061023755612e2d565b61023954610238557f436f6c7400000000000000000000000000000000000000000000000000000000610237555b61023d54604080517f7866ed6e000000000000000000000000000000000000000000000000000000008152600481018890529051600160a060020a0390921691637866ed6e916024808201926020929091908290030181600087803b158015612e9557600080fd5b505af1158015612ea9573d6000803e3d6000fd5b505050506040513d6020811015612ebf57600080fd5b505161023d54604080517f1c668855000000000000000000000000000000000000000000000000000000008152600481018990529051929550600160a060020a0390911691631c668855916024808201926020929091908290030181600087803b158015612f2c57600080fd5b505af1158015612f40573d6000803e3d6000fd5b505050506040513d6020811015612f5657600080fd5b50514260608301908152600160a060020a038a8116845260c084018a8152610238546101008601526040808601898152602080880187815260e089018b9052610237546101208a015260008e815261023e83529390932088518154600160a060020a031916961695909517855591516001850155516002840155925160038301556080850151600483015560a08501516005830155518051939550849391926128ae92600685019290910190614133565b61301961016c8263ffffffff613b4216565b604051600160a060020a038216907fcd265ebaf09df2871cc7bd4133404a235ba12eff2041bb89d9c714a2621c7c7e90600090a250565b61306261016c8263ffffffff613b7916565b604051600160a060020a038216907f6719d08c1888103bea251a4ed56406bd0c3e69723c8a1686e017e7bbe159b6f890600090a250565b6130ab6101078263ffffffff613b7916565b604051600160a060020a038216907f6ae172837ea30b801fbfcdd4108aa1d5bf8ff775444fd70256b44e6bf3dfc3f690600090a250565b6130f46101078263ffffffff613b4216565b604051600160a060020a038216907fe94479a9f7e1952cc78f2d6baab678adc1b772d936c6583def489e524cb6669290600090a250565b600160a060020a03821633141561314157600080fd5b336000818152606960209081526040808320600160a060020a03871680855290835292819020805460ff1916861515908117909155815190815290519293927f17307eab39ab6107e8899845ad3d59bd9653f200f220920489ca2b5937696c31929181900390910190a35050565b6000806131c485600160a060020a0316613bb3565b15156131d35760019150613313565b6040517f150b7a020000000000000000000000000000000000000000000000000000000081523360048201818152600160a060020a03898116602485015260448401889052608060648501908152875160848601528751918a169463150b7a0294938c938b938b93909160a490910190602085019080838360005b8381101561326657818101518382015260200161324e565b50505050905090810190601f1680156132935780820380516001836020036101000a031916815260200191505b5095505050505050602060405180830381600087803b1580156132b557600080fd5b505af11580156132c9573d6000803e3d6000fd5b505050506040513d60208110156132df57600080fd5b5051600160e060020a031981167f150b7a020000000000000000000000000000000000000000000000000000000014925090505b50949350505050565b60008054610100900460ff16806133365750613336612964565b80613344575060005460ff16155b151561339c576040805160e560020a62461bcd02815260206004820152602e602482015260008051602061426f833981519152604482015260008051602061428f833981519152606482015290519081900360840190fd5b5060008054600161010061ff00198316811760ff191682178455610240805480840182557fd971d7a75d56a87205c10f76d77a1984a94b99f0ba39ec86813b6d42a571a285018054600160a060020a0319908116600160a060020a038916908117909255610241805495860181559096527f3309f6f425a96da5e1b3ccdcabb9705f947cdba87e004f5ce49278874ade3cb89093018054909516909217909355604080518082018252600981527f5a656420546f6b656e000000000000000000000000000000000000000000000060208083019190915282518084018452600281527f5a540000000000000000000000000000000000000000000000000000000000008183015284548451818402810184019095528085529690950460ff1695613565959294929392918301828280156134ff57602002820191906000526020600020905b8154600160a060020a031681526001909101906020018083116134e1575b505050505061024180548060200260200160405190810160405280929190818152602001828054801561355b57602002820191906000526020600020905b8154600160a060020a0316815260019091019060200180831161353d575b5050505050611ec8565b611c8f82613bbb565b60008054610100900460ff16806135885750613588612964565b80613596575060005460ff16155b15156135ee576040805160e560020a62461bcd02815260206004820152602e602482015260008051602061426f833981519152604482015260008051602061428f833981519152606482015290519081900360840190fd5b50600080546102048054600160a060020a031916600160a060020a03949094169390931790925561ff001980831661010090811760ff19166001179091169281900460ff16151502919091179055565b60008054610100900460ff16806136585750613658612964565b80613666575060005460ff16155b15156136be576040805160e560020a62461bcd02815260206004820152602e602482015260008051602061426f833981519152604482015260008051602061428f833981519152606482015290519081900360840190fd5b5060008054600161010061ff00198316811760ff1916919091179092550460ff166136e7613cec565b61190d7f80ac58cd0000000000000000000000000000000000000000000000000000000061299e565b60008054610100900460ff168061372a575061372a612964565b80613738575060005460ff16155b1515613790576040805160e560020a62461bcd02815260206004820152602e602482015260008051602061426f833981519152604482015260008051602061428f833981519152606482015290519081900360840190fd5b5060008054600161010061ff00198316811760ff1916919091179092550460ff166137b961296e565b15156137c457600080fd5b6137cc613db6565b15156137d757600080fd5b611c8f82613de1565b60008054610100900460ff16806137fa57506137fa612964565b80613808575060005460ff16155b1515613860576040805160e560020a62461bcd02815260206004820152602e602482015260008051602061426f833981519152604482015260008051602061428f833981519152606482015290519081900360840190fd5b5060008054600161010061ff00198316811760ff1916919091179092550460ff1661388961296e565b151561389457600080fd5b611c8f82613e9a565b600160a060020a03811615156138b257600080fd5b61020454604051600160a060020a038084169216907f8be0079c531659141344cd1fd0a4f28419497f9722a3daafe3b4186f6b6457e090600090a36102048054600160a060020a031916600160a060020a0392909216919091179055565b81600160a060020a031661392382611706565b600160a060020a03161461393657600080fd5b600081815260676020526040902054600160a060020a031615610ec55760009081526067602052604090208054600160a060020a031916905550565b60008060006139818585613f44565b6000848152609d6020908152604080832054600160a060020a0389168452609c909252909120549093506139bc90600163ffffffff613fcd16565b600160a060020a0386166000908152609c60205260409020805491935090839081106139e457fe5b9060005260206000200154905080609c600087600160a060020a0316600160a060020a0316815260200190815260200160002084815481101515613a2457fe5b6000918252602080832090910192909255600160a060020a0387168152609c90915260409020805490613a5b906000198301614200565b506000938452609d6020526040808520859055908452909220555050565b6000613a858383613fe4565b50600160a060020a039091166000908152609c6020908152604080832080546001810182559084528284208101859055938352609d909152902055565b600160a060020a0382161515613ad757600080fd5b613ae18282613a79565b6040518190600160a060020a038416906000907fddf252ad1be2c89b69c2b068fc378daa952ba7f163c4a11628f55a4df523b3ef908290a45050565b60014360001901401690565b600082820161010c81111561207a5761010c9150612a34565b600160a060020a0381161515613b5757600080fd5b600160a060020a0316600090815260209190915260409020805460ff19169055565b600160a060020a0381161515613b8e57600080fd5b600160a060020a0316600090815260209190915260409020805460ff19166001179055565b6000903b1190565b60008054610100900460ff1680613bd55750613bd5612964565b80613be3575060005460ff16155b1515613c3b576040805160e560020a62461bcd02815260206004820152602e602482015260008051602061426f833981519152604482015260008051602061428f833981519152606482015290519081900360840190fd5b5060008054600161010061ff00198316811760ff1916919091179092550460ff16613c658261356e565b7f4600000000000000000000000000000000000000000000000000000000000000610238819055604080518082019091527f4d0000000000000000000000000000000000000000000000000000000000000081526020810191909152613cd090610239906002614224565b50600080549115156101000261ff001990921691909117905550565b60008054610100900460ff1680613d065750613d06612964565b80613d14575060005460ff16155b1515613d6c576040805160e560020a62461bcd02815260206004820152602e602482015260008051602061426f833981519152604482015260008051602061428f833981519152606482015290519081900360840190fd5b5060008054600161010061ff00198316811760ff1916919091179092550460ff1661190d7f01ffc9a70000000000000000000000000000000000000000000000000000000061299e565b60006129997f5b5e139f00000000000000000000000000000000000000000000000000000000610dc2565b60008054610100900460ff1680613dfb5750613dfb612964565b80613e09575060005460ff16155b1515613e61576040805160e560020a62461bcd02815260206004820152602e602482015260008051602061426f833981519152604482015260008051602061428f833981519152606482015290519081900360840190fd5b5060008054600161010061ff00198316811760ff1916919091179092550460ff16613e8b82611b8a565b1515611c8f57611c8f82613099565b60008054610100900460ff1680613eb45750613eb4612964565b80613ec2575060005460ff16155b1515613f1a576040805160e560020a62461bcd02815260206004820152602e602482015260008051602061426f833981519152604482015260008051602061428f833981519152606482015290519081900360840190fd5b5060008054600161010061ff00198316811760ff1916919091179092550460ff16611c8f82614068565b81600160a060020a0316613f5782611706565b600160a060020a031614613f6a57600080fd5b600160a060020a038216600090815260686020526040902054613f9490600163ffffffff613fcd16565b600160a060020a039092166000908152606860209081526040808320949094559181526066909152208054600160a060020a0319169055565b60008083831115613fdd57600080fd5b5050900390565b600081815260666020526040902054600160a060020a03161561400657600080fd5b60008181526066602090815260408083208054600160a060020a031916600160a060020a03871690811790915583526068909152902054614048906001614121565b600160a060020a0390921660009081526068602052604090209190915550565b60008054610100900460ff16806140825750614082612964565b80614090575060005460ff16155b15156140e8576040805160e560020a62461bcd02815260206004820152602e602482015260008051602061426f833981519152604482015260008051602061428f833981519152606482015290519081900360840190fd5b5060008054600161010061ff00198316811760ff1916919091179092550460ff1661411282611261565b1515611c8f57611c8f82613050565b60008282018381101561207a57600080fd5b828054600181600116156101000203166002900490600052602060002090601f016020900481019282601f1061417457805160ff19168380011785556141a1565b828001600101855582156141a1579182015b828111156141a1578251825591602001919060010190614186565b5061296a929150614254565b604080516101408101825260008082526020820181905291810182905260608082018390526080820183905260a0820183905260c082015260e08101829052610100810182905261012081019190915290565b815481835581811115610f2157600083815260209020610f21918101908301614254565b82600281019282156141a1579160200282015b828111156141a15782518255602090920191600190910190614237565b610e7591905b8082111561296a576000815560010161425a5600436f6e747261637420696e7374616e63652068617320616c7265616479206265656e20696e697469616c697a6564000000000000000000000000000000000000a165627a7a7230582067acd1a0dd5360edcf10cf1e944a621e05a179973bf31617ac191a750273b8f00029",
  "source": "pragma solidity ^0.4.24;\n\nimport \"openzeppelin-eth/contracts/ownership/Ownable.sol\";\nimport \"./Token.sol\";\nimport \"./SaleAuction.sol\";\nimport \"zos-lib/contracts/Initializable.sol\";\n\ncontract Auctions is Token {\n    SaleAuction nft;\n\n    event LogAuctionCreated(uint256 _auctionId);\n\n    function initialize(address _owner) public initializer {\n        Token.initialize(_owner);\n        Ownable.initialize(_owner);\n    }\n\n    function createAuction(uint256 _duration, uint256 _horseId, uint256 _minimum) public payable {\n        require(msg.sender == ownerOf(_horseId), \"notTokenOwner\");\n\n        safeTransferFrom(msg.sender, nft, _horseId); // New owner is the contract.\n\n        uint256 id = nft.createUserAuction.value(msg.value)(msg.sender, _duration, _horseId, _minimum);\n        emit LogAuctionCreated(id);\n    }\n\n    function setSaleAuctionAddress(address _nft) public onlyOwner() {\n        nft = SaleAuction(_nft);\n    }\n}\n",
  "sourcePath": "/Users/eswarasai/Sites/ZED/cryptofield-core/contracts/Auctions.sol",
  "compiler": {
    "name": "solc",
    "version": "0.4.24+commit.e67f0147.Emscripten.clang"
  },
  "schemaVersion": "3.0.6",
  "updatedAt": "2019-06-11T20:54:33.269Z",
  "devdoc": {
    "methods": {
      "balanceOf(address)": {
        "details": "Gets the balance of the specified address",
        "params": {
          "owner": "address to query the balance of"
        },
        "return": "uint256 representing the amount owned by the passed address"
      },
      "getApproved(uint256)": {
        "details": "Gets the approved address for a token ID, or zero if no address set Reverts if the token ID does not exist.",
        "params": {
          "tokenId": "uint256 ID of the token to query the approval of"
        },
        "return": "address currently approved for the given token ID"
      },
      "initialize()": {
        "details": "Constructor function"
      },
      "initialize(string,string)": {
        "details": "Constructor function"
      },
      "isApprovedForAll(address,address)": {
        "details": "Tells whether an operator is approved by a given owner",
        "params": {
          "operator": "operator address which you want to query the approval of",
          "owner": "owner address which you want to query the approval of"
        },
        "return": "bool whether the given operator is approved by the given owner"
      },
      "isOwner()": {
        "return": "true if `msg.sender` is the owner of the contract."
      },
      "mintWithTokenURI(address,uint256,string)": {
        "details": "Function to mint tokens",
        "params": {
          "to": "The address that will receive the minted tokens.",
          "tokenId": "The token id to mint.",
          "tokenURI": "The token URI of the minted token."
        },
        "return": "A boolean that indicates if the operation was successful."
      },
      "name()": {
        "details": "Gets the token name",
        "return": "string representing the token name"
      },
      "owner()": {
        "return": "the address of the owner."
      },
      "ownerOf(uint256)": {
        "details": "Gets the owner of the specified token ID",
        "params": {
          "tokenId": "uint256 ID of the token to query the owner of"
        },
        "return": "owner address currently marked as the owner of the given token ID"
      },
      "pause()": {
        "details": "called by the owner to pause, triggers stopped state"
      },
      "paused()": {
        "return": "true if the contract is paused, false otherwise."
      },
      "renounceOwnership()": {
        "details": "Allows the current owner to relinquish control of the contract."
      },
      "safeTransferFrom(address,address,uint256)": {
        "details": "Safely transfers the ownership of a given token ID to another address If the target address is a contract, it must implement `onERC721Received`, which is called upon a safe transfer, and return the magic value `bytes4(keccak256(\"onERC721Received(address,address,uint256,bytes)\"))`; otherwise, the transfer is reverted.   * Requires the msg sender to be the owner, approved, or operator",
        "params": {
          "from": "current owner of the token",
          "to": "address to receive the ownership of the given token ID",
          "tokenId": "uint256 ID of the token to be transferred"
        }
      },
      "safeTransferFrom(address,address,uint256,bytes)": {
        "details": "Safely transfers the ownership of a given token ID to another address If the target address is a contract, it must implement `onERC721Received`, which is called upon a safe transfer, and return the magic value `bytes4(keccak256(\"onERC721Received(address,address,uint256,bytes)\"))`; otherwise, the transfer is reverted. Requires the msg sender to be the owner, approved, or operator",
        "params": {
          "_data": "bytes data to send along with a safe transfer check",
          "from": "current owner of the token",
          "to": "address to receive the ownership of the given token ID",
          "tokenId": "uint256 ID of the token to be transferred"
        }
      },
      "supportsInterface(bytes4)": {
        "details": "implement supportsInterface(bytes4) using a lookup table"
      },
      "symbol()": {
        "details": "Gets the token symbol",
        "return": "string representing the token symbol"
      },
      "tokenByIndex(uint256)": {
        "details": "Gets the token ID at a given index of all the tokens in this contract Reverts if the index is greater or equal to the total number of tokens",
        "params": {
          "index": "uint256 representing the index to be accessed of the tokens list"
        },
        "return": "uint256 token ID at the given index of the tokens list"
      },
      "tokenOfOwnerByIndex(address,uint256)": {
        "details": "Gets the token ID at a given index of the tokens list of the requested owner",
        "params": {
          "index": "uint256 representing the index to be accessed of the requested tokens list",
          "owner": "address owning the tokens list to be accessed"
        },
        "return": "uint256 token ID at the given index of the tokens list owned by the requested address"
      },
      "tokenURI(uint256)": {
        "details": "Returns an URI for a given token ID Throws if the token ID does not exist. May return an empty string.",
        "params": {
          "tokenId": "uint256 ID of the token to query"
        }
      },
      "totalSupply()": {
        "details": "Gets the total amount of tokens stored by the contract",
        "return": "uint256 representing the total amount of tokens"
      },
      "transferOwnership(address)": {
        "details": "Allows the current owner to transfer control of the contract to a newOwner.",
        "params": {
          "newOwner": "The address to transfer ownership to."
        }
      },
      "unpause()": {
        "details": "called by the owner to unpause, returns to normal state"
      }
    }
  },
  "userdoc": {
    "methods": {
      "renounceOwnership()": {
        "notice": "Renouncing to ownership will leave the contract without an owner. It will not be possible to call the functions with the `onlyOwner` modifier anymore."
      }
    }
  }
}