{
  "contractName": "BreedTypes",
  "abi": [
    {
      "constant": false,
      "inputs": [
        {
          "name": "_breedTypes",
          "type": "address"
        }
      ],
      "name": "setBreedTypesAddress",
      "outputs": [],
      "payable": false,
      "stateMutability": "nonpayable",
      "type": "function"
    },
    {
      "constant": false,
      "inputs": [
        {
          "name": "_maleId",
          "type": "uint256"
        },
        {
          "name": "_femaleId",
          "type": "uint256"
        },
        {
          "name": "_hash",
          "type": "string"
        }
      ],
      "name": "mix",
      "outputs": [],
      "payable": true,
      "stateMutability": "payable",
      "type": "function"
    },
    {
      "constant": true,
      "inputs": [
        {
          "name": "_horseId",
          "type": "uint256"
        }
      ],
      "name": "getParents",
      "outputs": [
        {
          "name": "",
          "type": "uint256[2]"
        }
      ],
      "payable": false,
      "stateMutability": "view",
      "type": "function"
    },
    {
      "constant": true,
      "inputs": [
        {
          "name": "",
          "type": "uint256"
        }
      ],
      "name": "horseBreed",
      "outputs": [
        {
          "name": "",
          "type": "bytes32"
        }
      ],
      "payable": false,
      "stateMutability": "view",
      "type": "function"
    },
    {
      "constant": false,
      "inputs": [],
      "name": "renounceOwnership",
      "outputs": [],
      "payable": false,
      "stateMutability": "nonpayable",
      "type": "function"
    },
    {
      "constant": false,
      "inputs": [
        {
          "name": "_core",
          "type": "address"
        }
      ],
      "name": "setCore",
      "outputs": [],
      "payable": false,
      "stateMutability": "nonpayable",
      "type": "function"
    },
    {
      "constant": true,
      "inputs": [],
      "name": "owner",
      "outputs": [
        {
          "name": "",
          "type": "address"
        }
      ],
      "payable": false,
      "stateMutability": "view",
      "type": "function"
    },
    {
      "constant": true,
      "inputs": [
        {
          "name": "_male",
          "type": "uint256"
        },
        {
          "name": "_female",
          "type": "uint256"
        }
      ],
      "name": "areHorsesRelated",
      "outputs": [
        {
          "name": "",
          "type": "bool"
        },
        {
          "name": "",
          "type": "string"
        }
      ],
      "payable": false,
      "stateMutability": "view",
      "type": "function"
    },
    {
      "constant": true,
      "inputs": [],
      "name": "isOwner",
      "outputs": [
        {
          "name": "",
          "type": "bool"
        }
      ],
      "payable": false,
      "stateMutability": "view",
      "type": "function"
    },
    {
      "constant": true,
      "inputs": [
        {
          "name": "_id",
          "type": "uint256"
        }
      ],
      "name": "breedingData",
      "outputs": [
        {
          "name": "",
          "type": "uint256[2]"
        },
        {
          "name": "",
          "type": "uint256[]"
        },
        {
          "name": "",
          "type": "uint256"
        },
        {
          "name": "",
          "type": "uint256"
        }
      ],
      "payable": false,
      "stateMutability": "view",
      "type": "function"
    },
    {
      "constant": true,
      "inputs": [
        {
          "name": "_horseId",
          "type": "uint256"
        },
        {
          "name": "_grandparentId",
          "type": "uint256"
        }
      ],
      "name": "isGrandparent",
      "outputs": [
        {
          "name": "",
          "type": "bool"
        }
      ],
      "payable": false,
      "stateMutability": "view",
      "type": "function"
    },
    {
      "constant": true,
      "inputs": [
        {
          "name": "_horseId",
          "type": "uint256"
        }
      ],
      "name": "getHorseOffspringStats",
      "outputs": [
        {
          "name": "",
          "type": "uint256"
        },
        {
          "name": "",
          "type": "uint256"
        }
      ],
      "payable": false,
      "stateMutability": "view",
      "type": "function"
    },
    {
      "constant": true,
      "inputs": [
        {
          "name": "",
          "type": "bytes32"
        }
      ],
      "name": "breedTypeMatrix",
      "outputs": [
        {
          "name": "",
          "type": "bytes32"
        }
      ],
      "payable": false,
      "stateMutability": "view",
      "type": "function"
    },
    {
      "constant": false,
      "inputs": [
        {
          "name": "newOwner",
          "type": "address"
        }
      ],
      "name": "transferOwnership",
      "outputs": [],
      "payable": false,
      "stateMutability": "nonpayable",
      "type": "function"
    },
    {
      "anonymous": false,
      "inputs": [
        {
          "indexed": false,
          "name": "_breed",
          "type": "bytes32"
        },
        {
          "indexed": false,
          "name": "_horseId",
          "type": "uint256"
        }
      ],
      "name": "BreedType",
      "type": "event"
    },
    {
      "anonymous": false,
      "inputs": [
        {
          "indexed": false,
          "name": "_father",
          "type": "uint256"
        },
        {
          "indexed": false,
          "name": "_mother",
          "type": "uint256"
        },
        {
          "indexed": false,
          "name": "_offspring",
          "type": "uint256"
        }
      ],
      "name": "OffspringCreated",
      "type": "event"
    },
    {
      "anonymous": false,
      "inputs": [
        {
          "indexed": false,
          "name": "_studOwner",
          "type": "uint256"
        },
        {
          "indexed": false,
          "name": "_racesPool",
          "type": "uint256"
        },
        {
          "indexed": false,
          "name": "_zed",
          "type": "uint256"
        }
      ],
      "name": "BreedingFunds",
      "type": "event"
    },
    {
      "anonymous": false,
      "inputs": [
        {
          "indexed": true,
          "name": "previousOwner",
          "type": "address"
        }
      ],
      "name": "OwnershipRenounced",
      "type": "event"
    },
    {
      "anonymous": false,
      "inputs": [
        {
          "indexed": true,
          "name": "previousOwner",
          "type": "address"
        },
        {
          "indexed": true,
          "name": "newOwner",
          "type": "address"
        }
      ],
      "name": "OwnershipTransferred",
      "type": "event"
    },
    {
      "constant": false,
      "inputs": [
        {
          "name": "_owner",
          "type": "address"
        }
      ],
      "name": "initialize",
      "outputs": [],
      "payable": false,
      "stateMutability": "nonpayable",
      "type": "function"
    },
    {
      "constant": false,
      "inputs": [
        {
          "name": "_owner",
          "type": "address"
        },
        {
          "name": "_core",
          "type": "address"
        },
        {
          "name": "_studService",
          "type": "address"
        },
        {
          "name": "_poolAddress",
          "type": "address"
        }
      ],
      "name": "initialize",
      "outputs": [],
      "payable": false,
      "stateMutability": "nonpayable",
      "type": "function"
    },
    {
      "constant": true,
      "inputs": [
        {
          "name": "_id",
          "type": "uint256"
        }
      ],
      "name": "getBreedType",
      "outputs": [
        {
          "name": "",
          "type": "bytes32"
        }
      ],
      "payable": false,
      "stateMutability": "view",
      "type": "function"
    },
    {
      "constant": false,
      "inputs": [
        {
          "name": "_id",
          "type": "uint256"
        },
        {
          "name": "_father",
          "type": "uint256"
        },
        {
          "name": "_mother",
          "type": "uint256"
        }
      ],
      "name": "generateBreedType",
      "outputs": [],
      "payable": false,
      "stateMutability": "nonpayable",
      "type": "function"
    },
    {
      "constant": false,
      "inputs": [],
      "name": "populateMatrix",
      "outputs": [],
      "payable": false,
      "stateMutability": "nonpayable",
      "type": "function"
    },
    {
      "constant": false,
      "inputs": [
        {
          "name": "_breeding",
          "type": "address"
        }
      ],
      "name": "setBreedingAddress",
      "outputs": [],
      "payable": false,
      "stateMutability": "nonpayable",
      "type": "function"
    }
  ],
  "bytecode": "0x608060405234801561001057600080fd5b50613d8d806100206000396000f3006080604052600436106100f85763ffffffff60e060020a600035041663116e5a3881146100fd5780631516c79114610120578063242a00871461013b5780635ff62a9d1461018e5780636817b14a146101b8578063715018a6146101d057806380009630146101e55780638da5cb5b146102065780638dfa528b146102375780638f32d59b146102d55780639fdc2141146102fe578063b5525a2b1461031c578063c4d66de8146103c2578063d246e67f146103e3578063e33fcf07146103fe578063e635c5c31461041f578063f07df8c814610434578063f16479f014610465578063f2fde38b1461047d578063f8c8765e1461049e575b600080fd5b34801561010957600080fd5b5061011e600160a060020a03600435166104d1565b005b61011e60048035906024803591604435918201910135610506565b34801561014757600080fd5b506101536004356112ff565b6040518082600260200280838360005b8381101561017b578181015183820152602001610163565b5050505090500191505060405180910390f35b34801561019a57600080fd5b506101a6600435611346565b60408051918252519081900360200190f35b3480156101c457600080fd5b506101a6600435611358565b3480156101dc57600080fd5b5061011e61136a565b3480156101f157600080fd5b5061011e600160a060020a03600435166113c7565b34801561021257600080fd5b5061021b6113fc565b60408051600160a060020a039092168252519081900360200190f35b34801561024357600080fd5b5061025260043560243561140c565b604051808315151515815260200180602001828103825283818151815260200191508051906020019080838360005b83811015610299578181015183820152602001610281565b50505050905090810190601f1680156102c65780820380516001836020036101000a031916815260200191505b50935050505060405180910390f35b3480156102e157600080fd5b506102ea611674565b604080519115158252519081900360200190f35b34801561030a57600080fd5b5061011e600435602435604435611685565b34801561032857600080fd5b506103346004356117eb565b6040518085600260200280838360005b8381101561035c578181015183820152602001610344565b5050505090500180602001848152602001838152602001828103825285818151815260200191508051906020019060200280838360005b838110156103ab578181015183820152602001610393565b505050509050019550505050505060405180910390f35b3480156103ce57600080fd5b5061011e600160a060020a03600435166118d8565b3480156103ef57600080fd5b506102ea6004356024356119c1565b34801561040a57600080fd5b5061011e600160a060020a03600435166119e8565b34801561042b57600080fd5b5061011e611a1d565b34801561044057600080fd5b5061044c600435612f7f565b6040805192835260208301919091528051918290030190f35b34801561047157600080fd5b506101a6600435613051565b34801561048957600080fd5b5061011e600160a060020a0360043516613063565b3480156104aa57600080fd5b5061011e600160a060020a0360043581169060243581169060443581169060643516613082565b6104d9611674565b15156104e457600080fd5b60698054600160a060020a031916600160a060020a0392909216919091179055565b6000806000806000806000606860009054906101000a9004600160a060020a0316600160a060020a0316634f558e798c6040518263ffffffff1660e060020a02815260040180828152602001915050602060405180830381600087803b15801561056f57600080fd5b505af1158015610583573d6000803e3d6000fd5b505050506040513d602081101561059957600080fd5b505180156106365750606854604080517f4f558e79000000000000000000000000000000000000000000000000000000008152600481018d90529051600160a060020a0390921691634f558e79916024808201926020929091908290030181600087803b15801561060957600080fd5b505af115801561061d573d6000803e3d6000fd5b505050506040513d602081101561063357600080fd5b50515b151561068c576040805160e560020a62461bcd02815260206004820152601260248201527f425220686f72736573446f6e7445786973740000000000000000000000000000604482015290519081900360640190fd5b606854604080517f76fe8228000000000000000000000000000000000000000000000000000000008152600481018e90529051600160a060020a03909216916376fe8228916024808201926020929091908290030181600087803b1580156106f357600080fd5b505af1158015610707573d6000803e3d6000fd5b505050506040513d602081101561071d57600080fd5b50517f4d00000000000000000000000000000000000000000000000000000000000000146107bb576040805160e560020a62461bcd02815260206004820152602260248201527f42522065787065637465644d616c65486f727365526563656976656446656d6160448201527f6c65000000000000000000000000000000000000000000000000000000000000606482015290519081900360840190fd5b606854604080517f76fe8228000000000000000000000000000000000000000000000000000000008152600481018d90529051600160a060020a03909216916376fe8228916024808201926020929091908290030181600087803b15801561082257600080fd5b505af1158015610836573d6000803e3d6000fd5b505050506040513d602081101561084c57600080fd5b50517f4600000000000000000000000000000000000000000000000000000000000000146108ea576040805160e560020a62461bcd02815260206004820152602260248201527f425220657870656374656446656d616c65486f72736552656365697665644d6160448201527f6c65000000000000000000000000000000000000000000000000000000000000606482015290519081900360840190fd5b606a54604080517f2eb1482a000000000000000000000000000000000000000000000000000000008152600481018e90529051600160a060020a0390921691632eb1482a916024808201926020929091908290030181600087803b15801561095157600080fd5b505af1158015610965573d6000803e3d6000fd5b505050506040513d602081101561097b57600080fd5b505115156109d3576040805160e560020a62461bcd02815260206004820152601060248201527f4252206d616c654e6f74496e5374756400000000000000000000000000000000604482015290519081900360640190fd5b606854604080517f6352211e000000000000000000000000000000000000000000000000000000008152600481018d90529051600160a060020a0390921691636352211e916024808201926020929091908290030181600087803b158015610a3a57600080fd5b505af1158015610a4e573d6000803e3d6000fd5b505050506040513d6020811015610a6457600080fd5b5051965033600160a060020a03881614610ac8576040805160e560020a62461bcd02815260206004820152601b60248201527f425220696e76616c69645472616e73616374696f6e53656e6465720000000000604482015290519081900360640190fd5b606854604080517f6352211e000000000000000000000000000000000000000000000000000000008152600481018e90529051600160a060020a0390921691636352211e916024808201926020929091908290030181600087803b158015610b2f57600080fd5b505af1158015610b43573d6000803e3d6000fd5b505050506040513d6020811015610b5957600080fd5b5051606a54604080517f0b549884000000000000000000000000000000000000000000000000000000008152600481018f90529051929850600160a060020a0390911691630b549884916024808201926020929091908290030181600087803b158015610bc557600080fd5b505af1158015610bd9573d6000803e3d6000fd5b505050506040513d6020811015610bef57600080fd5b50519450600160a060020a038681169088161415610c9557610c39610c2c6064610c2088602363ffffffff61328d16565b9063ffffffff6132c616565b869063ffffffff6132e916565b341015610c90576040805160e560020a62461bcd02815260206004820152601460248201527f4252206d6174696e6750726963654e6f744d6574000000000000000000000000604482015290519081900360640190fd5b610ced565b34851115610ced576040805160e560020a62461bcd02815260206004820152601460248201527f4252206d6174696e6750726963654e6f744d6574000000000000000000000000604482015290519081900360640190fd5b60008b8152606b60205260408082208c835291819020815160c08101909252919550909350610e5b908581608081018260028282826020028201915b815481526020019060010190808311610d29575050505050815260200160028201805480602002602001604051908101604052809291908181526020018280548015610d9457602002820191906000526020600020905b815481526020019060010190808311610d80575b505050918352505060038201546020820152600490910154604091820152805160c081019091528581608081018260028282826020028201915b815481526020019060010190808311610dce575050505050815260200160028201805480602002602001604051908101604052809291908181526020018280548015610e3957602002820191906000526020600020905b815481526020019060010190808311610e25575b5050505050815260200160038201548152602001600482015481525050613300565b1515610eb1576040805160e560020a62461bcd02815260206004820152601460248201527f425220686f7273657341726542726f7468657273000000000000000000000000604482015290519081900360640190fd5b610ebb8b8b613488565b1515610f11576040805160e560020a62461bcd02815260206004820152601b60248201527f425220686f727365734172654469726563746c7952656c617465640000000000604482015290519081900360640190fd5b610f1b8b8b6134e5565b1515610f71576040805160e560020a62461bcd02815260206004820152601460248201527f425220686f72736549734772616e646368696c64000000000000000000000000604482015290519081900360640190fd5b6001846004016000828254019250508190555060018360040160008282540192505081905550606860009054906101000a9004600160a060020a0316600160a060020a03166357a15c4f888b8b8f8f6040518663ffffffff1660e060020a0281526004018086600160a060020a0316600160a060020a0316815260200180602001848152602001838152602001828103825286868281815260200192508082843782019150509650505050505050602060405180830381600087803b15801561103957600080fd5b505af115801561104d573d6000803e3d6000fd5b505050506040513d602081101561106357600080fd5b810190808051906020019092919050505091506001606c60008d8152602001908152602001600020600084815260200190815260200160002060006101000a81548160ff0219169083151502179055506001606c60008c8152602001908152602001600020600084815260200190815260200160002060006101000a81548160ff021916908315150217905550606b6000838152602001908152602001600020905060408051908101604052808c81526020018b8152508160000190600261112c929190613cc3565b506002848101805460018082018355600092835260208084209092018690559286018054808501825590835281832001859055865482526005840190526040808220805460ff1990811685179091558388015483528183208054821685179055865483528183208054821685179055868401548352912080549091169091179055606854600160a060020a0316633bdf2c0c836111c98e8e61354a565b6040518363ffffffff1660e060020a0281526004018083815260200182815260200192505050600060405180830381600087803b15801561120957600080fd5b505af115801561121d573d6000803e3d6000fd5b50505050606960009054906101000a9004600160a060020a0316600160a060020a0316639fdc2141838d8d6040518463ffffffff1660e060020a028152600401808481526020018381526020018281526020019350505050600060405180830381600087803b15801561128f57600080fd5b505af11580156112a3573d6000803e3d6000fd5b505050506112b286888d6136be565b604080518c8152602081018c905280820184905290517fe33c5d7fb8b7fa8b5fd81ccf2c8267d67290de8a4f6be9a8a6ee8195ef8eb2319181900360600190a15050505050505050505050565b611307613cfd565b6000828152606b6020526040908190208151808301928390529160029082845b8154815260200190600101908083116113275750505050509050919050565b6000908152606f602052604090205490565b606f6020526000908152604090205481565b611372611674565b151561137d57600080fd5b603354604051600160a060020a03909116907ff8df31144d9c2f0f6b59d69b8b98abd5459d07f2742c4df920b25aae33c6482090600090a260338054600160a060020a0319169055565b6113cf611674565b15156113da57600080fd5b60688054600160a060020a031916600160a060020a0392909216919091179055565b603354600160a060020a03165b90565b6000828152606b6020526040808220838352818320825160c08101909352606092611573908381608081018260028282826020028201915b8154815260200190600101908083116114445750505050508152602001600282018054806020026020016040519081016040528092919081815260200182805480156114af57602002820191906000526020600020905b81548152602001906001019080831161149b575b505050918352505060038201546020820152600490910154604091820152805160c08101909152838160808101826002828282602002820191815481526020019060010190808311610dce575050505050815260200160028201805480602002602001604051908101604052809291908181526020018280548015610e395760200282019190600052602060002090815481526020019060010190808311610e25575050505050815260200160038201548152602001600482015481525050613300565b15156115b85760408051808201909152600881527f62726f7468657273000000000000000000000000000000000000000000000000602082015260019450925061166b565b6115c28686613488565b15156116075760408051808201909152600781527f706172656e747300000000000000000000000000000000000000000000000000602082015260019450925061166b565b61161186866134e5565b15156116565760408051808201909152600c81527f6772616e64706172656e74730000000000000000000000000000000000000000602082015260019450925061166b565b60408051602081019091526000808252945092505b50509250929050565b603354600160a060020a0316331490565b607154600090819081908190600160a060020a031633146116f0576040805160e560020a62461bcd02815260206004820152600f60248201527f425420756e617574686f72697a65640000000000000000000000000000000000604482015290519081900360640190fd5b6000868152606f60209081526040808320548884529281902054815180840185905280830182905282518082038401815260609091019283905280519498509096509290918291908401908083835b6020831061175e5780518252601f19909201916020918201910161173f565b51815160001960209485036101000a0190811690199190911617905260408051949092018490038420600081815260708352839020548086529185018e905282519098509096507f6c67dda30ab8d656c57e07af5b00821987f144b7b7a61127dd66badea7c7ef5a95509283900301925050a16000968752606f6020526040909620959095555050505050565b6117f3613cfd565b6060600080611800613d18565b6000868152606b602052604090819020815160c0810190925281608081018260028282826020028201915b81548152602001906001019080831161182b57505050505081526020016002820180548060200260200160405190810160405280929190818152602001828054801561189657602002820191906000526020600020905b815481526020019060010190808311611882575b50505091835250506003820154602080830191909152600490920154604091820152825191830151908301516060909301519199909850919650945092505050565b60008054610100900460ff16806118f257506118f2613a16565b80611900575060005460ff16155b151561197c576040805160e560020a62461bcd02815260206004820152602e60248201527f436f6e747261637420696e7374616e63652068617320616c726561647920626560448201527f656e20696e697469616c697a6564000000000000000000000000000000000000606482015290519081900360840190fd5b5060008054600161010061ff00198316811760ff1916919091179092550460ff166119a682613a20565b600080549115156101000261ff001990921691909117905550565b6000828152606b6020908152604080832084845260050190915290205460ff165b92915050565b6119f0611674565b15156119fb57600080fd5b60718054600160a060020a031916600160a060020a0392909216919091179055565b600080600080600080611a2e611674565b1515611a3957600080fd5b5050604080516000602080830182905282840182905283518084038501815260609093019384905282519197507f6c6567656e64617279000000000000000000000000000000000000000000000096507f6578636c7573697665000000000000000000000000000000000000000000000095507f656c69746500000000000000000000000000000000000000000000000000000094507f63726f7373000000000000000000000000000000000000000000000000000000937f70616365720000000000000000000000000000000000000000000000000000009388936070938b939182918401908083835b60208310611b435780518252601f199092019160209182019101611b24565b51815160209384036101000a6000190180199092169116179052604080519290940182900390912086528581019690965250928301600090812095909555505080518083018a90528082018990528151808203830181526060909101918290528051889460709490939182918401908083835b60208310611bd55780518252601f199092019160209182019101611bb6565b51815160209384036101000a6000190180199092169116179052604080519290940182900390912086528581019690965250928301600090812095909555505080518083018a90528082018890528151808203830181526060909101918290528051889460709490939182918401908083835b60208310611c675780518252601f199092019160209182019101611c48565b51815160209384036101000a6000190180199092169116179052604080519290940182900390912086528581019690965250928301600090812095909555505080518083018a90528082018790528151808203830181526060909101918290528051879460709490939182918401908083835b60208310611cf95780518252601f199092019160209182019101611cda565b51815160209384036101000a6000190180199092169116179052604080519290940182900390912086528581019690965250928301600090812095909555505080518083018a90528082018690528151808203830181526060909101918290528051869460709490939182918401908083835b60208310611d8b5780518252601f199092019160209182019101611d6c565b51815160209384036101000a6000190180199092169116179052604080519290940182900390912086528581019690965250928301600090812095909555505080518083018a90528082018590528151808203830181526060909101918290528051859460709490939182918401908083835b60208310611e1d5780518252601f199092019160209182019101611dfe565b51815160209384036101000a6000190180199092169116179052604080519290940182900390912086528581019690965250928301600090812095909555505080518083018990528082018a90528151808203830181526060909101918290528051889460709490939182918401908083835b60208310611eaf5780518252601f199092019160209182019101611e90565b51815160209384036101000a6000190180199092169116179052604080519290940182900390912086528581019690965250928301600090812095909555505080518083018990528082018990528151808203830181526060909101918290528051889460709490939182918401908083835b60208310611f415780518252601f199092019160209182019101611f22565b51815160209384036101000a6000190180199092169116179052604080519290940182900390912086528581019690965250928301600090812095909555505080518083018990528082018890528151808203830181526060909101918290528051879460709490939182918401908083835b60208310611fd35780518252601f199092019160209182019101611fb4565b51815160209384036101000a6000190180199092169116179052604080519290940182900390912086528581019690965250928301600090812095909555505080518083018990528082018790528151808203830181526060909101918290528051869460709490939182918401908083835b602083106120655780518252601f199092019160209182019101612046565b51815160209384036101000a6000190180199092169116179052604080519290940182900390912086528581019690965250928301600090812095909555505080518083018990528082018690528151808203830181526060909101918290528051869460709490939182918401908083835b602083106120f75780518252601f1990920191602091820191016120d8565b51815160209384036101000a6000190180199092169116179052604080519290940182900390912086528581019690965250928301600090812095909555505080518083018990528082018590528151808203830181526060909101918290528051859460709490939182918401908083835b602083106121895780518252601f19909201916020918201910161216a565b51815160209384036101000a6000190180199092169116179052604080519290940182900390912086528581019690965250928301600090812095909555505080518083018890528082018a90528151808203830181526060909101918290528051879460709490939182918401908083835b6020831061221b5780518252601f1990920191602091820191016121fc565b51815160209384036101000a6000190180199092169116179052604080519290940182900390912086528581019690965250928301600090812095909555505080518083018890528082018990528151808203830181526060909101918290528051879460709490939182918401908083835b602083106122ad5780518252601f19909201916020918201910161228e565b51815160209384036101000a6000190180199092169116179052604080519290940182900390912086528581019690965250928301600090812095909555505080518083018890528082018890528151808203830181526060909101918290528051879460709490939182918401908083835b6020831061233f5780518252601f199092019160209182019101612320565b51815160209384036101000a6000190180199092169116179052604080519290940182900390912086528581019690965250928301600090812095909555505080518083018890528082018790528151808203830181526060909101918290528051869460709490939182918401908083835b602083106123d15780518252601f1990920191602091820191016123b2565b51815160209384036101000a6000190180199092169116179052604080519290940182900390912086528581019690965250928301600090812095909555505080518083018890528082018690528151808203830181526060909101918290528051869460709490939182918401908083835b602083106124635780518252601f199092019160209182019101612444565b51815160209384036101000a6000190180199092169116179052604080519290940182900390912086528581019690965250928301600090812095909555505080518083018890528082018590528151808203830181526060909101918290528051859460709490939182918401908083835b602083106124f55780518252601f1990920191602091820191016124d6565b51815160209384036101000a6000190180199092169116179052604080519290940182900390912086528581019690965250928301600090812095909555505080518083018790528082018a90528151808203830181526060909101918290528051869460709490939182918401908083835b602083106125875780518252601f199092019160209182019101612568565b51815160209384036101000a6000190180199092169116179052604080519290940182900390912086528581019690965250928301600090812095909555505080518083018790528082018990528151808203830181526060909101918290528051869460709490939182918401908083835b602083106126195780518252601f1990920191602091820191016125fa565b51815160209384036101000a6000190180199092169116179052604080519290940182900390912086528581019690965250928301600090812095909555505080518083018790528082018890528151808203830181526060909101918290528051869460709490939182918401908083835b602083106126ab5780518252601f19909201916020918201910161268c565b51815160209384036101000a6000190180199092169116179052604080519290940182900390912086528581019690965250928301600090812095909555505080518083018790528082018790528151808203830181526060909101918290528051869460709490939182918401908083835b6020831061273d5780518252601f19909201916020918201910161271e565b51815160209384036101000a6000190180199092169116179052604080519290940182900390912086528581019690965250928301600090812095909555505080518083018790528082018690528151808203830181526060909101918290528051869460709490939182918401908083835b602083106127cf5780518252601f1990920191602091820191016127b0565b51815160209384036101000a6000190180199092169116179052604080519290940182900390912086528581019690965250928301600090812095909555505080518083018790528082018590528151808203830181526060909101918290528051859460709490939182918401908083835b602083106128615780518252601f199092019160209182019101612842565b51815160209384036101000a6000190180199092169116179052604080519290940182900390912086528581019690965250928301600090812095909555505080518083018690528082018a90528151808203830181526060909101918290528051869460709490939182918401908083835b602083106128f35780518252601f1990920191602091820191016128d4565b51815160209384036101000a6000190180199092169116179052604080519290940182900390912086528581019690965250928301600090812095909555505080518083018690528082018990528151808203830181526060909101918290528051869460709490939182918401908083835b602083106129855780518252601f199092019160209182019101612966565b51815160209384036101000a6000190180199092169116179052604080519290940182900390912086528581019690965250928301600090812095909555505080518083018690528082018890528151808203830181526060909101918290528051869460709490939182918401908083835b60208310612a175780518252601f1990920191602091820191016129f8565b51815160209384036101000a6000190180199092169116179052604080519290940182900390912086528581019690965250928301600090812095909555505080518083018690528082018790528151808203830181526060909101918290528051869460709490939182918401908083835b60208310612aa95780518252601f199092019160209182019101612a8a565b51815160209384036101000a6000190180199092169116179052604080519290940182900390912086528581019690965250928301600090812095909555505080518083018690528082018690528151808203830181526060909101918290528051859460709490939182918401908083835b60208310612b3b5780518252601f199092019160209182019101612b1c565b51815160209384036101000a6000190180199092169116179052604080519290940182900390912086528581019690965250928301600090812095909555505080518083018690528082018590528151808203830181526060909101918290528051859460709490939182918401908083835b60208310612bcd5780518252601f199092019160209182019101612bae565b51815160209384036101000a6000190180199092169116179052604080519290940182900390912086528581019690965250928301600090812095909555505080518083018590528082018a90528151808203830181526060909101918290528051859460709490939182918401908083835b60208310612c5f5780518252601f199092019160209182019101612c40565b51815160209384036101000a6000190180199092169116179052604080519290940182900390912086528581019690965250928301600090812095909555505080518083018590528082018990528151808203830181526060909101918290528051859460709490939182918401908083835b60208310612cf15780518252601f199092019160209182019101612cd2565b51815160209384036101000a6000190180199092169116179052604080519290940182900390912086528581019690965250928301600090812095909555505080518083018590528082018890528151808203830181526060909101918290528051859460709490939182918401908083835b60208310612d835780518252601f199092019160209182019101612d64565b51815160209384036101000a6000190180199092169116179052604080519290940182900390912086528581019690965250928301600090812095909555505080518083018590528082018790528151808203830181526060909101918290528051859460709490939182918401908083835b60208310612e155780518252601f199092019160209182019101612df6565b51815160209384036101000a6000190180199092169116179052604080519290940182900390912086528581019690965250928301600090812095909555505080518083018590528082018690528151808203830181526060909101918290528051859460709490939182918401908083835b60208310612ea75780518252601f199092019160209182019101612e88565b51815160209384036101000a6000190180199092169116179052604080519290940182900390912086528581019690965250928301600090812095909555505080518083018590528082018590528151808203830181526060909101918290528051859460709490939182918401908083835b60208310612f395780518252601f199092019160209182019101612f1a565b51815160209384036101000a6000190180199092169116179052604080519290940182900390912086528501959095529290920160002093909355505050505050505050565b600080612f8a613d18565b6000848152606b602052604090819020815160c0810190925281608081018260028282826020028201915b815481526020019060010190808311612fb557505050505081526020016002820180548060200260200160405190810160405280929190818152602001828054801561302057602002820191906000526020600020905b81548152602001906001019080831161300c575b5050509183525050600382015460208201526004909101546040918201526060820151910151909590945092505050565b60706020526000908152604090205481565b61306b611674565b151561307657600080fd5b61307f81613b13565b50565b60008054610100900460ff168061309c575061309c613a16565b806130aa575060005460ff16155b1515613126576040805160e560020a62461bcd02815260206004820152602e60248201527f436f6e747261637420696e7374616e63652068617320616c726561647920626560448201527f656e20696e697469616c697a6564000000000000000000000000000000000000606482015290519081900360840190fd5b5060008054600161010061ff00198316811760ff1916919091179092550460ff1661315085613a20565b60688054600160a060020a0319908116600160a060020a0396871617909155606a8054821694861694909417909355606680549093169190931617905560187f89d91e9199e5ef2f4ebfb2c2d685a057fb5b0cc5d3b169a7148a22b30a6642cf55601e7f3bce9a0e21e655eb85ead52c832d988c5aa51e13541a6ada6511de2013c5c0725560247ff80bf9913bb0347ae5531da1bfdef7d7d10377c6abd72864f7d5f0141b89545455606e60205260387f81ed5545b0aefda211b1c3666afb28b8f7988be5f05ede80c83a7681232e96345560327f5c3c3877fb80836effdb986ad9b4df056e0e7c7182dc8a321999588a0b1b81c85562093a806000908152602c7f78155450c575d9b84cc792d5b1451c95873f2ca4d933ca4a0d76f00b2f8d28c355805461ff0019166101009215159290920291909117905550565b6000808315156132a057600091506132bf565b508282028284828115156132b057fe5b04146132bb57600080fd5b8091505b5092915050565b6000808083116132d557600080fd5b82848115156132e057fe5b04949350505050565b600080838311156132f957600080fd5b5050900390565b81515160009015806133155750825160200151155b15613322575060016119e2565b81515115806133345750815160200151155b15613341575060016119e2565b815160408051602001908190839080838360005b8381101561336d578181015183820152602001613355565b505050509050019150506040516020818303038152906040526040518082805190602001908083835b602083106133b55780518252601f199092019160209182019101613396565b51815160209384036101000a600019018019909216911617905260408051929094018290038220895190965094500191829150839080838360005b838110156134085781810151838201526020016133f0565b505050509050019150506040516020818303038152906040526040518082805190602001908083835b602083106134505780518252601f199092019160209182019101613431565b5181516020939093036101000a6000190180199091169216919091179052604051920182900390912093909314159695505050505050565b6000828152606c6020908152604080832084845290915281205460ff16156134b2575060006119e2565b6000828152606c6020908152604080832086845290915290205460ff16156134dc575060006119e2565b50600192915050565b6000828152606b60209081526040808320848452818420600582019093529083205490919060ff161561351b5760009250613542565b600085815260058201602052604090205460ff161561353d5760009250613542565b600192505b505092915050565b600080600080600061355e60226041613b84565b606854604080517f3ef5d325000000000000000000000000000000000000000000000000000000008152600481018b90529051929650600160a060020a0390911691633ef5d325916024808201926020929091908290030181600087803b1580156135c857600080fd5b505af11580156135dc573d6000803e3d6000fd5b505050506040513d60208110156135f257600080fd5b5051606854604080517f3ef5d325000000000000000000000000000000000000000000000000000000008152600481018a90529051929550600160a060020a0390911691633ef5d325916024808201926020929091908290030181600087803b15801561365e57600080fd5b505af1158015613672573d6000803e3d6000fd5b505050506040513d602081101561368857600080fd5b5051915061369c838363ffffffff613cb116565b90506136b36064610c20838763ffffffff61328d16565b979650505050505050565b600080600084600160a060020a031686600160a060020a031614156137ef57606654600160a060020a03166108fc6137026064610c2034603c63ffffffff61328d16565b6040518115909202916000818181858888f1935050505015801561372a573d6000803e3d6000fd5b506137336113fc565b600160a060020a03166108fc6137556064610c2034602863ffffffff61328d16565b6040518115909202916000818181858888f1935050505015801561377d573d6000803e3d6000fd5b507fbdc47d1eb36ed5c00b6f134eea61d90114c34618e1079df200b27d3047d9371460006137b76064610c2034603c63ffffffff61328d16565b6137cd6064610c2034602863ffffffff61328d16565b60408051938452602084019290925282820152519081900360600190a1613a0e565b606a54604080517f83542541000000000000000000000000000000000000000000000000000000008152600481018790529051600160a060020a03909216916383542541916024808201926020929091908290030181600087803b15801561385657600080fd5b505af115801561386a573d6000803e3d6000fd5b505050506040513d602081101561388057600080fd5b50516000818152606d6020908152604080832054606e9092529091205491945092509050600160a060020a0386166108fc6138c66064610c20348763ffffffff61328d16565b6040518115909202916000818181858888f193505050501580156138ee573d6000803e3d6000fd5b50606654600160a060020a03166108fc6139136064610c20348663ffffffff61328d16565b6040518115909202916000818181858888f1935050505015801561393b573d6000803e3d6000fd5b506139446113fc565b600160a060020a03166108fc6139666064610c2034601463ffffffff61328d16565b6040518115909202916000818181858888f1935050505015801561398e573d6000803e3d6000fd5b507fbdc47d1eb36ed5c00b6f134eea61d90114c34618e1079df200b27d3047d937146139c56064610c20348663ffffffff61328d16565b6139da6064610c20348663ffffffff61328d16565b6139f06064610c2034601463ffffffff61328d16565b60408051938452602084019290925282820152519081900360600190a15b505050505050565b303b8015905b5090565b60008054610100900460ff1680613a3a5750613a3a613a16565b80613a48575060005460ff16155b1515613ac4576040805160e560020a62461bcd02815260206004820152602e60248201527f436f6e747261637420696e7374616e63652068617320616c726561647920626560448201527f656e20696e697469616c697a6564000000000000000000000000000000000000606482015290519081900360840190fd5b506000805460338054600160a060020a031916600160a060020a03949094169390931790925561ff001980831661010090811760ff19166001179091169281900460ff16151502919091179055565b600160a060020a0381161515613b2857600080fd5b603354604051600160a060020a038084169216907f8be0079c531659141344cd1fd0a4f28419497f9722a3daafe3b4186f6b6457e090600090a360338054600160a060020a031916600160a060020a0392909216919091179055565b6067805460010190819055604080516020808201939093526c0100000000000000000000000033028183015260001943014060548083019190915282518083039091018152607490910191829052805160009384938493849390928291908401908083835b60208310613c085780518252601f199092019160209182019101613be9565b5181516020939093036101000a60001901801990911692169190911790526040519201829003909120955088925085915050811515613c4357fe5b0660010191508185039050600081111515613ca8576040805160e560020a62461bcd02815260206004820152601a60248201527f42522072616e646f6e4e756d6265724f75744f66426f756e6473000000000000604482015290519081900360640190fd5b95945050505050565b6000828201838110156132bb57600080fd5b8260028101928215613cf1579160200282015b82811115613cf1578251825591602001919060010190613cd6565b50613a1c929150613d47565b60408051808201825290600290829080388339509192915050565b60a060405190810160405280613d2c613cfd565b81526020016060815260200160008152602001600081525090565b61140991905b80821115613a1c5760008155600101613d4d5600a165627a7a723058203d9550202d3de70e0de037a00758785b70aeab94b166439675ec001c7eff86e30029",
  "source": "pragma solidity ^0.4.24;\n\nimport \"./Breeding.sol\";\nimport \"zos-lib/contracts/Initializable.sol\";\nimport \"openzeppelin-eth/contracts/ownership/Ownable.sol\";\n\n/*\n@description BreedTypes contract to introduce different breeds to horses. Genesis horses are defined by the default\nvalue since we can't update them all automatically once they're created at this point. bytes32(0) or \"0x0000...\" means\nthe horse is a 'genesis'\n*/\ncontract BreedTypes is Ownable, Breeding {\n    // Maps each horse ID to a breed type.\n    mapping(uint256 => bytes32) public horseBreed;\n\n    // Maps hash of parents breed type to another breed type\n    mapping(bytes32 => bytes32) public breedTypeMatrix;\n\n    Breeding breeding;\n\n    event BreedType(bytes32 _breed, uint256 _horseId);\n\n    function initialize(address _owner) public initializer {\n        Ownable.initialize(_owner);\n    }\n\n    function getBreedType(uint256 _id) public view returns(bytes32) {\n        return horseBreed[_id];\n    }\n\n    /*\n    @dev get breed type of a horse depending on parents.\n    */\n    function generateBreedType(\n        uint256 _id,\n        uint256 _father,\n        uint256 _mother\n    ) public {\n        require(msg.sender == address(breeding), \"BT unauthorized\");\n\n        // get hash from parent's types\n        bytes32 fatherType = horseBreed[_father];\n        bytes32 motherType = horseBreed[_mother];\n        bytes32 parentsHash = keccak256(abi.encodePacked(fatherType, motherType));\n        bytes32 typeFromHash = breedTypeMatrix[parentsHash];\n\n        emit BreedType(typeFromHash, _id);\n\n        horseBreed[_id] = typeFromHash;\n    }\n\n    /*      Restricted     */\n    function populateMatrix() public onlyOwner() {\n        // Horse Type Matrix\n        // Genesis - Legendary - Exclusive - Elite - Cross - Pacer\n        bytes32 genesis = bytes32(0);\n        bytes32 legendary = bytes32(\"legendary\");\n        bytes32 exclusive = bytes32(\"exclusive\");\n        bytes32 elite = bytes32(\"elite\");\n        bytes32 cross = bytes32(\"cross\");\n        bytes32 pacer = bytes32(\"pacer\");\n\n        // genesis\n        breedTypeMatrix[keccak256(abi.encodePacked(genesis, genesis))] = legendary;\n        breedTypeMatrix[keccak256(abi.encodePacked(genesis, legendary))] = exclusive;\n        breedTypeMatrix[keccak256(abi.encodePacked(genesis, exclusive))] = exclusive;\n        breedTypeMatrix[keccak256(abi.encodePacked(genesis, elite))] = elite;\n        breedTypeMatrix[keccak256(abi.encodePacked(genesis, cross))] = cross;\n        breedTypeMatrix[keccak256(abi.encodePacked(genesis, pacer))] = pacer;\n\n        // legendary\n        breedTypeMatrix[keccak256(abi.encodePacked(legendary, genesis))] = exclusive;\n        breedTypeMatrix[keccak256(abi.encodePacked(legendary, legendary))] = exclusive;\n        breedTypeMatrix[keccak256(abi.encodePacked(legendary, exclusive))] = elite;\n        breedTypeMatrix[keccak256(abi.encodePacked(legendary, elite))] = cross;\n        breedTypeMatrix[keccak256(abi.encodePacked(legendary, cross))] = cross;\n        breedTypeMatrix[keccak256(abi.encodePacked(legendary, pacer))] = pacer;\n\n        // exclusive\n        breedTypeMatrix[keccak256(abi.encodePacked(exclusive, genesis))] = elite;\n        breedTypeMatrix[keccak256(abi.encodePacked(exclusive, legendary))] = elite;\n        breedTypeMatrix[keccak256(abi.encodePacked(exclusive, exclusive))] = elite;\n        breedTypeMatrix[keccak256(abi.encodePacked(exclusive, elite))] = cross;\n        breedTypeMatrix[keccak256(abi.encodePacked(exclusive, cross))] = cross;\n        breedTypeMatrix[keccak256(abi.encodePacked(exclusive, pacer))] = pacer;\n\n        // elite\n        breedTypeMatrix[keccak256(abi.encodePacked(elite, genesis))] = cross;\n        breedTypeMatrix[keccak256(abi.encodePacked(elite, legendary))] = cross;\n        breedTypeMatrix[keccak256(abi.encodePacked(elite, exclusive))] = cross;\n        breedTypeMatrix[keccak256(abi.encodePacked(elite, elite))] = cross;\n        breedTypeMatrix[keccak256(abi.encodePacked(elite, cross))] = cross;\n        breedTypeMatrix[keccak256(abi.encodePacked(elite, pacer))] = pacer;\n\n        // cross\n        breedTypeMatrix[keccak256(abi.encodePacked(cross, genesis))] = cross;\n        breedTypeMatrix[keccak256(abi.encodePacked(cross, legendary))] = cross;\n        breedTypeMatrix[keccak256(abi.encodePacked(cross, exclusive))] = cross;\n        breedTypeMatrix[keccak256(abi.encodePacked(cross, elite))] = cross;\n        breedTypeMatrix[keccak256(abi.encodePacked(cross, cross))] = pacer;\n        breedTypeMatrix[keccak256(abi.encodePacked(cross, pacer))] = pacer;\n\n        // pacer\n        breedTypeMatrix[keccak256(abi.encodePacked(pacer, genesis))] = pacer;\n        breedTypeMatrix[keccak256(abi.encodePacked(pacer, legendary))] = pacer;\n        breedTypeMatrix[keccak256(abi.encodePacked(pacer, exclusive))] = pacer;\n        breedTypeMatrix[keccak256(abi.encodePacked(pacer, elite))] = pacer;\n        breedTypeMatrix[keccak256(abi.encodePacked(pacer, cross))] = pacer;\n        breedTypeMatrix[keccak256(abi.encodePacked(pacer, pacer))] = pacer;\n    }\n\n    function setBreedingAddress(address _breeding) public onlyOwner() {\n        breeding = Breeding(_breeding);\n    }\n}\n",
  "sourcePath": "/Users/eswarasai/Sites/ZED/cryptofield-core/contracts/BreedTypes.sol",
  "compiler": {
    "name": "solc",
    "version": "0.4.24+commit.e67f0147.Emscripten.clang"
  },
  "schemaVersion": "3.0.6",
  "updatedAt": "2019-06-11T20:54:33.270Z",
  "devdoc": {
    "methods": {
      "isOwner()": {
        "return": "true if `msg.sender` is the owner of the contract."
      },
      "owner()": {
        "return": "the address of the owner."
      },
      "renounceOwnership()": {
        "details": "Allows the current owner to relinquish control of the contract."
      },
      "transferOwnership(address)": {
        "details": "Allows the current owner to transfer control of the contract to a newOwner.",
        "params": {
          "newOwner": "The address to transfer ownership to."
        }
      }
    }
  },
  "userdoc": {
    "methods": {
      "renounceOwnership()": {
        "notice": "Renouncing to ownership will leave the contract without an owner. It will not be possible to call the functions with the `onlyOwner` modifier anymore."
      }
    }
  }
}