{
  "contractName": "Breeding",
  "abi": [
    {
      "constant": false,
      "inputs": [],
      "name": "renounceOwnership",
      "outputs": [],
      "payable": false,
      "stateMutability": "nonpayable",
      "type": "function"
    },
    {
      "constant": true,
      "inputs": [],
      "name": "owner",
      "outputs": [
        {
          "name": "",
          "type": "address"
        }
      ],
      "payable": false,
      "stateMutability": "view",
      "type": "function"
    },
    {
      "constant": true,
      "inputs": [],
      "name": "isOwner",
      "outputs": [
        {
          "name": "",
          "type": "bool"
        }
      ],
      "payable": false,
      "stateMutability": "view",
      "type": "function"
    },
    {
      "constant": false,
      "inputs": [
        {
          "name": "newOwner",
          "type": "address"
        }
      ],
      "name": "transferOwnership",
      "outputs": [],
      "payable": false,
      "stateMutability": "nonpayable",
      "type": "function"
    },
    {
      "anonymous": false,
      "inputs": [
        {
          "indexed": false,
          "name": "_father",
          "type": "uint256"
        },
        {
          "indexed": false,
          "name": "_mother",
          "type": "uint256"
        },
        {
          "indexed": false,
          "name": "_offspring",
          "type": "uint256"
        }
      ],
      "name": "OffspringCreated",
      "type": "event"
    },
    {
      "anonymous": false,
      "inputs": [
        {
          "indexed": false,
          "name": "_studOwner",
          "type": "uint256"
        },
        {
          "indexed": false,
          "name": "_racesPool",
          "type": "uint256"
        },
        {
          "indexed": false,
          "name": "_zed",
          "type": "uint256"
        }
      ],
      "name": "BreedingFunds",
      "type": "event"
    },
    {
      "anonymous": false,
      "inputs": [
        {
          "indexed": true,
          "name": "previousOwner",
          "type": "address"
        }
      ],
      "name": "OwnershipRenounced",
      "type": "event"
    },
    {
      "anonymous": false,
      "inputs": [
        {
          "indexed": true,
          "name": "previousOwner",
          "type": "address"
        },
        {
          "indexed": true,
          "name": "newOwner",
          "type": "address"
        }
      ],
      "name": "OwnershipTransferred",
      "type": "event"
    },
    {
      "constant": false,
      "inputs": [
        {
          "name": "sender",
          "type": "address"
        }
      ],
      "name": "initialize",
      "outputs": [],
      "payable": false,
      "stateMutability": "nonpayable",
      "type": "function"
    },
    {
      "constant": false,
      "inputs": [
        {
          "name": "_owner",
          "type": "address"
        },
        {
          "name": "_core",
          "type": "address"
        },
        {
          "name": "_studService",
          "type": "address"
        },
        {
          "name": "_poolAddress",
          "type": "address"
        }
      ],
      "name": "initialize",
      "outputs": [],
      "payable": false,
      "stateMutability": "nonpayable",
      "type": "function"
    },
    {
      "constant": false,
      "inputs": [
        {
          "name": "_maleId",
          "type": "uint256"
        },
        {
          "name": "_femaleId",
          "type": "uint256"
        },
        {
          "name": "_hash",
          "type": "string"
        }
      ],
      "name": "mix",
      "outputs": [],
      "payable": true,
      "stateMutability": "payable",
      "type": "function"
    },
    {
      "constant": true,
      "inputs": [
        {
          "name": "_male",
          "type": "uint256"
        },
        {
          "name": "_female",
          "type": "uint256"
        }
      ],
      "name": "areHorsesRelated",
      "outputs": [
        {
          "name": "",
          "type": "bool"
        },
        {
          "name": "",
          "type": "string"
        }
      ],
      "payable": false,
      "stateMutability": "view",
      "type": "function"
    },
    {
      "constant": true,
      "inputs": [
        {
          "name": "_id",
          "type": "uint256"
        }
      ],
      "name": "breedingData",
      "outputs": [
        {
          "name": "",
          "type": "uint256[2]"
        },
        {
          "name": "",
          "type": "uint256[]"
        },
        {
          "name": "",
          "type": "uint256"
        },
        {
          "name": "",
          "type": "uint256"
        }
      ],
      "payable": false,
      "stateMutability": "view",
      "type": "function"
    },
    {
      "constant": true,
      "inputs": [
        {
          "name": "_horseId",
          "type": "uint256"
        },
        {
          "name": "_grandparentId",
          "type": "uint256"
        }
      ],
      "name": "isGrandparent",
      "outputs": [
        {
          "name": "",
          "type": "bool"
        }
      ],
      "payable": false,
      "stateMutability": "view",
      "type": "function"
    },
    {
      "constant": true,
      "inputs": [
        {
          "name": "_horseId",
          "type": "uint256"
        }
      ],
      "name": "getHorseOffspringStats",
      "outputs": [
        {
          "name": "",
          "type": "uint256"
        },
        {
          "name": "",
          "type": "uint256"
        }
      ],
      "payable": false,
      "stateMutability": "view",
      "type": "function"
    },
    {
      "constant": true,
      "inputs": [
        {
          "name": "_horseId",
          "type": "uint256"
        }
      ],
      "name": "getParents",
      "outputs": [
        {
          "name": "",
          "type": "uint256[2]"
        }
      ],
      "payable": false,
      "stateMutability": "view",
      "type": "function"
    },
    {
      "constant": false,
      "inputs": [
        {
          "name": "_core",
          "type": "address"
        }
      ],
      "name": "setCore",
      "outputs": [],
      "payable": false,
      "stateMutability": "nonpayable",
      "type": "function"
    },
    {
      "constant": false,
      "inputs": [
        {
          "name": "_breedTypes",
          "type": "address"
        }
      ],
      "name": "setBreedTypesAddress",
      "outputs": [],
      "payable": false,
      "stateMutability": "nonpayable",
      "type": "function"
    }
  ],
  "bytecode": "0x608060405234801561001057600080fd5b506124cf806100206000396000f3006080604052600436106100b65763ffffffff60e060020a600035041663116e5a3881146100bb5780631516c791146100de578063242a0087146100f9578063715018a61461014c57806380009630146101615780638da5cb5b146101825780638dfa528b146101b35780638f32d59b14610251578063b5525a2b1461027a578063c4d66de814610320578063d246e67f14610341578063f07df8c81461035c578063f2fde38b1461038d578063f8c8765e146103ae575b600080fd5b3480156100c757600080fd5b506100dc600160a060020a03600435166103e1565b005b6100dc60048035906024803591604435918201910135610423565b34801561010557600080fd5b5061011160043561121c565b6040518082600260200280838360005b83811015610139578181015183820152602001610121565b5050505090500191505060405180910390f35b34801561015857600080fd5b506100dc611263565b34801561016d57600080fd5b506100dc600160a060020a03600435166112cd565b34801561018e57600080fd5b5061019761130f565b60408051600160a060020a039092168252519081900360200190f35b3480156101bf57600080fd5b506101ce60043560243561131f565b604051808315151515815260200180602001828103825283818151815260200191508051906020019080838360005b838110156102155781810151838201526020016101fd565b50505050905090810190601f1680156102425780820380516001836020036101000a031916815260200191505b50935050505060405180910390f35b34801561025d57600080fd5b50610266611587565b604080519115158252519081900360200190f35b34801561028657600080fd5b50610292600435611598565b6040518085600260200280838360005b838110156102ba5781810151838201526020016102a2565b5050505090500180602001848152602001838152602001828103825285818151815260200191508051906020019060200280838360005b838110156103095781810151838201526020016102f1565b505050509050019550505050505060405180910390f35b34801561032c57600080fd5b506100dc600160a060020a0360043516611685565b34801561034d57600080fd5b50610266600435602435611785565b34801561036857600080fd5b506103746004356117ac565b6040805192835260208301919091528051918290030190f35b34801561039957600080fd5b506100dc600160a060020a036004351661187e565b3480156103ba57600080fd5b506100dc600160a060020a036004358116906024358116906044358116906064351661189d565b6103e9611587565b15156103f457600080fd5b6069805473ffffffffffffffffffffffffffffffffffffffff1916600160a060020a0392909216919091179055565b6000806000806000806000606860009054906101000a9004600160a060020a0316600160a060020a0316634f558e798c6040518263ffffffff1660e060020a02815260040180828152602001915050602060405180830381600087803b15801561048c57600080fd5b505af11580156104a0573d6000803e3d6000fd5b505050506040513d60208110156104b657600080fd5b505180156105535750606854604080517f4f558e79000000000000000000000000000000000000000000000000000000008152600481018d90529051600160a060020a0390921691634f558e79916024808201926020929091908290030181600087803b15801561052657600080fd5b505af115801561053a573d6000803e3d6000fd5b505050506040513d602081101561055057600080fd5b50515b15156105a9576040805160e560020a62461bcd02815260206004820152601260248201527f425220686f72736573446f6e7445786973740000000000000000000000000000604482015290519081900360640190fd5b606854604080517f76fe8228000000000000000000000000000000000000000000000000000000008152600481018e90529051600160a060020a03909216916376fe8228916024808201926020929091908290030181600087803b15801561061057600080fd5b505af1158015610624573d6000803e3d6000fd5b505050506040513d602081101561063a57600080fd5b50517f4d00000000000000000000000000000000000000000000000000000000000000146106d8576040805160e560020a62461bcd02815260206004820152602260248201527f42522065787065637465644d616c65486f727365526563656976656446656d6160448201527f6c65000000000000000000000000000000000000000000000000000000000000606482015290519081900360840190fd5b606854604080517f76fe8228000000000000000000000000000000000000000000000000000000008152600481018d90529051600160a060020a03909216916376fe8228916024808201926020929091908290030181600087803b15801561073f57600080fd5b505af1158015610753573d6000803e3d6000fd5b505050506040513d602081101561076957600080fd5b50517f460000000000000000000000000000000000000000000000000000000000000014610807576040805160e560020a62461bcd02815260206004820152602260248201527f425220657870656374656446656d616c65486f72736552656365697665644d6160448201527f6c65000000000000000000000000000000000000000000000000000000000000606482015290519081900360840190fd5b606a54604080517f2eb1482a000000000000000000000000000000000000000000000000000000008152600481018e90529051600160a060020a0390921691632eb1482a916024808201926020929091908290030181600087803b15801561086e57600080fd5b505af1158015610882573d6000803e3d6000fd5b505050506040513d602081101561089857600080fd5b505115156108f0576040805160e560020a62461bcd02815260206004820152601060248201527f4252206d616c654e6f74496e5374756400000000000000000000000000000000604482015290519081900360640190fd5b606854604080517f6352211e000000000000000000000000000000000000000000000000000000008152600481018d90529051600160a060020a0390921691636352211e916024808201926020929091908290030181600087803b15801561095757600080fd5b505af115801561096b573d6000803e3d6000fd5b505050506040513d602081101561098157600080fd5b5051965033600160a060020a038816146109e5576040805160e560020a62461bcd02815260206004820152601b60248201527f425220696e76616c69645472616e73616374696f6e53656e6465720000000000604482015290519081900360640190fd5b606854604080517f6352211e000000000000000000000000000000000000000000000000000000008152600481018e90529051600160a060020a0390921691636352211e916024808201926020929091908290030181600087803b158015610a4c57600080fd5b505af1158015610a60573d6000803e3d6000fd5b505050506040513d6020811015610a7657600080fd5b5051606a54604080517f0b549884000000000000000000000000000000000000000000000000000000008152600481018f90529051929850600160a060020a0390911691630b549884916024808201926020929091908290030181600087803b158015610ae257600080fd5b505af1158015610af6573d6000803e3d6000fd5b505050506040513d6020811015610b0c57600080fd5b50519450600160a060020a038681169088161415610bb257610b56610b496064610b3d88602363ffffffff611ab516565b9063ffffffff611aee16565b869063ffffffff611b1116565b341015610bad576040805160e560020a62461bcd02815260206004820152601460248201527f4252206d6174696e6750726963654e6f744d6574000000000000000000000000604482015290519081900360640190fd5b610c0a565b34851115610c0a576040805160e560020a62461bcd02815260206004820152601460248201527f4252206d6174696e6750726963654e6f744d6574000000000000000000000000604482015290519081900360640190fd5b60008b8152606b60205260408082208c835291819020815160c08101909252919550909350610d78908581608081018260028282826020028201915b815481526020019060010190808311610c46575050505050815260200160028201805480602002602001604051908101604052809291908181526020018280548015610cb157602002820191906000526020600020905b815481526020019060010190808311610c9d575b505050918352505060038201546020820152600490910154604091820152805160c081019091528581608081018260028282826020028201915b815481526020019060010190808311610ceb575050505050815260200160028201805480602002602001604051908101604052809291908181526020018280548015610d5657602002820191906000526020600020905b815481526020019060010190808311610d42575b5050505050815260200160038201548152602001600482015481525050611b28565b1515610dce576040805160e560020a62461bcd02815260206004820152601460248201527f425220686f7273657341726542726f7468657273000000000000000000000000604482015290519081900360640190fd5b610dd88b8b611cb0565b1515610e2e576040805160e560020a62461bcd02815260206004820152601b60248201527f425220686f727365734172654469726563746c7952656c617465640000000000604482015290519081900360640190fd5b610e388b8b611d0d565b1515610e8e576040805160e560020a62461bcd02815260206004820152601460248201527f425220686f72736549734772616e646368696c64000000000000000000000000604482015290519081900360640190fd5b6001846004016000828254019250508190555060018360040160008282540192505081905550606860009054906101000a9004600160a060020a0316600160a060020a03166357a15c4f888b8b8f8f6040518663ffffffff1660e060020a0281526004018086600160a060020a0316600160a060020a0316815260200180602001848152602001838152602001828103825286868281815260200192508082843782019150509650505050505050602060405180830381600087803b158015610f5657600080fd5b505af1158015610f6a573d6000803e3d6000fd5b505050506040513d6020811015610f8057600080fd5b810190808051906020019092919050505091506001606c60008d8152602001908152602001600020600084815260200190815260200160002060006101000a81548160ff0219169083151502179055506001606c60008c8152602001908152602001600020600084815260200190815260200160002060006101000a81548160ff021916908315150217905550606b6000838152602001908152602001600020905060408051908101604052808c81526020018b81525081600001906002611049929190612405565b506002848101805460018082018355600092835260208084209092018690559286018054808501825590835281832001859055865482526005840190526040808220805460ff1990811685179091558388015483528183208054821685179055865483528183208054821685179055868401548352912080549091169091179055606854600160a060020a0316633bdf2c0c836110e68e8e611d72565b6040518363ffffffff1660e060020a0281526004018083815260200182815260200192505050600060405180830381600087803b15801561112657600080fd5b505af115801561113a573d6000803e3d6000fd5b50505050606960009054906101000a9004600160a060020a0316600160a060020a0316639fdc2141838d8d6040518463ffffffff1660e060020a028152600401808481526020018381526020018281526020019350505050600060405180830381600087803b1580156111ac57600080fd5b505af11580156111c0573d6000803e3d6000fd5b505050506111cf86888d611ee6565b604080518c8152602081018c905280820184905290517fe33c5d7fb8b7fa8b5fd81ccf2c8267d67290de8a4f6be9a8a6ee8195ef8eb2319181900360600190a15050505050505050505050565b61122461243f565b6000828152606b6020526040908190208151808301928390529160029082845b8154815260200190600101908083116112445750505050509050919050565b61126b611587565b151561127657600080fd5b603354604051600160a060020a03909116907ff8df31144d9c2f0f6b59d69b8b98abd5459d07f2742c4df920b25aae33c6482090600090a26033805473ffffffffffffffffffffffffffffffffffffffff19169055565b6112d5611587565b15156112e057600080fd5b6068805473ffffffffffffffffffffffffffffffffffffffff1916600160a060020a0392909216919091179055565b603354600160a060020a03165b90565b6000828152606b6020526040808220838352818320825160c08101909352606092611486908381608081018260028282826020028201915b8154815260200190600101908083116113575750505050508152602001600282018054806020026020016040519081016040528092919081815260200182805480156113c257602002820191906000526020600020905b8154815260200190600101908083116113ae575b505050918352505060038201546020820152600490910154604091820152805160c08101909152838160808101826002828282602002820191815481526020019060010190808311610ceb575050505050815260200160028201805480602002602001604051908101604052809291908181526020018280548015610d565760200282019190600052602060002090815481526020019060010190808311610d42575050505050815260200160038201548152602001600482015481525050611b28565b15156114cb5760408051808201909152600881527f62726f7468657273000000000000000000000000000000000000000000000000602082015260019450925061157e565b6114d58686611cb0565b151561151a5760408051808201909152600781527f706172656e747300000000000000000000000000000000000000000000000000602082015260019450925061157e565b6115248686611d0d565b15156115695760408051808201909152600c81527f6772616e64706172656e74730000000000000000000000000000000000000000602082015260019450925061157e565b60408051602081019091526000808252945092505b50509250929050565b603354600160a060020a0316331490565b6115a061243f565b60606000806115ad61245a565b6000868152606b602052604090819020815160c0810190925281608081018260028282826020028201915b8154815260200190600101908083116115d857505050505081526020016002820180548060200260200160405190810160405280929190818152602001828054801561164357602002820191906000526020600020905b81548152602001906001019080831161162f575b50505091835250506003820154602080830191909152600490920154604091820152825191830151908301516060909301519199909850919650945092505050565b60008054610100900460ff168061169f575061169f61223e565b806116ad575060005460ff16155b1515611729576040805160e560020a62461bcd02815260206004820152602e60248201527f436f6e747261637420696e7374616e63652068617320616c726561647920626560448201527f656e20696e697469616c697a6564000000000000000000000000000000000000606482015290519081900360840190fd5b50600080546033805473ffffffffffffffffffffffffffffffffffffffff1916600160a060020a03949094169390931790925561ff001980831661010090811760ff19166001179091169281900460ff16151502919091179055565b6000828152606b6020908152604080832084845260050190915290205460ff165b92915050565b6000806117b761245a565b6000848152606b602052604090819020815160c0810190925281608081018260028282826020028201915b8154815260200190600101908083116117e257505050505081526020016002820180548060200260200160405190810160405280929190818152602001828054801561184d57602002820191906000526020600020905b815481526020019060010190808311611839575b5050509183525050600382015460208201526004909101546040918201526060820151910151909590945092505050565b611886611587565b151561189157600080fd5b61189a81612248565b50565b60008054610100900460ff16806118b757506118b761223e565b806118c5575060005460ff16155b1515611941576040805160e560020a62461bcd02815260206004820152602e60248201527f436f6e747261637420696e7374616e63652068617320616c726561647920626560448201527f656e20696e697469616c697a6564000000000000000000000000000000000000606482015290519081900360840190fd5b5060008054600161010061ff00198316811760ff1916919091179092550460ff1661196b85611685565b6068805473ffffffffffffffffffffffffffffffffffffffff19908116600160a060020a0396871617909155606a8054821694861694909417909355606680549093169190931617905560187f89d91e9199e5ef2f4ebfb2c2d685a057fb5b0cc5d3b169a7148a22b30a6642cf55601e7f3bce9a0e21e655eb85ead52c832d988c5aa51e13541a6ada6511de2013c5c0725560247ff80bf9913bb0347ae5531da1bfdef7d7d10377c6abd72864f7d5f0141b89545455606e60205260387f81ed5545b0aefda211b1c3666afb28b8f7988be5f05ede80c83a7681232e96345560327f5c3c3877fb80836effdb986ad9b4df056e0e7c7182dc8a321999588a0b1b81c85562093a806000908152602c7f78155450c575d9b84cc792d5b1451c95873f2ca4d933ca4a0d76f00b2f8d28c355805461ff0019166101009215159290920291909117905550565b600080831515611ac85760009150611ae7565b50828202828482811515611ad857fe5b0414611ae357600080fd5b8091505b5092915050565b600080808311611afd57600080fd5b8284811515611b0857fe5b04949350505050565b60008083831115611b2157600080fd5b5050900390565b8151516000901580611b3d5750825160200151155b15611b4a575060016117a6565b8151511580611b5c5750815160200151155b15611b69575060016117a6565b815160408051602001908190839080838360005b83811015611b95578181015183820152602001611b7d565b505050509050019150506040516020818303038152906040526040518082805190602001908083835b60208310611bdd5780518252601f199092019160209182019101611bbe565b51815160209384036101000a600019018019909216911617905260408051929094018290038220895190965094500191829150839080838360005b83811015611c30578181015183820152602001611c18565b505050509050019150506040516020818303038152906040526040518082805190602001908083835b60208310611c785780518252601f199092019160209182019101611c59565b5181516020939093036101000a6000190180199091169216919091179052604051920182900390912093909314159695505050505050565b6000828152606c6020908152604080832084845290915281205460ff1615611cda575060006117a6565b6000828152606c6020908152604080832086845290915290205460ff1615611d04575060006117a6565b50600192915050565b6000828152606b60209081526040808320848452818420600582019093529083205490919060ff1615611d435760009250611d6a565b600085815260058201602052604090205460ff1615611d655760009250611d6a565b600192505b505092915050565b6000806000806000611d86602260416122c6565b606854604080517f3ef5d325000000000000000000000000000000000000000000000000000000008152600481018b90529051929650600160a060020a0390911691633ef5d325916024808201926020929091908290030181600087803b158015611df057600080fd5b505af1158015611e04573d6000803e3d6000fd5b505050506040513d6020811015611e1a57600080fd5b5051606854604080517f3ef5d325000000000000000000000000000000000000000000000000000000008152600481018a90529051929550600160a060020a0390911691633ef5d325916024808201926020929091908290030181600087803b158015611e8657600080fd5b505af1158015611e9a573d6000803e3d6000fd5b505050506040513d6020811015611eb057600080fd5b50519150611ec4838363ffffffff6123f316565b9050611edb6064610b3d838763ffffffff611ab516565b979650505050505050565b600080600084600160a060020a031686600160a060020a0316141561201757606654600160a060020a03166108fc611f2a6064610b3d34603c63ffffffff611ab516565b6040518115909202916000818181858888f19350505050158015611f52573d6000803e3d6000fd5b50611f5b61130f565b600160a060020a03166108fc611f7d6064610b3d34602863ffffffff611ab516565b6040518115909202916000818181858888f19350505050158015611fa5573d6000803e3d6000fd5b507fbdc47d1eb36ed5c00b6f134eea61d90114c34618e1079df200b27d3047d937146000611fdf6064610b3d34603c63ffffffff611ab516565b611ff56064610b3d34602863ffffffff611ab516565b60408051938452602084019290925282820152519081900360600190a1612236565b606a54604080517f83542541000000000000000000000000000000000000000000000000000000008152600481018790529051600160a060020a03909216916383542541916024808201926020929091908290030181600087803b15801561207e57600080fd5b505af1158015612092573d6000803e3d6000fd5b505050506040513d60208110156120a857600080fd5b50516000818152606d6020908152604080832054606e9092529091205491945092509050600160a060020a0386166108fc6120ee6064610b3d348763ffffffff611ab516565b6040518115909202916000818181858888f19350505050158015612116573d6000803e3d6000fd5b50606654600160a060020a03166108fc61213b6064610b3d348663ffffffff611ab516565b6040518115909202916000818181858888f19350505050158015612163573d6000803e3d6000fd5b5061216c61130f565b600160a060020a03166108fc61218e6064610b3d34601463ffffffff611ab516565b6040518115909202916000818181858888f193505050501580156121b6573d6000803e3d6000fd5b507fbdc47d1eb36ed5c00b6f134eea61d90114c34618e1079df200b27d3047d937146121ed6064610b3d348663ffffffff611ab516565b6122026064610b3d348663ffffffff611ab516565b6122186064610b3d34601463ffffffff611ab516565b60408051938452602084019290925282820152519081900360600190a15b505050505050565b303b8015905b5090565b600160a060020a038116151561225d57600080fd5b603354604051600160a060020a038084169216907f8be0079c531659141344cd1fd0a4f28419497f9722a3daafe3b4186f6b6457e090600090a36033805473ffffffffffffffffffffffffffffffffffffffff1916600160a060020a0392909216919091179055565b6067805460010190819055604080516020808201939093526c0100000000000000000000000033028183015260001943014060548083019190915282518083039091018152607490910191829052805160009384938493849390928291908401908083835b6020831061234a5780518252601f19909201916020918201910161232b565b5181516020939093036101000a6000190180199091169216919091179052604051920182900390912095508892508591505081151561238557fe5b06600101915081850390506000811115156123ea576040805160e560020a62461bcd02815260206004820152601a60248201527f42522072616e646f6e4e756d6265724f75744f66426f756e6473000000000000604482015290519081900360640190fd5b95945050505050565b600082820183811015611ae357600080fd5b8260028101928215612433579160200282015b82811115612433578251825591602001919060010190612418565b50612244929150612489565b60408051808201825290600290829080388339509192915050565b60a06040519081016040528061246e61243f565b81526020016060815260200160008152602001600081525090565b61131c91905b80821115612244576000815560010161248f5600a165627a7a7230582029e857339af00efbcd32d430ea1d5cc6b783506bf7f9710432b16dd916d075870029",
  "source": "pragma solidity ^0.4.24;\n\nimport \"./Core.sol\";\nimport \"./BreedTypes.sol\";\nimport \"./StudServiceV2.sol\";\nimport \"openzeppelin-eth/contracts/math/SafeMath.sol\";\nimport \"openzeppelin-eth/contracts/ownership/Ownable.sol\";\nimport \"zos-lib/contracts/Initializable.sol\";\n\n/*\n@dev Breeding contract in charge of generating new horses and stats for breeding.\n*/\n\ncontract Breeding is Ownable {\n    using SafeMath for uint256;\n\n    // we're going to use the funds on this address for races\n    address poolAddress;\n\n    uint256 nonce;\n\n    Core core;\n    BreedTypes breedTypes;\n    StudServiceV2 studService;\n\n    // All this is subject to a change\n    struct HorseBreed {\n        uint256[2] parents;\n        uint256[] offsprings;\n\n        uint256 firstOffspring;\n        uint256 offspringCounter;\n\n        mapping(uint256 => bool) grandparents;\n    }\n\n    // Maps the horseID to a specific HorseBreed struct.\n    mapping(uint256 => HorseBreed) internal horseBreedById;\n\n    // Tracks offsprings of each horse.\n    mapping(uint256 => mapping(uint256 => bool)) internal offspringsOf;\n\n    // maps percentages for stud duration to stud owner for PUBLIC STABLES\n    mapping(uint256 => uint256) internal studOwnerPercentage;\n\n    // maps percentages for stud duration to prize pool for PUBLIC STABLES\n    mapping(uint256 => uint256) internal prizePoolPercentage;\n\n    event OffspringCreated(\n        uint256 _father,\n        uint256 _mother,\n        uint256 _offspring\n    );\n\n    event BreedingFunds(\n        uint256 _studOwner,\n        uint256 _racesPool,\n        uint256 _zed\n    );\n\n    function initialize(\n        address _owner,\n        address _core,\n        address _studService,\n        address _poolAddress\n    ) public initializer {\n        Ownable.initialize(_owner);\n        core = Core(_core);\n        studService = StudServiceV2(_studService);\n        poolAddress = _poolAddress;\n\n        studOwnerPercentage[86400] = 24;\n        studOwnerPercentage[259200] = 30;\n        studOwnerPercentage[604800] = 36;\n\n        prizePoolPercentage[86400] = 56;\n        prizePoolPercentage[259200] = 50;\n        prizePoolPercentage[604800] = 44;\n    }\n\n    // here we're going to alter the minimum breed price based on the stable type as well\n    function mix(uint256 _maleId, uint256 _femaleId, string _hash) external payable {\n        require(core.exists(_maleId) && core.exists(_femaleId), \"BR horsesDontExist\");\n        require(bytes32(\"M\") == core.getHorseSex(_maleId), \"BR expectedMaleHorseReceivedFemale\");\n        require(bytes32(\"F\") == core.getHorseSex(_femaleId), \"BR expectedFemaleHorseReceivedMale\");\n        require(studService.isHorseInStud(_maleId), \"BR maleNotInStud\");\n        // female's owner is offspring's owner\n        address femaleOwner = core.ownerOf(_femaleId);\n\n        require(msg.sender == femaleOwner, \"BR invalidTransactionSender\");\n\n        address maleOwner = core.ownerOf(_maleId);\n        uint256 matingPrice = studService.matingPrice(_maleId);\n\n        // check if we should apply a discount\n        if(maleOwner == femaleOwner) {\n            // msg.sender will only pay 35% of 'msg.value'\n            require(msg.value >= matingPrice.sub(matingPrice.mul(35).div(100)), \"BR matingPriceNotMet\");\n        } else {\n            require(msg.value >= matingPrice, \"BR matingPriceNotMet\");\n        }\n\n        HorseBreed storage male = horseBreedById[_maleId];\n        HorseBreed storage female = horseBreedById[_femaleId];\n\n        require(_notBrothers(male, female), \"BR horsesAreBrothers\");\n        require(_notParents(_maleId, _femaleId), \"BR horsesAreDirectlyRelated\");\n        require(_notGrandparents(_maleId, _femaleId), \"BR horseIsGrandchild\");\n\n        male.offspringCounter += 1;\n        female.offspringCounter += 1;\n\n        uint256 offspringId = core.createOffspring(femaleOwner, _hash, _maleId, _femaleId);\n        // put the newly generated token into the mapping for both parents\n        offspringsOf[_maleId][offspringId] = true;\n        offspringsOf[_femaleId][offspringId] = true;\n\n        // offspring's data\n        HorseBreed storage o = horseBreedById[offspringId];\n        o.parents = [_maleId, _femaleId];\n\n        // save offspring's ID to parents\n        male.offsprings.push(offspringId);\n        female.offsprings.push(offspringId);\n\n        // Manually save ID of each on the mapping, looks uglier but this way we can perform checks\n        // more efficiently by just checking IDs instead of looping or doing another mechanism that could\n        // be more expensive.\n        o.grandparents[male.parents[0]] = true;\n        o.grandparents[male.parents[1]] = true;\n        o.grandparents[female.parents[0]] = true;\n        o.grandparents[female.parents[1]] = true;\n\n        core.setBaseValue(offspringId, _getBaseValue(_maleId, _femaleId));\n        breedTypes.generateBreedType(offspringId, _maleId, _femaleId);\n\n        sendBreedingFunds(maleOwner, femaleOwner, _maleId);\n\n        emit OffspringCreated(_maleId, _femaleId, offspringId);\n    }\n\n    /*\n    @dev Alters the breed price of the horse depending on the type of stable (Public, private)\n\n    Private: Same owner of both horses\n    Public: Different owners\n    */\n    function sendBreedingFunds(address _maleOwner, address _femaleOwner, uint256 _male) private {\n        if(_maleOwner == _femaleOwner) {\n            // Private or own stable\n            // We won't send anything to the Stud Owner AKA msg.sender\n\n            // 60% to the prize pool address\n            poolAddress.transfer(msg.value.mul(60).div(100));\n\n            // 40% to ZED\n            owner().transfer(msg.value.mul(40).div(100));\n\n            emit BreedingFunds(0, msg.value.mul(60).div(100), msg.value.mul(40).div(100));\n        } else {\n            // Other stables - take into consideration stud time of the horse\n            uint256 studTime = studService.studTime(_male);\n            uint256 studOwner = studOwnerPercentage[studTime];\n            uint256 prizePool = prizePoolPercentage[studTime];\n\n            // stud owner\n            _maleOwner.transfer(msg.value.mul(studOwner).div(100));\n\n            // prize pool\n            poolAddress.transfer(msg.value.mul(prizePool).div(100));\n\n            // 20% to ZED\n            owner().transfer(msg.value.mul(20).div(100));\n\n            emit BreedingFunds(\n                msg.value.mul(studOwner).div(100),\n                msg.value.mul(prizePool).div(100),\n                msg.value.mul(20).div(100)\n            );\n        }\n    }\n\n    /*\n    @dev Checks whether two given horses are brothers or not.\n    @dev Having the same parents obviously make them directly related.\n    */\n    function _notBrothers(HorseBreed _male, HorseBreed _female) private pure returns(bool) {\n        // We're going to avoid the case where parents are ID 0\n        if(_male.parents[0] == 0 || _male.parents[1] == 0) return true;\n        if(_female.parents[0] == 0 || _female.parents[1] == 0) return true;\n\n        // Hash of both parents shouldn't be the same.\n        return keccak256(abi.encodePacked(_male.parents)) != keccak256(abi.encodePacked(_female.parents));\n    }\n\n    /*\n    @dev Checks whether two horses are directly related, i.e. one being an offspring of another.\n    The process for this verification is simple, we track offsprings of each horse in a mapping\n    here we check if either horse is an offspring of the other one, if true then we revert the op.\n    */\n    function _notParents(uint256 _male, uint256 _female) private view returns(bool) {\n        if(offspringsOf[_male][_female]) return false;\n        if(offspringsOf[_female][_male]) return false;\n\n        return true;\n    }\n\n    /*\n    @dev Checks whether two horses are directly related, i.e. one being a grandparent of another.\n    We follow a similar approach as above, we just check for other's sex ID on the mapping\n    of grandparents for a truthy value.\n    */\n    function _notGrandparents(uint256 _male, uint256 _female) private view returns(bool) {\n        HorseBreed storage m = horseBreedById[_male];\n        HorseBreed storage f = horseBreedById[_female];\n\n        if(m.grandparents[_female]) return false;\n        if(f.grandparents[_male]) return false;\n\n        return true;\n    }\n\n    /*\n    Returns whether or not two horses are related, if they are it specifies where they're related.\n    */\n    function areHorsesRelated(uint256 _male, uint256 _female) public view returns(bool, string) {\n        HorseBreed storage male = horseBreedById[_male];\n        HorseBreed storage female = horseBreedById[_female];\n\n        if(!_notBrothers(male, female)) {\n            return (true, \"brothers\");\n        }\n\n        if(!_notParents(_male, _female)) {\n            return (true, \"parents\");\n        }\n\n        if(!_notGrandparents(_male, _female)) {\n            return (true, \"grandparents\");\n        }\n\n        return (false, \"\");\n    }\n\n    /*\n    @dev Gets a random number between two bounds.\n    @param _num the inner bound\n    @param _deleteFrom maximum number it can generate\n    */\n    function _getRandNum(uint256 _num, uint256 _deleteFrom) private returns(uint256) {\n        nonce += 1;\n\n        bytes32 randData = keccak256(\n            abi.encodePacked(nonce, msg.sender, blockhash(block.number - 1))\n        );\n\n        uint256 rand = uint256(randData) % _num + 1;\n        uint256 finalRand = _deleteFrom - rand;\n\n        require(finalRand > 0, \"BR randonNumberOutOfBounds\");\n\n        return finalRand;\n    }\n\n    /*\n    @dev Computes the base value for an offspring\n    */\n    function _getBaseValue(uint256 _maleParent, uint256 _femaleParent) private returns(uint) {\n        // Create the offspring baseValue\n        uint256 percentage = _getRandNum(34, 65); // Creates a random number between 30 and 65.\n        uint256 maleBaseValue = core.getBaseValue(_maleParent);\n        uint256 femaleBaseValue = core.getBaseValue(_femaleParent);\n        uint256 finalParents = maleBaseValue.add(femaleBaseValue);\n\n        return finalParents.mul(percentage).div(100);\n    }\n\n    /*\n    @dev Returns all data from HorseBreed struct.\n    */\n    function breedingData(uint256 _id) public view returns(uint256[2], uint256[], uint256, uint256) {\n        HorseBreed memory h = horseBreedById[_id];\n\n        return (h.parents, h.offsprings, h.firstOffspring, h.offspringCounter);\n    }\n\n    /*\n    @dev Returns whether or not '_grandparentId' is related to '_horseId'.\n    */\n    function isGrandparent(uint256 _horseId, uint256 _grandparentId) public view returns(bool) {\n        return horseBreedById[_horseId].grandparents[_grandparentId];\n    }\n\n    /*\n    @dev Returns a horse stats for breeding.\n    */\n    function getHorseOffspringStats(uint256 _horseId) public view returns(uint256, uint256) {\n        HorseBreed memory h = horseBreedById[_horseId];\n        return(h.offspringCounter, h.firstOffspring);\n    }\n\n    /*\n    @dev Returns the parents of a given horse\n    */\n    function getParents(uint256 _horseId) public view returns(uint256[2]) {\n        return horseBreedById[_horseId].parents;\n    }\n\n    /*  RESTRICTED */\n\n    function setCore(address _core) public onlyOwner() {\n        core = Core(_core);\n    }\n\n    function setBreedTypesAddress(address _breedTypes) public onlyOwner() {\n        breedTypes = BreedTypes(_breedTypes);\n    }\n}\n",
  "sourcePath": "/Users/eswarasai/Sites/ZED/cryptofield-core/contracts/Breeding.sol",
  "compiler": {
    "name": "solc",
    "version": "0.4.24+commit.e67f0147.Emscripten.clang"
  },
  "schemaVersion": "3.0.6",
  "updatedAt": "2019-06-11T20:54:33.272Z",
  "devdoc": {
    "methods": {
      "initialize(address)": {
        "details": "The Ownable constructor sets the original `owner` of the contract to the sender account."
      },
      "isOwner()": {
        "return": "true if `msg.sender` is the owner of the contract."
      },
      "owner()": {
        "return": "the address of the owner."
      },
      "renounceOwnership()": {
        "details": "Allows the current owner to relinquish control of the contract."
      },
      "transferOwnership(address)": {
        "details": "Allows the current owner to transfer control of the contract to a newOwner.",
        "params": {
          "newOwner": "The address to transfer ownership to."
        }
      }
    }
  },
  "userdoc": {
    "methods": {
      "renounceOwnership()": {
        "notice": "Renouncing to ownership will leave the contract without an owner. It will not be possible to call the functions with the `onlyOwner` modifier anymore."
      }
    }
  }
}