{
  "contractName": "CryptofieldBase",
  "abi": [
    {
      "constant": true,
      "inputs": [],
      "name": "horseDataContract",
      "outputs": [
        {
          "name": "",
          "type": "address"
        }
      ],
      "payable": false,
      "stateMutability": "view",
      "type": "function"
    },
    {
      "constant": false,
      "inputs": [],
      "name": "renounceOwnership",
      "outputs": [],
      "payable": false,
      "stateMutability": "nonpayable",
      "type": "function"
    },
    {
      "constant": true,
      "inputs": [],
      "name": "gender",
      "outputs": [
        {
          "name": "",
          "type": "bytes32"
        }
      ],
      "payable": false,
      "stateMutability": "view",
      "type": "function"
    },
    {
      "constant": true,
      "inputs": [],
      "name": "owner",
      "outputs": [
        {
          "name": "",
          "type": "address"
        }
      ],
      "payable": false,
      "stateMutability": "view",
      "type": "function"
    },
    {
      "constant": true,
      "inputs": [],
      "name": "isOwner",
      "outputs": [
        {
          "name": "",
          "type": "bool"
        }
      ],
      "payable": false,
      "stateMutability": "view",
      "type": "function"
    },
    {
      "constant": true,
      "inputs": [
        {
          "name": "",
          "type": "uint256"
        }
      ],
      "name": "horses",
      "outputs": [
        {
          "name": "buyer",
          "type": "address"
        },
        {
          "name": "genotype",
          "type": "uint256"
        },
        {
          "name": "baseValue",
          "type": "uint256"
        },
        {
          "name": "timestamp",
          "type": "uint256"
        },
        {
          "name": "lastTimeSold",
          "type": "uint256"
        },
        {
          "name": "amountOfTimesSold",
          "type": "uint256"
        },
        {
          "name": "horseHash",
          "type": "string"
        },
        {
          "name": "bloodline",
          "type": "bytes32"
        },
        {
          "name": "sex",
          "type": "bytes32"
        },
        {
          "name": "hType",
          "type": "bytes32"
        }
      ],
      "payable": false,
      "stateMutability": "view",
      "type": "function"
    },
    {
      "constant": false,
      "inputs": [
        {
          "name": "newOwner",
          "type": "address"
        }
      ],
      "name": "transferOwnership",
      "outputs": [],
      "payable": false,
      "stateMutability": "nonpayable",
      "type": "function"
    },
    {
      "anonymous": false,
      "inputs": [
        {
          "indexed": false,
          "name": "_horseId",
          "type": "uint256"
        },
        {
          "indexed": false,
          "name": "_amountOfTimesSold",
          "type": "uint256"
        }
      ],
      "name": "LogHorseSell",
      "type": "event"
    },
    {
      "anonymous": false,
      "inputs": [
        {
          "indexed": false,
          "name": "_buyer",
          "type": "address"
        },
        {
          "indexed": false,
          "name": "_timestamp",
          "type": "uint256"
        },
        {
          "indexed": false,
          "name": "_tokenId",
          "type": "uint256"
        }
      ],
      "name": "LogOffspringBuy",
      "type": "event"
    },
    {
      "anonymous": false,
      "inputs": [
        {
          "indexed": false,
          "name": "_buyer",
          "type": "address"
        },
        {
          "indexed": false,
          "name": "_timestamp",
          "type": "uint256"
        },
        {
          "indexed": false,
          "name": "_tokenId",
          "type": "uint256"
        }
      ],
      "name": "LogGOPCreated",
      "type": "event"
    },
    {
      "anonymous": false,
      "inputs": [
        {
          "indexed": true,
          "name": "previousOwner",
          "type": "address"
        }
      ],
      "name": "OwnershipRenounced",
      "type": "event"
    },
    {
      "anonymous": false,
      "inputs": [
        {
          "indexed": true,
          "name": "previousOwner",
          "type": "address"
        },
        {
          "indexed": true,
          "name": "newOwner",
          "type": "address"
        }
      ],
      "name": "OwnershipTransferred",
      "type": "event"
    },
    {
      "constant": false,
      "inputs": [
        {
          "name": "_owner",
          "type": "address"
        }
      ],
      "name": "initialize",
      "outputs": [],
      "payable": false,
      "stateMutability": "nonpayable",
      "type": "function"
    },
    {
      "constant": true,
      "inputs": [
        {
          "name": "_horse",
          "type": "uint256"
        }
      ],
      "name": "getHorseData",
      "outputs": [
        {
          "name": "",
          "type": "string"
        },
        {
          "name": "",
          "type": "bytes32"
        },
        {
          "name": "",
          "type": "uint256"
        },
        {
          "name": "",
          "type": "uint256"
        },
        {
          "name": "",
          "type": "uint256"
        },
        {
          "name": "",
          "type": "uint256"
        },
        {
          "name": "",
          "type": "bytes32"
        },
        {
          "name": "",
          "type": "bytes32"
        }
      ],
      "payable": false,
      "stateMutability": "view",
      "type": "function"
    },
    {
      "constant": true,
      "inputs": [
        {
          "name": "_horse",
          "type": "uint256"
        }
      ],
      "name": "getHorseSex",
      "outputs": [
        {
          "name": "",
          "type": "bytes32"
        }
      ],
      "payable": false,
      "stateMutability": "view",
      "type": "function"
    },
    {
      "constant": true,
      "inputs": [
        {
          "name": "_horse",
          "type": "uint256"
        }
      ],
      "name": "getTimestamp",
      "outputs": [
        {
          "name": "",
          "type": "uint256"
        }
      ],
      "payable": false,
      "stateMutability": "view",
      "type": "function"
    },
    {
      "constant": true,
      "inputs": [
        {
          "name": "_horse",
          "type": "uint256"
        }
      ],
      "name": "getBaseValue",
      "outputs": [
        {
          "name": "",
          "type": "uint256"
        }
      ],
      "payable": false,
      "stateMutability": "view",
      "type": "function"
    },
    {
      "constant": true,
      "inputs": [],
      "name": "lastHorseSex",
      "outputs": [
        {
          "name": "",
          "type": "bytes32"
        }
      ],
      "payable": false,
      "stateMutability": "view",
      "type": "function"
    },
    {
      "constant": true,
      "inputs": [
        {
          "name": "_horse",
          "type": "uint256"
        }
      ],
      "name": "getBloodline",
      "outputs": [
        {
          "name": "",
          "type": "bytes32"
        }
      ],
      "payable": false,
      "stateMutability": "view",
      "type": "function"
    },
    {
      "constant": false,
      "inputs": [
        {
          "name": "_address",
          "type": "address"
        }
      ],
      "name": "setBreedingAddr",
      "outputs": [],
      "payable": false,
      "stateMutability": "nonpayable",
      "type": "function"
    },
    {
      "constant": false,
      "inputs": [
        {
          "name": "_address",
          "type": "address"
        }
      ],
      "name": "setHorseDataAddr",
      "outputs": [],
      "payable": false,
      "stateMutability": "nonpayable",
      "type": "function"
    },
    {
      "constant": false,
      "inputs": [
        {
          "name": "_horse",
          "type": "uint256"
        },
        {
          "name": "_hash",
          "type": "string"
        }
      ],
      "name": "setHorseHash",
      "outputs": [],
      "payable": false,
      "stateMutability": "nonpayable",
      "type": "function"
    },
    {
      "constant": false,
      "inputs": [
        {
          "name": "_horseId",
          "type": "uint256"
        },
        {
          "name": "_baseValue",
          "type": "uint256"
        }
      ],
      "name": "setBaseValue",
      "outputs": [],
      "payable": false,
      "stateMutability": "nonpayable",
      "type": "function"
    }
  ],
  "bytecode": "0x608060405234801561001057600080fd5b50610df2806100206000396000f3006080604052600436106100fb5763ffffffff7c0100000000000000000000000000000000000000000000000000000000600035041663195c8c7e81146101005780633bdf2c0c146101235780633ef5d3251461013e57806359660d1714610168578063715018a61461019957806376fe8228146101ae5780637866ed6e146101c657806379caad86146101de5780638da5cb5b146101f35780638f32d59b146102085780638f8b5cde14610231578063983bd3d414610317578063b633620c14610375578063c4d66de81461038d578063e068e8a1146103ae578063f2fde38b146103cf578063f66b48da146103f0578063fffda870146104b8575b600080fd5b34801561010c57600080fd5b50610121600160a060020a03600435166104cd565b005b34801561012f57600080fd5b5061012160043560243561050f565b34801561014a57600080fd5b506101566004356105a1565b60408051918252519081900360200190f35b34801561017457600080fd5b5061017d6105b6565b60408051600160a060020a039092168252519081900360200190f35b3480156101a557600080fd5b506101216105c5565b3480156101ba57600080fd5b5061015660043561062f565b3480156101d257600080fd5b50610156600435610644565b3480156101ea57600080fd5b50610156610659565b3480156101ff57600080fd5b5061017d61065f565b34801561021457600080fd5b5061021d61066f565b604080519115158252519081900360200190f35b34801561023d57600080fd5b50610249600435610680565b60408051600160a060020a038c16815260208082018c90529181018a9052606081018990526080810188905260a0810187905260e081018590526101008101849052610120810183905261014060c0820181815287519183019190915286519192909161016084019188019080838360005b838110156102d35781810151838201526020016102bb565b50505050905090810190601f1680156103005780820380516001836020036101000a031916815260200191505b509b50505050505050505050505060405180910390f35b34801561032357600080fd5b5060408051602060046024803582810135601f81018590048502860185019096528585526101219583359536956044949193909101919081908401838280828437509497506107679650505050505050565b34801561038157600080fd5b506101566004356107a4565b34801561039957600080fd5b50610121600160a060020a03600435166107b9565b3480156103ba57600080fd5b50610121600160a060020a0360043516610923565b3480156103db57600080fd5b50610121600160a060020a0360043516610965565b3480156103fc57600080fd5b50610408600435610984565b6040805160208082018a9052918101889052606081018790526080810186905260a0810185905260c0810184905260e081018390526101008082528a51908201528951909182916101208301918c019080838360005b8381101561047657818101518382015260200161045e565b50505050905090810190601f1680156104a35780820380516001836020036101000a031916815260200191505b50995050505050505050505060405180910390f35b3480156104c457600080fd5b50610156610b0a565b6104d561066f565b15156104e057600080fd5b606b805473ffffffffffffffffffffffffffffffffffffffff1916600160a060020a0392909216919091179055565b606b54600090600160a060020a0316331461058b57604080517f08c379a000000000000000000000000000000000000000000000000000000000815260206004820152601060248201527f4342206e6f74417574686f72697a656400000000000000000000000000000000604482015290519081900360640190fd5b506000918252606d602052604090912060020155565b6000908152606d602052604090206002015490565b606c54600160a060020a031681565b6105cd61066f565b15156105d857600080fd5b603354604051600160a060020a03909116907ff8df31144d9c2f0f6b59d69b8b98abd5459d07f2742c4df920b25aae33c6482090600090a26033805473ffffffffffffffffffffffffffffffffffffffff19169055565b6000908152606d602052604090206008015490565b6000908152606d602052604090206007015490565b60675481565b603354600160a060020a03165b90565b603354600160a060020a0316331490565b606d6020908152600091825260409182902080546001808301546002808501546003860154600487015460058801546006890180548c51601f6000199a831615610100029a909a01909116969096049788018b90048b0286018b01909b52868552600160a060020a03909716999498929791969095909491939283018282801561074b5780601f106107205761010080835404028352916020019161074b565b820191906000526020600020905b81548152906001019060200180831161072e57829003601f168201915b505050505090806007015490806008015490806009015490508a565b61076f61066f565b151561077a57600080fd5b6000828152606d60209081526040909120825161079f92600690920191840190610caf565b505050565b6000908152606d602052604090206003015490565b60008054610100900460ff16806107d357506107d3610b10565b806107e1575060005460ff16155b151561087457604080517f08c379a000000000000000000000000000000000000000000000000000000000815260206004820152602e60248201527f436f6e747261637420696e7374616e63652068617320616c726561647920626560448201527f656e20696e697469616c697a6564000000000000000000000000000000000000606482015290519081900360840190fd5b5060008054600161010061ff00198316811760ff1916919091179092550460ff1661089e82610b1a565b7f46000000000000000000000000000000000000000000000000000000000000006067819055604080518082019091527f4d0000000000000000000000000000000000000000000000000000000000000081526020810191909152610907906068906002610d29565b50600080549115156101000261ff001990921691909117905550565b61092b61066f565b151561093657600080fd5b606c805473ffffffffffffffffffffffffffffffffffffffff1916600160a060020a0392909216919091179055565b61096d61066f565b151561097857600080fd5b61098181610c31565b50565b60606000806000806000806000610999610d59565b60008a8152606d60209081526040918290208251610140810184528154600160a060020a0316815260018083015482850152600280840154838701526003840154606084015260048401546080840152600584015460a084015260068401805487516101009482161594909402600019011691909104601f81018690048602830186019096528582529194929360c086019391929190830182828015610a805780601f10610a5557610100808354040283529160200191610a80565b820191906000526020600020905b815481529060010190602001808311610a6357829003601f168201915b50505050508152602001600782015460001916600019168152602001600882015460001916600019168152602001600982015460001916600019168152505090508060c00151816101000151826040015183606001518460a0015185602001518660e001518761012001518797509850985098509850985098509850985050919395975091939597565b60675490565b303b8015905b5090565b60008054610100900460ff1680610b345750610b34610b10565b80610b42575060005460ff16155b1515610bd557604080517f08c379a000000000000000000000000000000000000000000000000000000000815260206004820152602e60248201527f436f6e747261637420696e7374616e63652068617320616c726561647920626560448201527f656e20696e697469616c697a6564000000000000000000000000000000000000606482015290519081900360840190fd5b50600080546033805473ffffffffffffffffffffffffffffffffffffffff1916600160a060020a03949094169390931790925561ff001980831661010090811760ff19166001179091169281900460ff16151502919091179055565b600160a060020a0381161515610c4657600080fd5b603354604051600160a060020a038084169216907f8be0079c531659141344cd1fd0a4f28419497f9722a3daafe3b4186f6b6457e090600090a36033805473ffffffffffffffffffffffffffffffffffffffff1916600160a060020a0392909216919091179055565b828054600181600116156101000203166002900490600052602060002090601f016020900481019282601f10610cf057805160ff1916838001178555610d1d565b82800160010185558215610d1d579182015b82811115610d1d578251825591602001919060010190610d02565b50610b16929150610dac565b8260028101928215610d1d579160200282015b82811115610d1d5782518255602090920191600190910190610d3c565b604080516101408101825260008082526020820181905291810182905260608082018390526080820183905260a0820183905260c082015260e08101829052610100810182905261012081019190915290565b61066c91905b80821115610b165760008155600101610db25600a165627a7a723058206e5e9b2eccea6b63677c286f8b9d5f985c2ad8d6703c87c3e6b781b42a515dfd0029",
  "source": "pragma solidity ^0.4.24;\n\nimport \"openzeppelin-eth/contracts/ownership/Ownable.sol\";\nimport \"./HorseData.sol\";\nimport \"zos-lib/contracts/Initializable.sol\";\n\ncontract CryptofieldBase is Initializable, Ownable {\n    bytes32 horseType;\n    bytes32 public gender; // First horse is a male.\n    bytes32[2] private gen;\n\n    uint256 constant GENOTYPE_CAP = 268;\n    uint256 bloodlineCounter;\n\n    address breedingContract;\n    HorseData public horseDataContract;\n\n    /*\n    @dev horseHash stores basic horse information in a hash returned by IPFS.\n    */\n    struct Horse {\n        address buyer;\n\n        uint256 genotype;\n        uint256 baseValue;\n        uint256 timestamp;\n        uint256 lastTimeSold;\n        uint256 amountOfTimesSold;\n\n        string horseHash;\n\n        bytes32 bloodline;\n        bytes32 sex;\n        bytes32 hType;\n    }\n\n    mapping(uint256 => Horse) public horses;\n\n    event LogHorseSell(uint256 _horseId, uint256 _amountOfTimesSold);\n    event LogOffspringBuy(address _buyer, uint256 _timestamp, uint256 _tokenId);\n    event LogGOPCreated(address _buyer, uint256 _timestamp, uint256 _tokenId);\n\n    modifier onlyBreeding() {\n        require(msg.sender == breedingContract, \"CB notAuthorized\");\n        _;\n    }\n\n    function initialize(address _owner) public initializer {\n        Ownable.initialize(_owner);\n\n        gender = bytes32(\"F\");\n        gen = [\n            bytes32(\"M\"),\n            bytes32(\"F\")\n        ];\n    }\n\n    function buyGOP(\n        address _buyer,\n        string _horseHash,\n        uint256 _tokenId,\n        uint256 _batchNumber,\n        uint256 _baseValue\n    ) internal {\n        require(bloodlineCounter <= 38000, \"GOP cap met\");\n\n        // Pick the gender and type.\n        if(gender == gen[0]) {\n            gender = gen[1]; // Female\n            horseType = bytes32(\"Filly\");\n        } else {\n            gender = gen[0]; // Male\n            horseType = bytes32(\"Colt\");\n        }\n\n        bytes32 bloodline = horseDataContract.getBloodline(_batchNumber);\n        uint256 genotype = horseDataContract.getGenotype(_batchNumber);\n\n        Horse memory h;\n        h.timestamp = now;\n        h.buyer = _buyer;\n        h.horseHash = _horseHash;\n        h.sex = gender;\n        h.baseValue = _baseValue;\n        h.genotype = genotype;\n        h.bloodline = bloodline;\n        h.hType = horseType;\n\n        horses[_tokenId] = h;\n\n        bloodlineCounter += 1;\n\n        emit LogGOPCreated(_buyer, now, _tokenId);\n    }\n\n    /*\n    @dev Called internally, should only be called by 'Token'.\n    */\n    function buyOffspring(\n        address _buyer,\n        string _horseHash,\n        uint256 _tokenId,\n        uint256 _maleParent,\n        uint256 _femaleParent\n        ) internal {\n        bytes32 randGender;\n\n        // Creates a 'random' gender.\n        // This won't affect Genesis horses.\n        if(_getRandGender() == 0) {\n            randGender = gen[0]; // Male\n            horseType = bytes32(\"Colt\");\n        } else {\n            randGender = gen[1];\n            horseType = bytes32(\"Filly\"); // Female\n        }\n\n        Horse storage male = horses[_maleParent];\n        Horse storage female = horses[_femaleParent];\n\n        // Change type of parents\n        male.hType = bytes32(\"Stallion\");\n        female.hType = bytes32(\"Mare\");\n\n        Horse memory horse;\n        horse.buyer = _buyer;\n        // The use of 'now' here shouldn't be a concern since that's only used for the timestamp of a horse\n        // which really doesn't have much effect on the horse itself.\n        horse.timestamp = now;\n        horse.horseHash = _horseHash;\n        horse.sex = randGender;\n        horse.genotype = _getType(male.genotype, female.genotype);\n        horse.bloodline = horseDataContract.getBloodlineFromParents(male.bloodline, female.bloodline);\n        horse.hType = horseType;\n\n        horses[_tokenId] = horse;\n\n        emit LogOffspringBuy(_buyer, now, _tokenId);\n    }\n\n    // Called when creating a custom horse.\n    function createHorse(\n        address _buyer,\n        string _hash,\n        uint256 _tokenId,\n        uint256 _baseValue,\n        uint256 _genotype,\n        bytes32 _gender\n    ) internal {\n        require(_genotype >= 1 && _genotype <= 10, \"Gen out of bounds\");\n        require(bloodlineCounter <= 38000, \"GOP cap met\");\n\n        bytes32 bloodline = horseDataContract.getBloodline(_genotype);\n\n        Horse memory h;\n        h.timestamp = now;\n        h.buyer = _buyer;\n        h.horseHash = _hash;\n        h.baseValue = _baseValue;\n        h.genotype = _genotype;\n        h.bloodline = bloodline;\n\n        if(_gender == bytes32(\"Male\")) {\n            h.sex = gen[0];\n            h.hType = bytes32(\"Colt\");\n        } else {\n            h.sex = gen[1];\n            h.hType = bytes32(\"Filly\");\n        }\n\n        horses[_tokenId] = h;\n\n        bloodlineCounter += 1;\n\n        emit LogGOPCreated(_buyer, now, _tokenId);\n    }\n\n    /*\n    @dev Returns data from a horse.\n    */\n    function getHorseData(\n        uint256 _horse\n    )\n    public\n    view\n    returns(string, bytes32, uint256, uint256, uint256, uint256, bytes32, bytes32) {\n        Horse memory h = horses[_horse];\n\n        return (\n            h.horseHash,\n            h.sex,\n            h.baseValue,\n            h.timestamp,\n            h.amountOfTimesSold,\n            h.genotype,\n            h.bloodline,\n            h.hType\n        );\n    }\n\n    function getHorseSex(uint256 _horse) public view returns(bytes32) {\n        return horses[_horse].sex;\n    }\n\n    function getTimestamp(uint256 _horse) public view returns(uint256) {\n        return horses[_horse].timestamp;\n    }\n\n    function getBaseValue(uint256 _horse) public view returns(uint256) {\n        return horses[_horse].baseValue;\n    }\n\n    function lastHorseSex() public view returns(bytes32) {\n        return gender;\n    }\n\n    function getBloodline(uint256 _horse) public view returns(bytes32) {\n        return horses[_horse].bloodline;\n    }\n\n    /*\n    @dev Adds 1 to the amount of times a horse has been sold.\n    @dev Adds unix timestamp of the date the horse was sold.\n    */\n    function horseSold(uint256 _horseId) internal {\n        Horse storage horse = horses[_horseId];\n        horse.amountOfTimesSold += 1;\n        horse.lastTimeSold = now;\n\n        emit LogHorseSell(_horseId, horse.amountOfTimesSold);\n    }\n\n    /* RESTRICTED FUNCTIONS /*\n\n    /*\n    @dev Sets the address of the breeding contract.\n    */\n    function setBreedingAddr(address _address) public onlyOwner() {\n        breedingContract = _address;\n    }\n\n    /*\n    @dev Sets address for HorseData contract\n    */\n    function setHorseDataAddr(address _address) public onlyOwner() {\n        horseDataContract = HorseData(_address);\n    }\n\n    function setHorseHash(uint256 _horse, string _hash) public onlyOwner() {\n        horses[_horse].horseHash = _hash;\n    }\n\n    /*\n    @dev Changes the baseValue of a horse, this is useful when creating offspring and should be\n    allowed only by the breeding contract.\n    */\n    function setBaseValue(uint256 _horseId, uint256 _baseValue) external onlyBreeding() {\n        Horse storage h = horses[_horseId];\n        h.baseValue = _baseValue;\n    }\n\n    /* PRIVATE FUNCTIONS */\n\n    /*\n    @dev Gets a random number between 1 and 'max';\n    */\n    function _getRand(uint256 _max) private view returns(uint256) {\n        return uint256(blockhash(block.number - 1)) % _max + 1;\n    }\n\n    /*\n    @dev Gets random number between 1 and 50.\n    */\n    function _getRand() private view returns(uint256) {\n        return uint256(blockhash(block.number - 1)) % 50 + 1;\n    }\n\n    /*\n    @dev This function returns either 0 or 1, this can be used to select a 'random' gender.\n    */\n    function _getRandGender() private view returns(uint256) {\n        return uint256(blockhash(block.number - 1)) % 2;\n    }\n\n    /*\n    @dev Calculates the genotype for an offspring based on the type of the parents.\n    @dev It returns the Genotype for an offspring unless it is greater than the cap, otherwise it returns the CAP.\n    */\n    function _getType(uint256 _maleGT, uint256 _femaleGT) private pure returns(uint256) {\n        // We're not going to run into overflows here since we have a genotype cap.\n        uint256 geno = _maleGT + _femaleGT;\n        if(geno > GENOTYPE_CAP) return GENOTYPE_CAP;\n        return geno;\n    }\n\n\n    /* ORACLIZE IMPLEMENTATION */\n\n    /* @dev Converts 'uint' to 'string' */\n    function uint2str(uint256 i) internal pure returns(string) {\n        if (i == 0) return \"0\";\n        uint256 j = i;\n        uint256 len;\n        while (j != 0){\n            len++;\n            j /= 10;\n        }\n        bytes memory bstr = new bytes(len);\n        uint256 k = len - 1;\n        while (i != 0){\n            bstr[k--] = byte(48 + i % 10);\n            i /= 10;\n        }\n        return string(bstr);\n    }\n}\n",
  "sourcePath": "/Users/eswarasai/Sites/ZED/cryptofield-core/contracts/CryptofieldBase.sol",
  "compiler": {
    "name": "solc",
    "version": "0.4.24+commit.e67f0147.Emscripten.clang"
  },
  "schemaVersion": "3.0.6",
  "updatedAt": "2019-06-11T20:54:33.281Z",
  "devdoc": {
    "methods": {
      "isOwner()": {
        "return": "true if `msg.sender` is the owner of the contract."
      },
      "owner()": {
        "return": "the address of the owner."
      },
      "renounceOwnership()": {
        "details": "Allows the current owner to relinquish control of the contract."
      },
      "transferOwnership(address)": {
        "details": "Allows the current owner to transfer control of the contract to a newOwner.",
        "params": {
          "newOwner": "The address to transfer ownership to."
        }
      }
    }
  },
  "userdoc": {
    "methods": {
      "renounceOwnership()": {
        "notice": "Renouncing to ownership will leave the contract without an owner. It will not be possible to call the functions with the `onlyOwner` modifier anymore."
      }
    }
  }
}