{
  "contractName": "ERC721MetadataMintable",
  "abi": [
    {
      "constant": true,
      "inputs": [
        {
          "name": "interfaceId",
          "type": "bytes4"
        }
      ],
      "name": "supportsInterface",
      "outputs": [
        {
          "name": "",
          "type": "bool"
        }
      ],
      "payable": false,
      "stateMutability": "view",
      "type": "function"
    },
    {
      "constant": true,
      "inputs": [],
      "name": "name",
      "outputs": [
        {
          "name": "",
          "type": "string"
        }
      ],
      "payable": false,
      "stateMutability": "view",
      "type": "function"
    },
    {
      "constant": true,
      "inputs": [
        {
          "name": "tokenId",
          "type": "uint256"
        }
      ],
      "name": "getApproved",
      "outputs": [
        {
          "name": "",
          "type": "address"
        }
      ],
      "payable": false,
      "stateMutability": "view",
      "type": "function"
    },
    {
      "constant": false,
      "inputs": [
        {
          "name": "to",
          "type": "address"
        },
        {
          "name": "tokenId",
          "type": "uint256"
        }
      ],
      "name": "approve",
      "outputs": [],
      "payable": false,
      "stateMutability": "nonpayable",
      "type": "function"
    },
    {
      "constant": false,
      "inputs": [
        {
          "name": "from",
          "type": "address"
        },
        {
          "name": "to",
          "type": "address"
        },
        {
          "name": "tokenId",
          "type": "uint256"
        }
      ],
      "name": "transferFrom",
      "outputs": [],
      "payable": false,
      "stateMutability": "nonpayable",
      "type": "function"
    },
    {
      "constant": false,
      "inputs": [
        {
          "name": "from",
          "type": "address"
        },
        {
          "name": "to",
          "type": "address"
        },
        {
          "name": "tokenId",
          "type": "uint256"
        }
      ],
      "name": "safeTransferFrom",
      "outputs": [],
      "payable": false,
      "stateMutability": "nonpayable",
      "type": "function"
    },
    {
      "constant": true,
      "inputs": [
        {
          "name": "tokenId",
          "type": "uint256"
        }
      ],
      "name": "ownerOf",
      "outputs": [
        {
          "name": "",
          "type": "address"
        }
      ],
      "payable": false,
      "stateMutability": "view",
      "type": "function"
    },
    {
      "constant": true,
      "inputs": [
        {
          "name": "owner",
          "type": "address"
        }
      ],
      "name": "balanceOf",
      "outputs": [
        {
          "name": "",
          "type": "uint256"
        }
      ],
      "payable": false,
      "stateMutability": "view",
      "type": "function"
    },
    {
      "constant": true,
      "inputs": [],
      "name": "symbol",
      "outputs": [
        {
          "name": "",
          "type": "string"
        }
      ],
      "payable": false,
      "stateMutability": "view",
      "type": "function"
    },
    {
      "constant": false,
      "inputs": [
        {
          "name": "account",
          "type": "address"
        }
      ],
      "name": "addMinter",
      "outputs": [],
      "payable": false,
      "stateMutability": "nonpayable",
      "type": "function"
    },
    {
      "constant": false,
      "inputs": [],
      "name": "renounceMinter",
      "outputs": [],
      "payable": false,
      "stateMutability": "nonpayable",
      "type": "function"
    },
    {
      "constant": false,
      "inputs": [
        {
          "name": "to",
          "type": "address"
        },
        {
          "name": "approved",
          "type": "bool"
        }
      ],
      "name": "setApprovalForAll",
      "outputs": [],
      "payable": false,
      "stateMutability": "nonpayable",
      "type": "function"
    },
    {
      "constant": true,
      "inputs": [
        {
          "name": "account",
          "type": "address"
        }
      ],
      "name": "isMinter",
      "outputs": [
        {
          "name": "",
          "type": "bool"
        }
      ],
      "payable": false,
      "stateMutability": "view",
      "type": "function"
    },
    {
      "constant": false,
      "inputs": [
        {
          "name": "from",
          "type": "address"
        },
        {
          "name": "to",
          "type": "address"
        },
        {
          "name": "tokenId",
          "type": "uint256"
        },
        {
          "name": "_data",
          "type": "bytes"
        }
      ],
      "name": "safeTransferFrom",
      "outputs": [],
      "payable": false,
      "stateMutability": "nonpayable",
      "type": "function"
    },
    {
      "constant": true,
      "inputs": [
        {
          "name": "tokenId",
          "type": "uint256"
        }
      ],
      "name": "tokenURI",
      "outputs": [
        {
          "name": "",
          "type": "string"
        }
      ],
      "payable": false,
      "stateMutability": "view",
      "type": "function"
    },
    {
      "constant": true,
      "inputs": [
        {
          "name": "owner",
          "type": "address"
        },
        {
          "name": "operator",
          "type": "address"
        }
      ],
      "name": "isApprovedForAll",
      "outputs": [
        {
          "name": "",
          "type": "bool"
        }
      ],
      "payable": false,
      "stateMutability": "view",
      "type": "function"
    },
    {
      "anonymous": false,
      "inputs": [
        {
          "indexed": true,
          "name": "account",
          "type": "address"
        }
      ],
      "name": "MinterAdded",
      "type": "event"
    },
    {
      "anonymous": false,
      "inputs": [
        {
          "indexed": true,
          "name": "account",
          "type": "address"
        }
      ],
      "name": "MinterRemoved",
      "type": "event"
    },
    {
      "anonymous": false,
      "inputs": [
        {
          "indexed": true,
          "name": "from",
          "type": "address"
        },
        {
          "indexed": true,
          "name": "to",
          "type": "address"
        },
        {
          "indexed": true,
          "name": "tokenId",
          "type": "uint256"
        }
      ],
      "name": "Transfer",
      "type": "event"
    },
    {
      "anonymous": false,
      "inputs": [
        {
          "indexed": true,
          "name": "owner",
          "type": "address"
        },
        {
          "indexed": true,
          "name": "approved",
          "type": "address"
        },
        {
          "indexed": true,
          "name": "tokenId",
          "type": "uint256"
        }
      ],
      "name": "Approval",
      "type": "event"
    },
    {
      "anonymous": false,
      "inputs": [
        {
          "indexed": true,
          "name": "owner",
          "type": "address"
        },
        {
          "indexed": true,
          "name": "operator",
          "type": "address"
        },
        {
          "indexed": false,
          "name": "approved",
          "type": "bool"
        }
      ],
      "name": "ApprovalForAll",
      "type": "event"
    },
    {
      "constant": false,
      "inputs": [
        {
          "name": "name",
          "type": "string"
        },
        {
          "name": "symbol",
          "type": "string"
        }
      ],
      "name": "initialize",
      "outputs": [],
      "payable": false,
      "stateMutability": "nonpayable",
      "type": "function"
    },
    {
      "constant": false,
      "inputs": [],
      "name": "initialize",
      "outputs": [],
      "payable": false,
      "stateMutability": "nonpayable",
      "type": "function"
    },
    {
      "constant": false,
      "inputs": [
        {
          "name": "sender",
          "type": "address"
        }
      ],
      "name": "initialize",
      "outputs": [],
      "payable": false,
      "stateMutability": "nonpayable",
      "type": "function"
    },
    {
      "constant": false,
      "inputs": [
        {
          "name": "to",
          "type": "address"
        },
        {
          "name": "tokenId",
          "type": "uint256"
        },
        {
          "name": "tokenURI",
          "type": "string"
        }
      ],
      "name": "mintWithTokenURI",
      "outputs": [
        {
          "name": "",
          "type": "bool"
        }
      ],
      "payable": false,
      "stateMutability": "nonpayable",
      "type": "function"
    }
  ],
  "bytecode": "0x608060405234801561001057600080fd5b506115e6806100206000396000f3006080604052600436106101115763ffffffff7c010000000000000000000000000000000000000000000000000000000060003504166301ffc9a7811461011657806306fdde031461014c578063081812fc146101d6578063095ea7b31461020a57806323b872dd1461023057806342842e0e1461025a5780634cd88b761461028457806350bb4e7f1461031b5780636352211e1461038457806370a082311461039c5780638129fc1c146103cf57806395d89b41146103e4578063983b2d56146103f9578063986502751461041a578063a22cb4651461042f578063aa271e1a14610455578063b88d4fde14610476578063c4d66de8146104e5578063c87b56dd14610506578063e985e9c51461051e575b600080fd5b34801561012257600080fd5b50610138600160e060020a031960043516610545565b604080519115158252519081900360200190f35b34801561015857600080fd5b50610161610564565b6040805160208082528351818301528351919283929083019185019080838360005b8381101561019b578181015183820152602001610183565b50505050905090810190601f1680156101c85780820380516001836020036101000a031916815260200191505b509250505060405180910390f35b3480156101e257600080fd5b506101ee6004356105fb565b60408051600160a060020a039092168252519081900360200190f35b34801561021657600080fd5b5061022e600160a060020a036004351660243561062d565b005b34801561023c57600080fd5b5061022e600160a060020a03600435811690602435166044356106e3565b34801561026657600080fd5b5061022e600160a060020a0360043581169060243516604435610771565b34801561029057600080fd5b506040805160206004803580820135601f810184900484028501840190955284845261022e94369492936024939284019190819084018382808284375050604080516020601f89358b018035918201839004830284018301909452808352979a9998810197919650918201945092508291508401838280828437509497506107929650505050505050565b34801561032757600080fd5b50604080516020600460443581810135601f8101849004840285018401909552848452610138948235600160a060020a03169460248035953695946064949201919081908401838280828437509497506108b39650505050505050565b34801561039057600080fd5b506101ee6004356108e7565b3480156103a857600080fd5b506103bd600160a060020a0360043516610911565b60408051918252519081900360200190f35b3480156103db57600080fd5b5061022e610944565b3480156103f057600080fd5b50610161610a30565b34801561040557600080fd5b5061022e600160a060020a0360043516610a91565b34801561042657600080fd5b5061022e610ab1565b34801561043b57600080fd5b5061022e600160a060020a03600435166024351515610abc565b34801561046157600080fd5b50610138600160a060020a0360043516610b40565b34801561048257600080fd5b50604080516020601f60643560048181013592830184900484028501840190955281845261022e94600160a060020a038135811695602480359092169560443595369560849401918190840183828082843750949750610b539650505050505050565b3480156104f157600080fd5b5061022e600160a060020a0360043516610b7b565b34801561051257600080fd5b50610161600435610c66565b34801561052a57600080fd5b50610138600160a060020a0360043581169060243516610d1b565b600160e060020a03191660009081526033602052604090205460ff1690565b609c8054604080516020601f60026000196101006001881615020190951694909404938401819004810282018101909252828152606093909290918301828280156105f05780601f106105c5576101008083540402835291602001916105f0565b820191906000526020600020905b8154815290600101906020018083116105d357829003601f168201915b505050505090505b90565b600061060682610d49565b151561061157600080fd5b50600090815260676020526040902054600160a060020a031690565b6000610638826108e7565b9050600160a060020a03838116908216141561065357600080fd5b33600160a060020a038216148061066f575061066f8133610d1b565b151561067a57600080fd5b600082815260676020526040808220805473ffffffffffffffffffffffffffffffffffffffff1916600160a060020a0387811691821790925591518593918516917f8c5be1e5ebec7d5bd14f71427d1e84f3dd0314c0f7b2291e5b200ac8c7c3b92591a4505050565b6106ed3382610d66565b15156106f857600080fd5b600160a060020a038216151561070d57600080fd5b6107178382610dc5565b6107218382610e36565b61072b8282610ecc565b8082600160a060020a031684600160a060020a03167fddf252ad1be2c89b69c2b068fc378daa952ba7f163c4a11628f55a4df523b3ef60405160405180910390a4505050565b61078d8383836020604051908101604052806000815250610b53565b505050565b60008054610100900460ff16806107ac57506107ac610f5d565b806107ba575060005460ff16155b1515610812576040805160e560020a62461bcd02815260206004820152602e602482015260008051602061157b833981519152604482015260008051602061159b833981519152606482015290519081900360840190fd5b5060008054600161010061ff00198316811760ff1916919091179092550460ff1661083b610f67565b151561084657600080fd5b825161085990609c9060208601906114ec565b50815161086d90609d9060208501906114ec565b506108977f5b5e139f00000000000000000000000000000000000000000000000000000000610f97565b600080549115156101000261ff00199092169190911790555050565b60006108be33610b40565b15156108c957600080fd5b6108d38484610fd3565b6108dd838361102e565b5060019392505050565b600081815260666020526040812054600160a060020a031680151561090b57600080fd5b92915050565b6000600160a060020a038216151561092857600080fd5b50600160a060020a031660009081526068602052604090205490565b60008054610100900460ff168061095e575061095e610f5d565b8061096c575060005460ff16155b15156109c4576040805160e560020a62461bcd02815260206004820152602e602482015260008051602061157b833981519152604482015260008051602061159b833981519152606482015290519081900360840190fd5b5060008054600161010061ff00198316811760ff1916919091179092550460ff166109ed611061565b610a167f80ac58cd00000000000000000000000000000000000000000000000000000000610f97565b600080549115156101000261ff0019909216919091179055565b609d8054604080516020601f60026000196101006001881615020190951694909404938401819004810282018101909252828152606093909290918301828280156105f05780601f106105c5576101008083540402835291602001916105f0565b610a9a33610b40565b1515610aa557600080fd5b610aae8161112b565b50565b610aba33611173565b565b600160a060020a038216331415610ad257600080fd5b336000818152606960209081526040808320600160a060020a03871680855290835292819020805460ff1916861515908117909155815190815290519293927f17307eab39ab6107e8899845ad3d59bd9653f200f220920489ca2b5937696c31929181900390910190a35050565b600061090b60d18363ffffffff6111bb16565b610b5e8484846106e3565b610b6a848484846111f2565b1515610b7557600080fd5b50505050565b60008054610100900460ff1680610b955750610b95610f5d565b80610ba3575060005460ff16155b1515610bfb576040805160e560020a62461bcd02815260206004820152602e602482015260008051602061157b833981519152604482015260008051602061159b833981519152606482015290519081900360840190fd5b5060008054600161010061ff00198316811760ff1916919091179092550460ff16610c24610f67565b1515610c2f57600080fd5b610c3761135f565b1515610c4257600080fd5b610c4b8261138a565b600080549115156101000261ff001990921691909117905550565b6060610c7182610d49565b1515610c7c57600080fd5b6000828152609e602090815260409182902080548351601f600260001961010060018616150201909316929092049182018490048402810184019094528084529091830182828015610d0f5780601f10610ce457610100808354040283529160200191610d0f565b820191906000526020600020905b815481529060010190602001808311610cf257829003601f168201915b50505050509050919050565b600160a060020a03918216600090815260696020908152604080832093909416825291909152205460ff1690565b600090815260666020526040902054600160a060020a0316151590565b600080610d72836108e7565b905080600160a060020a031684600160a060020a03161480610dad575083600160a060020a0316610da2846105fb565b600160a060020a0316145b80610dbd5750610dbd8185610d1b565b949350505050565b81600160a060020a0316610dd8826108e7565b600160a060020a031614610deb57600080fd5b600081815260676020526040902054600160a060020a031615610e32576000818152606760205260409020805473ffffffffffffffffffffffffffffffffffffffff191690555b5050565b81600160a060020a0316610e49826108e7565b600160a060020a031614610e5c57600080fd5b600160a060020a038216600090815260686020526040902054610e8690600163ffffffff61144316565b600160a060020a03909216600090815260686020908152604080832094909455918152606690915220805473ffffffffffffffffffffffffffffffffffffffff19169055565b600081815260666020526040902054600160a060020a031615610eee57600080fd5b6000818152606660209081526040808320805473ffffffffffffffffffffffffffffffffffffffff1916600160a060020a03871690811790915583526068909152902054610f3d90600161145a565b600160a060020a0390921660009081526068602052604090209190915550565b303b8015905b5090565b6000610f927f80ac58cd00000000000000000000000000000000000000000000000000000000610545565b905090565b600160e060020a03198082161415610fae57600080fd5b600160e060020a0319166000908152603360205260409020805460ff19166001179055565b600160a060020a0382161515610fe857600080fd5b610ff28282610ecc565b6040518190600160a060020a038416906000907fddf252ad1be2c89b69c2b068fc378daa952ba7f163c4a11628f55a4df523b3ef908290a45050565b61103782610d49565b151561104257600080fd5b6000828152609e60209081526040909120825161078d928401906114ec565b60008054610100900460ff168061107b575061107b610f5d565b80611089575060005460ff16155b15156110e1576040805160e560020a62461bcd02815260206004820152602e602482015260008051602061157b833981519152604482015260008051602061159b833981519152606482015290519081900360840190fd5b5060008054600161010061ff00198316811760ff1916919091179092550460ff16610a167f01ffc9a700000000000000000000000000000000000000000000000000000000610f97565b61113c60d18263ffffffff61147316565b604051600160a060020a038216907f6ae172837ea30b801fbfcdd4108aa1d5bf8ff775444fd70256b44e6bf3dfc3f690600090a250565b61118460d18263ffffffff6114ad16565b604051600160a060020a038216907fe94479a9f7e1952cc78f2d6baab678adc1b772d936c6583def489e524cb6669290600090a250565b6000600160a060020a03821615156111d257600080fd5b50600160a060020a03166000908152602091909152604090205460ff1690565b60008061120785600160a060020a03166114e4565b15156112165760019150611356565b6040517f150b7a020000000000000000000000000000000000000000000000000000000081523360048201818152600160a060020a03898116602485015260448401889052608060648501908152875160848601528751918a169463150b7a0294938c938b938b93909160a490910190602085019080838360005b838110156112a9578181015183820152602001611291565b50505050905090810190601f1680156112d65780820380516001836020036101000a031916815260200191505b5095505050505050602060405180830381600087803b1580156112f857600080fd5b505af115801561130c573d6000803e3d6000fd5b505050506040513d602081101561132257600080fd5b5051600160e060020a031981167f150b7a020000000000000000000000000000000000000000000000000000000014925090505b50949350505050565b6000610f927f5b5e139f00000000000000000000000000000000000000000000000000000000610545565b60008054610100900460ff16806113a457506113a4610f5d565b806113b2575060005460ff16155b151561140a576040805160e560020a62461bcd02815260206004820152602e602482015260008051602061157b833981519152604482015260008051602061159b833981519152606482015290519081900360840190fd5b5060008054600161010061ff00198316811760ff1916919091179092550460ff1661143482610b40565b1515610c4b57610c4b8261112b565b6000808383111561145357600080fd5b5050900390565b60008282018381101561146c57600080fd5b9392505050565b600160a060020a038116151561148857600080fd5b600160a060020a0316600090815260209190915260409020805460ff19166001179055565b600160a060020a03811615156114c257600080fd5b600160a060020a0316600090815260209190915260409020805460ff19169055565b6000903b1190565b828054600181600116156101000203166002900490600052602060002090601f016020900481019282601f1061152d57805160ff191683800117855561155a565b8280016001018555821561155a579182015b8281111561155a57825182559160200191906001019061153f565b50610f63926105f89250905b80821115610f6357600081556001016115665600436f6e747261637420696e7374616e63652068617320616c7265616479206265656e20696e697469616c697a6564000000000000000000000000000000000000a165627a7a72305820a369a212be4c5dc71b34a19dac3257d5a0d1d4389efb711a7fd6bcd2ca7be9c30029",
  "source": "pragma solidity ^0.4.24;\n\nimport \"zos-lib/contracts/Initializable.sol\";\nimport \"./ERC721Metadata.sol\";\nimport \"../../access/roles/MinterRole.sol\";\n\n\n/**\n * @title ERC721MetadataMintable\n * @dev ERC721 minting logic with metadata\n */\ncontract ERC721MetadataMintable is Initializable, ERC721, ERC721Metadata, MinterRole {\n  function initialize(address sender) public initializer {\n    require(ERC721._hasBeenInitialized());\n    require(ERC721Metadata._hasBeenInitialized());\n    MinterRole.initialize(sender);\n  }\n\n  /**\n   * @dev Function to mint tokens\n   * @param to The address that will receive the minted tokens.\n   * @param tokenId The token id to mint.\n   * @param tokenURI The token URI of the minted token.\n   * @return A boolean that indicates if the operation was successful.\n   */\n  function mintWithTokenURI(\n    address to,\n    uint256 tokenId,\n    string tokenURI\n  )\n    public\n    onlyMinter\n    returns (bool)\n  {\n    _mint(to, tokenId);\n    _setTokenURI(tokenId, tokenURI);\n    return true;\n  }\n\n  uint256[50] private ______gap;\n}\n",
  "sourcePath": "openzeppelin-eth/contracts/token/ERC721/ERC721MetadataMintable.sol",
  "compiler": {
    "name": "solc",
    "version": "0.4.24+commit.e67f0147.Emscripten.clang"
  },
  "schemaVersion": "3.0.6",
  "updatedAt": "2019-06-11T20:54:33.515Z",
  "devdoc": {
    "methods": {
      "approve(address,uint256)": {
        "details": "Approves another address to transfer the given token ID The zero address indicates there is no approved address. There can only be one approved address per token at a given time. Can only be called by the token owner or an approved operator.",
        "params": {
          "to": "address to be approved for the given token ID",
          "tokenId": "uint256 ID of the token to be approved"
        }
      },
      "balanceOf(address)": {
        "details": "Gets the balance of the specified address",
        "params": {
          "owner": "address to query the balance of"
        },
        "return": "uint256 representing the amount owned by the passed address"
      },
      "getApproved(uint256)": {
        "details": "Gets the approved address for a token ID, or zero if no address set Reverts if the token ID does not exist.",
        "params": {
          "tokenId": "uint256 ID of the token to query the approval of"
        },
        "return": "address currently approved for the given token ID"
      },
      "initialize(string,string)": {
        "details": "Constructor function"
      },
      "isApprovedForAll(address,address)": {
        "details": "Tells whether an operator is approved by a given owner",
        "params": {
          "operator": "operator address which you want to query the approval of",
          "owner": "owner address which you want to query the approval of"
        },
        "return": "bool whether the given operator is approved by the given owner"
      },
      "mintWithTokenURI(address,uint256,string)": {
        "details": "Function to mint tokens",
        "params": {
          "to": "The address that will receive the minted tokens.",
          "tokenId": "The token id to mint.",
          "tokenURI": "The token URI of the minted token."
        },
        "return": "A boolean that indicates if the operation was successful."
      },
      "name()": {
        "details": "Gets the token name",
        "return": "string representing the token name"
      },
      "ownerOf(uint256)": {
        "details": "Gets the owner of the specified token ID",
        "params": {
          "tokenId": "uint256 ID of the token to query the owner of"
        },
        "return": "owner address currently marked as the owner of the given token ID"
      },
      "safeTransferFrom(address,address,uint256)": {
        "details": "Safely transfers the ownership of a given token ID to another address If the target address is a contract, it must implement `onERC721Received`, which is called upon a safe transfer, and return the magic value `bytes4(keccak256(\"onERC721Received(address,address,uint256,bytes)\"))`; otherwise, the transfer is reverted.   * Requires the msg sender to be the owner, approved, or operator",
        "params": {
          "from": "current owner of the token",
          "to": "address to receive the ownership of the given token ID",
          "tokenId": "uint256 ID of the token to be transferred"
        }
      },
      "safeTransferFrom(address,address,uint256,bytes)": {
        "details": "Safely transfers the ownership of a given token ID to another address If the target address is a contract, it must implement `onERC721Received`, which is called upon a safe transfer, and return the magic value `bytes4(keccak256(\"onERC721Received(address,address,uint256,bytes)\"))`; otherwise, the transfer is reverted. Requires the msg sender to be the owner, approved, or operator",
        "params": {
          "_data": "bytes data to send along with a safe transfer check",
          "from": "current owner of the token",
          "to": "address to receive the ownership of the given token ID",
          "tokenId": "uint256 ID of the token to be transferred"
        }
      },
      "setApprovalForAll(address,bool)": {
        "details": "Sets or unsets the approval of a given operator An operator is allowed to transfer all tokens of the sender on their behalf",
        "params": {
          "approved": "representing the status of the approval to be set",
          "to": "operator address to set the approval"
        }
      },
      "supportsInterface(bytes4)": {
        "details": "implement supportsInterface(bytes4) using a lookup table"
      },
      "symbol()": {
        "details": "Gets the token symbol",
        "return": "string representing the token symbol"
      },
      "tokenURI(uint256)": {
        "details": "Returns an URI for a given token ID Throws if the token ID does not exist. May return an empty string.",
        "params": {
          "tokenId": "uint256 ID of the token to query"
        }
      },
      "transferFrom(address,address,uint256)": {
        "details": "Transfers the ownership of a given token ID to another address Usage of this method is discouraged, use `safeTransferFrom` whenever possible Requires the msg sender to be the owner, approved, or operator",
        "params": {
          "from": "current owner of the token",
          "to": "address to receive the ownership of the given token ID",
          "tokenId": "uint256 ID of the token to be transferred"
        }
      }
    },
    "title": "ERC721MetadataMintable"
  },
  "userdoc": {
    "methods": {}
  }
}