{
  "contractName": "ERC721Pausable",
  "abi": [
    {
      "constant": true,
      "inputs": [
        {
          "name": "interfaceId",
          "type": "bytes4"
        }
      ],
      "name": "supportsInterface",
      "outputs": [
        {
          "name": "",
          "type": "bool"
        }
      ],
      "payable": false,
      "stateMutability": "view",
      "type": "function"
    },
    {
      "constant": true,
      "inputs": [
        {
          "name": "tokenId",
          "type": "uint256"
        }
      ],
      "name": "getApproved",
      "outputs": [
        {
          "name": "",
          "type": "address"
        }
      ],
      "payable": false,
      "stateMutability": "view",
      "type": "function"
    },
    {
      "constant": false,
      "inputs": [],
      "name": "unpause",
      "outputs": [],
      "payable": false,
      "stateMutability": "nonpayable",
      "type": "function"
    },
    {
      "constant": false,
      "inputs": [
        {
          "name": "from",
          "type": "address"
        },
        {
          "name": "to",
          "type": "address"
        },
        {
          "name": "tokenId",
          "type": "uint256"
        }
      ],
      "name": "safeTransferFrom",
      "outputs": [],
      "payable": false,
      "stateMutability": "nonpayable",
      "type": "function"
    },
    {
      "constant": true,
      "inputs": [
        {
          "name": "account",
          "type": "address"
        }
      ],
      "name": "isPauser",
      "outputs": [
        {
          "name": "",
          "type": "bool"
        }
      ],
      "payable": false,
      "stateMutability": "view",
      "type": "function"
    },
    {
      "constant": true,
      "inputs": [],
      "name": "paused",
      "outputs": [
        {
          "name": "",
          "type": "bool"
        }
      ],
      "payable": false,
      "stateMutability": "view",
      "type": "function"
    },
    {
      "constant": true,
      "inputs": [
        {
          "name": "tokenId",
          "type": "uint256"
        }
      ],
      "name": "ownerOf",
      "outputs": [
        {
          "name": "",
          "type": "address"
        }
      ],
      "payable": false,
      "stateMutability": "view",
      "type": "function"
    },
    {
      "constant": false,
      "inputs": [],
      "name": "renouncePauser",
      "outputs": [],
      "payable": false,
      "stateMutability": "nonpayable",
      "type": "function"
    },
    {
      "constant": true,
      "inputs": [
        {
          "name": "owner",
          "type": "address"
        }
      ],
      "name": "balanceOf",
      "outputs": [
        {
          "name": "",
          "type": "uint256"
        }
      ],
      "payable": false,
      "stateMutability": "view",
      "type": "function"
    },
    {
      "constant": false,
      "inputs": [
        {
          "name": "account",
          "type": "address"
        }
      ],
      "name": "addPauser",
      "outputs": [],
      "payable": false,
      "stateMutability": "nonpayable",
      "type": "function"
    },
    {
      "constant": false,
      "inputs": [],
      "name": "pause",
      "outputs": [],
      "payable": false,
      "stateMutability": "nonpayable",
      "type": "function"
    },
    {
      "constant": false,
      "inputs": [
        {
          "name": "from",
          "type": "address"
        },
        {
          "name": "to",
          "type": "address"
        },
        {
          "name": "tokenId",
          "type": "uint256"
        },
        {
          "name": "_data",
          "type": "bytes"
        }
      ],
      "name": "safeTransferFrom",
      "outputs": [],
      "payable": false,
      "stateMutability": "nonpayable",
      "type": "function"
    },
    {
      "constant": true,
      "inputs": [
        {
          "name": "owner",
          "type": "address"
        },
        {
          "name": "operator",
          "type": "address"
        }
      ],
      "name": "isApprovedForAll",
      "outputs": [
        {
          "name": "",
          "type": "bool"
        }
      ],
      "payable": false,
      "stateMutability": "view",
      "type": "function"
    },
    {
      "anonymous": false,
      "inputs": [],
      "name": "Paused",
      "type": "event"
    },
    {
      "anonymous": false,
      "inputs": [],
      "name": "Unpaused",
      "type": "event"
    },
    {
      "anonymous": false,
      "inputs": [
        {
          "indexed": true,
          "name": "account",
          "type": "address"
        }
      ],
      "name": "PauserAdded",
      "type": "event"
    },
    {
      "anonymous": false,
      "inputs": [
        {
          "indexed": true,
          "name": "account",
          "type": "address"
        }
      ],
      "name": "PauserRemoved",
      "type": "event"
    },
    {
      "anonymous": false,
      "inputs": [
        {
          "indexed": true,
          "name": "from",
          "type": "address"
        },
        {
          "indexed": true,
          "name": "to",
          "type": "address"
        },
        {
          "indexed": true,
          "name": "tokenId",
          "type": "uint256"
        }
      ],
      "name": "Transfer",
      "type": "event"
    },
    {
      "anonymous": false,
      "inputs": [
        {
          "indexed": true,
          "name": "owner",
          "type": "address"
        },
        {
          "indexed": true,
          "name": "approved",
          "type": "address"
        },
        {
          "indexed": true,
          "name": "tokenId",
          "type": "uint256"
        }
      ],
      "name": "Approval",
      "type": "event"
    },
    {
      "anonymous": false,
      "inputs": [
        {
          "indexed": true,
          "name": "owner",
          "type": "address"
        },
        {
          "indexed": true,
          "name": "operator",
          "type": "address"
        },
        {
          "indexed": false,
          "name": "approved",
          "type": "bool"
        }
      ],
      "name": "ApprovalForAll",
      "type": "event"
    },
    {
      "constant": false,
      "inputs": [],
      "name": "initialize",
      "outputs": [],
      "payable": false,
      "stateMutability": "nonpayable",
      "type": "function"
    },
    {
      "constant": false,
      "inputs": [
        {
          "name": "sender",
          "type": "address"
        }
      ],
      "name": "initialize",
      "outputs": [],
      "payable": false,
      "stateMutability": "nonpayable",
      "type": "function"
    },
    {
      "constant": false,
      "inputs": [
        {
          "name": "to",
          "type": "address"
        },
        {
          "name": "tokenId",
          "type": "uint256"
        }
      ],
      "name": "approve",
      "outputs": [],
      "payable": false,
      "stateMutability": "nonpayable",
      "type": "function"
    },
    {
      "constant": false,
      "inputs": [
        {
          "name": "to",
          "type": "address"
        },
        {
          "name": "approved",
          "type": "bool"
        }
      ],
      "name": "setApprovalForAll",
      "outputs": [],
      "payable": false,
      "stateMutability": "nonpayable",
      "type": "function"
    },
    {
      "constant": false,
      "inputs": [
        {
          "name": "from",
          "type": "address"
        },
        {
          "name": "to",
          "type": "address"
        },
        {
          "name": "tokenId",
          "type": "uint256"
        }
      ],
      "name": "transferFrom",
      "outputs": [],
      "payable": false,
      "stateMutability": "nonpayable",
      "type": "function"
    }
  ],
  "bytecode": "0x608060405260cf805460ff1916905534801561001a57600080fd5b506111ae8061002a6000396000f3006080604052600436106100fb5763ffffffff7c010000000000000000000000000000000000000000000000000000000060003504166301ffc9a78114610100578063081812fc14610136578063095ea7b31461016a57806323b872dd146101905780633f4ba83a146101ba57806342842e0e146101cf57806346fbf68e146101f95780635c975abb1461021a5780636352211e1461022f5780636ef8d66d1461024757806370a082311461025c5780638129fc1c1461028f57806382dc1ec4146102a45780638456cb59146102c5578063a22cb465146102da578063b88d4fde14610300578063c4d66de81461036f578063e985e9c514610390575b600080fd5b34801561010c57600080fd5b50610122600160e060020a0319600435166103b7565b604080519115158252519081900360200190f35b34801561014257600080fd5b5061014e6004356103d6565b60408051600160a060020a039092168252519081900360200190f35b34801561017657600080fd5b5061018e600160a060020a0360043516602435610408565b005b34801561019c57600080fd5b5061018e600160a060020a0360043581169060243516604435610426565b3480156101c657600080fd5b5061018e610446565b3480156101db57600080fd5b5061018e600160a060020a03600435811690602435166044356104a0565b34801561020557600080fd5b50610122600160a060020a03600435166104bc565b34801561022657600080fd5b506101226104d5565b34801561023b57600080fd5b5061014e6004356104de565b34801561025357600080fd5b5061018e610502565b34801561026857600080fd5b5061027d600160a060020a036004351661050d565b60408051918252519081900360200190f35b34801561029b57600080fd5b5061018e610540565b3480156102b057600080fd5b5061018e600160a060020a036004351661062c565b3480156102d157600080fd5b5061018e61064c565b3480156102e657600080fd5b5061018e600160a060020a036004351660243515156106a8565b34801561030c57600080fd5b50604080516020601f60643560048181013592830184900484028501840190955281845261018e94600160a060020a0381358116956024803590921695604435953695608494019181908401838280828437509497506106c29650505050505050565b34801561037b57600080fd5b5061018e600160a060020a03600435166106ea565b34801561039c57600080fd5b50610122600160a060020a03600435811690602435166107c2565b600160e060020a03191660009081526033602052604090205460ff1690565b60006103e1826107f0565b15156103ec57600080fd5b50600090815260676020526040902054600160a060020a031690565b60cf5460ff161561041857600080fd5b610422828261080d565b5050565b60cf5460ff161561043657600080fd5b6104418383836108c3565b505050565b61044f336104bc565b151561045a57600080fd5b60cf5460ff16151561046b57600080fd5b60cf805460ff191690556040517fa45f47fdea8a1efdd9029a5691c7f759c32b7c698632b563573e155625d1693390600090a1565b61044183838360206040519081016040528060008152506106c2565b60006104cf609c8363ffffffff61095116565b92915050565b60cf5460ff1690565b600081815260666020526040812054600160a060020a03168015156104cf57600080fd5b61050b33610988565b565b6000600160a060020a038216151561052457600080fd5b50600160a060020a031660009081526068602052604090205490565b60008054610100900460ff168061055a575061055a6109d0565b80610568575060005460ff16155b15156105c0576040805160e560020a62461bcd02815260206004820152602e60248201526000805160206111438339815191526044820152600080516020611163833981519152606482015290519081900360840190fd5b5060008054600161010061ff00198316811760ff1916919091179092550460ff166105e96109d6565b6106127f80ac58cd00000000000000000000000000000000000000000000000000000000610a9c565b600080549115156101000261ff0019909216919091179055565b610635336104bc565b151561064057600080fd5b61064981610ad8565b50565b610655336104bc565b151561066057600080fd5b60cf5460ff161561067057600080fd5b60cf805460ff191660011790556040517f9e87fac88ff661f02d44f95383c817fece4bce600a3dab7a54406878b965e75290600090a1565b60cf5460ff16156106b857600080fd5b6104228282610b20565b6106cd848484610426565b6106d984848484610ba4565b15156106e457600080fd5b50505050565b60008054610100900460ff168061070457506107046109d0565b80610712575060005460ff16155b151561076a576040805160e560020a62461bcd02815260206004820152602e60248201526000805160206111438339815191526044820152600080516020611163833981519152606482015290519081900360840190fd5b5060008054600161010061ff00198316811760ff1916919091179092550460ff16610793610d11565b151561079e57600080fd5b6107a782610d41565b600080549115156101000261ff001990921691909117905550565b600160a060020a03918216600090815260696020908152604080832093909416825291909152205460ff1690565b600090815260666020526040902054600160a060020a0316151590565b6000610818826104de565b9050600160a060020a03838116908216141561083357600080fd5b33600160a060020a038216148061084f575061084f81336107c2565b151561085a57600080fd5b600082815260676020526040808220805473ffffffffffffffffffffffffffffffffffffffff1916600160a060020a0387811691821790925591518593918516917f8c5be1e5ebec7d5bd14f71427d1e84f3dd0314c0f7b2291e5b200ac8c7c3b92591a4505050565b6108cd3382610deb565b15156108d857600080fd5b600160a060020a03821615156108ed57600080fd5b6108f78382610e4a565b6109018382610eb9565b61090b8282610f4f565b8082600160a060020a031684600160a060020a03167fddf252ad1be2c89b69c2b068fc378daa952ba7f163c4a11628f55a4df523b3ef60405160405180910390a4505050565b6000600160a060020a038216151561096857600080fd5b50600160a060020a03166000908152602091909152604090205460ff1690565b610999609c8263ffffffff610fe016565b604051600160a060020a038216907fcd265ebaf09df2871cc7bd4133404a235ba12eff2041bb89d9c714a2621c7c7e90600090a250565b303b1590565b60008054610100900460ff16806109f057506109f06109d0565b806109fe575060005460ff16155b1515610a56576040805160e560020a62461bcd02815260206004820152602e60248201526000805160206111438339815191526044820152600080516020611163833981519152606482015290519081900360840190fd5b5060008054600161010061ff00198316811760ff1916919091179092550460ff166106127f01ffc9a7000000000000000000000000000000000000000000000000000000005b600160e060020a03198082161415610ab357600080fd5b600160e060020a0319166000908152603360205260409020805460ff19166001179055565b610ae9609c8263ffffffff61101716565b604051600160a060020a038216907f6719d08c1888103bea251a4ed56406bd0c3e69723c8a1686e017e7bbe159b6f890600090a250565b600160a060020a038216331415610b3657600080fd5b336000818152606960209081526040808320600160a060020a03871680855290835292819020805460ff1916861515908117909155815190815290519293927f17307eab39ab6107e8899845ad3d59bd9653f200f220920489ca2b5937696c31929181900390910190a35050565b600080610bb985600160a060020a0316611051565b1515610bc85760019150610d08565b6040517f150b7a020000000000000000000000000000000000000000000000000000000081523360048201818152600160a060020a03898116602485015260448401889052608060648501908152875160848601528751918a169463150b7a0294938c938b938b93909160a490910190602085019080838360005b83811015610c5b578181015183820152602001610c43565b50505050905090810190601f168015610c885780820380516001836020036101000a031916815260200191505b5095505050505050602060405180830381600087803b158015610caa57600080fd5b505af1158015610cbe573d6000803e3d6000fd5b505050506040513d6020811015610cd457600080fd5b5051600160e060020a031981167f150b7a020000000000000000000000000000000000000000000000000000000014925090505b50949350505050565b6000610d3c7f80ac58cd000000000000000000000000000000000000000000000000000000006103b7565b905090565b60008054610100900460ff1680610d5b5750610d5b6109d0565b80610d69575060005460ff16155b1515610dc1576040805160e560020a62461bcd02815260206004820152602e60248201526000805160206111438339815191526044820152600080516020611163833981519152606482015290519081900360840190fd5b5060008054600161010061ff00198316811760ff1916919091179092550460ff166107a782611059565b600080610df7836104de565b905080600160a060020a031684600160a060020a03161480610e32575083600160a060020a0316610e27846103d6565b600160a060020a0316145b80610e425750610e4281856107c2565b949350505050565b81600160a060020a0316610e5d826104de565b600160a060020a031614610e7057600080fd5b600081815260676020526040902054600160a060020a031615610422576000908152606760205260409020805473ffffffffffffffffffffffffffffffffffffffff1916905550565b81600160a060020a0316610ecc826104de565b600160a060020a031614610edf57600080fd5b600160a060020a038216600090815260686020526040902054610f0990600163ffffffff61111216565b600160a060020a03909216600090815260686020908152604080832094909455918152606690915220805473ffffffffffffffffffffffffffffffffffffffff19169055565b600081815260666020526040902054600160a060020a031615610f7157600080fd5b6000818152606660209081526040808320805473ffffffffffffffffffffffffffffffffffffffff1916600160a060020a03871690811790915583526068909152902054610fc0906001611129565b600160a060020a0390921660009081526068602052604090209190915550565b600160a060020a0381161515610ff557600080fd5b600160a060020a0316600090815260209190915260409020805460ff19169055565b600160a060020a038116151561102c57600080fd5b600160a060020a0316600090815260209190915260409020805460ff19166001179055565b6000903b1190565b60008054610100900460ff168061107357506110736109d0565b80611081575060005460ff16155b15156110d9576040805160e560020a62461bcd02815260206004820152602e60248201526000805160206111438339815191526044820152600080516020611163833981519152606482015290519081900360840190fd5b5060008054600161010061ff00198316811760ff1916919091179092550460ff16611103826104bc565b15156107a7576107a782610ad8565b6000808383111561112257600080fd5b5050900390565b60008282018381101561113b57600080fd5b93925050505600436f6e747261637420696e7374616e63652068617320616c7265616479206265656e20696e697469616c697a6564000000000000000000000000000000000000a165627a7a7230582057675a9c0ed4701ff757ccdb40ee7d12fd889cb8bd7cede9bce8a0322a337ace0029",
  "source": "pragma solidity ^0.4.24;\n\nimport \"zos-lib/contracts/Initializable.sol\";\nimport \"./ERC721.sol\";\nimport \"../../lifecycle/Pausable.sol\";\n\n\n/**\n * @title ERC721 Non-Fungible Pausable token\n * @dev ERC721 modified with pausable transfers.\n **/\ncontract ERC721Pausable is Initializable, ERC721, Pausable {\n  function initialize(address sender) public initializer {\n    require(ERC721._hasBeenInitialized());\n    Pausable.initialize(sender);\n  }\n\n  function approve(\n    address to,\n    uint256 tokenId\n  )\n    public\n    whenNotPaused\n  {\n    super.approve(to, tokenId);\n  }\n\n  function setApprovalForAll(\n    address to,\n    bool approved\n  )\n    public\n    whenNotPaused\n  {\n    super.setApprovalForAll(to, approved);\n  }\n\n  function transferFrom(\n    address from,\n    address to,\n    uint256 tokenId\n  )\n    public\n    whenNotPaused\n  {\n    super.transferFrom(from, to, tokenId);\n  }\n\n  uint256[50] private ______gap;\n}\n",
  "sourcePath": "openzeppelin-eth/contracts/token/ERC721/ERC721Pausable.sol",
  "compiler": {
    "name": "solc",
    "version": "0.4.24+commit.e67f0147.Emscripten.clang"
  },
  "schemaVersion": "3.0.6",
  "updatedAt": "2019-06-11T20:54:33.515Z",
  "devdoc": {
    "methods": {
      "balanceOf(address)": {
        "details": "Gets the balance of the specified address",
        "params": {
          "owner": "address to query the balance of"
        },
        "return": "uint256 representing the amount owned by the passed address"
      },
      "getApproved(uint256)": {
        "details": "Gets the approved address for a token ID, or zero if no address set Reverts if the token ID does not exist.",
        "params": {
          "tokenId": "uint256 ID of the token to query the approval of"
        },
        "return": "address currently approved for the given token ID"
      },
      "isApprovedForAll(address,address)": {
        "details": "Tells whether an operator is approved by a given owner",
        "params": {
          "operator": "operator address which you want to query the approval of",
          "owner": "owner address which you want to query the approval of"
        },
        "return": "bool whether the given operator is approved by the given owner"
      },
      "ownerOf(uint256)": {
        "details": "Gets the owner of the specified token ID",
        "params": {
          "tokenId": "uint256 ID of the token to query the owner of"
        },
        "return": "owner address currently marked as the owner of the given token ID"
      },
      "pause()": {
        "details": "called by the owner to pause, triggers stopped state"
      },
      "paused()": {
        "return": "true if the contract is paused, false otherwise."
      },
      "safeTransferFrom(address,address,uint256)": {
        "details": "Safely transfers the ownership of a given token ID to another address If the target address is a contract, it must implement `onERC721Received`, which is called upon a safe transfer, and return the magic value `bytes4(keccak256(\"onERC721Received(address,address,uint256,bytes)\"))`; otherwise, the transfer is reverted.   * Requires the msg sender to be the owner, approved, or operator",
        "params": {
          "from": "current owner of the token",
          "to": "address to receive the ownership of the given token ID",
          "tokenId": "uint256 ID of the token to be transferred"
        }
      },
      "safeTransferFrom(address,address,uint256,bytes)": {
        "details": "Safely transfers the ownership of a given token ID to another address If the target address is a contract, it must implement `onERC721Received`, which is called upon a safe transfer, and return the magic value `bytes4(keccak256(\"onERC721Received(address,address,uint256,bytes)\"))`; otherwise, the transfer is reverted. Requires the msg sender to be the owner, approved, or operator",
        "params": {
          "_data": "bytes data to send along with a safe transfer check",
          "from": "current owner of the token",
          "to": "address to receive the ownership of the given token ID",
          "tokenId": "uint256 ID of the token to be transferred"
        }
      },
      "supportsInterface(bytes4)": {
        "details": "implement supportsInterface(bytes4) using a lookup table"
      },
      "unpause()": {
        "details": "called by the owner to unpause, returns to normal state"
      }
    },
    "title": "ERC721 Non-Fungible Pausable token"
  },
  "userdoc": {
    "methods": {}
  }
}