{
  "contractName": "FoundationAuctions",
  "abi": [
    {
      "constant": false,
      "inputs": [],
      "name": "renounceOwnership",
      "outputs": [],
      "payable": false,
      "stateMutability": "nonpayable",
      "type": "function"
    },
    {
      "constant": true,
      "inputs": [],
      "name": "owner",
      "outputs": [
        {
          "name": "",
          "type": "address"
        }
      ],
      "payable": false,
      "stateMutability": "view",
      "type": "function"
    },
    {
      "constant": true,
      "inputs": [],
      "name": "isOwner",
      "outputs": [
        {
          "name": "",
          "type": "bool"
        }
      ],
      "payable": false,
      "stateMutability": "view",
      "type": "function"
    },
    {
      "constant": true,
      "inputs": [
        {
          "name": "",
          "type": "uint256"
        }
      ],
      "name": "openAuctions",
      "outputs": [
        {
          "name": "",
          "type": "uint256"
        }
      ],
      "payable": false,
      "stateMutability": "view",
      "type": "function"
    },
    {
      "constant": true,
      "inputs": [
        {
          "name": "",
          "type": "uint256"
        }
      ],
      "name": "foundationAuctionsList",
      "outputs": [
        {
          "name": "",
          "type": "uint256"
        }
      ],
      "payable": false,
      "stateMutability": "view",
      "type": "function"
    },
    {
      "constant": false,
      "inputs": [
        {
          "name": "newOwner",
          "type": "address"
        }
      ],
      "name": "transferOwnership",
      "outputs": [],
      "payable": false,
      "stateMutability": "nonpayable",
      "type": "function"
    },
    {
      "anonymous": false,
      "inputs": [
        {
          "indexed": false,
          "name": "_creator",
          "type": "address"
        },
        {
          "indexed": false,
          "name": "_auctionId",
          "type": "uint256"
        },
        {
          "indexed": false,
          "name": "_time",
          "type": "uint256"
        }
      ],
      "name": "AuctionCreated",
      "type": "event"
    },
    {
      "anonymous": false,
      "inputs": [
        {
          "indexed": false,
          "name": "_bidder",
          "type": "address"
        },
        {
          "indexed": false,
          "name": "_amount",
          "type": "uint256"
        },
        {
          "indexed": false,
          "name": "_time",
          "type": "uint256"
        }
      ],
      "name": "Bid",
      "type": "event"
    },
    {
      "anonymous": false,
      "inputs": [
        {
          "indexed": false,
          "name": "_claimer",
          "type": "address"
        },
        {
          "indexed": false,
          "name": "_horseId",
          "type": "uint256"
        },
        {
          "indexed": false,
          "name": "_time",
          "type": "uint256"
        }
      ],
      "name": "HorseWithdraw",
      "type": "event"
    },
    {
      "anonymous": false,
      "inputs": [
        {
          "indexed": false,
          "name": "_claimer",
          "type": "address"
        },
        {
          "indexed": false,
          "name": "_amount",
          "type": "uint256"
        },
        {
          "indexed": false,
          "name": "_time",
          "type": "uint256"
        }
      ],
      "name": "Payout",
      "type": "event"
    },
    {
      "anonymous": false,
      "inputs": [
        {
          "indexed": false,
          "name": "_owner",
          "type": "address"
        },
        {
          "indexed": false,
          "name": "_auctionId",
          "type": "uint256"
        },
        {
          "indexed": false,
          "name": "_time",
          "type": "uint256"
        }
      ],
      "name": "AuctionCancel",
      "type": "event"
    },
    {
      "anonymous": false,
      "inputs": [
        {
          "indexed": true,
          "name": "previousOwner",
          "type": "address"
        }
      ],
      "name": "OwnershipRenounced",
      "type": "event"
    },
    {
      "anonymous": false,
      "inputs": [
        {
          "indexed": true,
          "name": "previousOwner",
          "type": "address"
        },
        {
          "indexed": true,
          "name": "newOwner",
          "type": "address"
        }
      ],
      "name": "OwnershipTransferred",
      "type": "event"
    },
    {
      "constant": false,
      "inputs": [
        {
          "name": "_gopAddr",
          "type": "address"
        },
        {
          "name": "_owner",
          "type": "address"
        }
      ],
      "name": "initialize",
      "outputs": [],
      "payable": false,
      "stateMutability": "nonpayable",
      "type": "function"
    },
    {
      "constant": false,
      "inputs": [
        {
          "name": "sender",
          "type": "address"
        }
      ],
      "name": "initialize",
      "outputs": [],
      "payable": false,
      "stateMutability": "nonpayable",
      "type": "function"
    },
    {
      "constant": false,
      "inputs": [
        {
          "name": "_genotype",
          "type": "uint256"
        },
        {
          "name": "_gender",
          "type": "bytes32"
        },
        {
          "name": "_horseHash",
          "type": "string"
        }
      ],
      "name": "createFoundationAuction",
      "outputs": [],
      "payable": true,
      "stateMutability": "payable",
      "type": "function"
    },
    {
      "constant": false,
      "inputs": [
        {
          "name": "_auctionId",
          "type": "uint256"
        }
      ],
      "name": "foundationAuctionBid",
      "outputs": [],
      "payable": true,
      "stateMutability": "payable",
      "type": "function"
    },
    {
      "constant": false,
      "inputs": [
        {
          "name": "_auction",
          "type": "uint256"
        }
      ],
      "name": "foundationAuctionWithdraw",
      "outputs": [
        {
          "name": "",
          "type": "bool"
        }
      ],
      "payable": false,
      "stateMutability": "nonpayable",
      "type": "function"
    },
    {
      "constant": false,
      "inputs": [
        {
          "name": "myid",
          "type": "bytes32"
        },
        {
          "name": "result",
          "type": "string"
        },
        {
          "name": "proof",
          "type": "bytes"
        }
      ],
      "name": "__callback",
      "outputs": [],
      "payable": false,
      "stateMutability": "nonpayable",
      "type": "function"
    },
    {
      "constant": false,
      "inputs": [
        {
          "name": "_id",
          "type": "bytes32"
        },
        {
          "name": "_result",
          "type": "string"
        }
      ],
      "name": "__callback",
      "outputs": [],
      "payable": false,
      "stateMutability": "nonpayable",
      "type": "function"
    },
    {
      "constant": false,
      "inputs": [
        {
          "name": "_auctionId",
          "type": "uint256"
        }
      ],
      "name": "cancelAuction",
      "outputs": [],
      "payable": false,
      "stateMutability": "nonpayable",
      "type": "function"
    },
    {
      "constant": true,
      "inputs": [
        {
          "name": "_auctionId",
          "type": "uint256"
        }
      ],
      "name": "getAuction",
      "outputs": [
        {
          "name": "",
          "type": "uint256"
        },
        {
          "name": "",
          "type": "uint256"
        },
        {
          "name": "",
          "type": "uint256"
        },
        {
          "name": "",
          "type": "uint256"
        },
        {
          "name": "",
          "type": "uint256"
        },
        {
          "name": "",
          "type": "address"
        },
        {
          "name": "",
          "type": "address[]"
        },
        {
          "name": "",
          "type": "bool"
        },
        {
          "name": "",
          "type": "string"
        },
        {
          "name": "",
          "type": "bytes32"
        }
      ],
      "payable": false,
      "stateMutability": "view",
      "type": "function"
    },
    {
      "constant": true,
      "inputs": [
        {
          "name": "_auctionId",
          "type": "uint256"
        },
        {
          "name": "_bidder",
          "type": "address"
        }
      ],
      "name": "getBidData",
      "outputs": [
        {
          "name": "",
          "type": "uint256"
        },
        {
          "name": "",
          "type": "uint256"
        }
      ],
      "payable": false,
      "stateMutability": "view",
      "type": "function"
    },
    {
      "constant": true,
      "inputs": [],
      "name": "getOpenAuctions",
      "outputs": [
        {
          "name": "",
          "type": "uint256[]"
        }
      ],
      "payable": false,
      "stateMutability": "view",
      "type": "function"
    },
    {
      "constant": false,
      "inputs": [
        {
          "name": "_gop",
          "type": "address"
        }
      ],
      "name": "setGOPCreator",
      "outputs": [],
      "payable": false,
      "stateMutability": "nonpayable",
      "type": "function"
    }
  ],
  "bytecode": "0x608060405234801561001057600080fd5b50612b75806100206000396000f3006080604052600436106100e25763ffffffff60e060020a60003504166325b1a07281146100e757806327dc297e1461010a57806338bbfa5014610168578063485cc95514610204578063701e2f3c1461022b578063715018a61461027e57806378bd7935146102935780638da5cb5b146103be5780638f32d59b146103ef57806396b5a75514610418578063a9d46e8a14610430578063b05940f21461045a578063c4d66de8146104bf578063e482edf4146104e0578063e9da9f1b146104f8578063ed9cd5d814610535578063eec7d97c1461054d578063f2fde38b14610558575b600080fd5b3480156100f357600080fd5b50610108600160a060020a0360043516610579565b005b34801561011657600080fd5b5060408051602060046024803582810135601f81018590048502860185019096528585526101089583359536956044949193909101919081908401838280828437509497506105ae9650505050505050565b34801561017457600080fd5b5060408051602060046024803582810135601f810185900485028601850190965285855261010895833595369560449491939091019190819084018382808284375050604080516020601f89358b018035918201839004830284018301909452808352979a99988101979196509182019450925082915084018382808284375094975061064d9650505050505050565b34801561021057600080fd5b50610108600160a060020a0360043581169060243516610652565b604080516020600460443581810135601f810184900484028501840190955284845261010894823594602480359536959460649492019190819084018382808284375094975061075d9650505050505050565b34801561028a57600080fd5b50610108610b1b565b34801561029f57600080fd5b506102ab600435610b78565b604051808b81526020018a815260200189815260200188815260200187815260200186600160a060020a0316600160a060020a031681526020018060200185151515158152602001806020018460001916600019168152602001838103835287818151815260200191508051906020019060200280838360005b8381101561033d578181015183820152602001610325565b50505050905001838103825285818151815260200191508051906020019080838360005b83811015610379578181015183820152602001610361565b50505050905090810190601f1680156103a65780820380516001836020036101000a031916815260200191505b509c5050505050505050505050505060405180910390f35b3480156103ca57600080fd5b506103d3610d5e565b60408051600160a060020a039092168252519081900360200190f35b3480156103fb57600080fd5b50610404610d6e565b604080519115158252519081900360200190f35b34801561042457600080fd5b50610108600435610d7f565b34801561043c57600080fd5b50610448600435610df7565b60408051918252519081900360200190f35b34801561046657600080fd5b5061046f610e16565b60408051602080825283518183015283519192839290830191858101910280838360005b838110156104ab578181015183820152602001610493565b505050509050019250505060405180910390f35b3480156104cb57600080fd5b50610108600160a060020a0360043516610e6e565b3480156104ec57600080fd5b50610448600435610f61565b34801561050457600080fd5b5061051c600435600160a060020a0360243516610f6f565b6040805192835260208301919091528051918290030190f35b34801561054157600080fd5b50610404600435610fa8565b61010860043561133f565b34801561056457600080fd5b50610108600160a060020a036004351661171b565b610581610d6e565b151561058c57600080fd5b606d8054600160a060020a031916600160a060020a0392909216919091179055565b6000806105b961173a565b600160a060020a03163314610618576040805160e560020a62461bcd02815260206004820152600b60248201527f6e6f744f7261636c697a65000000000000000000000000000000000000000000604482015290519081900360640190fd5b6106218361192f565b6000818152606e60205260409020909250905061063d82611942565b600701805460ff19169055505050565b505050565b60008054610100900460ff168061066c575061066c6119eb565b8061067a575060005460ff16155b15156106f6576040805160e560020a62461bcd02815260206004820152602e60248201527f436f6e747261637420696e7374616e63652068617320616c726561647920626560448201527f656e20696e697469616c697a6564000000000000000000000000000000000000606482015290519081900360840190fd5b5060008054600161010061ff00198316811760ff1916919091179092550460ff1661072082610e6e565b606d8054600160a060020a03909416600160a060020a03199094169390931790925550600080549115156101000261ff0019909216919091179055565b6000806107686129aa565b6000610772610d6e565b151561077d57600080fd5b606d54604080517fe1f5760b000000000000000000000000000000000000000000000000000000008152600481018a90529051600092600160a060020a03169163e1f5760b91602480830192602092919082900301818787803b1580156107e357600080fd5b505af11580156107f7573d6000803e3d6000fd5b505050506040513d602081101561080d57600080fd5b505111610864576040805160e560020a62461bcd02815260206004820152601660248201527f47656e6f74797065206c696d6974207265616368656400000000000000000000604482015290519081900360640190fd5b6108a26040805190810160405280600381526020017f55524c00000000000000000000000000000000000000000000000000000000008152506119f5565b3410156108f9576040805160e560020a62461bcd02815260206004820152601660248201527f4f7261636c697a65207072696365206e6f74206d657400000000000000000000604482015290519081900360640190fd5b866005141561090e5767029140851372800093505b86600614156109235767027f7d0bdb92000093505b86600714156109385767026db992a3b1800093505b866008141561094d5767025bf6196bd1000093505b86600914156109625767024a32a033f0800093505b86600a1415610977576702386f26fc10000093505b606b80546001808201928390557fbd43cb8ece8cd1863bcd6082d65c5b0d25665b1ce17980f0da43c0ed545f98b49091018190554284526040808501878152606086018b815260e0870184905261012087018b905261010087018a90526000858152606e6020908152939020875181558388015194810194909455905160028401555160038301556080850151600483015560a0850151600583018054600160a060020a031916600160a060020a0390921691909117905560c085015180519396508593610a4b9260068501920190612a0c565b5060e082015160078201805460ff19169115159190911790556101008201518051610a80916008840191602090910190612a6d565b50610120919091015160099091015550606c8054600181019091557f2b4a51ab505fc96a0952efda2ba61bcd3078d4c02c39a186ec16f21883fbe01681018390556000838152607060209081526040918290208390558151338152908101859052428183015290517f4560b4b4d2eec0d9c2feb420083427dbdb8371b8df7fc5471791ebe492622f699181900360600190a150505050505050565b610b23610d6e565b1515610b2e57600080fd5b603354604051600160a060020a03909116907ff8df31144d9c2f0f6b59d69b8b98abd5459d07f2742c4df920b25aae33c6482090600090a260338054600160a060020a0319169055565b6000806000806000806060600060606000610b916129aa565b60008c8152606e60209081526040918290208251610140810184528154815260018201548184015260028201548185015260038201546060820152600482015460808201526005820154600160a060020a031660a08201526006820180548551818602810186019096528086529194929360c08601939290830182828015610c4257602002820191906000526020600020905b8154600160a060020a03168152600190910190602001808311610c24575b5050509183525050600782015460ff16151560208083019190915260088301805460408051601f60026000196001861615610100020190941693909304928301859004850281018501825282815294019392830182828015610ce55780601f10610cba57610100808354040283529160200191610ce5565b820191906000526020600020905b815481529060010190602001808311610cc857829003601f168201915b5050505050815260200160098201546000191660001916815250509050806000015181602001518260400151836060015184608001518560a001518660c001518760e001518861010001518961012001518393508191509a509a509a509a509a509a509a509a509a509a50509193959799509193959799565b603354600160a060020a03165b90565b603354600160a060020a0316331490565b610d87610d6e565b1515610d9257600080fd5b610d9b81611942565b6000818152606e6020908152604091829020600701805460ff191690558151338152908101839052428183015290517f2cddbefbdca02557ff57510885287056797bf96b03d0941911d3a12ecbd317409181900360600190a150565b606c805482908110610e0557fe5b600091825260209091200154905081565b6060606c805480602002602001604051908101604052809291908181526020018280548015610e6457602002820191906000526020600020905b815481526020019060010190808311610e50575b5050505050905090565b60008054610100900460ff1680610e885750610e886119eb565b80610e96575060005460ff16155b1515610f12576040805160e560020a62461bcd02815260206004820152602e60248201527f436f6e747261637420696e7374616e63652068617320616c726561647920626560448201527f656e20696e697469616c697a6564000000000000000000000000000000000000606482015290519081900360840190fd5b506000805460338054600160a060020a031916600160a060020a03949094169390931790925561ff001980831661010090811760ff19166001179091169281900460ff16151502919091179055565b606b805482908110610e0557fe5b6000918252606e60209081526040808420600160a060020a03939093168452600a8301825280842054600b909301909152909120549091565b6000818152606e602052604081206007810154829060ff1615611015576040805160e560020a62461bcd02815260206004820152600b60248201527f61756374696f6e4f70656e000000000000000000000000000000000000000000604482015290519081900360640190fd5b6005820154600160a060020a03163314156111b657606d54600383015460098401546040517f487ff569000000000000000000000000000000000000000000000000000000008152336004820181815260448301859052606483018490526080602484019081526008890180546002600182161561010002600019019091160460848601819052600160a060020a039098169763487ff56997949691959193929160a40190869080156111095780601f106110de57610100808354040283529160200191611109565b820191906000526020600020905b8154815290600101906020018083116110ec57829003601f168201915b505095505050505050602060405180830381600087803b15801561112c57600080fd5b505af1158015611140573d6000803e3d6000fd5b505050506040513d602081101561115657600080fd5b5051600583018054600160a060020a03191690556040805133815260208101839052428183015290519192507f245cab7a3bd0ec8644bd7335917d253224761af72e248dd807e0e8f94a61fd1e919081900360600190a160019250611338565b6111be610d5e565b600160a060020a031633600160a060020a0316141561125d576001820154604051339180156108fc02916000818181858888f19350505050158015611207573d6000803e3d6000fd5b5060018201546040805133815260208101929092524282820152517f634235fcf5af0adbca1a405ec65f6f6c08f55e1f379c2c45cd10f23cb29e0e319181900360600190a1816001016000905560019250611338565b6005820154600160a060020a03163314801590611293575061127d610d5e565b600160a060020a031633600160a060020a031614155b1561133857336000818152600a8401602052604080822054905181156108fc0292818181858888f193505050501580156112d1573d6000803e3d6000fd5b50336000818152600a84016020908152604091829020548251938452908301524282820152517f634235fcf5af0adbca1a405ec65f6f6c08f55e1f379c2c45cd10f23cb29e0e319181900360600190a1336000908152600a83016020526040812055600192505b5050919050565b6000818152606e60209081526040808320338452600a81019092528220549091906060908190611375903463ffffffff611c5d16565b600785015490935060ff1615156113d6576040805160e560020a62461bcd02815260206004820152600d60248201527f61756374696f6e436c6f73656400000000000000000000000000000000000000604482015290519081900360640190fd5b6113de610d5e565b600160a060020a031633141561143e576040805160e560020a62461bcd02815260206004820152600b60248201527f63616e7442654f776e6572000000000000000000000000000000000000000000604482015290519081900360640190fd5b600284015434101561149a576040805160e560020a62461bcd02815260206004820152601360248201527f6269644c6f7765725468616e4d696e696d756d00000000000000000000000000604482015290519081900360640190fd5b600184015483116114f5576040805160e560020a62461bcd02815260206004820152601660248201527f6269644c6f7765725468616e4d6178696d756d42696400000000000000000000604482015290519081900360640190fd5b6006840154151561162857606060405190810160405280603d81526020017f6a736f6e2868747470733a2f2f6170692e7a65642e72756e2f6170692f76312f81526020017f636c6f73655f61756374696f6e292e61756374696f6e5f636c6f73656400000081525091506115da6040805190810160405280600b81526020017f7b2261756374696f6e223a0000000000000000000000000000000000000000008152506115a187611c76565b60408051808201909152600181527f7d000000000000000000000000000000000000000000000000000000000000006020820152611d69565b9050611620620151806040805190810160405280600381526020017f55524c00000000000000000000000000000000000000000000000000000000008152508484611da0565b504260048501555b336000908152600a850160209081526040808320869055600b87018252808320429055600c870190915290205460ff1615156116b85760068401805460018181018355600092835260208084209092018054600160a060020a031916339081179091558352600c870182526040808420805460ff191683179055606f835283208054918201815583529120018590555b60018401839055600584018054600160a060020a0319163390811790915560408051918252602082018590524282820152517f19421268847f42dd61705778018ddfc43bcdce8517e7a630acb12f122c7094819181900360600190a15050505050565b611723610d6e565b151561172e57600080fd5b61173781612202565b50565b606654600090600160a060020a03161580611767575060665461176590600160a060020a0316612273565b155b15611778576117766000612277565b505b606660009054906101000a9004600160a060020a0316600160a060020a03166338cc48316040518163ffffffff1660e060020a028152600401602060405180830381600087803b1580156117cb57600080fd5b505af11580156117df573d6000803e3d6000fd5b505050506040513d60208110156117f557600080fd5b5051606754600160a060020a039081169116146118ab57606660009054906101000a9004600160a060020a0316600160a060020a03166338cc48316040518163ffffffff1660e060020a028152600401602060405180830381600087803b15801561185f57600080fd5b505af1158015611873573d6000803e3d6000fd5b505050506040513d602081101561188957600080fd5b505160678054600160a060020a031916600160a060020a039092169190911790555b606760009054906101000a9004600160a060020a0316600160a060020a031663c281d19e6040518163ffffffff1660e060020a028152600401602060405180830381600087803b1580156118fe57600080fd5b505af1158015611912573d6000803e3d6000fd5b505050506040513d602081101561192857600080fd5b5051905090565b600061193c826000612281565b92915050565b600081815260706020526040812054606c54909190819061196a90600163ffffffff6123f316565b9150606c8281548110151561197b57fe5b9060005260206000200154905080606c8481548110151561199857fe5b6000918252602080832090910192909255828152607090915260409020839055606c8054839081106119c657fe5b6000918252602082200155606c8054906119e4906000198301612ae7565b5050505050565b303b8015905b5090565b606654600090600160a060020a03161580611a225750606654611a2090600160a060020a0316612273565b155b15611a3357611a316000612277565b505b606660009054906101000a9004600160a060020a0316600160a060020a03166338cc48316040518163ffffffff1660e060020a028152600401602060405180830381600087803b158015611a8657600080fd5b505af1158015611a9a573d6000803e3d6000fd5b505050506040513d6020811015611ab057600080fd5b5051606754600160a060020a03908116911614611b6657606660009054906101000a9004600160a060020a0316600160a060020a03166338cc48316040518163ffffffff1660e060020a028152600401602060405180830381600087803b158015611b1a57600080fd5b505af1158015611b2e573d6000803e3d6000fd5b505050506040513d6020811015611b4457600080fd5b505160678054600160a060020a031916600160a060020a039092169190911790555b6067546040517f524f3889000000000000000000000000000000000000000000000000000000008152602060048201818152855160248401528551600160a060020a039094169363524f388993879383926044909201919085019080838360005b83811015611bdf578181015183820152602001611bc7565b50505050905090810190601f168015611c0c5780820380516001836020036101000a031916815260200191505b5092505050602060405180830381600087803b158015611c2b57600080fd5b505af1158015611c3f573d6000803e3d6000fd5b505050506040513d6020811015611c5557600080fd5b505192915050565b600082820183811015611c6f57600080fd5b9392505050565b60606000808281851515611cbf5760408051808201909152600181527f300000000000000000000000000000000000000000000000000000000000000060208201529450611d60565b8593505b8315611cda57600190920191600a84049350611cc3565b826040519080825280601f01601f191660200182016040528015611d08578160200160208202803883390190505b5091505060001982015b8515611d5c57815160001982019160f860020a6030600a8a060102918491908110611d3957fe5b906020010190600160f860020a031916908160001a905350600a86049550611d12565b8194505b50505050919050565b6060611d988484846020604051908101604052806000815250602060405190810160405280600081525061240a565b949350505050565b6066546000908190600160a060020a03161580611dcf5750606654611dcd90600160a060020a0316612273565b155b15611de057611dde6000612277565b505b606660009054906101000a9004600160a060020a0316600160a060020a03166338cc48316040518163ffffffff1660e060020a028152600401602060405180830381600087803b158015611e3357600080fd5b505af1158015611e47573d6000803e3d6000fd5b505050506040513d6020811015611e5d57600080fd5b5051606754600160a060020a03908116911614611f1357606660009054906101000a9004600160a060020a0316600160a060020a03166338cc48316040518163ffffffff1660e060020a028152600401602060405180830381600087803b158015611ec757600080fd5b505af1158015611edb573d6000803e3d6000fd5b505050506040513d6020811015611ef157600080fd5b505160678054600160a060020a031916600160a060020a039092169190911790555b6067546040517f524f3889000000000000000000000000000000000000000000000000000000008152602060048201818152885160248401528851600160a060020a039094169363524f3889938a9383926044909201919085019080838360005b83811015611f8c578181015183820152602001611f74565b50505050905090810190601f168015611fb95780820380516001836020036101000a031916815260200191505b5092505050602060405180830381600087803b158015611fd857600080fd5b505af1158015611fec573d6000803e3d6000fd5b505050506040513d602081101561200257600080fd5b50519050670de0b6b3a764000062030d403a020181111561202657600091506121f9565b6067546040517f7722865900000000000000000000000000000000000000000000000000000000815260048101888152608060248301908152885160848401528851600160a060020a039094169363772286599386938c938c938c938c9392916044820191606481019160a490910190602089019080838360005b838110156120b95781810151838201526020016120a1565b50505050905090810190601f1680156120e65780820380516001836020036101000a031916815260200191505b50848103835286518152865160209182019188019080838360005b83811015612119578181015183820152602001612101565b50505050905090810190601f1680156121465780820380516001836020036101000a031916815260200191505b50848103825285518152855160209182019187019080838360005b83811015612179578181015183820152602001612161565b50505050905090810190601f1680156121a65780820380516001836020036101000a031916815260200191505b509750505050505050506020604051808303818588803b1580156121c957600080fd5b505af11580156121dd573d6000803e3d6000fd5b50505050506040513d60208110156121f457600080fd5b505191505b50949350505050565b600160a060020a038116151561221757600080fd5b603354604051600160a060020a038084169216907f8be0079c531659141344cd1fd0a4f28419497f9722a3daafe3b4186f6b6457e090600090a360338054600160a060020a031916600160a060020a0392909216919091179055565b3b90565b600061193c61266b565b6000828180805b83518110156123d65783517f3000000000000000000000000000000000000000000000000000000000000000908590839081106122c157fe5b90602001015160f860020a900460f860020a02600160f860020a03191610158015612337575083517f39000000000000000000000000000000000000000000000000000000000000009085908390811061231757fe5b90602001015160f860020a900460f860020a02600160f860020a03191611155b156123905781156123565785151561234e576123d6565b600019909501945b600a830292506030848281518110151561236c57fe5b90602001015160f860020a900460f860020a0260f860020a900403830192506123ce565b838181518110151561239e57fe5b90602001015160f860020a900460f860020a02600160f860020a031916602e60f860020a0214156123ce57600191505b600101612288565b60008611156123e85785600a0a830292505b509095945050505050565b6000808383111561240357600080fd5b5050900390565b6060806060806060806060806000808e98508d97508c96508b95508a94508451865188518a518c51010101016040519080825280601f01601f191660200182016040528015612463578160200160208202803883390190505b50935083925060009150600090505b88518110156124d057888181518110151561248957fe5b90602001015160f860020a900460f860020a0283838060010194508151811015156124b057fe5b906020010190600160f860020a031916908160001a905350600101612472565b5060005b87518110156125325787818151811015156124eb57fe5b90602001015160f860020a900460f860020a02838380600101945081518110151561251257fe5b906020010190600160f860020a031916908160001a9053506001016124d4565b5060005b865181101561259457868181518110151561254d57fe5b90602001015160f860020a900460f860020a02838380600101945081518110151561257457fe5b906020010190600160f860020a031916908160001a905350600101612536565b5060005b85518110156125f65785818151811015156125af57fe5b90602001015160f860020a900460f860020a0283838060010194508151811015156125d657fe5b906020010190600160f860020a031916908160001a905350600101612598565b5060005b845181101561265857848181518110151561261157fe5b90602001015160f860020a900460f860020a02838380600101945081518110151561263857fe5b906020010190600160f860020a031916908160001a9053506001016125fa565b50909d9c50505050505050505050505050565b60008061268b731d3b2638a7cc9f2cb3d298a3da7a90b67e5506ed612273565b11156126fc5760668054600160a060020a031916731d3b2638a7cc9f2cb3d298a3da7a90b67e5506ed17905560408051808201909152600b81527f6574685f6d61696e6e657400000000000000000000000000000000000000000060208201526126f490612993565b506001610d6b565b600061271b73c03a2615d5efaf5f49f60b7bb6583eaec212fdf1612273565b11156127845760668054600160a060020a03191673c03a2615d5efaf5f49f60b7bb6583eaec212fdf117905560408051808201909152600c81527f6574685f726f707374656e33000000000000000000000000000000000000000060208201526126f490612993565b60006127a373b7a07bcf2ba2f2703b24c0691b5278999c59ac7e612273565b111561280c5760668054600160a060020a03191673b7a07bcf2ba2f2703b24c0691b5278999c59ac7e17905560408051808201909152600981527f6574685f6b6f76616e000000000000000000000000000000000000000000000060208201526126f490612993565b600061282b73146500cfd35b22e4a392fe0adc06de1a1368ed48612273565b11156128945760668054600160a060020a03191673146500cfd35b22e4a392fe0adc06de1a1368ed4817905560408051808201909152600b81527f6574685f72696e6b65627900000000000000000000000000000000000000000060208201526126f490612993565b60006128b3736f485c8bf6fc43ea212e93bbf8ce046c7f1cb475612273565b11156128e7575060668054600160a060020a031916736f485c8bf6fc43ea212e93bbf8ce046c7f1cb4751790556001610d6b565b60006129067320e12a1f859b3feae5fb2a0a32c18f5a65555bbf612273565b111561293a575060668054600160a060020a0319167320e12a1f859b3feae5fb2a0a32c18f5a65555bbf1790556001610d6b565b60006129597351efaf4c8b3c9afbd5ab9f4bbc82784ab6ef8faa612273565b111561298d575060668054600160a060020a0319167351efaf4c8b3c9afbd5ab9f4bbc82784ab6ef8faa1790556001610d6b565b50600090565b80516129a6906068906020840190612a6d565b5050565b6101406040519081016040528060008152602001600081526020016000815260200160008152602001600081526020016000600160a060020a031681526020016060815260200160001515815260200160608152602001600080191681525090565b828054828255906000526020600020908101928215612a61579160200282015b82811115612a615782518254600160a060020a031916600160a060020a03909116178255602090920191600190910190612a2c565b506119f1929150612b0b565b828054600181600116156101000203166002900490600052602060002090601f016020900481019282601f10612aae57805160ff1916838001178555612adb565b82800160010185558215612adb579182015b82811115612adb578251825591602001919060010190612ac0565b506119f1929150612b2f565b81548183558181111561064d5760008381526020902061064d918101908301612b2f565b610d6b91905b808211156119f1578054600160a060020a0319168155600101612b11565b610d6b91905b808211156119f15760008155600101612b355600a165627a7a723058209aca4a040e00a4357023f5994e043829825c3590e8dd562cb462fc5b4b604d780029",
  "source": "pragma solidity ^0.4.24;\n\nimport \"openzeppelin-eth/contracts/math/SafeMath.sol\";\nimport \"openzeppelin-eth/contracts/ownership/Ownable.sol\";\nimport \"./GOPCreator.sol\";\nimport \"./usingOraclize.sol\";\nimport \"zos-lib/contracts/Initializable.sol\";\n\ncontract FoundationAuctions is Initializable, Ownable, usingOraclize {\n    using SafeMath for uint256;\n\n    uint256[] public foundationAuctionsList;\n    uint256[] public openAuctions;\n\n    // * We're using GOPCreator instead of Core directly because we have both contract's functions available.\n    GOPCreator gop;\n\n    struct Foundation {\n        uint256 createdAt;\n        uint256 maxBid;\n        uint256 minimum;\n        uint256 horseBatch;\n        uint256 firstBidTime;\n\n        address maxBidder;\n        address[] bidders;\n\n        bool isOpen;\n\n        string horseHash;\n\n        bytes32 horseGender;\n\n        mapping(address => uint256) bids; // Maps each address on this auction to a bid.\n        mapping(address => uint256) bidTimes; // Maps each address on this auction to a bid time.\n        mapping(address => bool) exists;\n    }\n\n    mapping(uint256 => Foundation) internal foundationAuctions;\n    mapping(address => uint256[]) internal auctionsParticipating;\n    mapping(uint256 => uint256) internal auctionIndex;\n\n    event AuctionCreated(address _creator, uint256 _auctionId, uint256 _time);\n    event Bid(address _bidder, uint256 _amount, uint256 _time);\n    event HorseWithdraw(address _claimer, uint256 _horseId, uint256 _time);\n    event Payout(address _claimer, uint256 _amount, uint256 _time);\n    event AuctionCancel(address _owner, uint256 _auctionId, uint256 _time);\n\n    function initialize(address _gopAddr, address _owner) public initializer {\n        Ownable.initialize(_owner);\n        gop = GOPCreator(_gopAddr);\n        // OAR = OraclizeAddrResolverI(0x6f485C8BF6fc43eA212E93BBF8ce046C7f1cb475);\n    }\n\n    /*\n    @dev Creates a Foundation Stable auction. We use '_genotype' to identify the genotype of the horse\n    we're going to create and it also helps us check horses remaining for a specific batch.\n    */\n    function createFoundationAuction(uint256 _genotype, bytes32 _gender, string _horseHash) public payable onlyOwner() {\n        // We need to meet horse's limits.\n        require(gop.horsesRemaining(_genotype) > 0, \"Genotype limit reached\");\n        require(msg.value >= oraclize_getPrice(\"URL\"), \"Oraclize price not met\");\n\n        uint256 amount;\n\n        if(_genotype == 5) amount = 0.185 ether;\n        if(_genotype == 6) amount = 0.18 ether;\n        if(_genotype == 7) amount = 0.175 ether;\n        if(_genotype == 8) amount = 0.17 ether;\n        if(_genotype == 9) amount = 0.165 ether;\n        if(_genotype == 10) amount = 0.16 ether;\n\n        uint256 auctionId = foundationAuctionsList.push(1);\n\n        Foundation memory auction;\n        auction.createdAt = now;\n        auction.minimum = amount;\n        auction.horseBatch = _genotype;\n        auction.isOpen = true;\n        auction.horseGender = _gender;\n        auction.horseHash = _horseHash;\n\n        foundationAuctions[auctionId] = auction;\n\n        uint256 index = openAuctions.push(auctionId) - 1;\n        auctionIndex[auctionId] = index;\n\n        emit AuctionCreated(msg.sender, auctionId, now);\n    }\n\n    // Creates a bid for an user on an auction.\n    function foundationAuctionBid(uint256 _auctionId) public payable {\n        Foundation storage a = foundationAuctions[_auctionId];\n        uint256 userBid = a.bids[msg.sender].add(msg.value);\n\n        require(a.isOpen, \"auctionClosed\");\n        require(msg.sender != owner(), \"cantBeOwner\");\n\n        // Bid must be greater than minimum & maxBid.\n        require(msg.value >= a.minimum, \"bidLowerThanMinimum\"); // if this is not the first bid it should always be greater than the minimum.\n        require(userBid > a.maxBid, \"bidLowerThanMaximumBid\");\n\n        if(a.bidders.length == 0) {\n            // If this is the first bid we're going to send the oraclize query here.\n            string memory url = \"json(https://api.zed.run/api/v1/close_auction).auction_closed\";\n            string memory payload = strConcat(\"{\\\"auction\\\":\", uint2str(_auctionId), \"}\");\n\n            // Default is one day after first bid.\n            oraclize_query(86400, \"URL\", url, payload);\n\n            a.firstBidTime = now;\n        }\n\n        a.bids[msg.sender] = userBid;\n        a.bidTimes[msg.sender] = now;\n\n        if(!a.exists[msg.sender]) {\n            a.bidders.push(msg.sender);\n            a.exists[msg.sender] = true;\n\n            auctionsParticipating[msg.sender].push(_auctionId);\n        }\n\n        a.maxBid = userBid;\n        a.maxBidder = msg.sender;\n\n        emit Bid(msg.sender, userBid, now);\n    }\n\n    /*\n    @dev Withdraws something from the auction depending on who's calling the transaction.\n    1. If you're the 'owner' you will claim the maxBid.\n    2. If you're the maxBidder you're going to claim the prize (Mint a token)\n    3. Anything else will claim their bid on the auction.\n    */\n    function foundationAuctionWithdraw(uint256 _auction) public returns(bool) {\n        // 'owner' doesn't get anything from here.\n        Foundation storage a = foundationAuctions[_auction];\n\n        require(!a.isOpen, \"auctionOpen\");\n\n        // Transfer a token for 'maxBidder'.\n        if(msg.sender == a.maxBidder) {\n            // // Mint the token.\n            uint256 horseId = gop.createCustomHorse(msg.sender, a.horseHash, a.horseBatch, a.horseGender);\n\n            delete a.maxBidder;\n\n            emit HorseWithdraw(msg.sender, horseId, now);\n\n            return true;\n        }\n\n        // Transfer 'maxBid' to the owner.\n        if(msg.sender == owner()) {\n            msg.sender.transfer(a.maxBid);\n\n            emit Payout(msg.sender, a.maxBid, now);\n\n            delete a.maxBid;\n\n            return true;\n        }\n\n        // Sends money back to user if they didn't win.\n        if(msg.sender != a.maxBidder && msg.sender != owner()) {\n            msg.sender.transfer(a.bids[msg.sender]);\n\n            emit Payout(msg.sender, a.bids[msg.sender], now);\n\n            delete a.bids[msg.sender];\n\n            return true;\n        }\n    }\n\n    function __callback(bytes32 _id, string _result) public {\n        require(msg.sender == oraclize_cbAddress(), \"notOraclize\");\n\n        uint256 auctionId = parseInt(_result);\n        Foundation storage a = foundationAuctions[auctionId];\n\n        // Evaluate if we should be able to cancel auctions from this contract.\n        _removeAuction(auctionId);\n        a.isOpen = false;\n    }\n\n    // Gives a way for the owner to cancel a given auction.\n    function cancelAuction(uint256 _auctionId) public onlyOwner() {\n        _removeAuction(_auctionId);\n        foundationAuctions[_auctionId].isOpen = false;\n\n        emit AuctionCancel(msg.sender, _auctionId, now);\n    }\n\n    /*\n    @dev returns common data for a given auction.\n    */\n    function getAuction(uint256 _auctionId)\n    public\n    view\n    returns(uint256, uint256, uint256, uint256, uint256, address, address[], bool, string, bytes32) {\n        Foundation memory a = foundationAuctions[_auctionId];\n\n        return(\n            a.createdAt,\n            a.maxBid,\n            a.minimum,\n            a.horseBatch,\n            a.firstBidTime,\n            a.maxBidder,\n            a.bidders,\n            a.isOpen,\n            a.horseHash,\n            a.horseGender\n        );\n    }\n\n    /*\n    Returns bid data for a given address on a given auction.\n    */\n    function getBidData(uint256 _auctionId, address _bidder) public view returns(uint256, uint256) {\n        Foundation storage a = foundationAuctions[_auctionId];\n\n        return(a.bids[_bidder], a.bidTimes[_bidder]);\n    }\n\n    function getOpenAuctions() public view returns(uint256[]) {\n        return openAuctions;\n    }\n\n    // RESTRICTED\n    function _removeAuction(uint256 _tokenId) private {\n        uint256 index = auctionIndex[_tokenId];\n        uint256 lastAuctionIndex = openAuctions.length.sub(1);\n        uint256 lastAuction = openAuctions[lastAuctionIndex];\n\n        openAuctions[index] = lastAuction;\n        auctionIndex[lastAuction] = index;\n\n        delete openAuctions[lastAuctionIndex];\n\n        openAuctions.length--;\n    }\n\n    function setGOPCreator(address _gop) public onlyOwner() {\n        gop = GOPCreator(_gop);\n    }\n}",
  "sourcePath": "/Users/eswarasai/Sites/ZED/cryptofield-core/contracts/FoundationAuctions.sol",
  "compiler": {
    "name": "solc",
    "version": "0.4.24+commit.e67f0147.Emscripten.clang"
  },
  "schemaVersion": "3.0.6",
  "updatedAt": "2019-06-11T20:54:33.284Z",
  "devdoc": {
    "methods": {
      "initialize(address)": {
        "details": "The Ownable constructor sets the original `owner` of the contract to the sender account."
      },
      "isOwner()": {
        "return": "true if `msg.sender` is the owner of the contract."
      },
      "owner()": {
        "return": "the address of the owner."
      },
      "renounceOwnership()": {
        "details": "Allows the current owner to relinquish control of the contract."
      },
      "transferOwnership(address)": {
        "details": "Allows the current owner to transfer control of the contract to a newOwner.",
        "params": {
          "newOwner": "The address to transfer ownership to."
        }
      }
    }
  },
  "userdoc": {
    "methods": {
      "renounceOwnership()": {
        "notice": "Renouncing to ownership will leave the contract without an owner. It will not be possible to call the functions with the `onlyOwner` modifier anymore."
      }
    }
  }
}