{
  "contractName": "GOPCreator",
  "abi": [
    {
      "constant": false,
      "inputs": [],
      "name": "renounceOwnership",
      "outputs": [],
      "payable": false,
      "stateMutability": "nonpayable",
      "type": "function"
    },
    {
      "constant": true,
      "inputs": [],
      "name": "owner",
      "outputs": [
        {
          "name": "",
          "type": "address"
        }
      ],
      "payable": false,
      "stateMutability": "view",
      "type": "function"
    },
    {
      "constant": true,
      "inputs": [],
      "name": "isOwner",
      "outputs": [
        {
          "name": "",
          "type": "bool"
        }
      ],
      "payable": false,
      "stateMutability": "view",
      "type": "function"
    },
    {
      "constant": false,
      "inputs": [
        {
          "name": "newOwner",
          "type": "address"
        }
      ],
      "name": "transferOwnership",
      "outputs": [],
      "payable": false,
      "stateMutability": "nonpayable",
      "type": "function"
    },
    {
      "anonymous": false,
      "inputs": [
        {
          "indexed": false,
          "name": "_owner",
          "type": "address"
        },
        {
          "indexed": false,
          "name": "_amount",
          "type": "uint256"
        }
      ],
      "name": "LogGOPBid",
      "type": "event"
    },
    {
      "anonymous": false,
      "inputs": [
        {
          "indexed": false,
          "name": "_claimer",
          "type": "address"
        }
      ],
      "name": "LogGOPClaim",
      "type": "event"
    },
    {
      "anonymous": false,
      "inputs": [
        {
          "indexed": true,
          "name": "previousOwner",
          "type": "address"
        }
      ],
      "name": "OwnershipRenounced",
      "type": "event"
    },
    {
      "anonymous": false,
      "inputs": [
        {
          "indexed": true,
          "name": "previousOwner",
          "type": "address"
        },
        {
          "indexed": true,
          "name": "newOwner",
          "type": "address"
        }
      ],
      "name": "OwnershipTransferred",
      "type": "event"
    },
    {
      "constant": false,
      "inputs": [
        {
          "name": "sender",
          "type": "address"
        }
      ],
      "name": "initialize",
      "outputs": [],
      "payable": false,
      "stateMutability": "nonpayable",
      "type": "function"
    },
    {
      "constant": false,
      "inputs": [
        {
          "name": "_addr",
          "type": "address"
        },
        {
          "name": "_owner",
          "type": "address"
        }
      ],
      "name": "initialize",
      "outputs": [],
      "payable": false,
      "stateMutability": "nonpayable",
      "type": "function"
    },
    {
      "constant": false,
      "inputs": [
        {
          "name": "_batch",
          "type": "uint256"
        }
      ],
      "name": "openBatch",
      "outputs": [],
      "payable": false,
      "stateMutability": "nonpayable",
      "type": "function"
    },
    {
      "constant": false,
      "inputs": [],
      "name": "closeBatch",
      "outputs": [],
      "payable": false,
      "stateMutability": "nonpayable",
      "type": "function"
    },
    {
      "constant": false,
      "inputs": [
        {
          "name": "_owner",
          "type": "address"
        },
        {
          "name": "_hash",
          "type": "string"
        }
      ],
      "name": "createGOP",
      "outputs": [
        {
          "name": "",
          "type": "uint256"
        }
      ],
      "payable": true,
      "stateMutability": "payable",
      "type": "function"
    },
    {
      "constant": false,
      "inputs": [
        {
          "name": "_owner",
          "type": "address"
        },
        {
          "name": "_hash",
          "type": "string"
        },
        {
          "name": "_batch",
          "type": "uint256"
        },
        {
          "name": "_gender",
          "type": "bytes32"
        }
      ],
      "name": "createCustomHorse",
      "outputs": [
        {
          "name": "",
          "type": "uint256"
        }
      ],
      "payable": false,
      "stateMutability": "nonpayable",
      "type": "function"
    },
    {
      "constant": false,
      "inputs": [
        {
          "name": "_owner",
          "type": "address"
        },
        {
          "name": "_hash",
          "type": "string"
        },
        {
          "name": "_batch",
          "type": "uint256"
        }
      ],
      "name": "createRandomHorseFor",
      "outputs": [
        {
          "name": "",
          "type": "uint256"
        }
      ],
      "payable": false,
      "stateMutability": "nonpayable",
      "type": "function"
    },
    {
      "constant": false,
      "inputs": [
        {
          "name": "_hash",
          "type": "string"
        }
      ],
      "name": "createFoundationAuction",
      "outputs": [],
      "payable": true,
      "stateMutability": "payable",
      "type": "function"
    },
    {
      "constant": false,
      "inputs": [
        {
          "name": "myid",
          "type": "bytes32"
        },
        {
          "name": "result",
          "type": "string"
        },
        {
          "name": "proof",
          "type": "bytes"
        }
      ],
      "name": "__callback",
      "outputs": [],
      "payable": false,
      "stateMutability": "nonpayable",
      "type": "function"
    },
    {
      "constant": false,
      "inputs": [
        {
          "name": "_id",
          "type": "bytes32"
        },
        {
          "name": "_result",
          "type": "string"
        }
      ],
      "name": "__callback",
      "outputs": [],
      "payable": false,
      "stateMutability": "nonpayable",
      "type": "function"
    },
    {
      "constant": false,
      "inputs": [
        {
          "name": "_auctionId",
          "type": "uint256"
        }
      ],
      "name": "foundationAuctionBid",
      "outputs": [],
      "payable": true,
      "stateMutability": "payable",
      "type": "function"
    },
    {
      "constant": false,
      "inputs": [
        {
          "name": "_auction",
          "type": "uint256"
        }
      ],
      "name": "foundationAuctionWithdraw",
      "outputs": [
        {
          "name": "",
          "type": "bool"
        }
      ],
      "payable": false,
      "stateMutability": "nonpayable",
      "type": "function"
    },
    {
      "constant": true,
      "inputs": [
        {
          "name": "_auction",
          "type": "uint256"
        }
      ],
      "name": "auctionInformation",
      "outputs": [
        {
          "name": "",
          "type": "uint256"
        },
        {
          "name": "",
          "type": "uint256"
        },
        {
          "name": "",
          "type": "uint256"
        },
        {
          "name": "",
          "type": "uint256"
        },
        {
          "name": "",
          "type": "uint256"
        },
        {
          "name": "",
          "type": "address"
        },
        {
          "name": "",
          "type": "bool"
        }
      ],
      "payable": false,
      "stateMutability": "view",
      "type": "function"
    },
    {
      "constant": true,
      "inputs": [
        {
          "name": "_gen",
          "type": "uint256"
        }
      ],
      "name": "horsesRemaining",
      "outputs": [
        {
          "name": "",
          "type": "uint256"
        }
      ],
      "payable": false,
      "stateMutability": "view",
      "type": "function"
    },
    {
      "constant": true,
      "inputs": [],
      "name": "isABatchOpen",
      "outputs": [
        {
          "name": "",
          "type": "bool"
        },
        {
          "name": "",
          "type": "uint256"
        }
      ],
      "payable": false,
      "stateMutability": "view",
      "type": "function"
    },
    {
      "constant": true,
      "inputs": [],
      "name": "getOpenAuctions",
      "outputs": [
        {
          "name": "",
          "type": "uint256[]"
        }
      ],
      "payable": false,
      "stateMutability": "view",
      "type": "function"
    },
    {
      "constant": false,
      "inputs": [],
      "name": "getQueryPrice",
      "outputs": [
        {
          "name": "",
          "type": "uint256"
        }
      ],
      "payable": false,
      "stateMutability": "nonpayable",
      "type": "function"
    },
    {
      "constant": true,
      "inputs": [
        {
          "name": "_bidder",
          "type": "address"
        },
        {
          "name": "_auction",
          "type": "uint256"
        }
      ],
      "name": "bidOfBidder",
      "outputs": [
        {
          "name": "",
          "type": "uint256"
        }
      ],
      "payable": false,
      "stateMutability": "view",
      "type": "function"
    },
    {
      "constant": true,
      "inputs": [
        {
          "name": "_user",
          "type": "address"
        }
      ],
      "name": "getAuctionsFor",
      "outputs": [
        {
          "name": "",
          "type": "uint256[]"
        },
        {
          "name": "",
          "type": "uint256[]"
        }
      ],
      "payable": false,
      "stateMutability": "view",
      "type": "function"
    },
    {
      "constant": false,
      "inputs": [
        {
          "name": "_auction",
          "type": "uint256"
        }
      ],
      "name": "closeAuction",
      "outputs": [],
      "payable": false,
      "stateMutability": "nonpayable",
      "type": "function"
    },
    {
      "constant": false,
      "inputs": [
        {
          "name": "_foundation",
          "type": "address"
        }
      ],
      "name": "setFoundationAddress",
      "outputs": [],
      "payable": false,
      "stateMutability": "nonpayable",
      "type": "function"
    }
  ],
  "bytecode": "0x608060405234801561001057600080fd5b50613862806100206000396000f30060806040526004361061012f5763ffffffff60e060020a6000350416631f96c1a88114610134578063236ed8f31461014b57806324b4cee01461016357806327dc297e1461017b57806338bbfa50146101d9578063485cc95514610275578063487ff5691461029c57806358b1effb1461031e578063715018a614610342578063796b5e37146103575780637dbdc2eb146103a357806382e380ef146103b85780638da5cb5b146104135780638f32d59b14610444578063980481e01461046d578063a110063a1461049d578063b05940f2146104f7578063c4d66de81461055c578063cf3fa4b11461057d578063e1f5760b146105e6578063ed9cd5d8146105fe578063eec7d97c14610616578063f1ead3d614610621578063f2fde38b146106db578063f41377ca146106fc575b600080fd5b34801561014057600080fd5b5061014961071d565b005b34801561015757600080fd5b50610149600435610741565b34801561016f57600080fd5b50610149600435610778565b34801561018757600080fd5b5060408051602060046024803582810135601f810185900485028601850190965285855261014995833595369560449491939091019190819084018382808284375094975061080d9650505050505050565b3480156101e557600080fd5b5060408051602060046024803582810135601f810185900485028601850190965285855261014995833595369560449491939091019190819084018382808284375050604080516020601f89358b018035918201839004830284018301909452808352979a9998810197919650918201945092508291508401838280828437509497506108a79650505050505050565b34801561028157600080fd5b50610149600160a060020a03600435811690602435166108ac565b3480156102a857600080fd5b5060408051602060046024803582810135601f810185900485028601850190965285855261030c958335600160a060020a0316953695604494919390910191908190840183828082843750949750508435955050506020909201359150610b309050565b60408051918252519081900360200190f35b34801561032a57600080fd5b5061030c600160a060020a0360043516602435610d71565b34801561034e57600080fd5b50610149610d9c565b6040805160206004803580820135601f8101849004840285018401909552848452610149943694929360249392840191908190840183828082843750949750610df99650505050505050565b3480156103af57600080fd5b5061030c610fd9565b3480156103c457600080fd5b506103d060043561101f565b6040805197885260208801969096528686019490945260608601929092526080850152600160a060020a031660a0840152151560c0830152519081900360e00190f35b34801561041f57600080fd5b506104286111d2565b60408051600160a060020a039092168252519081900360200190f35b34801561045057600080fd5b506104596111e1565b604080519115158252519081900360200190f35b34801561047957600080fd5b506104826111f2565b60408051921515835260208301919091528051918290030190f35b60408051602060046024803582810135601f810185900485028601850190965285855261030c958335600160a060020a03169536956044949193909101919081908401838280828437509497506112009650505050505050565b34801561050357600080fd5b5061050c6113eb565b60408051602080825283518183015283519192839290830191858101910280838360005b83811015610548578181015183820152602001610530565b505050509050019250505060405180910390f35b34801561056857600080fd5b50610149600160a060020a0360043516611443565b34801561058957600080fd5b5060408051602060046024803582810135601f810185900485028601850190965285855261030c958335600160a060020a031695369560449491939091019190819084018382808284375094975050933594506115369350505050565b3480156105f257600080fd5b5061030c60043561176e565b34801561060a57600080fd5b50610459600435611780565b610149600435611a51565b34801561062d57600080fd5b50610642600160a060020a0360043516611c88565b604051808060200180602001838103835285818151815260200191508051906020019060200280838360005b8381101561068657818101518382015260200161066e565b50505050905001838103825284818151815260200191508051906020019060200280838360005b838110156106c55781810151838201526020016106ad565b5050505090500194505050505060405180910390f35b3480156106e757600080fd5b50610149600160a060020a0360043516611d57565b34801561070857600080fd5b50610149600160a060020a0360043516611d76565b6107256111e1565b151561073057600080fd5b606b805460ff191690556000606c55565b6107496111e1565b151561075457600080fd5b61075d81611dab565b6000908152607060205260409020600701805460ff19169055565b6107806111e1565b151561078b57600080fd5b6001811015801561079d5750600a8111155b15156107f3576040805160e560020a62461bcd02815260206004820152601260248201527f47656e206e6f74207265636f676e697a65640000000000000000000000000000604482015290519081900360640190fd5b6107fb61071d565b606b805460ff19166001179055606c55565b6000610817611e54565b600160a060020a03163314610876576040805160e560020a62461bcd02815260206004820152600c60248201527f4e6f74206f7261636c697a650000000000000000000000000000000000000000604482015290519081900360640190fd5b61087f82612049565b905061088a81611dab565b6000908152607060205260409020600701805460ff191690555050565b505050565b60008054610100900460ff16806108c657506108c661205c565b806108d4575060005460ff16155b1515610950576040805160e560020a62461bcd02815260206004820152602e60248201527f436f6e747261637420696e7374616e63652068617320616c726561647920626560448201527f656e20696e697469616c697a6564000000000000000000000000000000000000606482015290519081900360840190fd5b5060008054600161010061ff00198316811760ff1916919091179092550460ff1661097a82611443565b606f8054600160a060020a03909416600160a060020a0319909416939093179092555060716020526103e87f169c6be1b0e6ab5de76b532e587a77340130ac65c5591db02be822dcf1dc0ed68190557f407a0f41a795ee56754450306f8233d035a9d8585a6839c0ed097e1e0ca2dc4b8190557fc44b7d8f05f19024d2a21c9d552e7ceb275bf297b5fbc3c41c0a2ac942248cd18190557ffb3084083c2dd2bd7d92fcff797f2fb790dfc803453c11ff0a7513f6fce5b55a556107d07f77ce3321611ac79c0dbf5e80f85ef16c3b8e8a21061c476901fb4e0092af930d55610bb87f8f746a77ac454de6d35f64226a6c9dfbdf8750dc4ea82ac9b1d814354e0625a055610fa07f71841d1906b263a8b00eef920ccab25304805c1f2e9bf642455d8b8c252f569c556117707fae4f562243f3c602e6304a6c804841a807242305931d60d4be078d99b0f6d4f1556123287f6975aa57cfafe79c6a73b8d83f6df9663626dd72a82a94c0ccce6743157e1ada55600a60009081526127107f27847bb9d7b2bc4359b958015666f776b666fe067bdf6b78aa8a65cbca2c270b5580549115156101000261ff0019909216919091179055565b60008281526071602052604081205481901515610b97576040805160e560020a62461bcd02815260206004820152601a60248201527f4c696d697420666f722067656e6f747970652072656163686564000000000000604482015290519081900360640190fd5b610b9f6111d2565b600160a060020a031633600160a060020a03161480610bc85750607654600160a060020a031633145b1515610c1e576040805160e560020a62461bcd02815260206004820152600c60248201527f756e617574686f72697a65640000000000000000000000000000000000000000604482015290519081900360640190fd5b606f546040517f2d6ae4fa000000000000000000000000000000000000000000000000000000008152600160a060020a038881166004830190815260448301889052606483018790526080602484019081528951608485015289519290941693632d6ae4fa938b938b938b938b939192909160a40190602087019080838360005b83811015610cb7578181015183820152602001610c9f565b50505050905090810190601f168015610ce45780820380516001836020036101000a031916815260200191505b5095505050505050602060405180830381600087803b158015610d0657600080fd5b505af1158015610d1a573d6000803e3d6000fd5b505050506040513d6020811015610d3057600080fd5b5051600085815260716020526040902054909150610d5590600163ffffffff61206616565b6000858152607160205260409020559050805b50949350505050565b6000908152607060209081526040808320600160a060020a0394909416835260099093019052205490565b610da46111e1565b1515610daf57600080fd5b603354604051600160a060020a03909116907ff8df31144d9c2f0f6b59d69b8b98abd5459d07f2742c4df920b25aae33c6482090600090a260338054600160a060020a0319169055565b6000610e036111e1565b1515610e0e57600080fd5b6005606c5410158015610e245750600a606c5411155b1515610e7a576040805160e560020a62461bcd02815260206004820152601360248201527f4261746368206f7574206f6620626f756e647300000000000000000000000000604482015290519081900360640190fd5b610eb86040805190810160405280600381526020017f55524c000000000000000000000000000000000000000000000000000000000081525061207d565b341015610f0f576040805160e560020a62461bcd02815260206004820152601660248201527f4f7261636c697a65207072696365206e6f74206d657400000000000000000000604482015290519081900360640190fd5b606c5460051415610f25575067058d15e1762800005b606c5460061415610f3b575067054607fc96a600005b606c5460071415610f5157506704db7325476300005b606c5460081415610f675750670494654067e100005b606c5460091415610f7d57506703e2c284391c00005b606c54600a1415610f9357506703782dace9d900005b610fa08183606c546122e5565b606c54600090815260716020526040902054610fc390600163ffffffff61206616565b606c546000908152607160205260409020555050565b60006110196040805190810160405280600381526020017f55524c000000000000000000000000000000000000000000000000000000000081525061207d565b90505b90565b600080600080600080600061103261369c565b60008981526070602090815260409182902082516101208101845281548152600182015481840152600282015481850152600382015460608201526004820154600160a060020a03908116608083015260058301541660a08201526006820180548551818602810186019096528086529194929360c086019392908301828280156110e657602002820191906000526020600020905b8154600160a060020a031681526001909101906020018083116110c8575b5050509183525050600782015460ff16151560208083019190915260088301805460408051601f600260001960018616156101000201909416939093049283018590048502810185018252828152940193928301828280156111895780601f1061115e57610100808354040283529160200191611189565b820191906000526020600020905b81548152906001019060200180831161116c57829003601f168201915b50505050508152505090508060000151816040015182606001518360c0015151846020015185608001518660e00151975097509750975097509750975050919395979092949650565b603354600160a060020a031690565b603354600160a060020a0316331490565b606b54606c5460ff90911691565b606b546000908190819060ff161515611263576040805160e560020a62461bcd02815260206004820152600d60248201527f4e6f206261746368206f70656e00000000000000000000000000000000000000604482015290519081900360640190fd5b606c5460009081526071602052604090205415156112f1576040805160e560020a62461bcd02815260206004820152602660248201527f43617020666f72207370656369666965642067656e6f7479706520616c72656160448201527f6479206d65740000000000000000000000000000000000000000000000000000606482015290519081900360840190fd5b606c54600114156113085767058d15e17628000091505b606c546002141561131f57670429d069189e000091505b606c5460031415611336576703782dace9d9000091505b606c546004141561134d576702c68af0bb14000091505b606c54600514156113645767029140851372800091505b606c546006141561137b5767027f7d0bdb92000091505b606c54600714156113925767026db992a3b1800091505b606c54600814156113a95767025bf6196bd1000091505b606c54600914156113c05767024a32a033f0800091505b606c54600a14156113d7576702386f26fc10000091505b6113e285858461259e565b95945050505050565b6060606e80548060200260200160405190810160405280929190818152602001828054801561143957602002820191906000526020600020905b815481526020019060010190808311611425575b5050505050905090565b60008054610100900460ff168061145d575061145d61205c565b8061146b575060005460ff16155b15156114e7576040805160e560020a62461bcd02815260206004820152602e60248201527f436f6e747261637420696e7374616e63652068617320616c726561647920626560448201527f656e20696e697469616c697a6564000000000000000000000000000000000000606482015290519081900360840190fd5b506000805460338054600160a060020a031916600160a060020a03949094169390931790925561ff001980831661010090811760ff19166001179091169281900460ff16151502919091179055565b6000818152607160205260408120548190151561159d576040805160e560020a62461bcd02815260206004820152601a60248201527f4c696d697420666f722067656e6f747970652072656163686564000000000000604482015290519081900360640190fd5b6115a56111d2565b600160a060020a031633600160a060020a031614806115ce5750607654600160a060020a031633145b1515611624576040805160e560020a62461bcd02815260206004820152600c60248201527f756e617574686f72697a65640000000000000000000000000000000000000000604482015290519081900360640190fd5b606f546040517f611b2fed000000000000000000000000000000000000000000000000000000008152600160a060020a038781166004830190815260448301879052606060248401908152885160648501528851929094169363611b2fed938a938a938a9390929091608490910190602086019080838360005b838110156116b657818101518382015260200161169e565b50505050905090810190601f1680156116e35780820380516001836020036101000a031916815260200191505b50945050505050602060405180830381600087803b15801561170457600080fd5b505af1158015611718573d6000803e3d6000fd5b505050506040513d602081101561172e57600080fd5b505160008481526071602052604090205490915061175390600163ffffffff61206616565b6000848152607160205260409020559050805b509392505050565b60009081526071602052604090205490565b6000818152607060205260408120600781015460ff16156117eb576040805160e560020a62461bcd02815260206004820152601260248201527f41756374696f6e207374696c6c206f70656e0000000000000000000000000000604482015290519081900360640190fd5b6004810154600160a060020a031633141561193357606f5460038201546040517f611b2fed0000000000000000000000000000000000000000000000000000000081523360048201818152604483018490526060602484019081526008870180546002600019600183161561010002019091160460648601819052600160a060020a039097169663611b2fed969495919493929160840190859080156118d25780601f106118a7576101008083540402835291602001916118d2565b820191906000526020600020905b8154815290600101906020018083116118b557829003601f168201915b5050945050505050602060405180830381600087803b1580156118f457600080fd5b505af1158015611908573d6000803e3d6000fd5b505050506040513d602081101561191e57600080fd5b5050600481018054600160a060020a03191690555b61193b6111d2565b600160a060020a031633600160a060020a0316141561198d576001810154604051339180156108fc02916000818181858888f19350505050158015611984573d6000803e3d6000fd5b50600060018201555b6004810154600160a060020a031633148015906119c357506119ad6111d2565b600160a060020a031633600160a060020a031614155b15611a155733600081815260098301602052604080822054905181156108fc0292818181858888f19350505050158015611a01573d6000803e3d6000fd5b503360009081526009820160205260408120555b6040805133815290517fd6cff280c6b2d7cbb5c1d6581b7b822fadb2504cd8f2fa84d229552e5d555df39181900360200190a150600192915050565b6000818152607060205260408120600781015490919060ff161515611ac0576040805160e560020a62461bcd02815260206004820152601060248201527f41756374696f6e206e6f74206f70656e00000000000000000000000000000000604482015290519081900360640190fd5b336000908152600983016020526040902054611ae2903463ffffffff6127a916565b60018301549091508111611b40576040805160e560020a62461bcd02815260206004820152601a60248201527f426964206c6f776572207468616e206d6178696d756d20626964000000000000604482015290519081900360640190fd5b60068201541515611ba7576002820154341015611ba7576040805160e560020a62461bcd02815260206004820152601660248201527f426964206c6f776572207468616e206d696e696d756d00000000000000000000604482015290519081900360640190fd5b3360009081526009830160209081526040808320849055600a850190915290205460ff161515611c2b5760068201805460018181018355600092835260208084209092018054600160a060020a031916339081179091558352600a850182526040808420805460ff1916831790556073835283208054918201815583529120018390555b60018201819055600482018054600160a060020a03191633908117909155604080519182526020820183905280517ffde1384ef84db3b97af76f0aa51e8e9ea3f414e6c9643fe3507c26c6fea35ba39281900390910190a1505050565b600160a060020a03811660009081526074602090815260408083206073835292819020835482518185028101850190935280835260609485949093918491830182828015611cf557602002820191906000526020600020905b815481526020019060010190808311611ce1575b5050505050915080805480602002602001604051908101604052809291908181526020018280548015611d4757602002820191906000526020600020905b815481526020019060010190808311611d33575b5050505050905091509150915091565b611d5f6111e1565b1515611d6a57600080fd5b611d73816127c2565b50565b611d7e6111e1565b1515611d8957600080fd5b60768054600160a060020a031916600160a060020a0392909216919091179055565b600081815260756020526040812054606e549091908190611dd390600163ffffffff61206616565b9150606e82815481101515611de457fe5b9060005260206000200154905080606e84815481101515611e0157fe5b6000918252602080832090910192909255828152607590915260409020839055606e805483908110611e2f57fe5b6000918252602082200155606e805490611e4d9060001983016136fd565b5050505050565b606654600090600160a060020a03161580611e815750606654611e7f90600160a060020a0316612833565b155b15611e9257611e906000612837565b505b606660009054906101000a9004600160a060020a0316600160a060020a03166338cc48316040518163ffffffff1660e060020a028152600401602060405180830381600087803b158015611ee557600080fd5b505af1158015611ef9573d6000803e3d6000fd5b505050506040513d6020811015611f0f57600080fd5b5051606754600160a060020a03908116911614611fc557606660009054906101000a9004600160a060020a0316600160a060020a03166338cc48316040518163ffffffff1660e060020a028152600401602060405180830381600087803b158015611f7957600080fd5b505af1158015611f8d573d6000803e3d6000fd5b505050506040513d6020811015611fa357600080fd5b505160678054600160a060020a031916600160a060020a039092169190911790555b606760009054906101000a9004600160a060020a0316600160a060020a031663c281d19e6040518163ffffffff1660e060020a028152600401602060405180830381600087803b15801561201857600080fd5b505af115801561202c573d6000803e3d6000fd5b505050506040513d602081101561204257600080fd5b5051905090565b6000612056826000612841565b92915050565b303b8015905b5090565b6000808383111561207657600080fd5b5050900390565b606654600090600160a060020a031615806120aa57506066546120a890600160a060020a0316612833565b155b156120bb576120b96000612837565b505b606660009054906101000a9004600160a060020a0316600160a060020a03166338cc48316040518163ffffffff1660e060020a028152600401602060405180830381600087803b15801561210e57600080fd5b505af1158015612122573d6000803e3d6000fd5b505050506040513d602081101561213857600080fd5b5051606754600160a060020a039081169116146121ee57606660009054906101000a9004600160a060020a0316600160a060020a03166338cc48316040518163ffffffff1660e060020a028152600401602060405180830381600087803b1580156121a257600080fd5b505af11580156121b6573d6000803e3d6000fd5b505050506040513d60208110156121cc57600080fd5b505160678054600160a060020a031916600160a060020a039092169190911790555b6067546040517f524f3889000000000000000000000000000000000000000000000000000000008152602060048201818152855160248401528551600160a060020a039094169363524f388993879383926044909201919085019080838360005b8381101561226757818101518382015260200161224f565b50505050905090810190601f1680156122945780820380516001836020036101000a031916815260200191505b5092505050602060405180830381600087803b1580156122b357600080fd5b505af11580156122c7573d6000803e3d6000fd5b505050506040513d60208110156122dd57600080fd5b505192915050565b60006122ef61369c565b606d80546001808201928390557f5006b838207c6a9ae9b84d68f467dd4bb5c305fbfb6b04eab8faaabeec1e18d89091018190553360a08401908152428452604080850189815260e08601849052606080870189815261010088018b905260008781526070602090815294812089518155858a015197810197909755925160028701555160038601556080870151600486018054600160a060020a0319908116600160a060020a0393841617909155945160058701805490961691161790935560c0860151805195975092948594919387936123d392600685019290910190613721565b5060e082015160078201805460ff19169115159190911790556101008201518051612408916008840191602090910190613782565b50905050606060405190810160405280603d81526020017f6a736f6e2868747470733a2f2f6170692e7a65642e72756e2f6170692f76312f81526020017f636c6f73655f61756374696f6e292e61756374696f6e5f636c6f73656400000081525092506124e66040805190810160405280600b81526020017f7b2261756374696f6e223a0000000000000000000000000000000000000000008152506124ad876129b3565b60408051808201909152600181527f7d000000000000000000000000000000000000000000000000000000000000006020820152612aa6565b606e8054600181019091557f9930d9ff0dee0ef5ca2f7710ea66b8f84dd0f5f5351ecffe72b952cd9db7142a81018790556000878152607560209081526040918290208390558151808301909252600382527f55524c000000000000000000000000000000000000000000000000000000000090820152919350915061257190610258908585612add565b50503360009081526074602090815260408220805460018101825590835291200193909355505050505050565b600080348311156125f9576040805160e560020a62461bcd02815260206004820152600d60248201527f5072696365206e6f74206d657400000000000000000000000000000000000000604482015290519081900360640190fd5b606f54606c546040517f611b2fed000000000000000000000000000000000000000000000000000000008152600160a060020a038881166004830190815260448301849052606060248401908152895160648501528951929095169463611b2fed948b948b9491939291608490910190602086019080838360005b8381101561268c578181015183820152602001612674565b50505050905090810190601f1680156126b95780820380516001836020036101000a031916815260200191505b50945050505050602060405180830381600087803b1580156126da57600080fd5b505af11580156126ee573d6000803e3d6000fd5b505050506040513d602081101561270457600080fd5b5051905080151561271757809150611766565b606c5460009081526071602052604090205461273a90600163ffffffff61206616565b606c54600090815260716020526040902055612754612f3d565b1561276957606b805460ff191690556000606c555b6127716111d2565b600160a060020a03166108fc349081150290604051600060405180830381858888f19350505050158015610d68573d6000803e3d6000fd5b6000828201838110156127bb57600080fd5b9392505050565b600160a060020a03811615156127d757600080fd5b603354604051600160a060020a038084169216907f8be0079c531659141344cd1fd0a4f28419497f9722a3daafe3b4186f6b6457e090600090a360338054600160a060020a031916600160a060020a0392909216919091179055565b3b90565b60006120566130fc565b6000828180805b83518110156129965783517f30000000000000000000000000000000000000000000000000000000000000009085908390811061288157fe5b90602001015160f860020a900460f860020a02600160f860020a031916101580156128f7575083517f3900000000000000000000000000000000000000000000000000000000000000908590839081106128d757fe5b90602001015160f860020a900460f860020a02600160f860020a03191611155b156129505781156129165785151561290e57612996565b600019909501945b600a830292506030848281518110151561292c57fe5b90602001015160f860020a900460f860020a0260f860020a9004038301925061298e565b838181518110151561295e57fe5b90602001015160f860020a900460f860020a02600160f860020a031916602e60f860020a02141561298e57600191505b600101612848565b60008611156129a85785600a0a830292505b509095945050505050565b606060008082818515156129fc5760408051808201909152600181527f300000000000000000000000000000000000000000000000000000000000000060208201529450612a9d565b8593505b8315612a1757600190920191600a84049350612a00565b826040519080825280601f01601f191660200182016040528015612a45578160200160208202803883390190505b5091505060001982015b8515612a9957815160001982019160f860020a6030600a8a060102918491908110612a7657fe5b906020010190600160f860020a031916908160001a905350600a86049550612a4f565b8194505b50505050919050565b6060612ad584848460206040519081016040528060008152506020604051908101604052806000815250613424565b949350505050565b6066546000908190600160a060020a03161580612b0c5750606654612b0a90600160a060020a0316612833565b155b15612b1d57612b1b6000612837565b505b606660009054906101000a9004600160a060020a0316600160a060020a03166338cc48316040518163ffffffff1660e060020a028152600401602060405180830381600087803b158015612b7057600080fd5b505af1158015612b84573d6000803e3d6000fd5b505050506040513d6020811015612b9a57600080fd5b5051606754600160a060020a03908116911614612c5057606660009054906101000a9004600160a060020a0316600160a060020a03166338cc48316040518163ffffffff1660e060020a028152600401602060405180830381600087803b158015612c0457600080fd5b505af1158015612c18573d6000803e3d6000fd5b505050506040513d6020811015612c2e57600080fd5b505160678054600160a060020a031916600160a060020a039092169190911790555b6067546040517f524f3889000000000000000000000000000000000000000000000000000000008152602060048201818152885160248401528851600160a060020a039094169363524f3889938a9383926044909201919085019080838360005b83811015612cc9578181015183820152602001612cb1565b50505050905090810190601f168015612cf65780820380516001836020036101000a031916815260200191505b5092505050602060405180830381600087803b158015612d1557600080fd5b505af1158015612d29573d6000803e3d6000fd5b505050506040513d6020811015612d3f57600080fd5b50519050670de0b6b3a764000062030d403a0201811115612d635760009150610d68565b6067546040517f7722865900000000000000000000000000000000000000000000000000000000815260048101888152608060248301908152885160848401528851600160a060020a039094169363772286599386938c938c938c938c9392916044820191606481019160a490910190602089019080838360005b83811015612df6578181015183820152602001612dde565b50505050905090810190601f168015612e235780820380516001836020036101000a031916815260200191505b50848103835286518152865160209182019188019080838360005b83811015612e56578181015183820152602001612e3e565b50505050905090810190601f168015612e835780820380516001836020036101000a031916815260200191505b50848103825285518152855160209182019187019080838360005b83811015612eb6578181015183820152602001612e9e565b50505050905090810190601f168015612ee35780820380516001836020036101000a031916815260200191505b509750505050505050506020604051808303818588803b158015612f0657600080fd5b505af1158015612f1a573d6000803e3d6000fd5b50505050506040513d6020811015612f3157600080fd5b50519695505050505050565b60006001606c5410158015612f5557506004606c5411155b15612f765750606c546000908152607160205260409020546101f41461101c565b606c5460051415612fb75750600560005260716020527f77ce3321611ac79c0dbf5e80f85ef16c3b8e8a21061c476901fb4e0092af930d546105dc1461101c565b606c5460061415612ff85750600660005260716020527f8f746a77ac454de6d35f64226a6c9dfbdf8750dc4ea82ac9b1d814354e0625a0546109c41461101c565b606c54600714156130395750600760005260716020527f71841d1906b263a8b00eef920ccab25304805c1f2e9bf642455d8b8c252f569c54610dac1461101c565b606c546008141561307a5750600860005260716020527fae4f562243f3c602e6304a6c804841a807242305931d60d4be078d99b0f6d4f15461157c1461101c565b606c54600914156130bb5750600960005260716020527f6975aa57cfafe79c6a73b8d83f6df9663626dd72a82a94c0ccce6743157e1ada546121341461101c565b606c54600a141561101c5750600a60005260716020527f27847bb9d7b2bc4359b958015666f776b666fe067bdf6b78aa8a65cbca2c270b5461251c1461101c565b60008061311c731d3b2638a7cc9f2cb3d298a3da7a90b67e5506ed612833565b111561318d5760668054600160a060020a031916731d3b2638a7cc9f2cb3d298a3da7a90b67e5506ed17905560408051808201909152600b81527f6574685f6d61696e6e6574000000000000000000000000000000000000000000602082015261318590613685565b50600161101c565b60006131ac73c03a2615d5efaf5f49f60b7bb6583eaec212fdf1612833565b11156132155760668054600160a060020a03191673c03a2615d5efaf5f49f60b7bb6583eaec212fdf117905560408051808201909152600c81527f6574685f726f707374656e330000000000000000000000000000000000000000602082015261318590613685565b600061323473b7a07bcf2ba2f2703b24c0691b5278999c59ac7e612833565b111561329d5760668054600160a060020a03191673b7a07bcf2ba2f2703b24c0691b5278999c59ac7e17905560408051808201909152600981527f6574685f6b6f76616e0000000000000000000000000000000000000000000000602082015261318590613685565b60006132bc73146500cfd35b22e4a392fe0adc06de1a1368ed48612833565b11156133255760668054600160a060020a03191673146500cfd35b22e4a392fe0adc06de1a1368ed4817905560408051808201909152600b81527f6574685f72696e6b656279000000000000000000000000000000000000000000602082015261318590613685565b6000613344736f485c8bf6fc43ea212e93bbf8ce046c7f1cb475612833565b1115613378575060668054600160a060020a031916736f485c8bf6fc43ea212e93bbf8ce046c7f1cb475179055600161101c565b60006133977320e12a1f859b3feae5fb2a0a32c18f5a65555bbf612833565b11156133cb575060668054600160a060020a0319167320e12a1f859b3feae5fb2a0a32c18f5a65555bbf179055600161101c565b60006133ea7351efaf4c8b3c9afbd5ab9f4bbc82784ab6ef8faa612833565b111561341e575060668054600160a060020a0319167351efaf4c8b3c9afbd5ab9f4bbc82784ab6ef8faa179055600161101c565b50600090565b6060806060806060806060806000808e98508d97508c96508b95508a94508451865188518a518c51010101016040519080825280601f01601f19166020018201604052801561347d578160200160208202803883390190505b50935083925060009150600090505b88518110156134ea5788818151811015156134a357fe5b90602001015160f860020a900460f860020a0283838060010194508151811015156134ca57fe5b906020010190600160f860020a031916908160001a90535060010161348c565b5060005b875181101561354c57878181518110151561350557fe5b90602001015160f860020a900460f860020a02838380600101945081518110151561352c57fe5b906020010190600160f860020a031916908160001a9053506001016134ee565b5060005b86518110156135ae57868181518110151561356757fe5b90602001015160f860020a900460f860020a02838380600101945081518110151561358e57fe5b906020010190600160f860020a031916908160001a905350600101613550565b5060005b85518110156136105785818151811015156135c957fe5b90602001015160f860020a900460f860020a0283838060010194508151811015156135f057fe5b906020010190600160f860020a031916908160001a9053506001016135b2565b5060005b845181101561367257848181518110151561362b57fe5b90602001015160f860020a900460f860020a02838380600101945081518110151561365257fe5b906020010190600160f860020a031916908160001a905350600101613614565b50909d9c50505050505050505050505050565b8051613698906068906020840190613782565b5050565b61012060405190810160405280600081526020016000815260200160008152602001600081526020016000600160a060020a031681526020016000600160a060020a0316815260200160608152602001600015158152602001606081525090565b8154818355818111156108a7576000838152602090206108a79181019083016137f8565b828054828255906000526020600020908101928215613776579160200282015b828111156137765782518254600160a060020a031916600160a060020a03909116178255602090920191600190910190613741565b50612062929150613812565b828054600181600116156101000203166002900490600052602060002090601f016020900481019282601f106137c357805160ff19168380011785556137f0565b828001600101855582156137f0579182015b828111156137f05782518255916020019190600101906137d5565b506120629291505b61101c91905b8082111561206257600081556001016137fe565b61101c91905b80821115612062578054600160a060020a03191681556001016138185600a165627a7a723058205c8b960a059aa89a7f71ce97856e59992a8117869f70631e913ee655de4a810b0029",
  "source": "pragma solidity ^0.4.24;\n\nimport \"openzeppelin-eth/contracts/math/SafeMath.sol\";\nimport \"openzeppelin-eth/contracts/ownership/Ownable.sol\";\nimport \"./Core.sol\";\nimport \"./usingOraclize.sol\";\nimport \"zos-lib/contracts/Initializable.sol\";\n\n// TODO: Remove Auctions references from this contract.\n\n/*\n@dev Contract in charge of creating auctions for G1P horses\nfrom 1 to 10, i.e. ZED 1 / ZED 10, having a lower genotype makes a horse rarer.\n*/\ncontract GOPCreator is Initializable, Ownable, usingOraclize {\n    using SafeMath for uint256;\n\n    bool anyBatchOpen;\n\n    uint256 currentOpenBatch;\n    uint256[] gopsAuctionsList;\n    uint256[] openAuctions;\n\n    Core core;\n\n    struct GOP {\n        uint256 createdAt;\n        uint256 maxBid;\n        uint256 minimum;\n\n        uint256 horse;\n\n        address maxBidder;\n        address horseOwner;\n        address[] bidders;\n\n        bool isOpen;\n\n        string horseHash;\n\n        mapping(address => uint256) bidFor;\n        mapping(address => bool) exists;\n    }\n\n    mapping(uint256 => GOP) internal gopAuctions;\n    mapping(uint256 => uint256) internal horsesForGen;\n    mapping(uint256 => bool) internal firstHalfCompleted;\n    mapping(address => uint256[]) internal auctionsParticipating;\n    mapping(address => uint256[]) internal auctionsCreatedBy;\n    mapping(uint256 => uint256) internal auctionIndex;\n\n    event LogGOPBid(address _owner, uint256 _amount);\n    event LogGOPClaim(address _claimer);\n\n    function initialize(address _addr, address _owner) public initializer {\n        Ownable.initialize(_owner);\n        core = Core(_addr);\n        // OAR = OraclizeAddrResolverI(0x6f485C8BF6fc43eA212E93BBF8ce046C7f1cb475);\n\n        // From 1 to 4 there will be 500 more available for later use.\n        horsesForGen[1] = 1000;\n        horsesForGen[2] = 1000;\n        horsesForGen[3] = 1000;\n        horsesForGen[4] = 1000;\n        horsesForGen[5] = 2000;\n        horsesForGen[6] = 3000;\n        horsesForGen[7] = 4000;\n        horsesForGen[8] = 6000;\n        horsesForGen[9] = 9000;\n        horsesForGen[10] = 10000;\n    }\n\n    /*\n    @dev Manually opens a batch of horses.\n    */\n    function openBatch(uint256 _batch) public onlyOwner() {\n        // require(!anyBatchOpen, \"A batch is already open\");\n        require(_batch >= 1 && _batch <= 10, \"Gen not recognized\");\n\n        closeBatch();\n\n        anyBatchOpen = true;\n        currentOpenBatch = _batch;\n    }\n\n    /*\n    @dev Closes a given batch, we only allow one batch open at a time.\n    */\n    function closeBatch() public onlyOwner() {\n        anyBatchOpen = false;\n        currentOpenBatch = 0;\n    }\n\n    /*\n    @dev  Depending of the batch open we're going to directly sell the horse or\n    put them in Auctions first, only owner can put the horse into Auctions.\n    */\n    function createGOP(address _owner, string _hash) public payable returns(uint256) {\n        require(anyBatchOpen, \"No batch open\");\n        require(horsesForGen[currentOpenBatch] != 0, \"Cap for specified genotype already met\");\n\n        uint256 amount;\n\n        // We could have used a mapping for this instead but it wasn't initialized.\n        if(currentOpenBatch == 1) amount = 0.40 ether;\n        if(currentOpenBatch == 2) amount = 0.30 ether;\n        if(currentOpenBatch == 3) amount = 0.25 ether;\n        if(currentOpenBatch == 4) amount = 0.20 ether;\n        if(currentOpenBatch == 5) amount = 0.185 ether;\n        if(currentOpenBatch == 6) amount = 0.18 ether;\n        if(currentOpenBatch == 7) amount = 0.175 ether;\n        if(currentOpenBatch == 8) amount = 0.17 ether;\n        if(currentOpenBatch == 9) amount = 0.165 ether;\n        if(currentOpenBatch == 10) amount = 0.16 ether;\n\n        uint256 horseId = saleHorse(_owner, _hash, amount);\n        return horseId;\n    }\n\n    function saleHorse(address _owner, string _hash, uint256 _amount) private returns(uint256) {\n        require(msg.value >= _amount, \"Price not met\");\n\n        uint256 horseId = core.mintToken(_owner, _hash, currentOpenBatch);\n\n        if(horseId == 0) return horseId;\n\n        horsesForGen[currentOpenBatch] = horsesForGen[currentOpenBatch].sub(1);\n\n        /*\n        Check if we should close the batch automatically.\n        This happens only once when a batch has sold 500 horses.\n        You can re-open the batch again and the horses will sell depending on the batch open.\n        */\n        if(_shouldClose()) {\n            anyBatchOpen = false;\n            currentOpenBatch = 0;\n        }\n\n        owner().transfer(msg.value);\n\n        return horseId;\n    }\n\n    /*\n    @dev Creates a custom horse from the specified params. Mostly for marketing purposes.\n    @dev This horse also counts for the 38.000 horses that'll get released. '_batch' is the identifier.\n    */\n    function createCustomHorse(address _owner, string _hash, uint256 _batch, bytes32 _gender)\n    public\n    returns(uint256) {\n        require(horsesForGen[_batch] != 0, \"Limit for genotype reached\");\n        require(msg.sender == owner() || msg.sender == foundationAuctions, \"unauthorized\");\n\n        uint256 tokenId = core.mintCustomHorse(_owner, _hash, _batch, _gender);\n\n        horsesForGen[_batch] = horsesForGen[_batch].sub(1);\n\n        return tokenId;\n    }\n\n    /*\n    @dev Creates a random horse for the given batch.\n    @dev 'Random' in this context means that we won't decide the gender or other data.\n    */\n    function createRandomHorseFor(address _owner, string _hash, uint256 _batch)\n    public\n    returns(uint256) {\n        require(horsesForGen[_batch] != 0, \"Limit for genotype reached\");\n        require(msg.sender == owner() || msg.sender == foundationAuctions, \"unauthorized\");\n        uint256 tokenId = core.mintToken(_owner, _hash, _batch); // '_batch' is horse's genotype.\n\n        horsesForGen[_batch] = horsesForGen[_batch].sub(1);\n\n        return tokenId;\n    }\n\n    // We can use this function to create single auctions.\n    function createFoundationAuction(string _hash) public payable onlyOwner() {\n        require(currentOpenBatch >= 5 && currentOpenBatch <= 10, \"Batch out of bounds\");\n        require(msg.value >= oraclize_getPrice(\"URL\"), \"Oraclize price not met\");\n\n        uint256 amount;\n\n        if(currentOpenBatch == 5) amount = 0.40 ether;\n        if(currentOpenBatch == 6) amount = 0.38 ether;\n        if(currentOpenBatch == 7) amount = 0.35 ether;\n        if(currentOpenBatch == 8) amount = 0.33 ether;\n        if(currentOpenBatch == 9) amount = 0.28 ether;\n        if(currentOpenBatch == 10) amount = 0.25 ether;\n\n        _createAuction(amount, _hash, currentOpenBatch);\n\n        horsesForGen[currentOpenBatch] = horsesForGen[currentOpenBatch].sub(1);\n    }\n\n    /*\n    @dev The auction functionality here is the same as the logic in the 'SaleContract' used for\n    auctions from users.\n    */\n    function _createAuction(uint256 _minimum, string _hash, uint256 _batch) private {\n        uint256 id = gopsAuctionsList.push(1);\n\n        // The owner of the horse will be the contract for as long as the Auction last.\n        // uint256 horseId = core.mintToken(this, _hash, _batch);\n\n        GOP memory g;\n        g.horseOwner = msg.sender;\n        g.createdAt = now;\n        g.minimum = _minimum;\n        g.isOpen = true;\n        g.horse = _batch;\n        g.horseHash = _hash;\n\n        gopAuctions[id] = g;\n\n        string memory url = \"json(https://api.zed.run/api/v1/close_auction).auction_closed\";\n        string memory payload = strConcat(\"{\\\"auction\\\":\", uint2str(id), \"}\");\n\n        uint256 index = openAuctions.push(id) - 1;\n        auctionIndex[id] = index;\n\n        // Default is one week in seconds\n        // TODO: Maybe change time: 604800\n        oraclize_query(600, \"URL\", url, payload);\n\n        auctionsCreatedBy[msg.sender].push(id);\n    }\n\n    function __callback(bytes32 _id, string _result) public {\n        require(msg.sender == oraclize_cbAddress(), \"Not oraclize\");\n        uint256 id = parseInt(_result);\n\n        _removeAuction(id);\n\n        gopAuctions[id].isOpen = false;\n    }\n\n    function foundationAuctionBid(uint256 _auctionId) public payable {\n        GOP storage a = gopAuctions[_auctionId];\n\n        require(a.isOpen, \"Auction not open\");\n\n        uint256 userBid = a.bidFor[msg.sender].add(msg.value);\n\n        require(userBid > a.maxBid, \"Bid lower than maximum bid\");\n\n        if(a.bidders.length == 0) {\n            require(msg.value >= a.minimum, \"Bid lower than minimum\");\n        }\n\n        a.bidFor[msg.sender] = userBid;\n\n        if(!a.exists[msg.sender]) {\n            a.bidders.push(msg.sender);\n            a.exists[msg.sender] = true;\n\n            auctionsParticipating[msg.sender].push(_auctionId);\n        }\n\n        a.maxBid = userBid;\n        a.maxBidder = msg.sender;\n\n        emit LogGOPBid(msg.sender, userBid);\n    }\n\n    /*\n    @dev Claim the price (Minted token), ether if user didn't win and maximum bid if the user is the owner.\n    */\n    function foundationAuctionWithdraw(uint256 _auction) public returns(bool) {\n        // 'owner' doesn't get anything from here.\n        GOP storage g = gopAuctions[_auction];\n\n        require(!g.isOpen, \"Auction still open\");\n\n        // Transfer a token for 'maxBidder'.\n        if(msg.sender == g.maxBidder) {\n            // Mint the horse.\n            core.mintToken(msg.sender, g.horseHash, g.horse);\n            // core.safeTransferFrom(this, msg.sender, g.horse);\n            delete g.maxBidder;\n        }\n\n        // Transfer 'maxBid' to the owner.\n        if(msg.sender == owner()) {\n            // If auction has 0 bidders then we will send the horse back to the owner.\n            // if(g.bidders.length == 0) {\n            //     core.safeTransferFrom(this, msg.sender, g.horse);\n\n            //     return true;\n            // }\n\n            msg.sender.transfer(g.maxBid);\n            delete g.maxBid;\n        }\n\n        // Sends money back to user if they didn't win.\n        if(msg.sender != g.maxBidder && msg.sender != owner()) {\n            msg.sender.transfer(g.bidFor[msg.sender]);\n            delete g.bidFor[msg.sender];\n        }\n\n        emit LogGOPClaim(msg.sender);\n\n        return true;\n    }\n\n    /*\n    @dev returns the information from a GOP Auction\n    */\n    function auctionInformation(uint256 _auction)\n    public\n    view\n    returns(uint256, uint256, uint256, uint256, uint256, address, bool) {\n        GOP memory g = gopAuctions[_auction];\n        return(g.createdAt, g.minimum, g.horse, g.bidders.length, g.maxBid, g.maxBidder, g.isOpen);\n    }\n\n    /*\n    @dev Returns the ramining horses for a given gen.\n    */\n    function horsesRemaining(uint256 _gen) public view returns(uint256) {\n        return horsesForGen[_gen];\n    }\n\n    /*\n    @dev Returns bool indicating if a batch is open and which one is it\n    mostly used for displaying in the UI.\n    */\n    function isABatchOpen() public view returns(bool, uint256) {\n        return (anyBatchOpen, currentOpenBatch);\n    }\n\n    function getOpenAuctions() public view returns(uint256[]) {\n        return openAuctions;\n    }\n\n    function getQueryPrice() public returns(uint256) {\n        return oraclize_getPrice(\"URL\");\n    }\n\n    /*\n    @dev Returns the bid of the '_bidder'\n    */\n    function bidOfBidder(address _bidder, uint256 _auction) public view returns(uint256) {\n        return gopAuctions[_auction].bidFor[_bidder];\n    }\n\n    /*\n    @dev Returns a two lists, the auctions the user is participating in and\n    the auctions the user created.\n    */\n    function getAuctionsFor(address _user) public view returns(uint256[], uint256[]) {\n        return(auctionsCreatedBy[_user], auctionsParticipating[_user]);\n    }\n\n    /*  RESTRICTED  */\n    function closeAuction(uint256 _auction) public onlyOwner() {\n        _removeAuction(_auction);\n        gopAuctions[_auction].isOpen = false;\n    }\n\n    /*  PRIVATE FUNCS   */\n\n    function _removeAuction(uint256 _id) private {\n        uint256 index = auctionIndex[_id];\n        uint256 lastAuctionIndex = openAuctions.length.sub(1);\n        uint256 lastAuction = openAuctions[lastAuctionIndex];\n\n        openAuctions[index] = lastAuction;\n        auctionIndex[lastAuction] = index;\n\n        delete openAuctions[lastAuctionIndex];\n\n        openAuctions.length--;\n    }\n\n    function _shouldClose() private view returns(bool) {\n        if(currentOpenBatch >= 1 && currentOpenBatch <= 4) return horsesForGen[currentOpenBatch] == 500;\n        if(currentOpenBatch == 5) return horsesForGen[5] == 1500;\n        if(currentOpenBatch == 6) return horsesForGen[6] == 2500;\n        if(currentOpenBatch == 7) return horsesForGen[7] == 3500;\n        if(currentOpenBatch == 8) return horsesForGen[8] == 5500;\n        if(currentOpenBatch == 9) return horsesForGen[9] == 8500;\n        if(currentOpenBatch == 10) return horsesForGen[10] == 9500;\n    }\n\n    // Added April 18 2019 to meet proxy requirements.\n    address foundationAuctions;\n\n    function setFoundationAddress(address _foundation) public onlyOwner() {\n        foundationAuctions = _foundation;\n    }\n}\n",
  "sourcePath": "/Users/eswarasai/Sites/ZED/cryptofield-core/contracts/GOPCreator.sol",
  "compiler": {
    "name": "solc",
    "version": "0.4.24+commit.e67f0147.Emscripten.clang"
  },
  "schemaVersion": "3.0.6",
  "updatedAt": "2019-06-11T20:54:33.287Z",
  "devdoc": {
    "methods": {
      "initialize(address)": {
        "details": "The Ownable constructor sets the original `owner` of the contract to the sender account."
      },
      "isOwner()": {
        "return": "true if `msg.sender` is the owner of the contract."
      },
      "owner()": {
        "return": "the address of the owner."
      },
      "renounceOwnership()": {
        "details": "Allows the current owner to relinquish control of the contract."
      },
      "transferOwnership(address)": {
        "details": "Allows the current owner to transfer control of the contract to a newOwner.",
        "params": {
          "newOwner": "The address to transfer ownership to."
        }
      }
    }
  },
  "userdoc": {
    "methods": {
      "renounceOwnership()": {
        "notice": "Renouncing to ownership will leave the contract without an owner. It will not be possible to call the functions with the `onlyOwner` modifier anymore."
      }
    }
  }
}