{
  "contractName": "HorseData",
  "abi": [
    {
      "constant": false,
      "inputs": [],
      "name": "initialize",
      "outputs": [],
      "payable": false,
      "stateMutability": "nonpayable",
      "type": "function"
    },
    {
      "constant": true,
      "inputs": [
        {
          "name": "_batchNumber",
          "type": "uint256"
        }
      ],
      "name": "getBloodline",
      "outputs": [
        {
          "name": "",
          "type": "bytes32"
        }
      ],
      "payable": false,
      "stateMutability": "pure",
      "type": "function"
    },
    {
      "constant": true,
      "inputs": [
        {
          "name": "_batchNumber",
          "type": "uint256"
        }
      ],
      "name": "getGenotype",
      "outputs": [
        {
          "name": "",
          "type": "uint256"
        }
      ],
      "payable": false,
      "stateMutability": "pure",
      "type": "function"
    },
    {
      "constant": true,
      "inputs": [
        {
          "name": "_batchNumber",
          "type": "uint256"
        }
      ],
      "name": "getBaseValue",
      "outputs": [
        {
          "name": "",
          "type": "uint256"
        }
      ],
      "payable": false,
      "stateMutability": "view",
      "type": "function"
    },
    {
      "constant": true,
      "inputs": [
        {
          "name": "_male",
          "type": "bytes32"
        },
        {
          "name": "_female",
          "type": "bytes32"
        }
      ],
      "name": "getBloodlineFromParents",
      "outputs": [
        {
          "name": "",
          "type": "bytes32"
        }
      ],
      "payable": false,
      "stateMutability": "view",
      "type": "function"
    },
    {
      "constant": false,
      "inputs": [],
      "name": "changeWrightInstances",
      "outputs": [],
      "payable": false,
      "stateMutability": "nonpayable",
      "type": "function"
    }
  ],
  "bytecode": "0x608060405234801561001057600080fd5b506114bb806100206000396000f3006080604052600436106100775763ffffffff7c01000000000000000000000000000000000000000000000000000000006000350416631c668855811461007c5780633ef5d325146100a65780637866ed6e146100be5780638129fc1c146100d6578063f67578b6146100ed578063fe50ce6014610102575b600080fd5b34801561008857600080fd5b5061009460043561011d565b60408051918252519081900360200190f35b3480156100b257600080fd5b506100946004356101a2565b3480156100ca57600080fd5b5061009460043561027e565b3480156100e257600080fd5b506100eb61035f565b005b3480156100f957600080fd5b506100eb610ee5565b34801561010e57600080fd5b506100946004356024356113ca565b6000600182101580156101315750600a8211155b151561019e57604080517f08c379a000000000000000000000000000000000000000000000000000000000815260206004820152601a60248201527f4261746368206e756d626572206f7574206f6620626f756e6473000000000000604482015290519081900360640190fd5b5090565b60008082600114156101c1576101ba60046064611464565b9050610278565b82600214156101d6576101ba6009605a611464565b82600314156101eb576101ba60046050611464565b8260041415610200576101ba6004604b611464565b8260051415610215576101ba60096046611464565b826006141561022a576101ba6004603c611464565b826007141561023f576101ba60096032611464565b8260081415610254576101ba60096028611464565b8260091415610269576101ba6009601e611464565b61027560136014611464565b90505b92915050565b6000808260011415610298575060f960020a602702610278565b82600214156102af575060f960020a602702610278565b82600314156102c6575060f860020a605302610278565b82600414156102dd575060f860020a605302610278565b82600514156102f4575060f960020a602302610278565b826006141561030b575060f960020a602302610278565b8260071415610322575060f960020a602302610278565b8260081415610339575060f960020a602102610278565b8260091415610350575060f960020a602102610278565b5060f960020a60210292915050565b60008054610100900460ff16806103795750610379611489565b80610387575060005460ff16155b151561041a57604080517f08c379a000000000000000000000000000000000000000000000000000000000815260206004820152602e60248201527f436f6e747261637420696e7374616e63652068617320616c726561647920626560448201527f656e20696e697469616c697a6564000000000000000000000000000000000000606482015290519081900360840190fd5b5060008054600161010061ff00198316811760ff19169190911783556040805160f960020a602702602080830182905282840182905283518084038501815260609093019384905282519490950460ff1695909460339491939182918401908083835b6020831061049c5780518252601f19909201916020918201910161047d565b51815160209384036101000a60001901801990921691161790526040805192909401829003909120865285810196909652509283016000908120959095555050805160f960020a6027028184015260f860020a6053028183018190528251808303840181526060909201928390528151909460339490939182918401908083835b6020831061053c5780518252601f19909201916020918201910161051d565b51815160209384036101000a60001901801990921691161790526040805192909401829003909120865285810196909652509283016000908120959095555050805160f960020a6027028184015260f960020a6023028183018190528251808303840181526060909201928390528151909460339490939182918401908083835b602083106105dc5780518252601f1990920191602091820191016105bd565b51815160209384036101000a60001901801990921691161790526040805192909401829003909120865285810196909652509283016000908120959095555050805160f960020a6027028184015260f960020a6021028183018190528251808303840181526060909201928390528151909460339490939182918401908083835b6020831061067c5780518252601f19909201916020918201910161065d565b51815160209384036101000a60001901801990921691161790526040805192909401829003909120865285810196909652509283016000908120959095555050805160f860020a60530281840181905260f960020a602702828401528251808303840181526060909201928390528151909460339490939182918401908083835b6020831061071c5780518252601f1990920191602091820191016106fd565b51815160209384036101000a60001901801990921691161790526040805192909401829003909120865285810196909652509283016000908120959095555050805160f860020a6053028184018190528183018190528251808303840181526060909201928390528151909460339490939182918401908083835b602083106107b65780518252601f199092019160209182019101610797565b51815160209384036101000a60001901801990921691161790526040805192909401829003909120865285810196909652509283016000908120959095555050805160f860020a6053028184015260f960020a6023028183018190528251808303840181526060909201928390528151909460339490939182918401908083835b602083106108565780518252601f199092019160209182019101610837565b51815160209384036101000a60001901801990921691161790526040805192909401829003909120865285810196909652509283016000908120959095555050805160f860020a6053028184015260f960020a6021028183018190528251808303840181526060909201928390528151909460339490939182918401908083835b602083106108f65780518252601f1990920191602091820191016108d7565b51815160209384036101000a60001901801990921691161790526040805192909401829003909120865285810196909652509283016000908120959095555050805160f960020a60230281840181905260f960020a602702828401528251808303840181526060909201928390528151909460339490939182918401908083835b602083106109965780518252601f199092019160209182019101610977565b51815160209384036101000a60001901801990921691161790526040805192909401829003909120865285810196909652509283016000908120959095555050805160f960020a60230281840181905260f860020a605302828401528251808303840181526060909201928390528151909460339490939182918401908083835b60208310610a365780518252601f199092019160209182019101610a17565b51815160209384036101000a60001901801990921691161790526040805192909401829003909120865285810196909652509283016000908120959095555050805160f960020a6023028184018190528183018190528251808303840181526060909201928390528151909460339490939182918401908083835b60208310610ad05780518252601f199092019160209182019101610ab1565b51815160209384036101000a60001901801990921691161790526040805192909401829003909120865285810196909652509283016000908120959095555050805160f960020a6023028184015260f960020a6021028183018190528251808303840181526060909201928390528151909460339490939182918401908083835b60208310610b705780518252601f199092019160209182019101610b51565b51815160209384036101000a60001901801990921691161790526040805192909401829003909120865285810196909652509283016000908120959095555050805160f960020a60210281840181905260f960020a602702828401528251808303840181526060909201928390528151909460339490939182918401908083835b60208310610c105780518252601f199092019160209182019101610bf1565b51815160209384036101000a60001901801990921691161790526040805192909401829003909120865285810196909652509283016000908120959095555050805160f960020a60210281840181905260f860020a605302828401528251808303840181526060909201928390528151909460339490939182918401908083835b60208310610cb05780518252601f199092019160209182019101610c91565b51815160209384036101000a60001901801990921691161790526040805192909401829003909120865285810196909652509283016000908120959095555050805160f960020a60210281840181905260f960020a602302828401528251808303840181526060909201928390528151909460339490939182918401908083835b60208310610d505780518252601f199092019160209182019101610d31565b51815160209384036101000a60001901801990921691161790526040805192909401829003909120865285810196909652509283016000908120959095555050805160f960020a6021028184018190528183018190528251808303840181526060909201928390528151909460339490939182918401908083835b60208310610dea5780518252601f199092019160209182019101610dcb565b51815160209384036101000a60001901801990921691161790526040805192909401829003909120865285810196909652509283016000908120959095555050805160f960020a60210281840181905260f960020a602702828401528251808303840181526060909201928390528151909460339490939182918401908083835b60208310610e8a5780518252601f199092019160209182019101610e6b565b518151602093840361010090810a60001901801990931692909116919091179091526040805193909501839003909220875286019690965250929092016000908120949094555050815461ff00191692151502919091179055565b735baf69e0c9b4b54258a68c0f1abf896b240f62f03314610f6757604080517f08c379a000000000000000000000000000000000000000000000000000000000815260206004820152600c60248201527f556e617574686f72697a65640000000000000000000000000000000000000000604482015290519081900360640190fd5b6040805160f960020a60270260208083019190915260f960020a60210282840181905283518084038501815260609093019384905282519093603393600093909282918401908083835b60208310610fd05780518252601f199092019160209182019101610fb1565b51815160209384036101000a60001901801990921691161790526040805192909401829003909120865285810196909652509283016000908120959095555050805160f860020a6053028184015260f960020a6021028183018190528251808303840181526060909201928390528151909460339490939182918401908083835b602083106110705780518252601f199092019160209182019101611051565b51815160209384036101000a60001901801990921691161790526040805192909401829003909120865285810196909652509283016000908120959095555050805160f960020a6023028184015260f960020a6021028183018190528251808303840181526060909201928390528151909460339490939182918401908083835b602083106111105780518252601f1990920191602091820191016110f1565b51815160209384036101000a60001901801990921691161790526040805192909401829003909120865285810196909652509283016000908120959095555050805160f960020a60210281840181905260f960020a602702828401528251808303840181526060909201928390528151909460339490939182918401908083835b602083106111b05780518252601f199092019160209182019101611191565b51815160209384036101000a60001901801990921691161790526040805192909401829003909120865285810196909652509283016000908120959095555050805160f960020a60210281840181905260f860020a605302828401528251808303840181526060909201928390528151909460339490939182918401908083835b602083106112505780518252601f199092019160209182019101611231565b51815160209384036101000a60001901801990921691161790526040805192909401829003909120865285810196909652509283016000908120959095555050805160f960020a60210281840181905260f960020a602302828401528251808303840181526060909201928390528151909460339490939182918401908083835b602083106112f05780518252601f1990920191602091820191016112d1565b51815160209384036101000a60001901801990921691161790526040805192909401829003909120865285810196909652509283016000908120959095555050805160f960020a6021028184018190528183018190528251808303840181526060909201928390528151909460339490939182918401908083835b6020831061138a5780518252601f19909201916020918201910161136b565b51815160209384036101000a6000190180199092169116179052604080519290940182900390912086528501959095529290920160002093909355505050565b60408051602080820185905281830184905282518083038401815260609092019283905281516000936033938593909282918401908083835b602083106114225780518252601f199092019160209182019101611403565b51815160209384036101000a60001901801990921691161790526040805192909401829003909120865285019590955292909201600020549695505050505050565b6000808360001943014081151561147757fe5b06600101905080830391505092915050565b303b15905600a165627a7a72305820b925c74738420ecde18d7774032d3cf4aaf34438209621dc2f656ffe7b9ac58e0029",
  "source": "pragma solidity ^0.4.24;\n\nimport \"zos-lib/contracts/Initializable.sol\";\n\n/*\n@description Contract in charge of sending back needed data for the creation of horses.\n*/\ncontract HorseData is Initializable {\n    mapping(bytes32 => bytes32) internal bloodlines;\n\n    function initialize() public initializer {\n        // Bloodline matrix.\n        // Nakamoto - Szabo - Finney - Buterin\n        bloodlines[keccak256(abi.encodePacked(bytes32(\"N\"), bytes32(\"N\")))] = \"N\";\n        bloodlines[keccak256(abi.encodePacked(bytes32(\"N\"), bytes32(\"S\")))] = \"S\";\n        bloodlines[keccak256(abi.encodePacked(bytes32(\"N\"), bytes32(\"F\")))] = \"F\";\n        bloodlines[keccak256(abi.encodePacked(bytes32(\"N\"), bytes32(\"B\")))] = \"B\";\n        bloodlines[keccak256(abi.encodePacked(bytes32(\"S\"), bytes32(\"N\")))] = \"S\";\n        bloodlines[keccak256(abi.encodePacked(bytes32(\"S\"), bytes32(\"S\")))] = \"S\";\n        bloodlines[keccak256(abi.encodePacked(bytes32(\"S\"), bytes32(\"F\")))] = \"F\";\n        bloodlines[keccak256(abi.encodePacked(bytes32(\"S\"), bytes32(\"B\")))] = \"B\";\n        bloodlines[keccak256(abi.encodePacked(bytes32(\"F\"), bytes32(\"N\")))] = \"F\";\n        bloodlines[keccak256(abi.encodePacked(bytes32(\"F\"), bytes32(\"S\")))] = \"F\";\n        bloodlines[keccak256(abi.encodePacked(bytes32(\"F\"), bytes32(\"F\")))] = \"F\";\n        bloodlines[keccak256(abi.encodePacked(bytes32(\"F\"), bytes32(\"B\")))] = \"B\";\n        bloodlines[keccak256(abi.encodePacked(bytes32(\"B\"), bytes32(\"N\")))] = \"B\";\n        bloodlines[keccak256(abi.encodePacked(bytes32(\"B\"), bytes32(\"S\")))] = \"B\";\n        bloodlines[keccak256(abi.encodePacked(bytes32(\"B\"), bytes32(\"F\")))] = \"B\";\n        bloodlines[keccak256(abi.encodePacked(bytes32(\"B\"), bytes32(\"B\")))] = \"B\";\n        bloodlines[keccak256(abi.encodePacked(bytes32(\"B\"), bytes32(\"N\")))] = \"B\";\n    }\n\n    /*\n    @dev Generate bloodline and genotype based on '_batchNumber'\n    */\n    function getBloodline(uint256 _batchNumber) public pure returns(bytes32) {\n        bytes32 bloodline;\n\n        if(_batchNumber == 1) {\n            bloodline = bytes32(\"N\");\n        } else if(_batchNumber == 2) {\n            bloodline = bytes32(\"N\");\n        } else if(_batchNumber == 3) {\n            bloodline = bytes32(\"S\");\n        } else if(_batchNumber == 4) {\n            bloodline = bytes32(\"S\");\n        } else if(_batchNumber == 5) {\n            bloodline = bytes32(\"F\");\n        } else if(_batchNumber == 6) {\n            bloodline = bytes32(\"F\");\n        } else if(_batchNumber == 7) {\n            bloodline = bytes32(\"F\");\n        } else if(_batchNumber == 8) {\n            bloodline = bytes32(\"B\");\n        } else if(_batchNumber == 9) {\n            bloodline = bytes32(\"B\");\n        } else {\n            bloodline = bytes32(\"B\");\n        }\n\n        return bloodline;\n    }\n\n    function getGenotype(uint256 _batchNumber) public pure returns(uint256) {\n        require(_batchNumber >= 1 && _batchNumber <= 10, \"Batch number out of bounds\");\n        return _batchNumber;\n    }\n\n    function getBaseValue(uint256 _batchNumber) public view returns(uint256) {\n        uint256 baseValue;\n\n        if(_batchNumber == 1) {\n            baseValue = _getRandom(4, 100);\n        } else if(_batchNumber == 2) {\n            baseValue = _getRandom(9, 90);\n        } else if(_batchNumber == 3) {\n            baseValue = _getRandom(4, 80);\n        } else if(_batchNumber == 4) {\n            baseValue = _getRandom(4, 75);\n        } else if(_batchNumber == 5) {\n            baseValue = _getRandom(9, 70);\n        } else if(_batchNumber == 6) {\n            baseValue = _getRandom(4, 60);\n        } else if(_batchNumber == 7) {\n            baseValue = _getRandom(9, 50);\n        } else if(_batchNumber == 8) {\n            baseValue = _getRandom(9, 40);\n        } else if(_batchNumber == 9) {\n            baseValue = _getRandom(9, 30);\n        } else {\n            baseValue = _getRandom(19, 20);\n        }\n\n        return baseValue;\n    }\n\n    function getBloodlineFromParents(bytes32 _male, bytes32 _female) public view returns(bytes32) {\n        return bloodlines[keccak256(abi.encodePacked(_male, _female))];\n    }\n\n    function _getRandom(uint256 _num, uint256 _deleteFrom) private view returns(uint256) {\n        uint256 rand = uint256(blockhash(block.number - 1)) % _num + 1;\n\n        return _deleteFrom - rand;\n    }\n\n    // restricted\n    /*\n    @dev 16-04-2019 All Wright instances on bloodlines were changed for Buterin.\n    */\n    function changeWrightInstances() public {\n        require(msg.sender == 0x5bAF69e0C9b4b54258A68c0f1ABF896b240F62F0, \"Unauthorized\");\n        \n        bloodlines[keccak256(abi.encodePacked(bytes32(\"N\"), bytes32(\"B\")))] = \"B\";\n        bloodlines[keccak256(abi.encodePacked(bytes32(\"S\"), bytes32(\"B\")))] = \"B\";\n        bloodlines[keccak256(abi.encodePacked(bytes32(\"F\"), bytes32(\"B\")))] = \"B\";\n        bloodlines[keccak256(abi.encodePacked(bytes32(\"B\"), bytes32(\"N\")))] = \"B\";\n        bloodlines[keccak256(abi.encodePacked(bytes32(\"B\"), bytes32(\"S\")))] = \"B\";\n        bloodlines[keccak256(abi.encodePacked(bytes32(\"B\"), bytes32(\"F\")))] = \"B\";\n        bloodlines[keccak256(abi.encodePacked(bytes32(\"B\"), bytes32(\"B\")))] = \"B\";\n    }\n}",
  "sourcePath": "/Users/eswarasai/Sites/ZED/cryptofield-core/contracts/HorseData.sol",
  "compiler": {
    "name": "solc",
    "version": "0.4.24+commit.e67f0147.Emscripten.clang"
  },
  "schemaVersion": "3.0.6",
  "updatedAt": "2019-06-11T20:54:33.292Z",
  "devdoc": {
    "methods": {}
  },
  "userdoc": {
    "methods": {}
  }
}