{
  "contractName": "MinterRole",
  "abi": [
    {
      "anonymous": false,
      "inputs": [
        {
          "indexed": true,
          "name": "account",
          "type": "address"
        }
      ],
      "name": "MinterAdded",
      "type": "event"
    },
    {
      "anonymous": false,
      "inputs": [
        {
          "indexed": true,
          "name": "account",
          "type": "address"
        }
      ],
      "name": "MinterRemoved",
      "type": "event"
    },
    {
      "constant": false,
      "inputs": [
        {
          "name": "sender",
          "type": "address"
        }
      ],
      "name": "initialize",
      "outputs": [],
      "payable": false,
      "stateMutability": "nonpayable",
      "type": "function"
    },
    {
      "constant": true,
      "inputs": [
        {
          "name": "account",
          "type": "address"
        }
      ],
      "name": "isMinter",
      "outputs": [
        {
          "name": "",
          "type": "bool"
        }
      ],
      "payable": false,
      "stateMutability": "view",
      "type": "function"
    },
    {
      "constant": false,
      "inputs": [
        {
          "name": "account",
          "type": "address"
        }
      ],
      "name": "addMinter",
      "outputs": [],
      "payable": false,
      "stateMutability": "nonpayable",
      "type": "function"
    },
    {
      "constant": false,
      "inputs": [],
      "name": "renounceMinter",
      "outputs": [],
      "payable": false,
      "stateMutability": "nonpayable",
      "type": "function"
    }
  ],
  "bytecode": "0x608060405234801561001057600080fd5b506103b1806100206000396000f3006080604052600436106100615763ffffffff7c0100000000000000000000000000000000000000000000000000000000600035041663983b2d5681146100665780639865027514610089578063aa271e1a1461009e578063c4d66de8146100d3575b600080fd5b34801561007257600080fd5b50610087600160a060020a03600435166100f4565b005b34801561009557600080fd5b50610087610114565b3480156100aa57600080fd5b506100bf600160a060020a036004351661011f565b604080519115158252519081900360200190f35b3480156100df57600080fd5b50610087600160a060020a0360043516610138565b6100fd3361011f565b151561010857600080fd5b61011181610247565b50565b61011d3361028f565b565b600061013260338363ffffffff6102d716565b92915050565b60008054610100900460ff1680610152575061015261030e565b80610160575060005460ff16155b15156101f357604080517f08c379a000000000000000000000000000000000000000000000000000000000815260206004820152602e60248201527f436f6e747261637420696e7374616e63652068617320616c726561647920626560448201527f656e20696e697469616c697a6564000000000000000000000000000000000000606482015290519081900360840190fd5b5060008054600161010061ff00198316811760ff1916919091179092550460ff1661021d8261011f565b151561022c5761022c82610247565b600080549115156101000261ff001990921691909117905550565b61025860338263ffffffff61031416565b604051600160a060020a038216907f6ae172837ea30b801fbfcdd4108aa1d5bf8ff775444fd70256b44e6bf3dfc3f690600090a250565b6102a060338263ffffffff61034e16565b604051600160a060020a038216907fe94479a9f7e1952cc78f2d6baab678adc1b772d936c6583def489e524cb6669290600090a250565b6000600160a060020a03821615156102ee57600080fd5b50600160a060020a03166000908152602091909152604090205460ff1690565b303b1590565b600160a060020a038116151561032957600080fd5b600160a060020a0316600090815260209190915260409020805460ff19166001179055565b600160a060020a038116151561036357600080fd5b600160a060020a0316600090815260209190915260409020805460ff191690555600a165627a7a72305820334ebd0b31627401bb8a107fa83fafb2a646c0e9a91200fd3ce0c8018ea08da30029",
  "source": "pragma solidity ^0.4.24;\n\nimport \"zos-lib/contracts/Initializable.sol\";\nimport \"../Roles.sol\";\n\n\ncontract MinterRole is Initializable {\n  using Roles for Roles.Role;\n\n  event MinterAdded(address indexed account);\n  event MinterRemoved(address indexed account);\n\n  Roles.Role private minters;\n\n  function initialize(address sender) public initializer {\n    if (!isMinter(sender)) {\n      _addMinter(sender);\n    }\n  }\n\n  modifier onlyMinter() {\n    require(isMinter(msg.sender));\n    _;\n  }\n\n  function isMinter(address account) public view returns (bool) {\n    return minters.has(account);\n  }\n\n  function addMinter(address account) public onlyMinter {\n    _addMinter(account);\n  }\n\n  function renounceMinter() public {\n    _removeMinter(msg.sender);\n  }\n\n  function _addMinter(address account) internal {\n    minters.add(account);\n    emit MinterAdded(account);\n  }\n\n  function _removeMinter(address account) internal {\n    minters.remove(account);\n    emit MinterRemoved(account);\n  }\n\n  uint256[50] private ______gap;\n}\n",
  "sourcePath": "openzeppelin-eth/contracts/access/roles/MinterRole.sol",
  "compiler": {
    "name": "solc",
    "version": "0.4.24+commit.e67f0147.Emscripten.clang"
  },
  "schemaVersion": "3.0.6",
  "updatedAt": "2019-06-11T20:54:33.498Z",
  "devdoc": {
    "methods": {}
  },
  "userdoc": {
    "methods": {}
  }
}