{
  "contractName": "Pausable",
  "abi": [
    {
      "constant": true,
      "inputs": [
        {
          "name": "account",
          "type": "address"
        }
      ],
      "name": "isPauser",
      "outputs": [
        {
          "name": "",
          "type": "bool"
        }
      ],
      "payable": false,
      "stateMutability": "view",
      "type": "function"
    },
    {
      "constant": false,
      "inputs": [],
      "name": "renouncePauser",
      "outputs": [],
      "payable": false,
      "stateMutability": "nonpayable",
      "type": "function"
    },
    {
      "constant": false,
      "inputs": [
        {
          "name": "account",
          "type": "address"
        }
      ],
      "name": "addPauser",
      "outputs": [],
      "payable": false,
      "stateMutability": "nonpayable",
      "type": "function"
    },
    {
      "anonymous": false,
      "inputs": [],
      "name": "Paused",
      "type": "event"
    },
    {
      "anonymous": false,
      "inputs": [],
      "name": "Unpaused",
      "type": "event"
    },
    {
      "anonymous": false,
      "inputs": [
        {
          "indexed": true,
          "name": "account",
          "type": "address"
        }
      ],
      "name": "PauserAdded",
      "type": "event"
    },
    {
      "anonymous": false,
      "inputs": [
        {
          "indexed": true,
          "name": "account",
          "type": "address"
        }
      ],
      "name": "PauserRemoved",
      "type": "event"
    },
    {
      "constant": false,
      "inputs": [
        {
          "name": "sender",
          "type": "address"
        }
      ],
      "name": "initialize",
      "outputs": [],
      "payable": false,
      "stateMutability": "nonpayable",
      "type": "function"
    },
    {
      "constant": true,
      "inputs": [],
      "name": "paused",
      "outputs": [
        {
          "name": "",
          "type": "bool"
        }
      ],
      "payable": false,
      "stateMutability": "view",
      "type": "function"
    },
    {
      "constant": false,
      "inputs": [],
      "name": "pause",
      "outputs": [],
      "payable": false,
      "stateMutability": "nonpayable",
      "type": "function"
    },
    {
      "constant": false,
      "inputs": [],
      "name": "unpause",
      "outputs": [],
      "payable": false,
      "stateMutability": "nonpayable",
      "type": "function"
    }
  ],
  "bytecode": "0x60806040526066805460ff1916905534801561001a57600080fd5b506105b58061002a6000396000f3006080604052600436106100825763ffffffff7c01000000000000000000000000000000000000000000000000000000006000350416633f4ba83a811461008757806346fbf68e1461009e5780635c975abb146100d35780636ef8d66d146100e857806382dc1ec4146100fd5780638456cb591461011e578063c4d66de814610133575b600080fd5b34801561009357600080fd5b5061009c610154565b005b3480156100aa57600080fd5b506100bf600160a060020a03600435166101ae565b604080519115158252519081900360200190f35b3480156100df57600080fd5b506100bf6101c7565b3480156100f457600080fd5b5061009c6101d0565b34801561010957600080fd5b5061009c600160a060020a03600435166101db565b34801561012a57600080fd5b5061009c6101fb565b34801561013f57600080fd5b5061009c600160a060020a0360043516610257565b61015d336101ae565b151561016857600080fd5b60665460ff16151561017957600080fd5b6066805460ff191690556040517fa45f47fdea8a1efdd9029a5691c7f759c32b7c698632b563573e155625d1693390600090a1565b60006101c160338363ffffffff61035716565b92915050565b60665460ff1690565b6101d93361038e565b565b6101e4336101ae565b15156101ef57600080fd5b6101f8816103d6565b50565b610204336101ae565b151561020f57600080fd5b60665460ff161561021f57600080fd5b6066805460ff191660011790556040517f9e87fac88ff661f02d44f95383c817fece4bce600a3dab7a54406878b965e75290600090a1565b60008054610100900460ff1680610271575061027161041e565b8061027f575060005460ff16155b151561031257604080517f08c379a000000000000000000000000000000000000000000000000000000000815260206004820152602e60248201527f436f6e747261637420696e7374616e63652068617320616c726561647920626560448201527f656e20696e697469616c697a6564000000000000000000000000000000000000606482015290519081900360840190fd5b5060008054600161010061ff00198316811760ff1916919091179092550460ff1661033c82610424565b600080549115156101000261ff001990921691909117905550565b6000600160a060020a038216151561036e57600080fd5b50600160a060020a03166000908152602091909152604090205460ff1690565b61039f60338263ffffffff61051816565b604051600160a060020a038216907fcd265ebaf09df2871cc7bd4133404a235ba12eff2041bb89d9c714a2621c7c7e90600090a250565b6103e760338263ffffffff61054f16565b604051600160a060020a038216907f6719d08c1888103bea251a4ed56406bd0c3e69723c8a1686e017e7bbe159b6f890600090a250565b303b1590565b60008054610100900460ff168061043e575061043e61041e565b8061044c575060005460ff16155b15156104df57604080517f08c379a000000000000000000000000000000000000000000000000000000000815260206004820152602e60248201527f436f6e747261637420696e7374616e63652068617320616c726561647920626560448201527f656e20696e697469616c697a6564000000000000000000000000000000000000606482015290519081900360840190fd5b5060008054600161010061ff00198316811760ff1916919091179092550460ff16610509826101ae565b151561033c5761033c826103d6565b600160a060020a038116151561052d57600080fd5b600160a060020a0316600090815260209190915260409020805460ff19169055565b600160a060020a038116151561056457600080fd5b600160a060020a0316600090815260209190915260409020805460ff191660011790555600a165627a7a72305820d210514f34e58cb49d0cbcaf95f2e18b17b651b4d4499b9ab0ecc302969f9a6a0029",
  "source": "pragma solidity ^0.4.24;\n\nimport \"zos-lib/contracts/Initializable.sol\";\nimport \"../access/roles/PauserRole.sol\";\n\n\n/**\n * @title Pausable\n * @dev Base contract which allows children to implement an emergency stop mechanism.\n */\ncontract Pausable is Initializable, PauserRole {\n  event Paused();\n  event Unpaused();\n\n  bool private _paused = false;\n\n  function initialize(address sender) public initializer {\n    PauserRole.initialize(sender);\n  }\n\n  /**\n   * @return true if the contract is paused, false otherwise.\n   */\n  function paused() public view returns(bool) {\n    return _paused;\n  }\n\n  /**\n   * @dev Modifier to make a function callable only when the contract is not paused.\n   */\n  modifier whenNotPaused() {\n    require(!_paused);\n    _;\n  }\n\n  /**\n   * @dev Modifier to make a function callable only when the contract is paused.\n   */\n  modifier whenPaused() {\n    require(_paused);\n    _;\n  }\n\n  /**\n   * @dev called by the owner to pause, triggers stopped state\n   */\n  function pause() public onlyPauser whenNotPaused {\n    _paused = true;\n    emit Paused();\n  }\n\n  /**\n   * @dev called by the owner to unpause, returns to normal state\n   */\n  function unpause() public onlyPauser whenPaused {\n    _paused = false;\n    emit Unpaused();\n  }\n\n  uint256[50] private ______gap;\n}\n",
  "sourcePath": "openzeppelin-eth/contracts/lifecycle/Pausable.sol",
  "compiler": {
    "name": "solc",
    "version": "0.4.24+commit.e67f0147.Emscripten.clang"
  },
  "schemaVersion": "3.0.6",
  "updatedAt": "2019-06-11T20:54:33.499Z",
  "devdoc": {
    "methods": {
      "pause()": {
        "details": "called by the owner to pause, triggers stopped state"
      },
      "paused()": {
        "return": "true if the contract is paused, false otherwise."
      },
      "unpause()": {
        "details": "called by the owner to unpause, returns to normal state"
      }
    },
    "title": "Pausable"
  },
  "userdoc": {
    "methods": {}
  }
}