{
  "contractName": "Races",
  "abi": [
    {
      "constant": false,
      "inputs": [
        {
          "name": "_winner",
          "type": "uint256"
        },
        {
          "name": "_winnerPoints",
          "type": "uint256"
        },
        {
          "name": "_ids",
          "type": "uint256[]"
        },
        {
          "name": "_points",
          "type": "uint256[]"
        },
        {
          "name": "_lottery",
          "type": "uint256[]"
        },
        {
          "name": "_paid",
          "type": "uint256[]"
        }
      ],
      "name": "putDataForHorses",
      "outputs": [],
      "payable": false,
      "stateMutability": "nonpayable",
      "type": "function"
    },
    {
      "constant": true,
      "inputs": [
        {
          "name": "_horse",
          "type": "uint256"
        }
      ],
      "name": "getRaceProfile",
      "outputs": [
        {
          "name": "",
          "type": "uint256"
        },
        {
          "name": "",
          "type": "uint256"
        },
        {
          "name": "",
          "type": "uint256"
        },
        {
          "name": "",
          "type": "uint256"
        },
        {
          "name": "",
          "type": "uint256"
        },
        {
          "name": "",
          "type": "uint256"
        }
      ],
      "payable": false,
      "stateMutability": "view",
      "type": "function"
    }
  ],
  "bytecode": "0x608060405234801561001057600080fd5b5061040f806100206000396000f30060806040526004361061004b5763ffffffff7c01000000000000000000000000000000000000000000000000000000006000350416632abee59c8114610050578063f0d310791461009b575b600080fd5b34801561005c57600080fd5b506100686004356101a6565b604080519687526020870195909552858501939093526060850191909152608084015260a0830152519081900360c00190f35b3480156100a757600080fd5b5060408051602060046044358181013583810280860185019096528085526101a4958335956024803596369695606495939492019291829185019084908082843750506040805187358901803560208181028481018201909552818452989b9a998901989297509082019550935083925085019084908082843750506040805187358901803560208181028481018201909552818452989b9a998901989297509082019550935083925085019084908082843750506040805187358901803560208181028481018201909552818452989b9a99890198929750908201955093508392508501908490808284375094975061021f9650505050505050565b005b6000806000806000806101b76103ac565b50505060009485525050506020828152604092839020835160c08101855281548082526001830154938201849052600283015495820186905260038301546060830181905260048401546080840181905260059094015460a090930183905290969395945092565b600086815260208190526040812080546001908101825580820180549091019055600381015490919081908190819061025e908b63ffffffff61039316565b6003860155600093505b88518410156102eb576000808a8681518110151561028257fe5b9060200190602002015181526020019081526020016000209250600183600101600082825401925050819055506102db88858151811015156102c057fe5b6020908102909101015160038501549063ffffffff61039316565b6003840155600190930192610268565b600091505b865182101561033b576001600080898581518110151561030c57fe5b6020908102909101810151825281019190915260400160002060040180549091019055600191909101906102f0565b5060005b8551811015610386576001600080888481518110151561035b57fe5b602090810290910181015182528101919091526040016000206005018054909101905560010161033f565b5050505050505050505050565b6000828201838110156103a557600080fd5b9392505050565b60c06040519081016040528060008152602001600081526020016000815260200160008152602001600081526020016000815250905600a165627a7a7230582098b68074dc6398c726a25c581815cf319294b76d5061efab1d0591ae41b9bc490029",
  "source": "pragma solidity ^0.4.24;\n\nimport \"openzeppelin-eth/contracts/math/SafeMath.sol\";\n\n/*\n@description This contract is in charge of keeping some kind of state and\nhandling anything related to payments, everything else is being handled by the API.\n*/\ncontract Races {\n    using SafeMath for uint256;\n\n    struct HorseProfile {\n        uint256 wins;\n        uint256 starts;\n        uint256 etherWon;\n        uint256 points;\n        uint256 lottery;\n        uint256 paid;\n    }\n\n    mapping(uint256 => HorseProfile) internal horseProfile;\n\n    // TODO: RESTRICT THIS FUNCTION TO THE OWNER MAYBE.\n    function putDataForHorses(\n        uint256 _winner, \n        uint256 _winnerPoints,\n        uint256[] _ids, \n        uint256[] _points,\n        uint256[] _lottery,\n        uint256[] _paid\n    ) \n    public {\n            \n        HorseProfile storage winner = horseProfile[_winner];\n        winner.wins += 1;\n        winner.starts += 1;\n        winner.points = winner.points.add(_winnerPoints);\n\n        for (uint256 i = 0; i < _ids.length; i++) {\n            HorseProfile storage h = horseProfile[_ids[i]];\n            \n            h.starts += 1;\n            h.points = h.points.add(_points[i]);\n        }\n\n        for (uint256 j = 0; j < _lottery.length; j++) {\n            horseProfile[_lottery[j]].lottery += 1;\n        }\n\n        for (uint256 k = 0; k < _paid.length; k++) {\n            horseProfile[_paid[k]].paid += 1;\n        }\n    }\n\n    function getRaceProfile(\n        uint256 _horse\n    ) \n    public \n    view \n    returns(uint256, uint256, uint256, uint256, uint256, uint256) {\n\n        HorseProfile memory h = horseProfile[_horse];\n\n        return (h.wins, h.starts, h.etherWon, h.points, h.lottery, h.paid); \n    }\n}",
  "sourcePath": "/Users/eswarasai/Sites/ZED/cryptofield-core/contracts/Races.sol",
  "compiler": {
    "name": "solc",
    "version": "0.4.24+commit.e67f0147.Emscripten.clang"
  },
  "schemaVersion": "3.0.6",
  "updatedAt": "2019-06-11T20:54:33.301Z",
  "devdoc": {
    "methods": {}
  },
  "userdoc": {
    "methods": {}
  }
}