{
  "contractName": "SaleAuction",
  "abi": [
    {
      "constant": false,
      "inputs": [
        {
          "name": "",
          "type": "address"
        },
        {
          "name": "",
          "type": "address"
        },
        {
          "name": "",
          "type": "uint256"
        },
        {
          "name": "",
          "type": "bytes"
        }
      ],
      "name": "onERC721Received",
      "outputs": [
        {
          "name": "",
          "type": "bytes4"
        }
      ],
      "payable": false,
      "stateMutability": "nonpayable",
      "type": "function"
    },
    {
      "constant": false,
      "inputs": [],
      "name": "renounceOwnership",
      "outputs": [],
      "payable": false,
      "stateMutability": "nonpayable",
      "type": "function"
    },
    {
      "constant": true,
      "inputs": [],
      "name": "owner",
      "outputs": [
        {
          "name": "",
          "type": "address"
        }
      ],
      "payable": false,
      "stateMutability": "view",
      "type": "function"
    },
    {
      "constant": true,
      "inputs": [],
      "name": "isOwner",
      "outputs": [
        {
          "name": "",
          "type": "bool"
        }
      ],
      "payable": false,
      "stateMutability": "view",
      "type": "function"
    },
    {
      "constant": false,
      "inputs": [
        {
          "name": "newOwner",
          "type": "address"
        }
      ],
      "name": "transferOwnership",
      "outputs": [],
      "payable": false,
      "stateMutability": "nonpayable",
      "type": "function"
    },
    {
      "anonymous": false,
      "inputs": [
        {
          "indexed": false,
          "name": "_bidder",
          "type": "address"
        },
        {
          "indexed": false,
          "name": "_amount",
          "type": "uint256"
        }
      ],
      "name": "LogBid",
      "type": "event"
    },
    {
      "anonymous": false,
      "inputs": [
        {
          "indexed": false,
          "name": "_user",
          "type": "address"
        },
        {
          "indexed": false,
          "name": "_payout",
          "type": "uint256"
        }
      ],
      "name": "LogWithdraw",
      "type": "event"
    },
    {
      "anonymous": false,
      "inputs": [
        {
          "indexed": true,
          "name": "previousOwner",
          "type": "address"
        }
      ],
      "name": "OwnershipRenounced",
      "type": "event"
    },
    {
      "anonymous": false,
      "inputs": [
        {
          "indexed": true,
          "name": "previousOwner",
          "type": "address"
        },
        {
          "indexed": true,
          "name": "newOwner",
          "type": "address"
        }
      ],
      "name": "OwnershipTransferred",
      "type": "event"
    },
    {
      "constant": false,
      "inputs": [
        {
          "name": "_core",
          "type": "address"
        },
        {
          "name": "_owner",
          "type": "address"
        }
      ],
      "name": "initialize",
      "outputs": [],
      "payable": false,
      "stateMutability": "nonpayable",
      "type": "function"
    },
    {
      "constant": false,
      "inputs": [
        {
          "name": "sender",
          "type": "address"
        }
      ],
      "name": "initialize",
      "outputs": [],
      "payable": false,
      "stateMutability": "nonpayable",
      "type": "function"
    },
    {
      "constant": false,
      "inputs": [
        {
          "name": "_owner",
          "type": "address"
        },
        {
          "name": "_duration",
          "type": "uint256"
        },
        {
          "name": "_horseId",
          "type": "uint256"
        },
        {
          "name": "_minimum",
          "type": "uint256"
        }
      ],
      "name": "createUserAuction",
      "outputs": [
        {
          "name": "",
          "type": "uint256"
        }
      ],
      "payable": true,
      "stateMutability": "payable",
      "type": "function"
    },
    {
      "constant": false,
      "inputs": [
        {
          "name": "_auctionId",
          "type": "uint256"
        }
      ],
      "name": "userAuctionBid",
      "outputs": [],
      "payable": true,
      "stateMutability": "payable",
      "type": "function"
    },
    {
      "constant": false,
      "inputs": [
        {
          "name": "_auctionId",
          "type": "uint256"
        }
      ],
      "name": "userAuctionWithdraw",
      "outputs": [
        {
          "name": "",
          "type": "bool"
        }
      ],
      "payable": false,
      "stateMutability": "nonpayable",
      "type": "function"
    },
    {
      "constant": false,
      "inputs": [
        {
          "name": "_id",
          "type": "bytes32"
        },
        {
          "name": "_result",
          "type": "string"
        }
      ],
      "name": "__callback",
      "outputs": [],
      "payable": false,
      "stateMutability": "nonpayable",
      "type": "function"
    },
    {
      "constant": false,
      "inputs": [
        {
          "name": "myid",
          "type": "bytes32"
        },
        {
          "name": "result",
          "type": "string"
        },
        {
          "name": "proof",
          "type": "bytes"
        }
      ],
      "name": "__callback",
      "outputs": [],
      "payable": false,
      "stateMutability": "nonpayable",
      "type": "function"
    },
    {
      "constant": false,
      "inputs": [
        {
          "name": "_auctionId",
          "type": "uint256"
        }
      ],
      "name": "cancelAuction",
      "outputs": [],
      "payable": false,
      "stateMutability": "nonpayable",
      "type": "function"
    },
    {
      "constant": false,
      "inputs": [],
      "name": "getQueryPrice",
      "outputs": [
        {
          "name": "",
          "type": "uint256"
        }
      ],
      "payable": false,
      "stateMutability": "nonpayable",
      "type": "function"
    },
    {
      "constant": true,
      "inputs": [
        {
          "name": "_auctionId",
          "type": "uint256"
        }
      ],
      "name": "getAuction",
      "outputs": [
        {
          "name": "",
          "type": "address"
        },
        {
          "name": "",
          "type": "uint256"
        },
        {
          "name": "",
          "type": "uint256"
        },
        {
          "name": "",
          "type": "uint256"
        },
        {
          "name": "",
          "type": "address[]"
        }
      ],
      "payable": false,
      "stateMutability": "view",
      "type": "function"
    },
    {
      "constant": true,
      "inputs": [
        {
          "name": "_auctionId",
          "type": "uint256"
        },
        {
          "name": "_bidder",
          "type": "address"
        }
      ],
      "name": "getBidData",
      "outputs": [
        {
          "name": "",
          "type": "uint256"
        },
        {
          "name": "",
          "type": "uint256"
        }
      ],
      "payable": false,
      "stateMutability": "view",
      "type": "function"
    },
    {
      "constant": true,
      "inputs": [
        {
          "name": "_id",
          "type": "uint256"
        }
      ],
      "name": "getAuctionStatus",
      "outputs": [
        {
          "name": "",
          "type": "bool"
        }
      ],
      "payable": false,
      "stateMutability": "view",
      "type": "function"
    },
    {
      "constant": true,
      "inputs": [],
      "name": "getAuctionsLength",
      "outputs": [
        {
          "name": "",
          "type": "uint256"
        }
      ],
      "payable": false,
      "stateMutability": "view",
      "type": "function"
    },
    {
      "constant": true,
      "inputs": [
        {
          "name": "_id",
          "type": "uint256"
        }
      ],
      "name": "getAuctionDuration",
      "outputs": [
        {
          "name": "",
          "type": "uint256"
        }
      ],
      "payable": false,
      "stateMutability": "view",
      "type": "function"
    },
    {
      "constant": true,
      "inputs": [
        {
          "name": "_auctionId",
          "type": "uint256"
        }
      ],
      "name": "getMaxBidder",
      "outputs": [
        {
          "name": "",
          "type": "address"
        },
        {
          "name": "",
          "type": "uint256"
        }
      ],
      "payable": false,
      "stateMutability": "view",
      "type": "function"
    },
    {
      "constant": true,
      "inputs": [
        {
          "name": "_auctionId",
          "type": "uint256"
        }
      ],
      "name": "amountOfBidders",
      "outputs": [
        {
          "name": "",
          "type": "uint256"
        }
      ],
      "payable": false,
      "stateMutability": "view",
      "type": "function"
    },
    {
      "constant": true,
      "inputs": [],
      "name": "getOpenAuctions",
      "outputs": [
        {
          "name": "",
          "type": "uint256[]"
        }
      ],
      "payable": false,
      "stateMutability": "view",
      "type": "function"
    },
    {
      "constant": true,
      "inputs": [
        {
          "name": "_from",
          "type": "address"
        }
      ],
      "name": "getAuctionsCreated",
      "outputs": [
        {
          "name": "",
          "type": "uint256[]"
        }
      ],
      "payable": false,
      "stateMutability": "view",
      "type": "function"
    },
    {
      "constant": true,
      "inputs": [
        {
          "name": "_auctionId",
          "type": "uint256"
        }
      ],
      "name": "getMinimumAuctionPrice",
      "outputs": [
        {
          "name": "",
          "type": "uint256"
        }
      ],
      "payable": false,
      "stateMutability": "view",
      "type": "function"
    },
    {
      "constant": true,
      "inputs": [
        {
          "name": "_user",
          "type": "address"
        }
      ],
      "name": "participatingIn",
      "outputs": [
        {
          "name": "",
          "type": "uint256[]"
        }
      ],
      "payable": false,
      "stateMutability": "view",
      "type": "function"
    },
    {
      "constant": false,
      "inputs": [
        {
          "name": "_to",
          "type": "address"
        }
      ],
      "name": "giveOwnership",
      "outputs": [],
      "payable": false,
      "stateMutability": "nonpayable",
      "type": "function"
    },
    {
      "constant": false,
      "inputs": [
        {
          "name": "_core",
          "type": "address"
        }
      ],
      "name": "setCore",
      "outputs": [],
      "payable": false,
      "stateMutability": "nonpayable",
      "type": "function"
    }
  ],
  "bytecode": "0x608060405234801561001057600080fd5b50612f8f806100206000396000f3006080604052600436106101455763ffffffff60e060020a600035041663150b7a02811461014a57806327dc297e146101ee5780632ba8b7e41461024e57806336e5d7c11461027857806338bbfa5014610295578063485cc955146103315780634f3f5746146103585780634f76140e146103c957806362b5b0c7146103f55780636463d6bc146104005780636739f3a41461043b5780636d27727914610453578063715018a6146104745780637765c52c1461048957806378bd7935146104a15780637dbdc2eb1461053b57806380009630146105505780638da5cb5b146105715780638f32d59b146105a257806396b5a755146105b7578063add68daf146105cf578063b05940f2146105e7578063c4d66de8146105fc578063dbe350071461061d578063e3a0a14814610632578063e9da9f1b14610653578063f2fde38b14610690575b600080fd5b34801561015657600080fd5b50604080516020601f6064356004818101359283018490048402850184019095528184526101b994600160a060020a0381358116956024803590921695604435953695608494019181908401838280828437509497506106b19650505050505050565b604080517fffffffff000000000000000000000000000000000000000000000000000000009092168252519081900360200190f35b3480156101fa57600080fd5b5060408051602060046024803582810135601f810185900485028601850190965285855261024c9583359536956044949193909101919081908401838280828437509497506106da9650505050505050565b005b34801561025a57600080fd5b5061026660043561079d565b60408051918252519081900360200190f35b610266600160a060020a036004351660243560443560643561088f565b3480156102a157600080fd5b5060408051602060046024803582810135601f810185900485028601850190965285855261024c95833595369560449491939091019190819084018382808284375050604080516020601f89358b018035918201839004830284018301909452808352979a999881019791965091820194509250829150840183828082843750949750610abb9650505050505050565b34801561033d57600080fd5b5061024c600160a060020a0360043581169060243516610ac0565b34801561036457600080fd5b50610379600160a060020a0360043516610bcb565b60408051602080825283518183015283519192839290830191858101910280838360005b838110156103b557818101518382015260200161039d565b505050509050019250505060405180910390f35b3480156103d557600080fd5b506103e1600435610c37565b604080519115158252519081900360200190f35b61024c600435610f6b565b34801561040c57600080fd5b50610418600435611214565b60408051600160a060020a03909316835260208301919091528051918290030190f35b34801561044757600080fd5b50610266600435611311565b34801561045f57600080fd5b50610379600160a060020a0360043516611403565b34801561048057600080fd5b5061024c61146d565b34801561049557600080fd5b506103e16004356114ca565b3480156104ad57600080fd5b506104b96004356114e6565b6040518086600160a060020a0316600160a060020a0316815260200185815260200184815260200183815260200180602001828103825283818151815260200191508051906020019060200280838360005b8381101561052357818101518382015260200161050b565b50505050905001965050505050505060405180910390f35b34801561054757600080fd5b506102666115fe565b34801561055c57600080fd5b5061024c600160a060020a0360043516611644565b34801561057d57600080fd5b50610586611679565b60408051600160a060020a039092168252519081900360200190f35b3480156105ae57600080fd5b506103e1611688565b3480156105c357600080fd5b5061024c600435611699565b3480156105db57600080fd5b506102666004356117b0565b3480156105f357600080fd5b506103796118a4565b34801561060857600080fd5b5061024c600160a060020a03600435166118fc565b34801561062957600080fd5b506102666119ef565b34801561063e57600080fd5b5061024c600160a060020a03600435166119f5565b34801561065f57600080fd5b50610677600435600160a060020a0360243516611a14565b6040805192835260208301919091528051918290030190f35b34801561069c57600080fd5b5061024c600160a060020a0360043516611a4d565b7f150b7a0200000000000000000000000000000000000000000000000000000000949350505050565b6000806106e5611a69565b600160a060020a03163314610744576040805160e560020a62461bcd02815260206004820152601260248201527f5341206e6f744f7261636c697a65416464720000000000000000000000000000604482015290519081900360640190fd5b61074d83611c5e565b600081815260a0602052604090208054919350915060a060020a900460ff16156107975761077a82611c71565b805474ff0000000000000000000000000000000000000000191681555b50505050565b60006107a7612e4e565b600083815260a060208181526040928390208351610120810185528154600160a060020a03808216835260a060020a90910460ff161515828501526001830154828701526002830154606083015260038301546080830152600483015494820194909452600582015460c0820152600682015490931660e08401526007810180548551818502810185019096528086529394919361010086019383018282801561087a57602002820191906000526020600020905b8154600160a060020a0316815260019091019060200180831161085c575b5050509190925250505060c001519392505050565b600080808080806108b860646108ac89600863ffffffff611d1a16565b9063ffffffff611d5316565b94506108f86040805190810160405280600381526020017f55524c0000000000000000000000000000000000000000000000000000000000815250611d76565b935061090a858563ffffffff611fde16565b341015610961576040805160e560020a62461bcd02815260206004820152601960248201527f5341206f7065726174696f6e4d696e696d756d4e6f744d657400000000000000604482015290519081900360640190fd5b609d8054600180820190925560007fd26e832454299e9fabb89e0e5fffdc046d4e14431bc1bf607ffb2e8a1ddecf7b820181905581815260a060205260409020805460a060020a600160a060020a0319909116600160a060020a038f161774ff000000000000000000000000000000000000000019161781559182018b9055600482018a90554260028301556005820189905593509150610a028984611ff0565b50609e805460018181019092557fcfe2a20ff701a1f3e14f63bd70d6c6bc6fba8172ec6d5a505cdab3927c0a9de68101849055600084815260a160209081526040808320849055600160a060020a038e16835260a3825282208054948501815582529020909101839055610a74611679565b600160a060020a03166108fc869081150290604051600060405180830381858888f19350505050158015610aac573d6000803e3d6000fd5b50919998505050505050505050565b505050565b60008054610100900460ff1680610ada5750610ada612110565b80610ae8575060005460ff16155b1515610b64576040805160e560020a62461bcd02815260206004820152602e60248201527f436f6e747261637420696e7374616e63652068617320616c726561647920626560448201527f656e20696e697469616c697a6564000000000000000000000000000000000000606482015290519081900360840190fd5b5060008054600161010061ff00198316811760ff1916919091179092550460ff16610b8e826118fc565b609f8054600160a060020a03909416600160a060020a03199094169390931790925550600080549115156101000261ff0019909216919091179055565b600160a060020a038116600090815260a26020908152604091829020805483518184028101840190945280845260609392830182828015610c2b57602002820191906000526020600020905b815481526020019060010190808311610c17575b50505050509050919050565b600081815260a0602052604081208054829060a060020a900460ff1615610ca8576040805160e560020a62461bcd02815260206004820152600e60248201527f53412061756374696f6e4f70656e000000000000000000000000000000000000604482015290519081900360640190fd5b8154600160a060020a0316331415610d6d5760078201541515610d6057609f54600480840154604080517f42842e0e0000000000000000000000000000000000000000000000000000000081523093810193909352336024840152604483019190915251600160a060020a03909216916342842e0e9160648082019260009290919082900301818387803b158015610d3f57600080fd5b505af1158015610d53573d6000803e3d6000fd5b5050505060019250610f64565b5060038101805460009091555b6006820154600160a060020a0316331415610eb257609f54600480840154604080517f5653de640000000000000000000000000000000000000000000000000000000081529283019190915251600160a060020a0390921691635653de649160248082019260009290919082900301818387803b158015610ded57600080fd5b505af1158015610e01573d6000803e3d6000fd5b5050609f54600480860154604080517f42842e0e0000000000000000000000000000000000000000000000000000000081523093810193909352336024840152604483019190915251600160a060020a0390921693506342842e0e925060648082019260009290919082900301818387803b158015610e7f57600080fd5b505af1158015610e93573d6000803e3d6000fd5b505050600683018054600160a060020a03191690555060019250610f64565b6006820154600160a060020a03163314801590610ed957508154600160a060020a03163314155b15610ef65750336000908152600882016020526040812080549190555b604051339082156108fc029083906000818181858888f19350505050158015610f23573d6000803e3d6000fd5b50604080513381526020810183905281517f4ce7033d118120e254016dccf195288400b28fc8936425acd5f17ce2df3ab708929181900390910190a1600192505b5050919050565b600081815260a060205260408120805490919060a060020a900460ff161515610fde576040805160e560020a62461bcd02815260206004820152601060248201527f53412061756374696f6e436c6f73656400000000000000000000000000000000604482015290519081900360640190fd5b8154600160a060020a0316331415611040576040805160e560020a62461bcd02815260206004820152600e60248201527f53412063616e7442654f776e6572000000000000000000000000000000000000604482015290519081900360640190fd5b336000908152600883016020526040902054611062903463ffffffff611fde16565b600383015490915081116110c0576040805160e560020a62461bcd02815260206004820152601660248201527f5341206c6f7765724269645468616e4d6178696d756d00000000000000000000604482015290519081900360640190fd5b60078201541515611127576005820154341015611127576040805160e560020a62461bcd02815260206004820152601660248201527f5341206c6f7765724269645468616e4d696e696d756d00000000000000000000604482015290519081900360640190fd5b3360009081526008830160209081526040808320849055600985018252808320429055600a850190915290205460ff1615156111b75760078201805460018181018355600092835260208084209092018054600160a060020a031916339081179091558352600a850182526040808420805460ff19168317905560a2835283208054918201815583529120018390555b60038201819055600682018054600160a060020a03191633908117909155604080519182526020820183905280517f5331b3a4532c2507900f549683f076c051f92222c177b52f82f140d8667d3ebf9281900390910190a1505050565b60008061121f612e4e565b600084815260a060208181526040928390208351610120810185528154600160a060020a03808216835260a060020a90910460ff161515828501526001830154828701526002830154606083015260038301546080830152600483015494820194909452600582015460c0820152600682015490931660e0840152600781018054855181850281018501909652808652939491936101008601938301828280156112f257602002820191906000526020600020905b8154600160a060020a031681526001909101906020018083116112d4575b50505050508152505090508060e0015181608001519250925050915091565b600061131b612e4e565b600083815260a060208181526040928390208351610120810185528154600160a060020a03808216835260a060020a90910460ff161515828501526001830154828701526002830154606083015260038301546080830152600483015494820194909452600582015460c0820152600682015490931660e0840152600781018054855181850281018501909652808652939491936101008601938301828280156113ee57602002820191906000526020600020905b8154600160a060020a031681526001909101906020018083116113d0575b50505091909252505050604001519392505050565b600160a060020a038116600090815260a36020908152604091829020805483518184028101840190945280845260609392830182828015610c2b5760200282019190600052602060002090815481526020019060010190808311610c175750505050509050919050565b611475611688565b151561148057600080fd5b606a54604051600160a060020a03909116907ff8df31144d9c2f0f6b59d69b8b98abd5459d07f2742c4df920b25aae33c6482090600090a2606a8054600160a060020a0319169055565b600090815260a0602052604090205460a060020a900460ff1690565b60008060008060606114f6612e4e565b600087815260a060208181526040928390208351610120810185528154600160a060020a03808216835260a060020a90910460ff161515828501526001830154828701526002830154606083015260038301546080830152600483015494820194909452600582015460c0820152600682015490931660e0840152600781018054855181850281018501909652808652939491936101008601938301828280156115c957602002820191906000526020600020905b8154600160a060020a031681526001909101906020018083116115ab575b50505091909252505081516060830151604084015160a085015161010090950151929c919b5099509297509550909350505050565b600061163e6040805190810160405280600381526020017f55524c0000000000000000000000000000000000000000000000000000000000815250611d76565b90505b90565b61164c611688565b151561165757600080fd5b609f8054600160a060020a031916600160a060020a0392909216919091179055565b606a54600160a060020a031690565b606a54600160a060020a0316331490565b600081815260a06020526040902060078101541515611702576040805160e560020a62461bcd02815260206004820152601260248201527f53412061756374696f6e4e6f74456d7074790000000000000000000000000000604482015290519081900360640190fd5b8054600160a060020a0316331480611732575061171d611679565b600160a060020a031633600160a060020a0316145b1515611788576040805160e560020a62461bcd02815260206004820152600f60248201527f534120756e617574686f72697a65640000000000000000000000000000000000604482015290519081900360640190fd5b61179182611c71565b805474ff00000000000000000000000000000000000000001916905550565b60006117ba612e4e565b600083815260a060208181526040928390208351610120810185528154600160a060020a03808216835260a060020a90910460ff161515828501526001830154828701526002830154606083015260038301546080830152600483015494820194909452600582015460c0820152600682015490931660e08401526007810180548551818502810185019096528086529394919361010086019383018282801561188d57602002820191906000526020600020905b8154600160a060020a0316815260019091019060200180831161186f575b505050919092525050506101000151519392505050565b6060609e8054806020026020016040519081016040528092919081815260200182805480156118f257602002820191906000526020600020905b8154815260200190600101908083116118de575b5050505050905090565b60008054610100900460ff16806119165750611916612110565b80611924575060005460ff16155b15156119a0576040805160e560020a62461bcd02815260206004820152602e60248201527f436f6e747261637420696e7374616e63652068617320616c726561647920626560448201527f656e20696e697469616c697a6564000000000000000000000000000000000000606482015290519081900360840190fd5b5060008054606a8054600160a060020a031916600160a060020a03949094169390931790925561ff001980831661010090811760ff19166001179091169281900460ff16151502919091179055565b609d5490565b6119fd611688565b1515611a0857600080fd5b611a1181611a4d565b50565b600091825260a060209081526040808420600160a060020a03939093168452600883018252808420546009909301909152909120549091565b611a55611688565b1515611a6057600080fd5b611a118161211a565b606554600090600160a060020a03161580611a965750606554611a9490600160a060020a031661218b565b155b15611aa757611aa5600061218f565b505b606560009054906101000a9004600160a060020a0316600160a060020a03166338cc48316040518163ffffffff1660e060020a028152600401602060405180830381600087803b158015611afa57600080fd5b505af1158015611b0e573d6000803e3d6000fd5b505050506040513d6020811015611b2457600080fd5b5051606654600160a060020a03908116911614611bda57606560009054906101000a9004600160a060020a0316600160a060020a03166338cc48316040518163ffffffff1660e060020a028152600401602060405180830381600087803b158015611b8e57600080fd5b505af1158015611ba2573d6000803e3d6000fd5b505050506040513d6020811015611bb857600080fd5b505160668054600160a060020a031916600160a060020a039092169190911790555b606660009054906101000a9004600160a060020a0316600160a060020a031663c281d19e6040518163ffffffff1660e060020a028152600401602060405180830381600087803b158015611c2d57600080fd5b505af1158015611c41573d6000803e3d6000fd5b505050506040513d6020811015611c5757600080fd5b5051905090565b6000611c6b826000612199565b92915050565b600081815260a16020526040812054609e549091908190611c9990600163ffffffff61230b16565b9150609e82815481101515611caa57fe5b9060005260206000200154905080609e84815481101515611cc757fe5b600091825260208083209091019290925582815260a190915260409020839055609e805483908110611cf557fe5b6000918252602082200155609e805490611d13906000198301612eaf565b5050505050565b600080831515611d2d5760009150611d4c565b50828202828482811515611d3d57fe5b0414611d4857600080fd5b8091505b5092915050565b600080808311611d6257600080fd5b8284811515611d6d57fe5b04949350505050565b606554600090600160a060020a03161580611da35750606554611da190600160a060020a031661218b565b155b15611db457611db2600061218f565b505b606560009054906101000a9004600160a060020a0316600160a060020a03166338cc48316040518163ffffffff1660e060020a028152600401602060405180830381600087803b158015611e0757600080fd5b505af1158015611e1b573d6000803e3d6000fd5b505050506040513d6020811015611e3157600080fd5b5051606654600160a060020a03908116911614611ee757606560009054906101000a9004600160a060020a0316600160a060020a03166338cc48316040518163ffffffff1660e060020a028152600401602060405180830381600087803b158015611e9b57600080fd5b505af1158015611eaf573d6000803e3d6000fd5b505050506040513d6020811015611ec557600080fd5b505160668054600160a060020a031916600160a060020a039092169190911790555b6066546040517f524f3889000000000000000000000000000000000000000000000000000000008152602060048201818152855160248401528551600160a060020a039094169363524f388993879383926044909201919085019080838360005b83811015611f60578181015183820152602001611f48565b50505050905090810190601f168015611f8d5780820380516001836020036101000a031916815260200191505b5092505050602060405180830381600087803b158015611fac57600080fd5b505af1158015611fc0573d6000803e3d6000fd5b505050506040513d6020811015611fd657600080fd5b505192915050565b600082820183811015611d4857600080fd5b606080606060405190810160405280603d81526020017f6a736f6e2868747470733a2f2f6170692e7a65642e72756e2f6170692f76312f81526020017f636c6f73655f61756374696f6e292e61756374696f6e5f636c6f73656400000081525091506120cd6040805190810160405280600b81526020017f7b2261756374696f6e223a00000000000000000000000000000000000000000081525061209485612322565b60408051808201909152600181527f7d000000000000000000000000000000000000000000000000000000000000006020820152612415565b9050611d13846040805190810160405280600381526020017f55524c0000000000000000000000000000000000000000000000000000000000815250848461244c565b303b8015905b5090565b600160a060020a038116151561212f57600080fd5b606a54604051600160a060020a038084169216907f8be0079c531659141344cd1fd0a4f28419497f9722a3daafe3b4186f6b6457e090600090a3606a8054600160a060020a031916600160a060020a0392909216919091179055565b3b90565b6000611c6b6128ae565b6000828180805b83518110156122ee5783517f3000000000000000000000000000000000000000000000000000000000000000908590839081106121d957fe5b90602001015160f860020a900460f860020a02600160f860020a0319161015801561224f575083517f39000000000000000000000000000000000000000000000000000000000000009085908390811061222f57fe5b90602001015160f860020a900460f860020a02600160f860020a03191611155b156122a857811561226e57851515612266576122ee565b600019909501945b600a830292506030848281518110151561228457fe5b90602001015160f860020a900460f860020a0260f860020a900403830192506122e6565b83818151811015156122b657fe5b90602001015160f860020a900460f860020a02600160f860020a031916602e60f860020a0214156122e657600191505b6001016121a0565b60008611156123005785600a0a830292505b509095945050505050565b6000808383111561231b57600080fd5b5050900390565b6060600080828185151561236b5760408051808201909152600181527f30000000000000000000000000000000000000000000000000000000000000006020820152945061240c565b8593505b831561238657600190920191600a8404935061236f565b826040519080825280601f01601f1916602001820160405280156123b4578160200160208202803883390190505b5091505060001982015b851561240857815160001982019160f860020a6030600a8a0601029184919081106123e557fe5b906020010190600160f860020a031916908160001a905350600a860495506123be565b8194505b50505050919050565b606061244484848460206040519081016040528060008152506020604051908101604052806000815250612bd6565b949350505050565b6065546000908190600160a060020a0316158061247b575060655461247990600160a060020a031661218b565b155b1561248c5761248a600061218f565b505b606560009054906101000a9004600160a060020a0316600160a060020a03166338cc48316040518163ffffffff1660e060020a028152600401602060405180830381600087803b1580156124df57600080fd5b505af11580156124f3573d6000803e3d6000fd5b505050506040513d602081101561250957600080fd5b5051606654600160a060020a039081169116146125bf57606560009054906101000a9004600160a060020a0316600160a060020a03166338cc48316040518163ffffffff1660e060020a028152600401602060405180830381600087803b15801561257357600080fd5b505af1158015612587573d6000803e3d6000fd5b505050506040513d602081101561259d57600080fd5b505160668054600160a060020a031916600160a060020a039092169190911790555b6066546040517f524f3889000000000000000000000000000000000000000000000000000000008152602060048201818152885160248401528851600160a060020a039094169363524f3889938a9383926044909201919085019080838360005b83811015612638578181015183820152602001612620565b50505050905090810190601f1680156126655780820380516001836020036101000a031916815260200191505b5092505050602060405180830381600087803b15801561268457600080fd5b505af1158015612698573d6000803e3d6000fd5b505050506040513d60208110156126ae57600080fd5b50519050670de0b6b3a764000062030d403a02018111156126d257600091506128a5565b6066546040517f7722865900000000000000000000000000000000000000000000000000000000815260048101888152608060248301908152885160848401528851600160a060020a039094169363772286599386938c938c938c938c9392916044820191606481019160a490910190602089019080838360005b8381101561276557818101518382015260200161274d565b50505050905090810190601f1680156127925780820380516001836020036101000a031916815260200191505b50848103835286518152865160209182019188019080838360005b838110156127c55781810151838201526020016127ad565b50505050905090810190601f1680156127f25780820380516001836020036101000a031916815260200191505b50848103825285518152855160209182019187019080838360005b8381101561282557818101518382015260200161280d565b50505050905090810190601f1680156128525780820380516001836020036101000a031916815260200191505b509750505050505050506020604051808303818588803b15801561287557600080fd5b505af1158015612889573d6000803e3d6000fd5b50505050506040513d60208110156128a057600080fd5b505191505b50949350505050565b6000806128ce731d3b2638a7cc9f2cb3d298a3da7a90b67e5506ed61218b565b111561293f5760658054600160a060020a031916731d3b2638a7cc9f2cb3d298a3da7a90b67e5506ed17905560408051808201909152600b81527f6574685f6d61696e6e6574000000000000000000000000000000000000000000602082015261293790612e37565b506001611641565b600061295e73c03a2615d5efaf5f49f60b7bb6583eaec212fdf161218b565b11156129c75760658054600160a060020a03191673c03a2615d5efaf5f49f60b7bb6583eaec212fdf117905560408051808201909152600c81527f6574685f726f707374656e330000000000000000000000000000000000000000602082015261293790612e37565b60006129e673b7a07bcf2ba2f2703b24c0691b5278999c59ac7e61218b565b1115612a4f5760658054600160a060020a03191673b7a07bcf2ba2f2703b24c0691b5278999c59ac7e17905560408051808201909152600981527f6574685f6b6f76616e0000000000000000000000000000000000000000000000602082015261293790612e37565b6000612a6e73146500cfd35b22e4a392fe0adc06de1a1368ed4861218b565b1115612ad75760658054600160a060020a03191673146500cfd35b22e4a392fe0adc06de1a1368ed4817905560408051808201909152600b81527f6574685f72696e6b656279000000000000000000000000000000000000000000602082015261293790612e37565b6000612af6736f485c8bf6fc43ea212e93bbf8ce046c7f1cb47561218b565b1115612b2a575060658054600160a060020a031916736f485c8bf6fc43ea212e93bbf8ce046c7f1cb4751790556001611641565b6000612b497320e12a1f859b3feae5fb2a0a32c18f5a65555bbf61218b565b1115612b7d575060658054600160a060020a0319167320e12a1f859b3feae5fb2a0a32c18f5a65555bbf1790556001611641565b6000612b9c7351efaf4c8b3c9afbd5ab9f4bbc82784ab6ef8faa61218b565b1115612bd0575060658054600160a060020a0319167351efaf4c8b3c9afbd5ab9f4bbc82784ab6ef8faa1790556001611641565b50600090565b6060806060806060806060806000808e98508d97508c96508b95508a94508451865188518a518c51010101016040519080825280601f01601f191660200182016040528015612c2f578160200160208202803883390190505b50935083925060009150600090505b8851811015612c9c578881815181101515612c5557fe5b90602001015160f860020a900460f860020a028383806001019450815181101515612c7c57fe5b906020010190600160f860020a031916908160001a905350600101612c3e565b5060005b8751811015612cfe578781815181101515612cb757fe5b90602001015160f860020a900460f860020a028383806001019450815181101515612cde57fe5b906020010190600160f860020a031916908160001a905350600101612ca0565b5060005b8651811015612d60578681815181101515612d1957fe5b90602001015160f860020a900460f860020a028383806001019450815181101515612d4057fe5b906020010190600160f860020a031916908160001a905350600101612d02565b5060005b8551811015612dc2578581815181101515612d7b57fe5b90602001015160f860020a900460f860020a028383806001019450815181101515612da257fe5b906020010190600160f860020a031916908160001a905350600101612d64565b5060005b8451811015612e24578481815181101515612ddd57fe5b90602001015160f860020a900460f860020a028383806001019450815181101515612e0457fe5b906020010190600160f860020a031916908160001a905350600101612dc6565b50909d9c50505050505050505050505050565b8051612e4a906067906020840190612ed3565b5050565b610120604051908101604052806000600160a060020a0316815260200160001515815260200160008152602001600081526020016000815260200160008152602001600081526020016000600160a060020a03168152602001606081525090565b815481835581811115610abb57600083815260209020610abb918101908301612f49565b828054600181600116156101000203166002900490600052602060002090601f016020900481019282601f10612f1457805160ff1916838001178555612f41565b82800160010185558215612f41579182015b82811115612f41578251825591602001919060010190612f26565b506121169291505b61164191905b808211156121165760008155600101612f4f5600a165627a7a723058203057eaf5439250c2ad068c36884c5230b1cf830ecb800a54d76fee97eb354f420029",
  "source": "pragma solidity ^0.4.24;\n\nimport \"openzeppelin-eth/contracts/token/ERC721/ERC721Holder.sol\";\nimport \"openzeppelin-eth/contracts/ownership/Ownable.sol\";\nimport \"openzeppelin-eth/contracts/math/SafeMath.sol\";\nimport \"./usingOraclize.sol\";\nimport \"./Auctions.sol\";\n\n/*\nMain contract for Auctions, we keep this as a separate contract in case it needs to be replaced\nwe don't have to mess with Horse ownership in the Core contract.\n*/\ncontract SaleAuction is ERC721Holder, usingOraclize, Ownable {\n    using SafeMath for uint256;\n\n    uint256[] auctionIds;\n    uint256[] openAuctions;\n\n    Auctions core;\n\n    struct AuctionData {\n        address owner;\n\n        bool isOpen;\n\n        uint256 duration;\n        uint256 createdAt;\n        uint256 maxBid;\n        uint256 horse;\n        uint256 minimum; // Minimum price to be met to make a bid.\n\n        address maxBidder;\n        address[] bidders;\n        // Maps each address on this auction to a bid.\n        mapping(address => uint256) bids;\n        // Maps each address on this auction to a bid time.\n        mapping(address => uint256) bidTimes;\n        mapping(address => bool) exists;\n    }\n\n    mapping(uint256 => AuctionData) internal auctions;\n\n    // Maps an auction ID to an index.\n    mapping(uint256 => uint256) private auctionIndex;\n\n    // Maps address to auction\n    mapping(address => uint256[]) internal auctionsParticipating;\n\n    // Maps address to auctions created\n    mapping(address => uint256[]) internal auctionsCreatedBy;\n\n    event LogBid(address _bidder, uint256 _amount);\n    event LogWithdraw(address _user, uint256 _payout);\n\n    function initialize(address _core, address _owner) public initializer {\n        Ownable.initialize(_owner);\n        core = Auctions(_core);\n        // OAR = OraclizeAddrResolverI(0x6f485C8BF6fc43eA212E93BBF8ce046C7f1cb475);\n    }\n\n    // External, called from the 'Auctions' contract.\n    function createUserAuction(\n        address _owner,\n        uint256 _duration,\n        uint256 _horseId,\n        uint256 _minimum\n    ) external payable returns(uint256) {\n        // Zed's fee is 8% of minimum\n        uint256 fee = _minimum.mul(8).div(100);\n        uint256 queryPrice = oraclize_getPrice(\"URL\");\n\n        require(msg.value >= fee.add(queryPrice), \"SA operationMinimumNotMet\");\n\n        uint256 auctionId = auctionIds.push(0) - 1;\n\n        AuctionData storage auction = auctions[auctionId];\n        auction.owner = _owner;\n        auction.isOpen = true;\n        auction.duration = _duration;\n        auction.horse = _horseId;\n        auction.createdAt = now;\n        auction.minimum = _minimum;\n\n        sendAuctionQuery(_duration, auctionId);\n\n        uint256 index = openAuctions.push(auctionId) - 1;\n        auctionIndex[auctionId] = index;\n\n        auctionsCreatedBy[_owner].push(auctionId);\n\n        owner().transfer(fee);\n\n        return auctionId;\n    }\n\n    /*\n    @dev bid function when an auction is created\n    */\n    function userAuctionBid(uint256 _auctionId) public payable {\n        AuctionData storage auction = auctions[_auctionId];\n\n        require(auction.isOpen, \"SA auctionClosed\");\n        // owner can't bid on its own auction.\n        require(msg.sender != auction.owner, \"SA cantBeOwner\");\n\n        // 'newBid' is the current value of an user's bid and the msg.value.\n        uint256 newBid = auction.bids[msg.sender].add(msg.value);\n\n        // You can only record another bid if it is higher than the max bid.\n        require(newBid > auction.maxBid, \"SA lowerBidThanMaximum\");\n\n        // We're going to do this 'require' only if the auction has no\n        // bids yet.\n        if(auction.bidders.length == 0) {\n            require(msg.value >= auction.minimum, \"SA lowerBidThanMinimum\");\n        }\n\n        auction.bids[msg.sender] = newBid;\n        auction.bidTimes[msg.sender] = now;\n\n        // push to the array of bidders if the address doesn't exist yet.\n        if(!auction.exists[msg.sender]) {\n            auction.bidders.push(msg.sender);\n            auction.exists[msg.sender] = true;\n\n            // Adds to the auctions where the user is participating\n            auctionsParticipating[msg.sender].push(_auctionId);\n        }\n\n        auction.maxBid = newBid;\n        auction.maxBidder = msg.sender;\n\n        emit LogBid(msg.sender, newBid);\n    }\n\n    // Withdrawals need to be manually triggered.\n    function userAuctionWithdraw(uint256 _auctionId) public returns(bool) {\n        AuctionData storage auction = auctions[_auctionId];\n        require(!auction.isOpen, \"SA auctionOpen\");\n\n        uint256 payout;\n\n        if(msg.sender == auction.owner) {\n            // Send the horse back to the owner if no one participated in the auction.\n            if(auction.bidders.length == 0) {\n                core.safeTransferFrom(this, msg.sender, auction.horse);\n\n                return true;\n            }\n\n            payout = auction.maxBid;\n            delete auction.maxBid;\n        }\n\n        if(msg.sender == auction.maxBidder) {\n            // Sends the token from 'auction.owner' to 'maxBidder'.\n            core.tokenSold(auction.horse);\n\n            core.safeTransferFrom(this, msg.sender, auction.horse);\n            delete auction.maxBidder;\n\n            // Return so we don't send an innecesary transfer, the token is the prize.\n            return true;\n        }\n\n        // We ensure the msg.sender isn't either the max bidder or the owner.\n        // If the address is the owner that would evaluate to true two times (above and this one)\n        // and 'payout' wouldn't be correct.\n        // If 'msg.sender' didn't bid then the payout will be 0.\n        if(msg.sender != auction.maxBidder && msg.sender != auction.owner) {\n            payout = auction.bids[msg.sender];\n            delete auction.bids[msg.sender];\n        }\n\n        msg.sender.transfer(payout);\n\n        emit LogWithdraw(msg.sender, payout);\n\n        return true;\n    }\n\n    /*\n    @dev We construct the query with the auction ID and duration of it.\n    */\n    function sendAuctionQuery(uint256 _duration, uint256 _auctionId) private {\n        string memory url = \"json(https://api.zed.run/api/v1/close_auction).auction_closed\";\n        string memory payload = strConcat(\"{\\\"auction\\\":\", uint2str(_auctionId), \"}\");\n\n        oraclize_query(_duration, \"URL\", url, payload);\n    }\n\n    /*\n    @dev Only one Query is being sent, when we get a response back we automatically\n    close the given auction and remove it from the 'openAuctions' array.\n    */\n    function __callback(bytes32 _id, string _result) public {\n        require(msg.sender == oraclize_cbAddress(), \"SA notOraclizeAddr\");\n        uint256 auctionId = parseInt(_result);\n        AuctionData storage auction = auctions[auctionId];\n\n        // Since we're providing a way to cancel auctions we will only execute this function if the auction is still open.\n        if(auction.isOpen) {\n            _removeAuction(auctionId);\n            auction.isOpen = false;\n\n        }\n    }\n\n    /*\n    @dev Gives a way for the owner to close a given auction of them. Users will be able to only close auctions\n    that have zero bidders.\n    */\n    function cancelAuction(uint256 _auctionId) public {\n        AuctionData storage auction = auctions[_auctionId];\n\n        require(auction.bidders.length != 0, \"SA auctionNotEmpty\");\n        require(msg.sender == auction.owner || msg.sender == owner(), \"SA unauthorized\");\n\n        _removeAuction(_auctionId);\n        auction.isOpen = false;\n    }\n\n    /*\n    @return Returns the price of the Query so the contract has enough Ether when the query is sent.\n    */\n    function getQueryPrice() public returns(uint) {\n        return oraclize_getPrice(\"URL\");\n    }\n\n    /*\n    @dev Gets some fields about a given auction.\n    */\n    function getAuction(uint256 _auctionId) public view returns(address, uint256, uint256, uint256, address[]) {\n        AuctionData memory auction = auctions[_auctionId];\n\n        return(auction.owner, auction.createdAt, auction.duration, auction.horse, auction.bidders);\n    }\n\n    /*\n    @dev Returns bid information for a given address on a given auction.\n    */\n    function getBidData(uint256 _auctionId, address _bidder) public view returns(uint256, uint256) {\n        AuctionData storage auction = auctions[_auctionId];\n\n        return (auction.bids[_bidder], auction.bidTimes[_bidder]);\n    }\n\n    /*\n    @dev Check if an auction is open or closed by a given ID.\n    */\n    function getAuctionStatus(uint256 _id) public view returns(bool) {\n        return auctions[_id].isOpen;\n    }\n\n    /*\n    @dev Just returns the length of all the auctions created for enumeration and tests.\n    */\n    function getAuctionsLength() public view returns(uint) {\n        return auctionIds.length;\n    }\n\n    /*\n    @dev Gets the duration of a given auction.\n    */\n    function getAuctionDuration(uint256 _id) public view returns(uint256) {\n        AuctionData memory auction = auctions[_id];\n\n        return auction.duration;\n    }\n\n    /*\n    @dev Gets the max bidder and the bid for a given auction.\n    */\n    function getMaxBidder(uint256 _auctionId) public view returns(address, uint256) {\n        AuctionData memory auction = auctions[_auctionId];\n\n        return (auction.maxBidder, auction.maxBid);\n    }\n\n    /*\n    @dev Gets the length of the bidders in a given auction.\n    */\n    function amountOfBidders(uint256 _auctionId) public view returns(uint256) {\n        AuctionData memory auction = auctions[_auctionId];\n        return auction.bidders.length;\n    }\n\n    /*\n    @dev Returns a list of the open auctions.\n    */\n    function getOpenAuctions() public view returns(uint256[]) {\n        return openAuctions;\n    }\n\n    /*\n    @dev Returns ids of the auctions created by 'msg.sender'\n    */\n    function getAuctionsCreated(address _from) public view returns(uint256[]) {\n        return auctionsCreatedBy[_from];\n    }\n\n    /*\n    @dev Gets the minimum asking price for an auction.\n    */\n    function getMinimumAuctionPrice(uint256 _auctionId) public view returns(uint256) {\n        AuctionData memory auction = auctions[_auctionId];\n        return auction.minimum;\n    }\n\n    /*\n    @dev Gets a list of auctions ID where the address is/was participating.\n    We can get this information with all the auctions and then proceed to filter the ones we're\n    interested about.\n    */\n    function participatingIn(address _user) public view returns(uint256[]) {\n        return auctionsParticipating[_user];\n    }\n\n    /*     RESTRICTED FUNCTIONS A.K.A. ONLY OWNER CAN EXECUTE     */\n\n    /*\n    @dev Transfer ownership of the contract to a given address.\n    */\n    function giveOwnership(address _to) public onlyOwner() {\n        transferOwnership(_to);\n    }\n\n    /*   PRIVATE FUNCTIONS   */\n\n    /*\n    @dev Zeppelin implementation.\n    @dev Here we're swapping the auction at a given '_index' for the last element\n    and removing it from the array by reducing it.\n    */\n    function _removeAuction(uint256 _tokenId) private {\n        uint256 index = auctionIndex[_tokenId];\n        uint256 lastAuctionIndex = openAuctions.length.sub(1);\n        uint256 lastAuction = openAuctions[lastAuctionIndex];\n\n        openAuctions[index] = lastAuction;\n        auctionIndex[lastAuction] = index;\n\n        delete openAuctions[lastAuctionIndex];\n\n        openAuctions.length--;\n    }\n\n    function setCore(address _core) public onlyOwner() {\n        core = Auctions(_core);\n    }\n}\n",
  "sourcePath": "/Users/eswarasai/Sites/ZED/cryptofield-core/contracts/SaleAuction.sol",
  "compiler": {
    "name": "solc",
    "version": "0.4.24+commit.e67f0147.Emscripten.clang"
  },
  "schemaVersion": "3.0.6",
  "updatedAt": "2019-06-11T20:54:33.302Z",
  "devdoc": {
    "methods": {
      "initialize(address)": {
        "details": "The Ownable constructor sets the original `owner` of the contract to the sender account."
      },
      "isOwner()": {
        "return": "true if `msg.sender` is the owner of the contract."
      },
      "owner()": {
        "return": "the address of the owner."
      },
      "renounceOwnership()": {
        "details": "Allows the current owner to relinquish control of the contract."
      },
      "transferOwnership(address)": {
        "details": "Allows the current owner to transfer control of the contract to a newOwner.",
        "params": {
          "newOwner": "The address to transfer ownership to."
        }
      }
    }
  },
  "userdoc": {
    "methods": {
      "renounceOwnership()": {
        "notice": "Renouncing to ownership will leave the contract without an owner. It will not be possible to call the functions with the `onlyOwner` modifier anymore."
      }
    }
  }
}