{
  "contractName": "StandaloneERC721",
  "abi": [
    {
      "constant": true,
      "inputs": [
        {
          "name": "interfaceId",
          "type": "bytes4"
        }
      ],
      "name": "supportsInterface",
      "outputs": [
        {
          "name": "",
          "type": "bool"
        }
      ],
      "payable": false,
      "stateMutability": "view",
      "type": "function"
    },
    {
      "constant": true,
      "inputs": [],
      "name": "name",
      "outputs": [
        {
          "name": "",
          "type": "string"
        }
      ],
      "payable": false,
      "stateMutability": "view",
      "type": "function"
    },
    {
      "constant": true,
      "inputs": [
        {
          "name": "tokenId",
          "type": "uint256"
        }
      ],
      "name": "getApproved",
      "outputs": [
        {
          "name": "",
          "type": "address"
        }
      ],
      "payable": false,
      "stateMutability": "view",
      "type": "function"
    },
    {
      "constant": false,
      "inputs": [
        {
          "name": "to",
          "type": "address"
        },
        {
          "name": "tokenId",
          "type": "uint256"
        }
      ],
      "name": "approve",
      "outputs": [],
      "payable": false,
      "stateMutability": "nonpayable",
      "type": "function"
    },
    {
      "constant": true,
      "inputs": [],
      "name": "totalSupply",
      "outputs": [
        {
          "name": "",
          "type": "uint256"
        }
      ],
      "payable": false,
      "stateMutability": "view",
      "type": "function"
    },
    {
      "constant": false,
      "inputs": [
        {
          "name": "from",
          "type": "address"
        },
        {
          "name": "to",
          "type": "address"
        },
        {
          "name": "tokenId",
          "type": "uint256"
        }
      ],
      "name": "transferFrom",
      "outputs": [],
      "payable": false,
      "stateMutability": "nonpayable",
      "type": "function"
    },
    {
      "constant": true,
      "inputs": [
        {
          "name": "owner",
          "type": "address"
        },
        {
          "name": "index",
          "type": "uint256"
        }
      ],
      "name": "tokenOfOwnerByIndex",
      "outputs": [
        {
          "name": "",
          "type": "uint256"
        }
      ],
      "payable": false,
      "stateMutability": "view",
      "type": "function"
    },
    {
      "constant": false,
      "inputs": [],
      "name": "unpause",
      "outputs": [],
      "payable": false,
      "stateMutability": "nonpayable",
      "type": "function"
    },
    {
      "constant": false,
      "inputs": [
        {
          "name": "from",
          "type": "address"
        },
        {
          "name": "to",
          "type": "address"
        },
        {
          "name": "tokenId",
          "type": "uint256"
        }
      ],
      "name": "safeTransferFrom",
      "outputs": [],
      "payable": false,
      "stateMutability": "nonpayable",
      "type": "function"
    },
    {
      "constant": true,
      "inputs": [
        {
          "name": "account",
          "type": "address"
        }
      ],
      "name": "isPauser",
      "outputs": [
        {
          "name": "",
          "type": "bool"
        }
      ],
      "payable": false,
      "stateMutability": "view",
      "type": "function"
    },
    {
      "constant": true,
      "inputs": [
        {
          "name": "index",
          "type": "uint256"
        }
      ],
      "name": "tokenByIndex",
      "outputs": [
        {
          "name": "",
          "type": "uint256"
        }
      ],
      "payable": false,
      "stateMutability": "view",
      "type": "function"
    },
    {
      "constant": false,
      "inputs": [
        {
          "name": "to",
          "type": "address"
        },
        {
          "name": "tokenId",
          "type": "uint256"
        },
        {
          "name": "tokenURI",
          "type": "string"
        }
      ],
      "name": "mintWithTokenURI",
      "outputs": [
        {
          "name": "",
          "type": "bool"
        }
      ],
      "payable": false,
      "stateMutability": "nonpayable",
      "type": "function"
    },
    {
      "constant": true,
      "inputs": [],
      "name": "paused",
      "outputs": [
        {
          "name": "",
          "type": "bool"
        }
      ],
      "payable": false,
      "stateMutability": "view",
      "type": "function"
    },
    {
      "constant": true,
      "inputs": [
        {
          "name": "tokenId",
          "type": "uint256"
        }
      ],
      "name": "ownerOf",
      "outputs": [
        {
          "name": "",
          "type": "address"
        }
      ],
      "payable": false,
      "stateMutability": "view",
      "type": "function"
    },
    {
      "constant": false,
      "inputs": [],
      "name": "renouncePauser",
      "outputs": [],
      "payable": false,
      "stateMutability": "nonpayable",
      "type": "function"
    },
    {
      "constant": true,
      "inputs": [
        {
          "name": "owner",
          "type": "address"
        }
      ],
      "name": "balanceOf",
      "outputs": [
        {
          "name": "",
          "type": "uint256"
        }
      ],
      "payable": false,
      "stateMutability": "view",
      "type": "function"
    },
    {
      "constant": false,
      "inputs": [
        {
          "name": "account",
          "type": "address"
        }
      ],
      "name": "addPauser",
      "outputs": [],
      "payable": false,
      "stateMutability": "nonpayable",
      "type": "function"
    },
    {
      "constant": false,
      "inputs": [],
      "name": "pause",
      "outputs": [],
      "payable": false,
      "stateMutability": "nonpayable",
      "type": "function"
    },
    {
      "constant": true,
      "inputs": [],
      "name": "symbol",
      "outputs": [
        {
          "name": "",
          "type": "string"
        }
      ],
      "payable": false,
      "stateMutability": "view",
      "type": "function"
    },
    {
      "constant": false,
      "inputs": [
        {
          "name": "account",
          "type": "address"
        }
      ],
      "name": "addMinter",
      "outputs": [],
      "payable": false,
      "stateMutability": "nonpayable",
      "type": "function"
    },
    {
      "constant": false,
      "inputs": [],
      "name": "renounceMinter",
      "outputs": [],
      "payable": false,
      "stateMutability": "nonpayable",
      "type": "function"
    },
    {
      "constant": false,
      "inputs": [
        {
          "name": "to",
          "type": "address"
        },
        {
          "name": "approved",
          "type": "bool"
        }
      ],
      "name": "setApprovalForAll",
      "outputs": [],
      "payable": false,
      "stateMutability": "nonpayable",
      "type": "function"
    },
    {
      "constant": true,
      "inputs": [
        {
          "name": "account",
          "type": "address"
        }
      ],
      "name": "isMinter",
      "outputs": [
        {
          "name": "",
          "type": "bool"
        }
      ],
      "payable": false,
      "stateMutability": "view",
      "type": "function"
    },
    {
      "constant": false,
      "inputs": [
        {
          "name": "from",
          "type": "address"
        },
        {
          "name": "to",
          "type": "address"
        },
        {
          "name": "tokenId",
          "type": "uint256"
        },
        {
          "name": "_data",
          "type": "bytes"
        }
      ],
      "name": "safeTransferFrom",
      "outputs": [],
      "payable": false,
      "stateMutability": "nonpayable",
      "type": "function"
    },
    {
      "constant": true,
      "inputs": [
        {
          "name": "tokenId",
          "type": "uint256"
        }
      ],
      "name": "tokenURI",
      "outputs": [
        {
          "name": "",
          "type": "string"
        }
      ],
      "payable": false,
      "stateMutability": "view",
      "type": "function"
    },
    {
      "constant": true,
      "inputs": [
        {
          "name": "owner",
          "type": "address"
        },
        {
          "name": "operator",
          "type": "address"
        }
      ],
      "name": "isApprovedForAll",
      "outputs": [
        {
          "name": "",
          "type": "bool"
        }
      ],
      "payable": false,
      "stateMutability": "view",
      "type": "function"
    },
    {
      "anonymous": false,
      "inputs": [],
      "name": "Paused",
      "type": "event"
    },
    {
      "anonymous": false,
      "inputs": [],
      "name": "Unpaused",
      "type": "event"
    },
    {
      "anonymous": false,
      "inputs": [
        {
          "indexed": true,
          "name": "account",
          "type": "address"
        }
      ],
      "name": "PauserAdded",
      "type": "event"
    },
    {
      "anonymous": false,
      "inputs": [
        {
          "indexed": true,
          "name": "account",
          "type": "address"
        }
      ],
      "name": "PauserRemoved",
      "type": "event"
    },
    {
      "anonymous": false,
      "inputs": [
        {
          "indexed": true,
          "name": "account",
          "type": "address"
        }
      ],
      "name": "MinterAdded",
      "type": "event"
    },
    {
      "anonymous": false,
      "inputs": [
        {
          "indexed": true,
          "name": "account",
          "type": "address"
        }
      ],
      "name": "MinterRemoved",
      "type": "event"
    },
    {
      "anonymous": false,
      "inputs": [
        {
          "indexed": true,
          "name": "from",
          "type": "address"
        },
        {
          "indexed": true,
          "name": "to",
          "type": "address"
        },
        {
          "indexed": true,
          "name": "tokenId",
          "type": "uint256"
        }
      ],
      "name": "Transfer",
      "type": "event"
    },
    {
      "anonymous": false,
      "inputs": [
        {
          "indexed": true,
          "name": "owner",
          "type": "address"
        },
        {
          "indexed": true,
          "name": "approved",
          "type": "address"
        },
        {
          "indexed": true,
          "name": "tokenId",
          "type": "uint256"
        }
      ],
      "name": "Approval",
      "type": "event"
    },
    {
      "anonymous": false,
      "inputs": [
        {
          "indexed": true,
          "name": "owner",
          "type": "address"
        },
        {
          "indexed": true,
          "name": "operator",
          "type": "address"
        },
        {
          "indexed": false,
          "name": "approved",
          "type": "bool"
        }
      ],
      "name": "ApprovalForAll",
      "type": "event"
    },
    {
      "constant": false,
      "inputs": [
        {
          "name": "name",
          "type": "string"
        },
        {
          "name": "symbol",
          "type": "string"
        }
      ],
      "name": "initialize",
      "outputs": [],
      "payable": false,
      "stateMutability": "nonpayable",
      "type": "function"
    },
    {
      "constant": false,
      "inputs": [],
      "name": "initialize",
      "outputs": [],
      "payable": false,
      "stateMutability": "nonpayable",
      "type": "function"
    },
    {
      "constant": false,
      "inputs": [
        {
          "name": "sender",
          "type": "address"
        }
      ],
      "name": "initialize",
      "outputs": [],
      "payable": false,
      "stateMutability": "nonpayable",
      "type": "function"
    },
    {
      "constant": false,
      "inputs": [
        {
          "name": "name",
          "type": "string"
        },
        {
          "name": "symbol",
          "type": "string"
        },
        {
          "name": "minters",
          "type": "address[]"
        },
        {
          "name": "pausers",
          "type": "address[]"
        }
      ],
      "name": "initialize",
      "outputs": [],
      "payable": false,
      "stateMutability": "nonpayable",
      "type": "function"
    }
  ],
  "bytecode": "0x608060405261019f805460ff1916905534801561001b57600080fd5b506120e58061002b6000396000f30060806040526004361061017f5763ffffffff7c010000000000000000000000000000000000000000000000000000000060003504166301ffc9a7811461018457806306fdde03146101ba578063081812fc14610244578063095ea7b31461027857806318160ddd1461029e57806323b872dd146102c55780632f745c59146102ef5780633f4ba83a1461031357806342842e0e1461032857806346fbf68e146103525780634cd88b76146103735780634f6ccce71461040a57806350bb4e7f146104225780635c975abb1461048b5780636352211e146104a05780636ef8d66d146104b857806370a08231146104cd5780638129fc1c146104ee57806382dc1ec4146105035780638456cb591461052457806395d89b4114610539578063983b2d561461054e578063986502751461056f578063a22cb46514610584578063aa271e1a146105aa578063b88d4fde146105cb578063c4d66de81461063a578063c87b56dd1461065b578063d94cc0e014610673578063e985e9c51461077c575b600080fd5b34801561019057600080fd5b506101a6600160e060020a0319600435166107a3565b604080519115158252519081900360200190f35b3480156101c657600080fd5b506101cf6107c2565b6040805160208082528351818301528351919283929083019185019080838360005b838110156102095781810151838201526020016101f1565b50505050905090810190601f1680156102365780820380516001836020036101000a031916815260200191505b509250505060405180910390f35b34801561025057600080fd5b5061025c600435610859565b60408051600160a060020a039092168252519081900360200190f35b34801561028457600080fd5b5061029c600160a060020a036004351660243561088b565b005b3480156102aa57600080fd5b506102b36108aa565b60408051918252519081900360200190f35b3480156102d157600080fd5b5061029c600160a060020a03600435811690602435166044356108b0565b3480156102fb57600080fd5b506102b3600160a060020a03600435166024356108d1565b34801561031f57600080fd5b5061029c61091e565b34801561033457600080fd5b5061029c600160a060020a036004358116906024351660443561097a565b34801561035e57600080fd5b506101a6600160a060020a0360043516610996565b34801561037f57600080fd5b506040805160206004803580820135601f810184900484028501840190955284845261029c94369492936024939284019190819084018382808284375050604080516020601f89358b018035918201839004830284018301909452808352979a9998810197919650918201945092508291508401838280828437509497506109b09650505050505050565b34801561041657600080fd5b506102b3600435610ad1565b34801561042e57600080fd5b50604080516020600460443581810135601f81018490048402850184019095528484526101a6948235600160a060020a0316946024803595369594606494920191908190840183828082843750949750610b069650505050505050565b34801561049757600080fd5b506101a6610b3a565b3480156104ac57600080fd5b5061025c600435610b44565b3480156104c457600080fd5b5061029c610b68565b3480156104d957600080fd5b506102b3600160a060020a0360043516610b73565b3480156104fa57600080fd5b5061029c610ba6565b34801561050f57600080fd5b5061029c600160a060020a0360043516610c9d565b34801561053057600080fd5b5061029c610cbd565b34801561054557600080fd5b506101cf610d1b565b34801561055a57600080fd5b5061029c600160a060020a0360043516610d7c565b34801561057b57600080fd5b5061029c610d99565b34801561059057600080fd5b5061029c600160a060020a03600435166024351515610da2565b3480156105b657600080fd5b506101a6600160a060020a0360043516610dbd565b3480156105d757600080fd5b50604080516020601f60643560048181013592830184900484028501840190955281845261029c94600160a060020a038135811695602480359092169560443595369560849401918190840183828082843750949750610dd19650505050505050565b34801561064657600080fd5b5061029c600160a060020a0360043516610df9565b34801561066757600080fd5b506101cf600435610ed1565b34801561067f57600080fd5b506040805160206004803580820135601f810184900484028501840190955284845261029c94369492936024939284019190819084018382808284375050604080516020601f89358b018035918201839004830284018301909452808352979a999881019791965091820194509250829150840183828082843750506040805187358901803560208181028481018201909552818452989b9a998901989297509082019550935083925085019084908082843750506040805187358901803560208181028481018201909552818452989b9a998901989297509082019550935083925085019084908082843750949750610f869650505050505050565b34801561078857600080fd5b506101a6600160a060020a03600435811690602435166110f6565b600160e060020a03191660009081526033602052604090205460ff1690565b60d28054604080516020601f600260001961010060018816150201909516949094049384018190048102820181019092528281526060939092909183018282801561084e5780601f106108235761010080835404028352916020019161084e565b820191906000526020600020905b81548152906001019060200180831161083157829003601f168201915b505050505090505b90565b600061086482611124565b151561086f57600080fd5b50600090815260676020526040902054600160a060020a031690565b61019f5460ff161561089c57600080fd5b6108a68282611141565b5050565b609e5490565b61019f5460ff16156108c157600080fd5b6108cc8383836111f7565b505050565b60006108dc83610b73565b82106108e757600080fd5b600160a060020a0383166000908152609c6020526040902080548390811061090b57fe5b9060005260206000200154905092915050565b61092733610996565b151561093257600080fd5b61019f5460ff16151561094457600080fd5b61019f805460ff191690556040517fa45f47fdea8a1efdd9029a5691c7f759c32b7c698632b563573e155625d1693390600090a1565b6108cc8383836020604051908101604052806000815250610dd1565b60006109aa61016c8363ffffffff61128516565b92915050565b60008054610100900460ff16806109ca57506109ca6112bc565b806109d8575060005460ff16155b1515610a30576040805160e560020a62461bcd02815260206004820152602e602482015260008051602061207a833981519152604482015260008051602061209a833981519152606482015290519081900360840190fd5b5060008054600161010061ff00198316811760ff1916919091179092550460ff16610a596112c6565b1515610a6457600080fd5b8251610a779060d2906020860190611fc5565b508151610a8b9060d3906020850190611fc5565b50610ab57f5b5e139f000000000000000000000000000000000000000000000000000000006112f6565b600080549115156101000261ff00199092169190911790555050565b6000610adb6108aa565b8210610ae657600080fd5b609e805483908110610af457fe5b90600052602060002001549050919050565b6000610b1133610dbd565b1515610b1c57600080fd5b610b268484611332565b610b308383611381565b5060019392505050565b61019f5460ff1690565b600081815260666020526040812054600160a060020a03168015156109aa57600080fd5b610b71336113b4565b565b6000600160a060020a0382161515610b8a57600080fd5b50600160a060020a031660009081526068602052604090205490565b60008054610100900460ff1680610bc05750610bc06112bc565b80610bce575060005460ff16155b1515610c26576040805160e560020a62461bcd02815260206004820152602e602482015260008051602061207a833981519152604482015260008051602061209a833981519152606482015290519081900360840190fd5b5060008054600161010061ff00198316811760ff1916919091179092550460ff16610c4f6112c6565b1515610c5a57600080fd5b610c837f780e9d63000000000000000000000000000000000000000000000000000000006112f6565b600080549115156101000261ff0019909216919091179055565b610ca633610996565b1515610cb157600080fd5b610cba816113fd565b50565b610cc633610996565b1515610cd157600080fd5b61019f5460ff1615610ce257600080fd5b61019f805460ff191660011790556040517f9e87fac88ff661f02d44f95383c817fece4bce600a3dab7a54406878b965e75290600090a1565b60d38054604080516020601f600260001961010060018816150201909516949094049384018190048102820181019092528281526060939092909183018282801561084e5780601f106108235761010080835404028352916020019161084e565b610d8533610dbd565b1515610d9057600080fd5b610cba81611446565b610b713361148f565b61019f5460ff1615610db357600080fd5b6108a682826114d8565b60006109aa6101078363ffffffff61128516565b610ddc8484846108b0565b610de88484848461155c565b1515610df357600080fd5b50505050565b60008054610100900460ff1680610e135750610e136112bc565b80610e21575060005460ff16155b1515610e79576040805160e560020a62461bcd02815260206004820152602e602482015260008051602061207a833981519152604482015260008051602061209a833981519152606482015290519081900360840190fd5b5060008054600161010061ff00198316811760ff1916919091179092550460ff16610ea26112c6565b1515610ead57600080fd5b610eb6826116c9565b600080549115156101000261ff001990921691909117905550565b6060610edc82611124565b1515610ee757600080fd5b600082815260d4602090815260409182902080548351601f600260001961010060018616150201909316929092049182018490048402810184019094528084529091830182828015610f7a5780601f10610f4f57610100808354040283529160200191610f7a565b820191906000526020600020905b815481529060010190602001808311610f5d57829003601f168201915b50505050509050919050565b600080548190610100900460ff1680610fa25750610fa26112bc565b80610fb0575060005460ff16155b1515611008576040805160e560020a62461bcd02815260206004820152602e602482015260008051602061207a833981519152604482015260008051602061209a833981519152606482015290519081900360840190fd5b5060008054600161010061ff00198316811760ff1916919091179092550460ff16611031611773565b611039610ba6565b61104386866109b0565b61104c30611845565b611054610d99565b61105d30610df9565b611065610b68565b600091505b835182101561109e57611093848381518110151561108457fe5b90602001906020020151611446565b81600101915061106a565b600091505b82518210156110d7576110cc83838151811015156110bd57fe5b906020019060200201516113fd565b8160010191506110a3565b600080549115156101000261ff00199092169190911790555050505050565b600160a060020a03918216600090815260696020908152604080832093909416825291909152205460ff1690565b600090815260666020526040902054600160a060020a0316151590565b600061114c82610b44565b9050600160a060020a03838116908216141561116757600080fd5b33600160a060020a0382161480611183575061118381336110f6565b151561118e57600080fd5b600082815260676020526040808220805473ffffffffffffffffffffffffffffffffffffffff1916600160a060020a0387811691821790925591518593918516917f8c5be1e5ebec7d5bd14f71427d1e84f3dd0314c0f7b2291e5b200ac8c7c3b92591a4505050565b6112013382611915565b151561120c57600080fd5b600160a060020a038216151561122157600080fd5b61122b8382611974565b61123583826119e3565b61123f8282611aea565b8082600160a060020a031684600160a060020a03167fddf252ad1be2c89b69c2b068fc378daa952ba7f163c4a11628f55a4df523b3ef60405160405180910390a4505050565b6000600160a060020a038216151561129c57600080fd5b50600160a060020a03166000908152602091909152604090205460ff1690565b303b8015905b5090565b60006112f17f80ac58cd000000000000000000000000000000000000000000000000000000006107a3565b905090565b600160e060020a0319808216141561130d57600080fd5b600160e060020a0319166000908152603360205260409020805460ff19166001179055565b61133c8282611b33565b609e80546000838152609f60205260408120829055600182018355919091527fcfe2a20ff701a1f3e14f63bd70d6c6bc6fba8172ec6d5a505cdab3927c0a9de6015550565b61138a82611124565b151561139557600080fd5b600082815260d46020908152604090912082516108cc92840190611fc5565b6113c661016c8263ffffffff611b8e16565b604051600160a060020a038216907fcd265ebaf09df2871cc7bd4133404a235ba12eff2041bb89d9c714a2621c7c7e90600090a250565b61140f61016c8263ffffffff611bc516565b604051600160a060020a038216907f6719d08c1888103bea251a4ed56406bd0c3e69723c8a1686e017e7bbe159b6f890600090a250565b6114586101078263ffffffff611bc516565b604051600160a060020a038216907f6ae172837ea30b801fbfcdd4108aa1d5bf8ff775444fd70256b44e6bf3dfc3f690600090a250565b6114a16101078263ffffffff611b8e16565b604051600160a060020a038216907fe94479a9f7e1952cc78f2d6baab678adc1b772d936c6583def489e524cb6669290600090a250565b600160a060020a0382163314156114ee57600080fd5b336000818152606960209081526040808320600160a060020a03871680855290835292819020805460ff1916861515908117909155815190815290519293927f17307eab39ab6107e8899845ad3d59bd9653f200f220920489ca2b5937696c31929181900390910190a35050565b60008061157185600160a060020a0316611bff565b151561158057600191506116c0565b6040517f150b7a020000000000000000000000000000000000000000000000000000000081523360048201818152600160a060020a03898116602485015260448401889052608060648501908152875160848601528751918a169463150b7a0294938c938b938b93909160a490910190602085019080838360005b838110156116135781810151838201526020016115fb565b50505050905090810190601f1680156116405780820380516001836020036101000a031916815260200191505b5095505050505050602060405180830381600087803b15801561166257600080fd5b505af1158015611676573d6000803e3d6000fd5b505050506040513d602081101561168c57600080fd5b5051600160e060020a031981167f150b7a020000000000000000000000000000000000000000000000000000000014925090505b50949350505050565b60008054610100900460ff16806116e357506116e36112bc565b806116f1575060005460ff16155b1515611749576040805160e560020a62461bcd02815260206004820152602e602482015260008051602061207a833981519152604482015260008051602061209a833981519152606482015290519081900360840190fd5b5060008054600161010061ff00198316811760ff1916919091179092550460ff16610eb682611c07565b60008054610100900460ff168061178d575061178d6112bc565b8061179b575060005460ff16155b15156117f3576040805160e560020a62461bcd02815260206004820152602e602482015260008051602061207a833981519152604482015260008051602061209a833981519152606482015290519081900360840190fd5b5060008054600161010061ff00198316811760ff1916919091179092550460ff1661181c611cc0565b610c837f80ac58cd000000000000000000000000000000000000000000000000000000006112f6565b60008054610100900460ff168061185f575061185f6112bc565b8061186d575060005460ff16155b15156118c5576040805160e560020a62461bcd02815260206004820152602e602482015260008051602061207a833981519152604482015260008051602061209a833981519152606482015290519081900360840190fd5b5060008054600161010061ff00198316811760ff1916919091179092550460ff166118ee6112c6565b15156118f957600080fd5b611901611d8a565b151561190c57600080fd5b610eb682611db5565b60008061192183610b44565b905080600160a060020a031684600160a060020a0316148061195c575083600160a060020a031661195184610859565b600160a060020a0316145b8061196c575061196c81856110f6565b949350505050565b81600160a060020a031661198782610b44565b600160a060020a03161461199a57600080fd5b600081815260676020526040902054600160a060020a0316156108a6576000908152606760205260409020805473ffffffffffffffffffffffffffffffffffffffff1916905550565b60008060006119f28585611e6e565b6000848152609d6020908152604080832054600160a060020a0389168452609c90925290912054909350611a2d90600163ffffffff611f0416565b600160a060020a0386166000908152609c6020526040902080549193509083908110611a5557fe5b9060005260206000200154905080609c600087600160a060020a0316600160a060020a0316815260200190815260200160002084815481101515611a9557fe5b6000918252602080832090910192909255600160a060020a0387168152609c90915260409020805490611acc90600019830161203f565b506000938452609d6020526040808520859055908452909220555050565b6000611af68383611f1b565b50600160a060020a039091166000908152609c6020908152604080832080546001810182559084528284208101859055938352609d909152902055565b600160a060020a0382161515611b4857600080fd5b611b528282611aea565b6040518190600160a060020a038416906000907fddf252ad1be2c89b69c2b068fc378daa952ba7f163c4a11628f55a4df523b3ef908290a45050565b600160a060020a0381161515611ba357600080fd5b600160a060020a0316600090815260209190915260409020805460ff19169055565b600160a060020a0381161515611bda57600080fd5b600160a060020a0316600090815260209190915260409020805460ff19166001179055565b6000903b1190565b60008054610100900460ff1680611c215750611c216112bc565b80611c2f575060005460ff16155b1515611c87576040805160e560020a62461bcd02815260206004820152602e602482015260008051602061207a833981519152604482015260008051602061209a833981519152606482015290519081900360840190fd5b5060008054600161010061ff00198316811760ff1916919091179092550460ff16611cb182610996565b1515610eb657610eb6826113fd565b60008054610100900460ff1680611cda5750611cda6112bc565b80611ce8575060005460ff16155b1515611d40576040805160e560020a62461bcd02815260206004820152602e602482015260008051602061207a833981519152604482015260008051602061209a833981519152606482015290519081900360840190fd5b5060008054600161010061ff00198316811760ff1916919091179092550460ff16610c837f01ffc9a7000000000000000000000000000000000000000000000000000000006112f6565b60006112f17f5b5e139f000000000000000000000000000000000000000000000000000000006107a3565b60008054610100900460ff1680611dcf5750611dcf6112bc565b80611ddd575060005460ff16155b1515611e35576040805160e560020a62461bcd02815260206004820152602e602482015260008051602061207a833981519152604482015260008051602061209a833981519152606482015290519081900360840190fd5b5060008054600161010061ff00198316811760ff1916919091179092550460ff16611e5f82610dbd565b1515610eb657610eb682611446565b81600160a060020a0316611e8182610b44565b600160a060020a031614611e9457600080fd5b600160a060020a038216600090815260686020526040902054611ebe90600163ffffffff611f0416565b600160a060020a03909216600090815260686020908152604080832094909455918152606690915220805473ffffffffffffffffffffffffffffffffffffffff19169055565b60008083831115611f1457600080fd5b5050900390565b600081815260666020526040902054600160a060020a031615611f3d57600080fd5b6000818152606660209081526040808320805473ffffffffffffffffffffffffffffffffffffffff1916600160a060020a03871690811790915583526068909152902054611f8c906001611fac565b600160a060020a0390921660009081526068602052604090209190915550565b600082820183811015611fbe57600080fd5b9392505050565b828054600181600116156101000203166002900490600052602060002090601f016020900481019282601f1061200657805160ff1916838001178555612033565b82800160010185558215612033579182015b82811115612033578251825591602001919060010190612018565b506112c292915061205f565b8154818355818111156108cc576000838152602090206108cc9181019083015b61085691905b808211156112c257600081556001016120655600436f6e747261637420696e7374616e63652068617320616c7265616479206265656e20696e697469616c697a6564000000000000000000000000000000000000a165627a7a72305820be487abc903fdd0560bd92722b32551910c497277e732180a86ef503a7c50f290029",
  "source": "pragma solidity ^0.4.24;\n\nimport \"zos-lib/contracts/Initializable.sol\";\nimport \"./ERC721.sol\";\nimport \"./ERC721Enumerable.sol\";\nimport \"./ERC721Metadata.sol\";\nimport \"./ERC721MetadataMintable.sol\";\nimport \"./ERC721Pausable.sol\";\n\n\n/**\n * @title Standard ERC721 token, with minting and pause functionality.\n *\n */\ncontract StandaloneERC721\n  is Initializable, ERC721, ERC721Enumerable, ERC721Metadata, ERC721MetadataMintable, ERC721Pausable\n{\n  function initialize(string name, string symbol, address[] minters, address[] pausers) public initializer {\n    ERC721.initialize();\n    ERC721Enumerable.initialize();\n    ERC721Metadata.initialize(name, symbol);\n\n    // Initialize the minter and pauser roles, and renounce them\n    ERC721MetadataMintable.initialize(address(this));\n    renounceMinter();\n\n    ERC721Pausable.initialize(address(this));\n    renouncePauser();\n\n    // Add the requested minters and pausers (this can be done after renouncing since\n    // these are the internal calls)\n    for (uint256 i = 0; i < minters.length; ++i) {\n      _addMinter(minters[i]);\n    }\n\n    for (i = 0; i < pausers.length; ++i) {\n      _addPauser(pausers[i]);\n    }\n  }\n}\n",
  "sourcePath": "openzeppelin-eth/contracts/token/ERC721/StandaloneERC721.sol",
  "compiler": {
    "name": "solc",
    "version": "0.4.24+commit.e67f0147.Emscripten.clang"
  },
  "schemaVersion": "3.0.6",
  "updatedAt": "2019-06-11T20:54:33.516Z",
  "devdoc": {
    "methods": {
      "balanceOf(address)": {
        "details": "Gets the balance of the specified address",
        "params": {
          "owner": "address to query the balance of"
        },
        "return": "uint256 representing the amount owned by the passed address"
      },
      "getApproved(uint256)": {
        "details": "Gets the approved address for a token ID, or zero if no address set Reverts if the token ID does not exist.",
        "params": {
          "tokenId": "uint256 ID of the token to query the approval of"
        },
        "return": "address currently approved for the given token ID"
      },
      "initialize()": {
        "details": "Constructor function"
      },
      "initialize(string,string)": {
        "details": "Constructor function"
      },
      "isApprovedForAll(address,address)": {
        "details": "Tells whether an operator is approved by a given owner",
        "params": {
          "operator": "operator address which you want to query the approval of",
          "owner": "owner address which you want to query the approval of"
        },
        "return": "bool whether the given operator is approved by the given owner"
      },
      "mintWithTokenURI(address,uint256,string)": {
        "details": "Function to mint tokens",
        "params": {
          "to": "The address that will receive the minted tokens.",
          "tokenId": "The token id to mint.",
          "tokenURI": "The token URI of the minted token."
        },
        "return": "A boolean that indicates if the operation was successful."
      },
      "name()": {
        "details": "Gets the token name",
        "return": "string representing the token name"
      },
      "ownerOf(uint256)": {
        "details": "Gets the owner of the specified token ID",
        "params": {
          "tokenId": "uint256 ID of the token to query the owner of"
        },
        "return": "owner address currently marked as the owner of the given token ID"
      },
      "pause()": {
        "details": "called by the owner to pause, triggers stopped state"
      },
      "paused()": {
        "return": "true if the contract is paused, false otherwise."
      },
      "safeTransferFrom(address,address,uint256)": {
        "details": "Safely transfers the ownership of a given token ID to another address If the target address is a contract, it must implement `onERC721Received`, which is called upon a safe transfer, and return the magic value `bytes4(keccak256(\"onERC721Received(address,address,uint256,bytes)\"))`; otherwise, the transfer is reverted.   * Requires the msg sender to be the owner, approved, or operator",
        "params": {
          "from": "current owner of the token",
          "to": "address to receive the ownership of the given token ID",
          "tokenId": "uint256 ID of the token to be transferred"
        }
      },
      "safeTransferFrom(address,address,uint256,bytes)": {
        "details": "Safely transfers the ownership of a given token ID to another address If the target address is a contract, it must implement `onERC721Received`, which is called upon a safe transfer, and return the magic value `bytes4(keccak256(\"onERC721Received(address,address,uint256,bytes)\"))`; otherwise, the transfer is reverted. Requires the msg sender to be the owner, approved, or operator",
        "params": {
          "_data": "bytes data to send along with a safe transfer check",
          "from": "current owner of the token",
          "to": "address to receive the ownership of the given token ID",
          "tokenId": "uint256 ID of the token to be transferred"
        }
      },
      "supportsInterface(bytes4)": {
        "details": "implement supportsInterface(bytes4) using a lookup table"
      },
      "symbol()": {
        "details": "Gets the token symbol",
        "return": "string representing the token symbol"
      },
      "tokenByIndex(uint256)": {
        "details": "Gets the token ID at a given index of all the tokens in this contract Reverts if the index is greater or equal to the total number of tokens",
        "params": {
          "index": "uint256 representing the index to be accessed of the tokens list"
        },
        "return": "uint256 token ID at the given index of the tokens list"
      },
      "tokenOfOwnerByIndex(address,uint256)": {
        "details": "Gets the token ID at a given index of the tokens list of the requested owner",
        "params": {
          "index": "uint256 representing the index to be accessed of the requested tokens list",
          "owner": "address owning the tokens list to be accessed"
        },
        "return": "uint256 token ID at the given index of the tokens list owned by the requested address"
      },
      "tokenURI(uint256)": {
        "details": "Returns an URI for a given token ID Throws if the token ID does not exist. May return an empty string.",
        "params": {
          "tokenId": "uint256 ID of the token to query"
        }
      },
      "totalSupply()": {
        "details": "Gets the total amount of tokens stored by the contract",
        "return": "uint256 representing the total amount of tokens"
      },
      "unpause()": {
        "details": "called by the owner to unpause, returns to normal state"
      }
    },
    "title": "Standard ERC721 token, with minting and pause functionality. "
  },
  "userdoc": {
    "methods": {}
  }
}