{
  "contractName": "StudService",
  "abi": [
    {
      "constant": true,
      "inputs": [
        {
          "name": "interfaceId",
          "type": "bytes4"
        }
      ],
      "name": "supportsInterface",
      "outputs": [
        {
          "name": "",
          "type": "bool"
        }
      ],
      "payable": false,
      "stateMutability": "view",
      "type": "function"
    },
    {
      "constant": true,
      "inputs": [],
      "name": "name",
      "outputs": [
        {
          "name": "",
          "type": "string"
        }
      ],
      "payable": false,
      "stateMutability": "view",
      "type": "function"
    },
    {
      "constant": true,
      "inputs": [
        {
          "name": "tokenId",
          "type": "uint256"
        }
      ],
      "name": "getApproved",
      "outputs": [
        {
          "name": "",
          "type": "address"
        }
      ],
      "payable": false,
      "stateMutability": "view",
      "type": "function"
    },
    {
      "constant": false,
      "inputs": [
        {
          "name": "to",
          "type": "address"
        },
        {
          "name": "tokenId",
          "type": "uint256"
        }
      ],
      "name": "approve",
      "outputs": [],
      "payable": false,
      "stateMutability": "nonpayable",
      "type": "function"
    },
    {
      "constant": true,
      "inputs": [],
      "name": "totalSupply",
      "outputs": [
        {
          "name": "",
          "type": "uint256"
        }
      ],
      "payable": false,
      "stateMutability": "view",
      "type": "function"
    },
    {
      "constant": false,
      "inputs": [
        {
          "name": "_address",
          "type": "address"
        }
      ],
      "name": "setBreedingAddr",
      "outputs": [],
      "payable": false,
      "stateMutability": "nonpayable",
      "type": "function"
    },
    {
      "constant": false,
      "inputs": [
        {
          "name": "from",
          "type": "address"
        },
        {
          "name": "to",
          "type": "address"
        },
        {
          "name": "tokenId",
          "type": "uint256"
        }
      ],
      "name": "transferFrom",
      "outputs": [],
      "payable": false,
      "stateMutability": "nonpayable",
      "type": "function"
    },
    {
      "constant": false,
      "inputs": [
        {
          "name": "_addr",
          "type": "address"
        }
      ],
      "name": "setGOPCreator",
      "outputs": [],
      "payable": false,
      "stateMutability": "nonpayable",
      "type": "function"
    },
    {
      "constant": false,
      "inputs": [
        {
          "name": "myid",
          "type": "bytes32"
        },
        {
          "name": "result",
          "type": "string"
        }
      ],
      "name": "__callback",
      "outputs": [],
      "payable": false,
      "stateMutability": "nonpayable",
      "type": "function"
    },
    {
      "constant": false,
      "inputs": [
        {
          "name": "_owner",
          "type": "address"
        },
        {
          "name": "_hash",
          "type": "string"
        },
        {
          "name": "_genotype",
          "type": "uint256"
        },
        {
          "name": "_gender",
          "type": "bytes32"
        }
      ],
      "name": "mintCustomHorse",
      "outputs": [
        {
          "name": "",
          "type": "uint256"
        }
      ],
      "payable": false,
      "stateMutability": "nonpayable",
      "type": "function"
    },
    {
      "constant": true,
      "inputs": [
        {
          "name": "owner",
          "type": "address"
        },
        {
          "name": "index",
          "type": "uint256"
        }
      ],
      "name": "tokenOfOwnerByIndex",
      "outputs": [
        {
          "name": "",
          "type": "uint256"
        }
      ],
      "payable": false,
      "stateMutability": "view",
      "type": "function"
    },
    {
      "constant": false,
      "inputs": [
        {
          "name": "myid",
          "type": "bytes32"
        },
        {
          "name": "result",
          "type": "string"
        },
        {
          "name": "proof",
          "type": "bytes"
        }
      ],
      "name": "__callback",
      "outputs": [],
      "payable": false,
      "stateMutability": "nonpayable",
      "type": "function"
    },
    {
      "constant": false,
      "inputs": [
        {
          "name": "_horseId",
          "type": "uint256"
        },
        {
          "name": "_baseValue",
          "type": "uint256"
        }
      ],
      "name": "setBaseValue",
      "outputs": [],
      "payable": false,
      "stateMutability": "nonpayable",
      "type": "function"
    },
    {
      "constant": true,
      "inputs": [
        {
          "name": "_horse",
          "type": "uint256"
        }
      ],
      "name": "getBaseValue",
      "outputs": [
        {
          "name": "",
          "type": "uint256"
        }
      ],
      "payable": false,
      "stateMutability": "view",
      "type": "function"
    },
    {
      "constant": false,
      "inputs": [],
      "name": "unpause",
      "outputs": [],
      "payable": false,
      "stateMutability": "nonpayable",
      "type": "function"
    },
    {
      "constant": false,
      "inputs": [
        {
          "name": "from",
          "type": "address"
        },
        {
          "name": "to",
          "type": "address"
        },
        {
          "name": "tokenId",
          "type": "uint256"
        }
      ],
      "name": "safeTransferFrom",
      "outputs": [],
      "payable": false,
      "stateMutability": "nonpayable",
      "type": "function"
    },
    {
      "constant": true,
      "inputs": [
        {
          "name": "account",
          "type": "address"
        }
      ],
      "name": "isPauser",
      "outputs": [
        {
          "name": "",
          "type": "bool"
        }
      ],
      "payable": false,
      "stateMutability": "view",
      "type": "function"
    },
    {
      "constant": true,
      "inputs": [
        {
          "name": "_tokenId",
          "type": "uint256"
        }
      ],
      "name": "exists",
      "outputs": [
        {
          "name": "",
          "type": "bool"
        }
      ],
      "payable": false,
      "stateMutability": "view",
      "type": "function"
    },
    {
      "constant": true,
      "inputs": [
        {
          "name": "index",
          "type": "uint256"
        }
      ],
      "name": "tokenByIndex",
      "outputs": [
        {
          "name": "",
          "type": "uint256"
        }
      ],
      "payable": false,
      "stateMutability": "view",
      "type": "function"
    },
    {
      "constant": false,
      "inputs": [
        {
          "name": "to",
          "type": "address"
        },
        {
          "name": "tokenId",
          "type": "uint256"
        },
        {
          "name": "tokenURI",
          "type": "string"
        }
      ],
      "name": "mintWithTokenURI",
      "outputs": [
        {
          "name": "",
          "type": "bool"
        }
      ],
      "payable": false,
      "stateMutability": "nonpayable",
      "type": "function"
    },
    {
      "constant": false,
      "inputs": [
        {
          "name": "_tokenId",
          "type": "uint256"
        }
      ],
      "name": "tokenSold",
      "outputs": [],
      "payable": false,
      "stateMutability": "nonpayable",
      "type": "function"
    },
    {
      "constant": false,
      "inputs": [
        {
          "name": "_owner",
          "type": "address"
        },
        {
          "name": "_hash",
          "type": "string"
        },
        {
          "name": "_male",
          "type": "uint256"
        },
        {
          "name": "_female",
          "type": "uint256"
        }
      ],
      "name": "createOffspring",
      "outputs": [
        {
          "name": "",
          "type": "uint256"
        }
      ],
      "payable": true,
      "stateMutability": "payable",
      "type": "function"
    },
    {
      "constant": true,
      "inputs": [],
      "name": "horseDataContract",
      "outputs": [
        {
          "name": "",
          "type": "address"
        }
      ],
      "payable": false,
      "stateMutability": "view",
      "type": "function"
    },
    {
      "constant": true,
      "inputs": [],
      "name": "paused",
      "outputs": [
        {
          "name": "",
          "type": "bool"
        }
      ],
      "payable": false,
      "stateMutability": "view",
      "type": "function"
    },
    {
      "constant": false,
      "inputs": [
        {
          "name": "_owner",
          "type": "address"
        },
        {
          "name": "_hash",
          "type": "string"
        },
        {
          "name": "_batchNumber",
          "type": "uint256"
        }
      ],
      "name": "mintToken",
      "outputs": [
        {
          "name": "",
          "type": "uint256"
        }
      ],
      "payable": true,
      "stateMutability": "payable",
      "type": "function"
    },
    {
      "constant": true,
      "inputs": [
        {
          "name": "tokenId",
          "type": "uint256"
        }
      ],
      "name": "ownerOf",
      "outputs": [
        {
          "name": "",
          "type": "address"
        }
      ],
      "payable": false,
      "stateMutability": "view",
      "type": "function"
    },
    {
      "constant": false,
      "inputs": [],
      "name": "renouncePauser",
      "outputs": [],
      "payable": false,
      "stateMutability": "nonpayable",
      "type": "function"
    },
    {
      "constant": false,
      "inputs": [
        {
          "name": "_nft",
          "type": "address"
        }
      ],
      "name": "setSaleAuctionAddress",
      "outputs": [],
      "payable": false,
      "stateMutability": "nonpayable",
      "type": "function"
    },
    {
      "constant": true,
      "inputs": [
        {
          "name": "owner",
          "type": "address"
        }
      ],
      "name": "balanceOf",
      "outputs": [
        {
          "name": "",
          "type": "uint256"
        }
      ],
      "payable": false,
      "stateMutability": "view",
      "type": "function"
    },
    {
      "constant": false,
      "inputs": [],
      "name": "renounceOwnership",
      "outputs": [],
      "payable": false,
      "stateMutability": "nonpayable",
      "type": "function"
    },
    {
      "constant": true,
      "inputs": [
        {
          "name": "_horse",
          "type": "uint256"
        }
      ],
      "name": "getHorseSex",
      "outputs": [
        {
          "name": "",
          "type": "bytes32"
        }
      ],
      "payable": false,
      "stateMutability": "view",
      "type": "function"
    },
    {
      "constant": true,
      "inputs": [
        {
          "name": "_horse",
          "type": "uint256"
        }
      ],
      "name": "getBloodline",
      "outputs": [
        {
          "name": "",
          "type": "bytes32"
        }
      ],
      "payable": false,
      "stateMutability": "view",
      "type": "function"
    },
    {
      "constant": true,
      "inputs": [],
      "name": "gender",
      "outputs": [
        {
          "name": "",
          "type": "bytes32"
        }
      ],
      "payable": false,
      "stateMutability": "view",
      "type": "function"
    },
    {
      "constant": false,
      "inputs": [
        {
          "name": "account",
          "type": "address"
        }
      ],
      "name": "addPauser",
      "outputs": [],
      "payable": false,
      "stateMutability": "nonpayable",
      "type": "function"
    },
    {
      "constant": false,
      "inputs": [],
      "name": "pause",
      "outputs": [],
      "payable": false,
      "stateMutability": "nonpayable",
      "type": "function"
    },
    {
      "constant": true,
      "inputs": [],
      "name": "owner",
      "outputs": [
        {
          "name": "",
          "type": "address"
        }
      ],
      "payable": false,
      "stateMutability": "view",
      "type": "function"
    },
    {
      "constant": true,
      "inputs": [],
      "name": "isOwner",
      "outputs": [
        {
          "name": "",
          "type": "bool"
        }
      ],
      "payable": false,
      "stateMutability": "view",
      "type": "function"
    },
    {
      "constant": true,
      "inputs": [
        {
          "name": "",
          "type": "uint256"
        }
      ],
      "name": "horses",
      "outputs": [
        {
          "name": "buyer",
          "type": "address"
        },
        {
          "name": "genotype",
          "type": "uint256"
        },
        {
          "name": "baseValue",
          "type": "uint256"
        },
        {
          "name": "timestamp",
          "type": "uint256"
        },
        {
          "name": "lastTimeSold",
          "type": "uint256"
        },
        {
          "name": "amountOfTimesSold",
          "type": "uint256"
        },
        {
          "name": "horseHash",
          "type": "string"
        },
        {
          "name": "bloodline",
          "type": "bytes32"
        },
        {
          "name": "sex",
          "type": "bytes32"
        },
        {
          "name": "hType",
          "type": "bytes32"
        }
      ],
      "payable": false,
      "stateMutability": "view",
      "type": "function"
    },
    {
      "constant": true,
      "inputs": [],
      "name": "symbol",
      "outputs": [
        {
          "name": "",
          "type": "string"
        }
      ],
      "payable": false,
      "stateMutability": "view",
      "type": "function"
    },
    {
      "constant": false,
      "inputs": [
        {
          "name": "account",
          "type": "address"
        }
      ],
      "name": "addMinter",
      "outputs": [],
      "payable": false,
      "stateMutability": "nonpayable",
      "type": "function"
    },
    {
      "constant": false,
      "inputs": [
        {
          "name": "_horse",
          "type": "uint256"
        },
        {
          "name": "_hash",
          "type": "string"
        }
      ],
      "name": "setHorseHash",
      "outputs": [],
      "payable": false,
      "stateMutability": "nonpayable",
      "type": "function"
    },
    {
      "constant": false,
      "inputs": [],
      "name": "renounceMinter",
      "outputs": [],
      "payable": false,
      "stateMutability": "nonpayable",
      "type": "function"
    },
    {
      "constant": false,
      "inputs": [
        {
          "name": "to",
          "type": "address"
        },
        {
          "name": "approved",
          "type": "bool"
        }
      ],
      "name": "setApprovalForAll",
      "outputs": [],
      "payable": false,
      "stateMutability": "nonpayable",
      "type": "function"
    },
    {
      "constant": true,
      "inputs": [
        {
          "name": "account",
          "type": "address"
        }
      ],
      "name": "isMinter",
      "outputs": [
        {
          "name": "",
          "type": "bool"
        }
      ],
      "payable": false,
      "stateMutability": "view",
      "type": "function"
    },
    {
      "constant": true,
      "inputs": [
        {
          "name": "_horse",
          "type": "uint256"
        }
      ],
      "name": "getTimestamp",
      "outputs": [
        {
          "name": "",
          "type": "uint256"
        }
      ],
      "payable": false,
      "stateMutability": "view",
      "type": "function"
    },
    {
      "constant": false,
      "inputs": [
        {
          "name": "from",
          "type": "address"
        },
        {
          "name": "to",
          "type": "address"
        },
        {
          "name": "tokenId",
          "type": "uint256"
        },
        {
          "name": "_data",
          "type": "bytes"
        }
      ],
      "name": "safeTransferFrom",
      "outputs": [],
      "payable": false,
      "stateMutability": "nonpayable",
      "type": "function"
    },
    {
      "constant": true,
      "inputs": [
        {
          "name": "tokenId",
          "type": "uint256"
        }
      ],
      "name": "tokenURI",
      "outputs": [
        {
          "name": "",
          "type": "string"
        }
      ],
      "payable": false,
      "stateMutability": "view",
      "type": "function"
    },
    {
      "constant": false,
      "inputs": [
        {
          "name": "_duration",
          "type": "uint256"
        },
        {
          "name": "_horseId",
          "type": "uint256"
        },
        {
          "name": "_minimum",
          "type": "uint256"
        }
      ],
      "name": "createAuction",
      "outputs": [],
      "payable": true,
      "stateMutability": "payable",
      "type": "function"
    },
    {
      "constant": false,
      "inputs": [
        {
          "name": "_address",
          "type": "address"
        }
      ],
      "name": "setHorseDataAddr",
      "outputs": [],
      "payable": false,
      "stateMutability": "nonpayable",
      "type": "function"
    },
    {
      "constant": true,
      "inputs": [
        {
          "name": "_spender",
          "type": "address"
        },
        {
          "name": "_tokenId",
          "type": "uint256"
        }
      ],
      "name": "isTokenApproved",
      "outputs": [
        {
          "name": "",
          "type": "bool"
        }
      ],
      "payable": false,
      "stateMutability": "view",
      "type": "function"
    },
    {
      "constant": true,
      "inputs": [
        {
          "name": "owner",
          "type": "address"
        },
        {
          "name": "operator",
          "type": "address"
        }
      ],
      "name": "isApprovedForAll",
      "outputs": [
        {
          "name": "",
          "type": "bool"
        }
      ],
      "payable": false,
      "stateMutability": "view",
      "type": "function"
    },
    {
      "constant": false,
      "inputs": [
        {
          "name": "newOwner",
          "type": "address"
        }
      ],
      "name": "transferOwnership",
      "outputs": [],
      "payable": false,
      "stateMutability": "nonpayable",
      "type": "function"
    },
    {
      "constant": true,
      "inputs": [
        {
          "name": "_horse",
          "type": "uint256"
        }
      ],
      "name": "getHorseData",
      "outputs": [
        {
          "name": "",
          "type": "string"
        },
        {
          "name": "",
          "type": "bytes32"
        },
        {
          "name": "",
          "type": "uint256"
        },
        {
          "name": "",
          "type": "uint256"
        },
        {
          "name": "",
          "type": "uint256"
        },
        {
          "name": "",
          "type": "uint256"
        },
        {
          "name": "",
          "type": "bytes32"
        },
        {
          "name": "",
          "type": "bytes32"
        }
      ],
      "payable": false,
      "stateMutability": "view",
      "type": "function"
    },
    {
      "constant": true,
      "inputs": [],
      "name": "lastHorseSex",
      "outputs": [
        {
          "name": "",
          "type": "bytes32"
        }
      ],
      "payable": false,
      "stateMutability": "view",
      "type": "function"
    },
    {
      "anonymous": false,
      "inputs": [
        {
          "indexed": false,
          "name": "_horseId",
          "type": "uint256"
        },
        {
          "indexed": false,
          "name": "_amount",
          "type": "uint256"
        },
        {
          "indexed": false,
          "name": "_duration",
          "type": "uint256"
        }
      ],
      "name": "LogHorseInStud",
      "type": "event"
    },
    {
      "anonymous": false,
      "inputs": [
        {
          "indexed": false,
          "name": "_auctionId",
          "type": "uint256"
        }
      ],
      "name": "LogAuctionCreated",
      "type": "event"
    },
    {
      "anonymous": false,
      "inputs": [
        {
          "indexed": false,
          "name": "_horseId",
          "type": "uint256"
        },
        {
          "indexed": false,
          "name": "_amountOfTimesSold",
          "type": "uint256"
        }
      ],
      "name": "LogHorseSell",
      "type": "event"
    },
    {
      "anonymous": false,
      "inputs": [
        {
          "indexed": false,
          "name": "_buyer",
          "type": "address"
        },
        {
          "indexed": false,
          "name": "_timestamp",
          "type": "uint256"
        },
        {
          "indexed": false,
          "name": "_tokenId",
          "type": "uint256"
        }
      ],
      "name": "LogOffspringBuy",
      "type": "event"
    },
    {
      "anonymous": false,
      "inputs": [
        {
          "indexed": false,
          "name": "_buyer",
          "type": "address"
        },
        {
          "indexed": false,
          "name": "_timestamp",
          "type": "uint256"
        },
        {
          "indexed": false,
          "name": "_tokenId",
          "type": "uint256"
        }
      ],
      "name": "LogGOPCreated",
      "type": "event"
    },
    {
      "anonymous": false,
      "inputs": [
        {
          "indexed": true,
          "name": "previousOwner",
          "type": "address"
        }
      ],
      "name": "OwnershipRenounced",
      "type": "event"
    },
    {
      "anonymous": false,
      "inputs": [
        {
          "indexed": true,
          "name": "previousOwner",
          "type": "address"
        },
        {
          "indexed": true,
          "name": "newOwner",
          "type": "address"
        }
      ],
      "name": "OwnershipTransferred",
      "type": "event"
    },
    {
      "anonymous": false,
      "inputs": [],
      "name": "Paused",
      "type": "event"
    },
    {
      "anonymous": false,
      "inputs": [],
      "name": "Unpaused",
      "type": "event"
    },
    {
      "anonymous": false,
      "inputs": [
        {
          "indexed": true,
          "name": "account",
          "type": "address"
        }
      ],
      "name": "PauserAdded",
      "type": "event"
    },
    {
      "anonymous": false,
      "inputs": [
        {
          "indexed": true,
          "name": "account",
          "type": "address"
        }
      ],
      "name": "PauserRemoved",
      "type": "event"
    },
    {
      "anonymous": false,
      "inputs": [
        {
          "indexed": true,
          "name": "account",
          "type": "address"
        }
      ],
      "name": "MinterAdded",
      "type": "event"
    },
    {
      "anonymous": false,
      "inputs": [
        {
          "indexed": true,
          "name": "account",
          "type": "address"
        }
      ],
      "name": "MinterRemoved",
      "type": "event"
    },
    {
      "anonymous": false,
      "inputs": [
        {
          "indexed": true,
          "name": "from",
          "type": "address"
        },
        {
          "indexed": true,
          "name": "to",
          "type": "address"
        },
        {
          "indexed": true,
          "name": "tokenId",
          "type": "uint256"
        }
      ],
      "name": "Transfer",
      "type": "event"
    },
    {
      "anonymous": false,
      "inputs": [
        {
          "indexed": true,
          "name": "owner",
          "type": "address"
        },
        {
          "indexed": true,
          "name": "approved",
          "type": "address"
        },
        {
          "indexed": true,
          "name": "tokenId",
          "type": "uint256"
        }
      ],
      "name": "Approval",
      "type": "event"
    },
    {
      "anonymous": false,
      "inputs": [
        {
          "indexed": true,
          "name": "owner",
          "type": "address"
        },
        {
          "indexed": true,
          "name": "operator",
          "type": "address"
        },
        {
          "indexed": false,
          "name": "approved",
          "type": "bool"
        }
      ],
      "name": "ApprovalForAll",
      "type": "event"
    },
    {
      "constant": false,
      "inputs": [
        {
          "name": "name",
          "type": "string"
        },
        {
          "name": "symbol",
          "type": "string"
        }
      ],
      "name": "initialize",
      "outputs": [],
      "payable": false,
      "stateMutability": "nonpayable",
      "type": "function"
    },
    {
      "constant": false,
      "inputs": [],
      "name": "initialize",
      "outputs": [],
      "payable": false,
      "stateMutability": "nonpayable",
      "type": "function"
    },
    {
      "constant": false,
      "inputs": [
        {
          "name": "_owner",
          "type": "address"
        }
      ],
      "name": "initialize",
      "outputs": [],
      "payable": false,
      "stateMutability": "nonpayable",
      "type": "function"
    },
    {
      "constant": false,
      "inputs": [
        {
          "name": "name",
          "type": "string"
        },
        {
          "name": "symbol",
          "type": "string"
        },
        {
          "name": "minters",
          "type": "address[]"
        },
        {
          "name": "pausers",
          "type": "address[]"
        }
      ],
      "name": "initialize",
      "outputs": [],
      "payable": false,
      "stateMutability": "nonpayable",
      "type": "function"
    }
  ],
  "bytecode": "0x608060405261019f805460ff1916905534801561001b57600080fd5b506145188061002b6000396000f3006080604052600436106102b35763ffffffff7c010000000000000000000000000000000000000000000000000000000060003504166301ffc9a781146102b857806306fdde03146102ee578063081812fc14610378578063095ea7b3146103ac57806318160ddd146103d2578063195c8c7e146103f957806323b872dd1461041a57806325b1a0721461044457806327dc297e146104655780632d6ae4fa146104c35780632f745c591461053357806338bbfa50146105575780633bdf2c0c146105f35780633ef5d3251461060e5780633f4ba83a1461062657806342842e0e1461063b57806346fbf68e146106655780634cd88b76146106865780634f558e791461071d5780634f6ccce71461073557806350bb4e7f1461074d5780635653de64146107b657806357a15c4f146107ce57806359660d17146107f45780635c975abb14610809578063611b2fed1461081e5780636352211e1461087a5780636ef8d66d146108925780636fbde40d146108a757806370a08231146108c8578063715018a6146108e957806376fe8228146108fe5780637866ed6e1461091657806379caad861461092e5780638129fc1c1461094357806382dc1ec4146109585780638456cb59146109795780638da5cb5b1461098e5780638f32d59b146109a35780638f8b5cde146109b857806395d89b4114610a9e578063983b2d5614610ab3578063983bd3d414610ad45780639865027514610b32578063a22cb46514610b47578063aa271e1a14610b6d578063b633620c14610b8e578063b88d4fde14610ba6578063c4d66de814610c15578063c87b56dd14610c36578063cda4beef14610c4e578063d94cc0e014610c5f578063e068e8a114610d68578063e8a4b79714610d89578063e985e9c514610dad578063f2fde38b14610dd4578063f66b48da14610df5578063fffda87014610ebd575b600080fd5b3480156102c457600080fd5b506102da600160e060020a031960043516610ed2565b604080519115158252519081900360200190f35b3480156102fa57600080fd5b50610303610ef1565b6040805160208082528351818301528351919283929083019185019080838360005b8381101561033d578181015183820152602001610325565b50505050905090810190601f16801561036a5780820380516001836020036101000a031916815260200191505b509250505060405180910390f35b34801561038457600080fd5b50610390600435610f88565b60408051600160a060020a039092168252519081900360200190f35b3480156103b857600080fd5b506103d0600160a060020a0360043516602435610fba565b005b3480156103de57600080fd5b506103e7610fd9565b60408051918252519081900360200190f35b34801561040557600080fd5b506103d0600160a060020a0360043516610fdf565b34801561042657600080fd5b506103d0600160a060020a0360043581169060243516604435611015565b34801561045057600080fd5b506103d0600160a060020a0360043516611036565b34801561047157600080fd5b5060408051602060046024803582810135601f81018590048502860185019096528585526103d095833595369560449491939091019190819084018382808284375094975061106c9650505050505050565b3480156104cf57600080fd5b5060408051602060046024803582810135601f81018590048502860185019096528585526103e7958335600160a060020a03169536956044949193909101919081908401838280828437509497505084359550505060209092013591506110889050565b34801561053f57600080fd5b506103e7600160a060020a0360043516602435611235565b34801561056357600080fd5b5060408051602060046024803582810135601f81018590048502860185019096528585526103d095833595369560449491939091019190819084018382808284375050604080516020601f89358b018035918201839004830284018301909452808352979a9998810197919650918201945092508291508401838280828437509497506110319650505050505050565b3480156105ff57600080fd5b506103d0600435602435611282565b34801561061a57600080fd5b506103e76004356112ff565b34801561063257600080fd5b506103d0611315565b34801561064757600080fd5b506103d0600160a060020a0360043581169060243516604435611371565b34801561067157600080fd5b506102da600160a060020a036004351661138d565b34801561069257600080fd5b506040805160206004803580820135601f81018490048402850184019095528484526103d094369492936024939284019190819084018382808284375050604080516020601f89358b018035918201839004830284018301909452808352979a9998810197919650918201945092508291508401838280828437509497506113a79650505050505050565b34801561072957600080fd5b506102da6004356114c8565b34801561074157600080fd5b506103e76004356114da565b34801561075957600080fd5b50604080516020600460443581810135601f81018490048402850184019095528484526102da948235600160a060020a031694602480359536959460649492019190819084018382808284375094975061150f9650505050505050565b3480156107c257600080fd5b506103d0600435611543565b6103e760048035600160a060020a031690602480359081019101356044356064356115ad565b34801561080057600080fd5b50610390611672565b34801561081557600080fd5b506102da611682565b60408051602060046024803582810135601f81018590048502860185019096528585526103e7958335600160a060020a0316953695604494919390910191908190840183828082843750949750509335945061168c9350505050565b34801561088657600080fd5b50610390600435611832565b34801561089e57600080fd5b506103d0611856565b3480156108b357600080fd5b506103d0600160a060020a0360043516611861565b3480156108d457600080fd5b506103e7600160a060020a0360043516611897565b3480156108f557600080fd5b506103d06118ca565b34801561090a57600080fd5b506103e7600435611929565b34801561092257600080fd5b506103e760043561193f565b34801561093a57600080fd5b506103e7611955565b34801561094f57600080fd5b506103d061195c565b34801561096457600080fd5b506103d0600160a060020a0360043516611a53565b34801561098557600080fd5b506103d0611a73565b34801561099a57600080fd5b50610390611ad1565b3480156109af57600080fd5b506102da611ae1565b3480156109c457600080fd5b506109d0600435611af3565b60408051600160a060020a038c16815260208082018c90529181018a9052606081018990526080810188905260a0810187905260e081018590526101008101849052610120810183905261014060c0820181815287519183019190915286519192909161016084019188019080838360005b83811015610a5a578181015183820152602001610a42565b50505050905090810190601f168015610a875780820380516001836020036101000a031916815260200191505b509b50505050505050505050505060405180910390f35b348015610aaa57600080fd5b50610303611bdb565b348015610abf57600080fd5b506103d0600160a060020a0360043516611c3c565b348015610ae057600080fd5b5060408051602060046024803582810135601f81018590048502860185019096528585526103d0958335953695604494919390910191908190840183828082843750949750611c599650505050505050565b348015610b3e57600080fd5b506103d0611c92565b348015610b5357600080fd5b506103d0600160a060020a03600435166024351515611c9b565b348015610b7957600080fd5b506102da600160a060020a0360043516611cb6565b348015610b9a57600080fd5b506103e7600435611cca565b348015610bb257600080fd5b50604080516020601f6064356004818101359283018490048402850184019095528184526103d094600160a060020a038135811695602480359092169560443595369560849401918190840183828082843750949750611ce09650505050505050565b348015610c2157600080fd5b506103d0600160a060020a0360043516611d08565b348015610c4257600080fd5b50610303600435611e01565b6103d0600435602435604435611eb6565b348015610c6b57600080fd5b506040805160206004803580820135601f81018490048402850184019095528484526103d094369492936024939284019190819084018382808284375050604080516020601f89358b018035918201839004830284018301909452808352979a999881019791965091820194509250829150840183828082843750506040805187358901803560208181028481018201909552818452989b9a998901989297509082019550935083925085019084908082843750506040805187358901803560208181028481018201909552818452989b9a99890198929750908201955093508392508501908490808284375094975061201f9650505050505050565b348015610d7457600080fd5b506103d0600160a060020a036004351661218f565b348015610d9557600080fd5b506102da600160a060020a03600435166024356121c5565b348015610db957600080fd5b506102da600160a060020a03600435811690602435166121d8565b348015610de057600080fd5b506103d0600160a060020a0360043516612206565b348015610e0157600080fd5b50610e0d600435612222565b6040805160208082018a9052918101889052606081018790526080810186905260a0810185905260c0810184905260e081018390526101008082528a51908201528951909182916101208301918c019080838360005b83811015610e7b578181015183820152602001610e63565b50505050905090810190601f168015610ea85780820380516001836020036101000a031916815260200191505b50995050505050505050505060405180910390f35b348015610ec957600080fd5b506103e76123a9565b600160e060020a03191660009081526033602052604090205460ff1690565b60d28054604080516020601f6002600019610100600188161502019095169490940493840181900481028201810190925282815260609390929091830182828015610f7d5780601f10610f5257610100808354040283529160200191610f7d565b820191906000526020600020905b815481529060010190602001808311610f6057829003601f168201915b505050505090505b90565b6000610f93826123b0565b1515610f9e57600080fd5b50600090815260676020526040902054600160a060020a031690565b61019f5460ff1615610fcb57600080fd5b610fd582826123cd565b5050565b609e5490565b610fe7611ae1565b1515610ff257600080fd5b61023c8054600160a060020a031916600160a060020a0392909216919091179055565b61019f5460ff161561102657600080fd5b611031838383612476565b505050565b61103e611ae1565b151561104957600080fd5b61023f8054600160a060020a031916600160a060020a0392909216919091179055565b604080516000815260208101909152610fd59083908390611031565b61023f5460009081908190606090600160a060020a031633146110f5576040805160e560020a62461bcd02815260206004820152600f60248201527f54206e6f74417574686f72697a65640000000000000000000000000000000000604482015290519081900360640190fd5b6110fd610fd9565b61023d54604080517f3ef5d325000000000000000000000000000000000000000000000000000000008152600481018a90529051929550600160a060020a0390911691633ef5d325916024808201926020929091908290030181600087803b15801561116857600080fd5b505af115801561117c573d6000803e3d6000fd5b505050506040513d602081101561119257600080fd5b505160408051606081018252602681527f68747470733a2f2f6170692e7a65642e72756e2f6170692f76312f686f72736560208201527f732f6765742f0000000000000000000000000000000000000000000000000000918101919091529092506112059061120085612504565b61262b565b905061121188846126e6565b61121b8382612735565b611229888885858a8a612768565b50909695505050505050565b600061124083611897565b821061124b57600080fd5b600160a060020a0383166000908152609c6020526040902080548390811061126f57fe5b9060005260206000200154905092915050565b61023c54600090600160a060020a031633146112e8576040805160e560020a62461bcd02815260206004820152601060248201527f4342206e6f74417574686f72697a656400000000000000000000000000000000604482015290519081900360640190fd5b50600091825261023e602052604090912060020155565b600090815261023e602052604090206002015490565b61131e3361138d565b151561132957600080fd5b61019f5460ff16151561133b57600080fd5b61019f805460ff191690556040517fa45f47fdea8a1efdd9029a5691c7f759c32b7c698632b563573e155625d1693390600090a1565b6110318383836020604051908101604052806000815250611ce0565b60006113a161016c8363ffffffff612a8416565b92915050565b60008054610100900460ff16806113c157506113c1612abb565b806113cf575060005460ff16155b1515611427576040805160e560020a62461bcd02815260206004820152602e60248201526000805160206144ad83398151915260448201526000805160206144cd833981519152606482015290519081900360840190fd5b5060008054600161010061ff00198316811760ff1916919091179092550460ff16611450612ac5565b151561145b57600080fd5b825161146e9060d290602086019061433c565b5081516114829060d390602085019061433c565b506114ac7f5b5e139f00000000000000000000000000000000000000000000000000000000612af5565b600080549115156101000261ff00199092169190911790555050565b60006114d2610fd9565b909110919050565b60006114e4610fd9565b82106114ef57600080fd5b609e8054839081106114fd57fe5b90600052602060002001549050919050565b600061151a33611cb6565b151561152557600080fd5b61152f84846126e6565b6115398383612735565b5060019392505050565b8061154e3382612b31565b15156115a4576040805160e560020a62461bcd02815260206004820152601560248201527f4e6f74206f776e6572206f7220617070726f7665640000000000000000000000604482015290519081900360640190fd5b610fd582612b92565b61023c546000908190600160a060020a03163314611615576040805160e560020a62461bcd02815260206004820152601060248201527f4342206e6f74417574686f72697a656400000000000000000000000000000000604482015290519081900360640190fd5b61161d610fd9565b905061162987826126e6565b6116688787878080601f016020809104026020016040519081016040528093929190818152602001838380828437820191505050505050838787612bf1565b9695505050505050565b61023d54600160a060020a031681565b61019f5460ff1690565b61023f5460009081908190606090600160a060020a031633146116f9576040805160e560020a62461bcd02815260206004820152600f60248201527f54206e6f74417574686f72697a65640000000000000000000000000000000000604482015290519081900360640190fd5b611701610fd9565b61023d54604080517f3ef5d325000000000000000000000000000000000000000000000000000000008152600481018990529051929550600160a060020a0390911691633ef5d325916024808201926020929091908290030181600087803b15801561176c57600080fd5b505af1158015611780573d6000803e3d6000fd5b505050506040513d602081101561179657600080fd5b505160408051606081018252602681527f68747470733a2f2f6170692e7a65642e72756e2f6170692f76312f686f72736560208201527f732f6765742f0000000000000000000000000000000000000000000000000000918101919091529092506118049061120085612504565b905061181087846126e6565b61181a8382612735565b6118278787858886612eae565b509095945050505050565b600081815260666020526040812054600160a060020a03168015156113a157600080fd5b61185f3361315e565b565b611869611ae1565b151561187457600080fd5b6102428054600160a060020a031916600160a060020a0392909216919091179055565b6000600160a060020a03821615156118ae57600080fd5b50600160a060020a031660009081526068602052604090205490565b6118d2611ae1565b15156118dd57600080fd5b61020454604051600160a060020a03909116907ff8df31144d9c2f0f6b59d69b8b98abd5459d07f2742c4df920b25aae33c6482090600090a26102048054600160a060020a0319169055565b600090815261023e602052604090206008015490565b600090815261023e602052604090206007015490565b6102385481565b60008054610100900460ff16806119765750611976612abb565b80611984575060005460ff16155b15156119dc576040805160e560020a62461bcd02815260206004820152602e60248201526000805160206144ad83398151915260448201526000805160206144cd833981519152606482015290519081900360840190fd5b5060008054600161010061ff00198316811760ff1916919091179092550460ff16611a05612ac5565b1515611a1057600080fd5b611a397f780e9d6300000000000000000000000000000000000000000000000000000000612af5565b600080549115156101000261ff0019909216919091179055565b611a5c3361138d565b1515611a6757600080fd5b611a70816131a7565b50565b611a7c3361138d565b1515611a8757600080fd5b61019f5460ff1615611a9857600080fd5b61019f805460ff191660011790556040517f9e87fac88ff661f02d44f95383c817fece4bce600a3dab7a54406878b965e75290600090a1565b61020454600160a060020a031690565b61020454600160a060020a0316331490565b61023e6020908152600091825260409182902080546001808301546002808501546003860154600487015460058801546006890180548c51601f6000199a831615610100029a909a01909116969096049788018b90048b0286018b01909b52868552600160a060020a039097169994989297919690959094919392830182828015611bbf5780601f10611b9457610100808354040283529160200191611bbf565b820191906000526020600020905b815481529060010190602001808311611ba257829003601f168201915b505050505090806007015490806008015490806009015490508a565b60d38054604080516020601f6002600019610100600188161502019095169490940493840181900481028201810190925282815260609390929091830182828015610f7d5780601f10610f5257610100808354040283529160200191610f7d565b611c4533611cb6565b1515611c5057600080fd5b611a70816131f0565b611c61611ae1565b1515611c6c57600080fd5b600082815261023e6020908152604090912082516110319260069092019184019061433c565b61185f33613239565b61019f5460ff1615611cac57600080fd5b610fd58282613282565b60006113a16101078363ffffffff612a8416565b600090815261023e602052604090206003015490565b611ceb848484611015565b611cf784848484613306565b1515611d0257600080fd5b50505050565b60008054610100900460ff1680611d225750611d22612abb565b80611d30575060005460ff16155b1515611d88576040805160e560020a62461bcd02815260206004820152602e60248201526000805160206144ad83398151915260448201526000805160206144cd833981519152606482015290519081900360840190fd5b5060008054600161010061ff00198316811760ff1916919091179092550460ff16611db282613473565b604080516060810182526203f48081526207e9006020820152620bdd8091810191909152611de5906102489060036143b6565b50600080549115156101000261ff001990921691909117905550565b6060611e0c826123b0565b1515611e1757600080fd5b600082815260d4602090815260409182902080548351601f600260001961010060018616150201909316929092049182018490048402810184019094528084529091830182828015611eaa5780601f10611e7f57610100808354040283529160200191611eaa565b820191906000526020600020905b815481529060010190602001808311611e8d57829003601f168201915b50505050509050919050565b6000611ec183611832565b600160a060020a03163314611f20576040805160e560020a62461bcd02815260206004820152600d60248201527f6e6f74546f6b656e4f776e657200000000000000000000000000000000000000604482015290519081900360640190fd5b61024254611f39903390600160a060020a031685611371565b61024254604080517f36e5d7c10000000000000000000000000000000000000000000000000000000081523360048201526024810187905260448101869052606481018590529051600160a060020a03909216916336e5d7c1913491608480830192602092919082900301818588803b158015611fb557600080fd5b505af1158015611fc9573d6000803e3d6000fd5b50505050506040513d6020811015611fe057600080fd5b50516040805182815290519192507f6337fdda80acf4bb618d6e98b2ac25a50a9a47fbaa452130485db1faf1de5c73919081900360200190a150505050565b600080548190610100900460ff168061203b575061203b612abb565b80612049575060005460ff16155b15156120a1576040805160e560020a62461bcd02815260206004820152602e60248201526000805160206144ad83398151915260448201526000805160206144cd833981519152606482015290519081900360840190fd5b5060008054600161010061ff00198316811760ff1916919091179092550460ff166120ca613541565b6120d261195c565b6120dc86866113a7565b6120e530613613565b6120ed611c92565b6120f6306136e3565b6120fe611856565b600091505b83518210156121375761212c848381518110151561211d57fe5b906020019060200201516131f0565b816001019150612103565b600091505b825182101561217057612165838381518110151561215657fe5b906020019060200201516131a7565b81600101915061213c565b600080549115156101000261ff00199092169190911790555050505050565b612197611ae1565b15156121a257600080fd5b61023d8054600160a060020a031916600160a060020a0392909216919091179055565b60006121d18383612b31565b9392505050565b600160a060020a03918216600090815260696020908152604080832093909416825291909152205460ff1690565b61220e611ae1565b151561221957600080fd5b611a70816137a0565b606060008060008060008060006122376143eb565b60008a815261023e60209081526040918290208251610140810184528154600160a060020a0316815260018083015482850152600280840154838701526003840154606084015260048401546080840152600584015460a084015260068401805487516101009482161594909402600019011691909104601f81018690048602830186019096528582529194929360c08601939192919083018282801561231f5780601f106122f45761010080835404028352916020019161231f565b820191906000526020600020905b81548152906001019060200180831161230257829003601f168201915b50505050508152602001600782015460001916600019168152602001600882015460001916600019168152602001600982015460001916600019168152505090508060c00151816101000151826040015183606001518460a0015185602001518660e001518761012001518797509850985098509850985098509850985050919395975091939597565b6102385490565b600090815260666020526040902054600160a060020a0316151590565b60006123d882611832565b9050600160a060020a0383811690821614156123f357600080fd5b33600160a060020a038216148061240f575061240f81336121d8565b151561241a57600080fd5b6000828152606760205260408082208054600160a060020a031916600160a060020a0387811691821790925591518593918516917f8c5be1e5ebec7d5bd14f71427d1e84f3dd0314c0f7b2291e5b200ac8c7c3b92591a4505050565b6124803382612b31565b151561248b57600080fd5b600160a060020a03821615156124a057600080fd5b6124aa8382613813565b6124b48382613875565b6124be828261397c565b8082600160a060020a031684600160a060020a03167fddf252ad1be2c89b69c2b068fc378daa952ba7f163c4a11628f55a4df523b3ef60405160405180910390a4505050565b6060600080828185151561254d5760408051808201909152600181527f300000000000000000000000000000000000000000000000000000000000000060208201529450612622565b8593505b831561256857600190920191600a84049350612551565b826040519080825280601f01601f191660200182016040528015612596578160200160208202803883390190505b5091505060001982015b851561261e5781516000198201917f01000000000000000000000000000000000000000000000000000000000000006030600a8a0601029184919081106125e357fe5b9060200101907effffffffffffffffffffffffffffffffffffffffffffffffffffffffffffff1916908160001a905350600a860495506125a0565b8194505b50505050919050565b606082826040516020018083805190602001908083835b602083106126615780518252601f199092019160209182019101612642565b51815160209384036101000a600019018019909216911617905285519190930192850191508083835b602083106126a95780518252601f19909201916020918201910161268a565b6001836020036101000a03801982511681845116808217855250505050505090500192505050604051602081830303815290604052905092915050565b6126f082826139c5565b609e80546000838152609f60205260408120829055600182018355919091527fcfe2a20ff701a1f3e14f63bd70d6c6bc6fba8172ec6d5a505cdab3927c0a9de6015550565b61273e826123b0565b151561274957600080fd5b600082815260d46020908152604090912082516110319284019061433c565b60006127726143eb565b600184101580156127845750600a8411155b15156127da576040805160e560020a62461bcd02815260206004820152601160248201527f47656e206f7574206f6620626f756e6473000000000000000000000000000000604482015290519081900360640190fd5b61023b546194701015612837576040805160e560020a62461bcd02815260206004820152600b60248201527f474f5020636170206d6574000000000000000000000000000000000000000000604482015290519081900360640190fd5b61023d54604080517f7866ed6e000000000000000000000000000000000000000000000000000000008152600481018790529051600160a060020a0390921691637866ed6e916024808201926020929091908290030181600087803b15801561289f57600080fd5b505af11580156128b3573d6000803e3d6000fd5b505050506040513d60208110156128c957600080fd5b5051426060830152600160a060020a038916825260c08201889052604082018690526020820185905260e0820181905291507f4d616c650000000000000000000000000000000000000000000000000000000083141561295957610239546101008201527f436f6c740000000000000000000000000000000000000000000000000000000061012082015261298b565b61023a546101008201527f46696c6c790000000000000000000000000000000000000000000000000000006101208201525b600086815261023e602090815260409182902083518154600160a060020a031916600160a060020a03909116178155838201516001820155918301516002830155606083015160038301556080830151600483015560a0830151600583015560c08301518051849392612a0592600685019291019061433c565b5060e0820151600782015561010082015160088201556101209091015160099091015561023b8054600101905560408051600160a060020a038a16815242602082015280820188905290517f8bb39788f6fcc3db6d28b8c1980260c5163d715d3b99e1b48d3202af7dc2b4319181900360600190a15050505050505050565b6000600160a060020a0382161515612a9b57600080fd5b50600160a060020a03166000908152602091909152604090205460ff1690565b303b8015905b5090565b6000612af07f80ac58cd00000000000000000000000000000000000000000000000000000000610ed2565b905090565b600160e060020a03198082161415612b0c57600080fd5b600160e060020a0319166000908152603360205260409020805460ff19166001179055565b600080612b3d83611832565b905080600160a060020a031684600160a060020a03161480612b78575083600160a060020a0316612b6d84610f88565b600160a060020a0316145b80612b885750612b8881856121d8565b91505b5092915050565b600081815261023e602090815260409182902060058101805460010190819055426004830155835185815292830152825190927f972e3bea11df51754bcb88d2a3d51858ebdd0f5ffb99320d008b2c74901d67e4928290030190a15050565b6000806000612bfe6143eb565b612c06613a20565b1515612c3c57610239547f436f6c7400000000000000000000000000000000000000000000000000000000610237559350612c68565b61023a547f46696c6c790000000000000000000000000000000000000000000000000000006102375593505b600086815261023e602052604080822087835291207f5374616c6c696f6e0000000000000000000000000000000000000000000000006009808401919091557f4d6172650000000000000000000000000000000000000000000000000000000090820155600160a060020a038b16835242606084015260c083018a9052610100830186905260018083015490820154929550909350612d0691613a2c565b60208083019190915261023d5460078086015490850154604080517ffe50ce600000000000000000000000000000000000000000000000000000000081526004810193909352602483019190915251600160a060020a039092169263fe50ce60926044808401938290030181600087803b158015612d8357600080fd5b505af1158015612d97573d6000803e3d6000fd5b505050506040513d6020811015612dad57600080fd5b505160e082015261023754610120820152600087815261023e602090815260409182902083518154600160a060020a031916600160a060020a03909116178155818401516001820155918301516002830155606083015160038301556080830151600483015560a0830151600583015560c08301518051849392612e3892600685019291019061433c565b5060e0820151600782015561010082015160088201556101209091015160099091015560408051600160a060020a038b16815242602082015280820189905290517f5979c04b0d7f0107e1fb66acd8a8950f758e0591c1915a39536e4cf9e6b54cfd9181900360600190a1505050505050505050565b600080612eb96143eb565b61023b546194701015612f16576040805160e560020a62461bcd02815260206004820152600b60248201527f474f5020636170206d6574000000000000000000000000000000000000000000604482015290519081900360640190fd5b61023954610238541415612f565761023a54610238557f46696c6c7900000000000000000000000000000000000000000000000000000061023755612f84565b61023954610238557f436f6c7400000000000000000000000000000000000000000000000000000000610237555b61023d54604080517f7866ed6e000000000000000000000000000000000000000000000000000000008152600481018890529051600160a060020a0390921691637866ed6e916024808201926020929091908290030181600087803b158015612fec57600080fd5b505af1158015613000573d6000803e3d6000fd5b505050506040513d602081101561301657600080fd5b505161023d54604080517f1c668855000000000000000000000000000000000000000000000000000000008152600481018990529051929550600160a060020a0390911691631c668855916024808201926020929091908290030181600087803b15801561308357600080fd5b505af1158015613097573d6000803e3d6000fd5b505050506040513d60208110156130ad57600080fd5b50514260608301908152600160a060020a038a8116845260c084018a8152610238546101008601526040808601898152602080880187815260e089018b9052610237546101208a015260008e815261023e83529390932088518154600160a060020a031916961695909517855591516001850155516002840155925160038301556080850151600483015560a0850151600583015551805193955084939192612a059260068501929091019061433c565b61317061016c8263ffffffff613a4516565b604051600160a060020a038216907fcd265ebaf09df2871cc7bd4133404a235ba12eff2041bb89d9c714a2621c7c7e90600090a250565b6131b961016c8263ffffffff613a7c16565b604051600160a060020a038216907f6719d08c1888103bea251a4ed56406bd0c3e69723c8a1686e017e7bbe159b6f890600090a250565b6132026101078263ffffffff613a7c16565b604051600160a060020a038216907f6ae172837ea30b801fbfcdd4108aa1d5bf8ff775444fd70256b44e6bf3dfc3f690600090a250565b61324b6101078263ffffffff613a4516565b604051600160a060020a038216907fe94479a9f7e1952cc78f2d6baab678adc1b772d936c6583def489e524cb6669290600090a250565b600160a060020a03821633141561329857600080fd5b336000818152606960209081526040808320600160a060020a03871680855290835292819020805460ff1916861515908117909155815190815290519293927f17307eab39ab6107e8899845ad3d59bd9653f200f220920489ca2b5937696c31929181900390910190a35050565b60008061331b85600160a060020a0316613ab6565b151561332a576001915061346a565b6040517f150b7a020000000000000000000000000000000000000000000000000000000081523360048201818152600160a060020a03898116602485015260448401889052608060648501908152875160848601528751918a169463150b7a0294938c938b938b93909160a490910190602085019080838360005b838110156133bd5781810151838201526020016133a5565b50505050905090810190601f1680156133ea5780820380516001836020036101000a031916815260200191505b5095505050505050602060405180830381600087803b15801561340c57600080fd5b505af1158015613420573d6000803e3d6000fd5b505050506040513d602081101561343657600080fd5b5051600160e060020a031981167f150b7a020000000000000000000000000000000000000000000000000000000014925090505b50949350505050565b60008054610100900460ff168061348d575061348d612abb565b8061349b575060005460ff16155b15156134f3576040805160e560020a62461bcd02815260206004820152602e60248201526000805160206144ad83398151915260448201526000805160206144cd833981519152606482015290519081900360840190fd5b5060008054600161010061ff00198316811760ff1916919091179092550460ff1661351d82613abe565b61352682613d10565b600080549115156101000261ff001990921691909117905550565b60008054610100900460ff168061355b575061355b612abb565b80613569575060005460ff16155b15156135c1576040805160e560020a62461bcd02815260206004820152602e60248201526000805160206144ad83398151915260448201526000805160206144cd833981519152606482015290519081900360840190fd5b5060008054600161010061ff00198316811760ff1916919091179092550460ff166135ea613de0565b611a397f80ac58cd00000000000000000000000000000000000000000000000000000000612af5565b60008054610100900460ff168061362d575061362d612abb565b8061363b575060005460ff16155b1515613693576040805160e560020a62461bcd02815260206004820152602e60248201526000805160206144ad83398151915260448201526000805160206144cd833981519152606482015290519081900360840190fd5b5060008054600161010061ff00198316811760ff1916919091179092550460ff166136bc612ac5565b15156136c757600080fd5b6136cf613eaa565b15156136da57600080fd5b61352682613ed5565b60008054610100900460ff16806136fd57506136fd612abb565b8061370b575060005460ff16155b1515613763576040805160e560020a62461bcd02815260206004820152602e60248201526000805160206144ad83398151915260448201526000805160206144cd833981519152606482015290519081900360840190fd5b5060008054600161010061ff00198316811760ff1916919091179092550460ff1661378c612ac5565b151561379757600080fd5b61352682613f8e565b600160a060020a03811615156137b557600080fd5b61020454604051600160a060020a038084169216907f8be0079c531659141344cd1fd0a4f28419497f9722a3daafe3b4186f6b6457e090600090a36102048054600160a060020a031916600160a060020a0392909216919091179055565b81600160a060020a031661382682611832565b600160a060020a03161461383957600080fd5b600081815260676020526040902054600160a060020a031615610fd55760009081526067602052604090208054600160a060020a031916905550565b60008060006138848585614038565b6000848152609d6020908152604080832054600160a060020a0389168452609c909252909120549093506138bf90600163ffffffff6140c116565b600160a060020a0386166000908152609c60205260409020805491935090839081106138e757fe5b9060005260206000200154905080609c600087600160a060020a0316600160a060020a031681526020019081526020016000208481548110151561392757fe5b6000918252602080832090910192909255600160a060020a0387168152609c9091526040902080549061395e90600019830161443e565b506000938452609d6020526040808520859055908452909220555050565b600061398883836140d8565b50600160a060020a039091166000908152609c6020908152604080832080546001810182559084528284208101859055938352609d909152902055565b600160a060020a03821615156139da57600080fd5b6139e4828261397c565b6040518190600160a060020a038416906000907fddf252ad1be2c89b69c2b068fc378daa952ba7f163c4a11628f55a4df523b3ef908290a45050565b60014360001901401690565b600082820161010c8111156121d15761010c9150612b8b565b600160a060020a0381161515613a5a57600080fd5b600160a060020a0316600090815260209190915260409020805460ff19169055565b600160a060020a0381161515613a9157600080fd5b600160a060020a0316600090815260209190915260409020805460ff19166001179055565b6000903b1190565b60008054610100900460ff1680613ad85750613ad8612abb565b80613ae6575060005460ff16155b1515613b3e576040805160e560020a62461bcd02815260206004820152602e60248201526000805160206144ad83398151915260448201526000805160206144cd833981519152606482015290519081900360840190fd5b5060008054600161010061ff00198316811760ff191682178455610240805480840182557fd971d7a75d56a87205c10f76d77a1984a94b99f0ba39ec86813b6d42a571a285018054600160a060020a0319908116600160a060020a038916908117909255610241805495860181559096527f3309f6f425a96da5e1b3ccdcabb9705f947cdba87e004f5ce49278874ade3cb89093018054909516909217909355604080518082018252600981527f5a656420546f6b656e000000000000000000000000000000000000000000000060208083019190915282518084018452600281527f5a540000000000000000000000000000000000000000000000000000000000008183015284548451818402810184019095528085529690950460ff1695613d0795929492939291830182828015613ca157602002820191906000526020600020905b8154600160a060020a03168152600190910190602001808311613c83575b5050505050610241805480602002602001604051908101604052809291908181526020018280548015613cfd57602002820191906000526020600020905b8154600160a060020a03168152600190910190602001808311613cdf575b505050505061201f565b6135268261415c565b60008054610100900460ff1680613d2a5750613d2a612abb565b80613d38575060005460ff16155b1515613d90576040805160e560020a62461bcd02815260206004820152602e60248201526000805160206144ad83398151915260448201526000805160206144cd833981519152606482015290519081900360840190fd5b50600080546102048054600160a060020a031916600160a060020a03949094169390931790925561ff001980831661010090811760ff19166001179091169281900460ff16151502919091179055565b60008054610100900460ff1680613dfa5750613dfa612abb565b80613e08575060005460ff16155b1515613e60576040805160e560020a62461bcd02815260206004820152602e60248201526000805160206144ad83398151915260448201526000805160206144cd833981519152606482015290519081900360840190fd5b5060008054600161010061ff00198316811760ff1916919091179092550460ff16611a397f01ffc9a700000000000000000000000000000000000000000000000000000000612af5565b6000612af07f5b5e139f00000000000000000000000000000000000000000000000000000000610ed2565b60008054610100900460ff1680613eef5750613eef612abb565b80613efd575060005460ff16155b1515613f55576040805160e560020a62461bcd02815260206004820152602e60248201526000805160206144ad83398151915260448201526000805160206144cd833981519152606482015290519081900360840190fd5b5060008054600161010061ff00198316811760ff1916919091179092550460ff16613f7f82611cb6565b151561352657613526826131f0565b60008054610100900460ff1680613fa85750613fa8612abb565b80613fb6575060005460ff16155b151561400e576040805160e560020a62461bcd02815260206004820152602e60248201526000805160206144ad83398151915260448201526000805160206144cd833981519152606482015290519081900360840190fd5b5060008054600161010061ff00198316811760ff1916919091179092550460ff1661352682614271565b81600160a060020a031661404b82611832565b600160a060020a03161461405e57600080fd5b600160a060020a03821660009081526068602052604090205461408890600163ffffffff6140c116565b600160a060020a039092166000908152606860209081526040808320949094559181526066909152208054600160a060020a0319169055565b600080838311156140d157600080fd5b5050900390565b600081815260666020526040902054600160a060020a0316156140fa57600080fd5b60008181526066602090815260408083208054600160a060020a031916600160a060020a0387169081179091558352606890915290205461413c90600161432a565b600160a060020a0390921660009081526068602052604090209190915550565b60008054610100900460ff16806141765750614176612abb565b80614184575060005460ff16155b15156141dc576040805160e560020a62461bcd02815260206004820152602e60248201526000805160206144ad83398151915260448201526000805160206144cd833981519152606482015290519081900360840190fd5b5060008054600161010061ff00198316811760ff1916919091179092550460ff1661420682613d10565b7f4600000000000000000000000000000000000000000000000000000000000000610238819055604080518082019091527f4d0000000000000000000000000000000000000000000000000000000000000081526020810191909152611de590610239906002614462565b60008054610100900460ff168061428b575061428b612abb565b80614299575060005460ff16155b15156142f1576040805160e560020a62461bcd02815260206004820152602e60248201526000805160206144ad83398151915260448201526000805160206144cd833981519152606482015290519081900360840190fd5b5060008054600161010061ff00198316811760ff1916919091179092550460ff1661431b8261138d565b151561352657613526826131a7565b6000828201838110156121d157600080fd5b828054600181600116156101000203166002900490600052602060002090601f016020900481019282601f1061437d57805160ff19168380011785556143aa565b828001600101855582156143aa579182015b828111156143aa57825182559160200191906001019061438f565b50612ac1929150614492565b82600381019282156143aa579160200282015b828111156143aa578251829062ffffff169055916020019190600101906143c9565b604080516101408101825260008082526020820181905291810182905260608082018390526080820183905260a0820183905260c082015260e08101829052610100810182905261012081019190915290565b81548183558181111561103157600083815260209020611031918101908301614492565b82600281019282156143aa579160200282015b828111156143aa5782518255602090920191600190910190614475565b610f8591905b80821115612ac157600081556001016144985600436f6e747261637420696e7374616e63652068617320616c7265616479206265656e20696e697469616c697a6564000000000000000000000000000000000000a165627a7a723058208dd4223a85abbd957dd78d6b5210d54fa424a5429eec6629968db87236d0e4740029",
  "source": "pragma solidity ^0.4.24;\n\nimport \"./Auctions.sol\";\nimport \"./usingOraclize.sol\";\nimport \"zos-lib/contracts/Initializable.sol\";\n\n/*\n@description Contract in charge of tracking availability of male horses in Stud.\n*/\ncontract StudService is Auctions, usingOraclize {\n    uint256[3] private ALLOWED_TIMEFRAMES;\n\n    uint256[] horsesInStud;\n\n    struct StudInfo {\n        bool inStud;\n\n        uint256 matingPrice;\n        uint256 duration;\n    }\n\n    mapping(uint256 => StudInfo) internal studs;\n    mapping(uint256 => uint256) internal horseIndex;\n\n    /*\n    @dev We only remove the horse from the mapping ONCE the '__callback' is called, this is for a reason.\n    For Studs we use Oraclize as a service for queries in the future but we also have a function\n    to manually remove the horse from stud but this does not cancel the\n    query that was already sent, so the horse is blocked from being in Stud again until the\n    callback is called and effectively removing it from stud.\n\n    Main case: User puts horse in stud, horse is manually removed, horse is put in stud\n    again thus creating another query, this time the user decides to leave the horse\n    for the whole period of time but the first query which couldn't be cancelled is\n    executed, calling the '__callback' function and removing the horse from Stud and leaving\n    yet another query in air.\n    */\n\n    mapping(uint256 => bool) internal currentlyInStud;\n\n    modifier onlyHorseOwner(uint256 _id) {\n        require(msg.sender == ownerOf(_id), \"Not owner of horse\");\n        _;\n    }\n\n    function initialize(address _owner) public initializer {\n        Auctions.initialize(_owner);\n\n        ALLOWED_TIMEFRAMES = [\n            259200,\n            518400,\n            777600\n        ];\n\n        // OAR = OraclizeAddrResolverI(0x6f485C8BF6fc43eA212E93BBF8ce046C7f1cb475);\n    }\n\n    event LogHorseInStud(uint256 _horseId, uint256 _amount, uint256 _duration);\n}\n",
  "sourcePath": "/Users/eswarasai/Sites/ZED/cryptofield-core/contracts/StudService.sol",
  "compiler": {
    "name": "solc",
    "version": "0.4.24+commit.e67f0147.Emscripten.clang"
  },
  "schemaVersion": "3.0.6",
  "updatedAt": "2019-06-11T20:54:33.306Z",
  "devdoc": {
    "methods": {
      "balanceOf(address)": {
        "details": "Gets the balance of the specified address",
        "params": {
          "owner": "address to query the balance of"
        },
        "return": "uint256 representing the amount owned by the passed address"
      },
      "getApproved(uint256)": {
        "details": "Gets the approved address for a token ID, or zero if no address set Reverts if the token ID does not exist.",
        "params": {
          "tokenId": "uint256 ID of the token to query the approval of"
        },
        "return": "address currently approved for the given token ID"
      },
      "initialize()": {
        "details": "Constructor function"
      },
      "initialize(string,string)": {
        "details": "Constructor function"
      },
      "isApprovedForAll(address,address)": {
        "details": "Tells whether an operator is approved by a given owner",
        "params": {
          "operator": "operator address which you want to query the approval of",
          "owner": "owner address which you want to query the approval of"
        },
        "return": "bool whether the given operator is approved by the given owner"
      },
      "isOwner()": {
        "return": "true if `msg.sender` is the owner of the contract."
      },
      "mintWithTokenURI(address,uint256,string)": {
        "details": "Function to mint tokens",
        "params": {
          "to": "The address that will receive the minted tokens.",
          "tokenId": "The token id to mint.",
          "tokenURI": "The token URI of the minted token."
        },
        "return": "A boolean that indicates if the operation was successful."
      },
      "name()": {
        "details": "Gets the token name",
        "return": "string representing the token name"
      },
      "owner()": {
        "return": "the address of the owner."
      },
      "ownerOf(uint256)": {
        "details": "Gets the owner of the specified token ID",
        "params": {
          "tokenId": "uint256 ID of the token to query the owner of"
        },
        "return": "owner address currently marked as the owner of the given token ID"
      },
      "pause()": {
        "details": "called by the owner to pause, triggers stopped state"
      },
      "paused()": {
        "return": "true if the contract is paused, false otherwise."
      },
      "renounceOwnership()": {
        "details": "Allows the current owner to relinquish control of the contract."
      },
      "safeTransferFrom(address,address,uint256)": {
        "details": "Safely transfers the ownership of a given token ID to another address If the target address is a contract, it must implement `onERC721Received`, which is called upon a safe transfer, and return the magic value `bytes4(keccak256(\"onERC721Received(address,address,uint256,bytes)\"))`; otherwise, the transfer is reverted.   * Requires the msg sender to be the owner, approved, or operator",
        "params": {
          "from": "current owner of the token",
          "to": "address to receive the ownership of the given token ID",
          "tokenId": "uint256 ID of the token to be transferred"
        }
      },
      "safeTransferFrom(address,address,uint256,bytes)": {
        "details": "Safely transfers the ownership of a given token ID to another address If the target address is a contract, it must implement `onERC721Received`, which is called upon a safe transfer, and return the magic value `bytes4(keccak256(\"onERC721Received(address,address,uint256,bytes)\"))`; otherwise, the transfer is reverted. Requires the msg sender to be the owner, approved, or operator",
        "params": {
          "_data": "bytes data to send along with a safe transfer check",
          "from": "current owner of the token",
          "to": "address to receive the ownership of the given token ID",
          "tokenId": "uint256 ID of the token to be transferred"
        }
      },
      "supportsInterface(bytes4)": {
        "details": "implement supportsInterface(bytes4) using a lookup table"
      },
      "symbol()": {
        "details": "Gets the token symbol",
        "return": "string representing the token symbol"
      },
      "tokenByIndex(uint256)": {
        "details": "Gets the token ID at a given index of all the tokens in this contract Reverts if the index is greater or equal to the total number of tokens",
        "params": {
          "index": "uint256 representing the index to be accessed of the tokens list"
        },
        "return": "uint256 token ID at the given index of the tokens list"
      },
      "tokenOfOwnerByIndex(address,uint256)": {
        "details": "Gets the token ID at a given index of the tokens list of the requested owner",
        "params": {
          "index": "uint256 representing the index to be accessed of the requested tokens list",
          "owner": "address owning the tokens list to be accessed"
        },
        "return": "uint256 token ID at the given index of the tokens list owned by the requested address"
      },
      "tokenURI(uint256)": {
        "details": "Returns an URI for a given token ID Throws if the token ID does not exist. May return an empty string.",
        "params": {
          "tokenId": "uint256 ID of the token to query"
        }
      },
      "totalSupply()": {
        "details": "Gets the total amount of tokens stored by the contract",
        "return": "uint256 representing the total amount of tokens"
      },
      "transferOwnership(address)": {
        "details": "Allows the current owner to transfer control of the contract to a newOwner.",
        "params": {
          "newOwner": "The address to transfer ownership to."
        }
      },
      "unpause()": {
        "details": "called by the owner to unpause, returns to normal state"
      }
    }
  },
  "userdoc": {
    "methods": {
      "renounceOwnership()": {
        "notice": "Renouncing to ownership will leave the contract without an owner. It will not be possible to call the functions with the `onlyOwner` modifier anymore."
      }
    }
  }
}