{
  "contractName": "StudServiceV2",
  "abi": [
    {
      "constant": true,
      "inputs": [
        {
          "name": "",
          "type": "bytes32"
        }
      ],
      "name": "bloodlineWeights",
      "outputs": [
        {
          "name": "",
          "type": "uint256"
        }
      ],
      "payable": false,
      "stateMutability": "view",
      "type": "function"
    },
    {
      "constant": false,
      "inputs": [],
      "name": "renounceOwnership",
      "outputs": [],
      "payable": false,
      "stateMutability": "nonpayable",
      "type": "function"
    },
    {
      "constant": true,
      "inputs": [],
      "name": "owner",
      "outputs": [
        {
          "name": "",
          "type": "address"
        }
      ],
      "payable": false,
      "stateMutability": "view",
      "type": "function"
    },
    {
      "constant": true,
      "inputs": [],
      "name": "isOwner",
      "outputs": [
        {
          "name": "",
          "type": "bool"
        }
      ],
      "payable": false,
      "stateMutability": "view",
      "type": "function"
    },
    {
      "constant": true,
      "inputs": [
        {
          "name": "",
          "type": "bytes32"
        }
      ],
      "name": "breedTypeWeights",
      "outputs": [
        {
          "name": "",
          "type": "uint256"
        }
      ],
      "payable": false,
      "stateMutability": "view",
      "type": "function"
    },
    {
      "constant": false,
      "inputs": [
        {
          "name": "newOwner",
          "type": "address"
        }
      ],
      "name": "transferOwnership",
      "outputs": [],
      "payable": false,
      "stateMutability": "nonpayable",
      "type": "function"
    },
    {
      "anonymous": false,
      "inputs": [
        {
          "indexed": false,
          "name": "_horseId",
          "type": "uint256"
        },
        {
          "indexed": false,
          "name": "_matingPrice",
          "type": "uint256"
        },
        {
          "indexed": false,
          "name": "_duration",
          "type": "uint256"
        },
        {
          "indexed": false,
          "name": "_timestamp",
          "type": "uint256"
        }
      ],
      "name": "HorseInStud",
      "type": "event"
    },
    {
      "anonymous": false,
      "inputs": [
        {
          "indexed": true,
          "name": "previousOwner",
          "type": "address"
        }
      ],
      "name": "OwnershipRenounced",
      "type": "event"
    },
    {
      "anonymous": false,
      "inputs": [
        {
          "indexed": true,
          "name": "previousOwner",
          "type": "address"
        },
        {
          "indexed": true,
          "name": "newOwner",
          "type": "address"
        }
      ],
      "name": "OwnershipTransferred",
      "type": "event"
    },
    {
      "constant": false,
      "inputs": [
        {
          "name": "sender",
          "type": "address"
        }
      ],
      "name": "initialize",
      "outputs": [],
      "payable": false,
      "stateMutability": "nonpayable",
      "type": "function"
    },
    {
      "constant": false,
      "inputs": [
        {
          "name": "_owner",
          "type": "address"
        },
        {
          "name": "_core",
          "type": "address"
        },
        {
          "name": "_breedTypes",
          "type": "address"
        }
      ],
      "name": "initialize",
      "outputs": [],
      "payable": false,
      "stateMutability": "nonpayable",
      "type": "function"
    },
    {
      "constant": false,
      "inputs": [
        {
          "name": "_id",
          "type": "uint256"
        },
        {
          "name": "_matingPrice",
          "type": "uint256"
        },
        {
          "name": "_duration",
          "type": "uint256"
        }
      ],
      "name": "putInStud",
      "outputs": [],
      "payable": true,
      "stateMutability": "payable",
      "type": "function"
    },
    {
      "constant": true,
      "inputs": [
        {
          "name": "_id",
          "type": "uint256"
        }
      ],
      "name": "getMinimumBreedPrice",
      "outputs": [
        {
          "name": "",
          "type": "uint256"
        }
      ],
      "payable": false,
      "stateMutability": "view",
      "type": "function"
    },
    {
      "constant": false,
      "inputs": [
        {
          "name": "_id",
          "type": "bytes32"
        },
        {
          "name": "_result",
          "type": "string"
        }
      ],
      "name": "__callback",
      "outputs": [],
      "payable": false,
      "stateMutability": "nonpayable",
      "type": "function"
    },
    {
      "constant": false,
      "inputs": [
        {
          "name": "myid",
          "type": "bytes32"
        },
        {
          "name": "result",
          "type": "string"
        },
        {
          "name": "proof",
          "type": "bytes"
        }
      ],
      "name": "__callback",
      "outputs": [],
      "payable": false,
      "stateMutability": "nonpayable",
      "type": "function"
    },
    {
      "constant": false,
      "inputs": [
        {
          "name": "_id",
          "type": "uint256"
        }
      ],
      "name": "removeFromStud",
      "outputs": [],
      "payable": false,
      "stateMutability": "nonpayable",
      "type": "function"
    },
    {
      "constant": true,
      "inputs": [
        {
          "name": "_id",
          "type": "uint256"
        }
      ],
      "name": "studInfo",
      "outputs": [
        {
          "name": "",
          "type": "bool"
        },
        {
          "name": "",
          "type": "uint256"
        },
        {
          "name": "",
          "type": "uint256"
        },
        {
          "name": "",
          "type": "uint256"
        }
      ],
      "payable": false,
      "stateMutability": "view",
      "type": "function"
    },
    {
      "constant": true,
      "inputs": [
        {
          "name": "_id",
          "type": "uint256"
        }
      ],
      "name": "isHorseInStud",
      "outputs": [
        {
          "name": "",
          "type": "bool"
        }
      ],
      "payable": false,
      "stateMutability": "view",
      "type": "function"
    },
    {
      "constant": true,
      "inputs": [
        {
          "name": "_id",
          "type": "uint256"
        }
      ],
      "name": "matingPrice",
      "outputs": [
        {
          "name": "",
          "type": "uint256"
        }
      ],
      "payable": false,
      "stateMutability": "view",
      "type": "function"
    },
    {
      "constant": true,
      "inputs": [
        {
          "name": "_id",
          "type": "uint256"
        }
      ],
      "name": "studTime",
      "outputs": [
        {
          "name": "",
          "type": "uint256"
        }
      ],
      "payable": false,
      "stateMutability": "view",
      "type": "function"
    },
    {
      "constant": false,
      "inputs": [],
      "name": "getQueryPrice",
      "outputs": [
        {
          "name": "",
          "type": "uint256"
        }
      ],
      "payable": false,
      "stateMutability": "nonpayable",
      "type": "function"
    },
    {
      "constant": true,
      "inputs": [],
      "name": "getHorsesInStud",
      "outputs": [
        {
          "name": "",
          "type": "uint256[]"
        }
      ],
      "payable": false,
      "stateMutability": "view",
      "type": "function"
    },
    {
      "constant": false,
      "inputs": [
        {
          "name": "_timeframe",
          "type": "uint256"
        }
      ],
      "name": "addTimeframe",
      "outputs": [],
      "payable": false,
      "stateMutability": "nonpayable",
      "type": "function"
    },
    {
      "constant": false,
      "inputs": [
        {
          "name": "_horseId",
          "type": "uint256"
        }
      ],
      "name": "removeHorseOwner",
      "outputs": [],
      "payable": false,
      "stateMutability": "nonpayable",
      "type": "function"
    },
    {
      "constant": false,
      "inputs": [
        {
          "name": "_horseId",
          "type": "uint256"
        }
      ],
      "name": "makeAvailableForStud",
      "outputs": [],
      "payable": false,
      "stateMutability": "nonpayable",
      "type": "function"
    },
    {
      "constant": false,
      "inputs": [
        {
          "name": "_breedTypes",
          "type": "address"
        }
      ],
      "name": "setBreedTypesAddr",
      "outputs": [],
      "payable": false,
      "stateMutability": "nonpayable",
      "type": "function"
    }
  ],
  "bytecode": "0x608060405234801561001057600080fd5b50612a8e806100206000396000f3006080604052600436106101195763ffffffff60e060020a6000350416630b549884811461011e5780630bd1c1ec146101485780630c5466301461016057806327dc297e1461017a5780632eb1482a146101d857806338bbfa5014610204578063395eec79146102a0578063587f2e50146102e0578063715018a6146102f15780637dbdc2eb14610306578063835425411461031b5780638da5cb5b146103335780638f32d59b146103645780639acb382414610379578063b25c70fd146103de578063ba264b5c146103f6578063bbac3d581461040e578063c0c53b8b14610426578063c4d66de814610453578063d7a348d014610474578063e57f5a1d1461048c578063eeb021cd146104a4578063f2fde38b146104c5575b600080fd5b34801561012a57600080fd5b506101366004356104e6565b60408051918252519081900360200190f35b34801561015457600080fd5b506101366004356104fb565b34801561016c57600080fd5b5061017860043561050d565b005b34801561018657600080fd5b5060408051602060046024803582810135601f810185900485028601850190965285855261017895833595369560449491939091019190819084018382808284375094975061053b9650505050505050565b3480156101e457600080fd5b506101f06004356105fa565b604080519115158252519081900360200190f35b34801561021057600080fd5b5060408051602060046024803582810135601f810185900485028601850190965285855261017895833595369560449491939091019190819084018382808284375050604080516020601f89358b018035918201839004830284018301909452808352979a99988101979196509182019450925082915084018382808284375094975061060f9650505050505050565b3480156102ac57600080fd5b506102b8600435610614565b6040805194151585526020850193909352838301919091526060830152519081900360800190f35b610178600435602435604435610676565b3480156102fd57600080fd5b50610178610d44565b34801561031257600080fd5b50610136610da1565b34801561032757600080fd5b50610136600435610de7565b34801561033f57600080fd5b50610348610dfc565b60408051600160a060020a039092168252519081900360200190f35b34801561037057600080fd5b506101f0610e0b565b34801561038557600080fd5b5061038e610e1c565b60408051602080825283518183015283519192839290830191858101910280838360005b838110156103ca5781810151838201526020016103b2565b505050509050019250505060405180910390f35b3480156103ea57600080fd5b50610136600435610e74565b34801561040257600080fd5b5061013660043561107b565b34801561041a57600080fd5b5061017860043561108d565b34801561043257600080fd5b50610178600160a060020a03600435811690602435811690604435166110b8565b34801561045f57600080fd5b50610178600160a060020a03600435166113d9565b34801561048057600080fd5b506101786004356114cc565b34801561049857600080fd5b50610178600435611510565b3480156104b057600080fd5b50610178600160a060020a0360043516611695565b3480156104d157600080fd5b50610178600160a060020a03600435166116ca565b60009081526071602052604090206001015490565b606f6020526000908152604090205481565b610515610e0b565b151561052057600080fd5b6000908152607360205260409020805460ff19166001179055565b60006105456116e6565b600160a060020a031633146105a4576040805160e560020a62461bcd02815260206004820152600e60248201527f5353206e6f744f7261636c697a65000000000000000000000000000000000000604482015290519081900360640190fd5b6105ad826118db565b6000818152607160205260408120805460ff1916815560018101829055600281018290556003015590506105e0816118ee565b6000908152607460205260409020805460ff191690555050565b60009081526071602052604090205460ff1690565b505050565b600080600080610622612983565b50505060009283525050607160209081526040918290208251608081018452815460ff1615158082526001830154938201849052600283015494820185905260039092015460609091018190529093919291565b60008060608086606d60009054906101000a9004600160a060020a0316600160a060020a0316636352211e826040518263ffffffff1660e060020a02815260040180828152602001915050602060405180830381600087803b1580156106db57600080fd5b505af11580156106ef573d6000803e3d6000fd5b505050506040513d602081101561070557600080fd5b5051600160a060020a03163314610766576040805160e560020a62461bcd02815260206004820152601260248201527f5353206e6f744f776e65724f66486f7273650000000000000000000000000000604482015290519081900360640190fd5b606d54604080517f4f558e79000000000000000000000000000000000000000000000000000000008152600481018b90529051600160a060020a0390921691634f558e79916024808201926020929091908290030181600087803b1580156107cd57600080fd5b505af11580156107e1573d6000803e3d6000fd5b505050506040513d60208110156107f757600080fd5b5051151561084f576040805160e560020a62461bcd02815260206004820152601460248201527f535320686f727365446f65734e6f744578697374000000000000000000000000604482015290519081900360640190fd5b606d54604080517f76fe8228000000000000000000000000000000000000000000000000000000008152600481018b90529051600160a060020a03909216916376fe8228916024808201926020929091908290030181600087803b1580156108b657600080fd5b505af11580156108ca573d6000803e3d6000fd5b505050506040513d60208110156108e057600080fd5b50517f4d0000000000000000000000000000000000000000000000000000000000000014610958576040805160e560020a62461bcd02815260206004820152601160248201527f535320686f72736549734e6f744d616c65000000000000000000000000000000604482015290519081900360640190fd5b6109966040805190810160405280600381526020017f55524c0000000000000000000000000000000000000000000000000000000000815250611986565b3410156109ed576040805160e560020a62461bcd02815260206004820152601660248201527f5353206f7261636c697a6550726963654e6f744d657400000000000000000000604482015290519081900360640190fd5b60008881526074602052604090205460ff1615610a54576040805160e560020a62461bcd02815260206004820152601060248201527f535320686f7273654973496e5374756400000000000000000000000000000000604482015290519081900360640190fd5b620151809450610a6388610e74565b935083871015610ae3576040805160e560020a62461bcd02815260206004820152602860248201527f5353206d6174696e6750726963654c6f7765725468616e4d696e696d756d427260448201527f6565645072696365000000000000000000000000000000000000000000000000606482015290519081900360840190fd5b60008681526073602052604090205460ff1615610afe578594505b60806040519081016040528060011515815260200188815260200186815260200142815250607160008a815260200190815260200160002060008201518160000160006101000a81548160ff0219169083151502179055506020820151816001015560408201518160020155606082015181600301559050506001606c899080600181540180825580915050906001820390600052602060002001600090919290919091505503607260008a815260200190815260200160002081905550606060405190810160405280603b81526020017f6a736f6e2868747470733a2f2f6170692e7a65642e72756e2f6170692f76312f81526020017f72656d6f76655f686f7273655f73747564292e686f7273655f696400000000008152509250610c966040805190810160405280600d81526020017f7b22737475645f696e666f223a00000000000000000000000000000000000000815250610c5d8a611bee565b60408051808201909152600181527f7d000000000000000000000000000000000000000000000000000000000000006020820152611ce1565b9150610cd9856040805190810160405280600381526020017f55524c00000000000000000000000000000000000000000000000000000000008152508585611d18565b50600088815260746020908152604091829020805460ff1916600117905581518a815290810189905280820187905242606082015290517f597b23690eff5a748e9caeb1673aca23d360fa4591de869f7dfd0ce30408e0b59181900360800190a15050505050505050565b610d4c610e0b565b1515610d5757600080fd5b603354604051600160a060020a03909116907ff8df31144d9c2f0f6b59d69b8b98abd5459d07f2742c4df920b25aae33c6482090600090a260338054600160a060020a0319169055565b6000610de16040805190810160405280600381526020017f55524c0000000000000000000000000000000000000000000000000000000000815250611986565b90505b90565b60009081526071602052604090206002015490565b603354600160a060020a031690565b603354600160a060020a0316331490565b6060606c805480602002602001604051908101604052809291908181526020018280548015610e6a57602002820191906000526020600020905b815481526020019060010190808311610e56575b5050505050905090565b600080600080600080606e60009054906101000a9004600160a060020a0316600160a060020a0316635ff62a9d886040518263ffffffff1660e060020a02815260040180828152602001915050602060405180830381600087803b158015610edb57600080fd5b505af1158015610eef573d6000803e3d6000fd5b505050506040513d6020811015610f0557600080fd5b50519350831515610f38577f67656e65736973000000000000000000000000000000000000000000000000009450610f3c565b8394505b606d54604080517f7866ed6e000000000000000000000000000000000000000000000000000000008152600481018a90529051600160a060020a0390921691637866ed6e916024808201926020929091908290030181600087803b158015610fa357600080fd5b505af1158015610fb7573d6000803e3d6000fd5b505050506040513d6020811015610fcd57600080fd5b50516000818152606f602052604090205490935061100c9060649061100090670b1a2bc2ec50000063ffffffff61217a16565b9063ffffffff6121b316565b60008681526070602052604090205490925061103d90606490611000906702c68af0bb14000063ffffffff61217a16565b9050611070670de0b6b3a7640000611000606b5461106485876121d690919063ffffffff16565b9063ffffffff61217a16565b979650505050505050565b60706020526000908152604090205481565b611095610e0b565b15156110a057600080fd5b6000908152607460205260409020805460ff19169055565b60008054610100900460ff16806110d257506110d26121e8565b806110e0575060005460ff16155b151561115c576040805160e560020a62461bcd02815260206004820152602e60248201527f436f6e747261637420696e7374616e63652068617320616c726561647920626560448201527f656e20696e697469616c697a6564000000000000000000000000000000000000606482015290519081900360840190fd5b5060008054600161010061ff00198316811760ff1916919091179092550460ff16611186846113d9565b606d8054600160a060020a03948516600160a060020a031991821617909155606e80549390941692169190911790915560b47f7662babbb5b33fddb00fe8b511f0e6508edfcfaa391d071c14dd9061442a678b81905560787f9f02bea01649200206ea058c71bd9d6d0c0522cb371ab4d27372feb042db8e4981905560287f4b9d5a0b6cbc57da2d54dc90f77b2316b3ab27ecbf767199eeeb897c46f3ebe855600f7fe53aab8a803cbc7d517390fcd913e27db230009360f9d62bc9b3b904aeab6f43557f035a3954d369d6aad32274becbe216f33066b08e5b2ea547e7f87d348b58b7479190915560967f83a4f5b1a88ae7a303b85c17ebea08deb35562e9df1b8881035f967a18bfcb59557f064d818bec8a4bef23cd7c41a63156a8ff1f7b08415c0471fb6e4199fc2bd73855605a7f46f065e223b69f0a62bcdb296ee4b2f320ddfa034f911466f807b5ff8d4682b35560507ff216848ed00b73cde48e87307242b375ffbe36cb926bdcd2233fa8e8cc01b00d55603c7f2d2ad8074a878dbc6856c50e92ba027ab59dac0df56bb52e4d5965e6a7e536ba5560736020527f1d28bc6c3a089f072e2dce8422dd919542724575614e3dea292307a38be9b71f805460ff1990811660019081179092557f27fd7326242c03e675756845aad6302cad3d4bafc5bc57579d9235128a2b56b4805482168317905562093a8060009081527f1f411e6689b7340f2ccfae9d77085b490fc28ee5ecafc4a9770a882a7285f0498054909216909217905567058d15e176280000606b5580549115156101000261ff001990921691909117905550565b60008054610100900460ff16806113f357506113f36121e8565b80611401575060005460ff16155b151561147d576040805160e560020a62461bcd02815260206004820152602e60248201527f436f6e747261637420696e7374616e63652068617320616c726561647920626560448201527f656e20696e697469616c697a6564000000000000000000000000000000000000606482015290519081900360840190fd5b506000805460338054600160a060020a031916600160a060020a03949094169390931790925561ff001980831661010090811760ff19166001179091169281900460ff16151502919091179055565b6114d4610e0b565b15156114df57600080fd5b6000818152607160205260408120805460ff191681556001810182905560028101829055600301556110a0816118ee565b606d54604080517f6352211e000000000000000000000000000000000000000000000000000000008152600481018490529051600160a060020a0390921691636352211e916024808201926020929091908290030181600087803b15801561157757600080fd5b505af115801561158b573d6000803e3d6000fd5b505050506040513d60208110156115a157600080fd5b5051600160a060020a03163314611602576040805160e560020a62461bcd02815260206004820152600f60248201527f535320756e617574686f72697a65640000000000000000000000000000000000604482015290519081900360640190fd5b61160b816105fa565b1515611661576040805160e560020a62461bcd02815260206004820152601360248201527f535320686f72736549734e6f74496e5374756400000000000000000000000000604482015290519081900360640190fd5b6000818152607160205260408120805460ff19168155600181018290556002810182905560030155611692816118ee565b50565b61169d610e0b565b15156116a857600080fd5b606e8054600160a060020a031916600160a060020a0392909216919091179055565b6116d2610e0b565b15156116dd57600080fd5b611692816121f2565b606654600090600160a060020a03161580611713575060665461171190600160a060020a0316612263565b155b15611724576117226000612267565b505b606660009054906101000a9004600160a060020a0316600160a060020a03166338cc48316040518163ffffffff1660e060020a028152600401602060405180830381600087803b15801561177757600080fd5b505af115801561178b573d6000803e3d6000fd5b505050506040513d60208110156117a157600080fd5b5051606754600160a060020a0390811691161461185757606660009054906101000a9004600160a060020a0316600160a060020a03166338cc48316040518163ffffffff1660e060020a028152600401602060405180830381600087803b15801561180b57600080fd5b505af115801561181f573d6000803e3d6000fd5b505050506040513d602081101561183557600080fd5b505160678054600160a060020a031916600160a060020a039092169190911790555b606760009054906101000a9004600160a060020a0316600160a060020a031663c281d19e6040518163ffffffff1660e060020a028152600401602060405180830381600087803b1580156118aa57600080fd5b505af11580156118be573d6000803e3d6000fd5b505050506040513d60208110156118d457600080fd5b5051905090565b60006118e8826000612271565b92915050565b600081815260726020526040812054606c805491926000198301929091908390811061191657fe5b9060005260206000200154905080606c8481548110151561193357fe5b6000918252602080832090910192909255828152607290915260409020839055606c80548390811061196157fe5b6000918252602082200155606c80549061197f9060001983016129ae565b5050505050565b606654600090600160a060020a031615806119b357506066546119b190600160a060020a0316612263565b155b156119c4576119c26000612267565b505b606660009054906101000a9004600160a060020a0316600160a060020a03166338cc48316040518163ffffffff1660e060020a028152600401602060405180830381600087803b158015611a1757600080fd5b505af1158015611a2b573d6000803e3d6000fd5b505050506040513d6020811015611a4157600080fd5b5051606754600160a060020a03908116911614611af757606660009054906101000a9004600160a060020a0316600160a060020a03166338cc48316040518163ffffffff1660e060020a028152600401602060405180830381600087803b158015611aab57600080fd5b505af1158015611abf573d6000803e3d6000fd5b505050506040513d6020811015611ad557600080fd5b505160678054600160a060020a031916600160a060020a039092169190911790555b6067546040517f524f3889000000000000000000000000000000000000000000000000000000008152602060048201818152855160248401528551600160a060020a039094169363524f388993879383926044909201919085019080838360005b83811015611b70578181015183820152602001611b58565b50505050905090810190601f168015611b9d5780820380516001836020036101000a031916815260200191505b5092505050602060405180830381600087803b158015611bbc57600080fd5b505af1158015611bd0573d6000803e3d6000fd5b505050506040513d6020811015611be657600080fd5b505192915050565b60606000808281851515611c375760408051808201909152600181527f300000000000000000000000000000000000000000000000000000000000000060208201529450611cd8565b8593505b8315611c5257600190920191600a84049350611c3b565b826040519080825280601f01601f191660200182016040528015611c80578160200160208202803883390190505b5091505060001982015b8515611cd457815160001982019160f860020a6030600a8a060102918491908110611cb157fe5b906020010190600160f860020a031916908160001a905350600a86049550611c8a565b8194505b50505050919050565b6060611d10848484602060405190810160405280600081525060206040519081016040528060008152506123e3565b949350505050565b6066546000908190600160a060020a03161580611d475750606654611d4590600160a060020a0316612263565b155b15611d5857611d566000612267565b505b606660009054906101000a9004600160a060020a0316600160a060020a03166338cc48316040518163ffffffff1660e060020a028152600401602060405180830381600087803b158015611dab57600080fd5b505af1158015611dbf573d6000803e3d6000fd5b505050506040513d6020811015611dd557600080fd5b5051606754600160a060020a03908116911614611e8b57606660009054906101000a9004600160a060020a0316600160a060020a03166338cc48316040518163ffffffff1660e060020a028152600401602060405180830381600087803b158015611e3f57600080fd5b505af1158015611e53573d6000803e3d6000fd5b505050506040513d6020811015611e6957600080fd5b505160678054600160a060020a031916600160a060020a039092169190911790555b6067546040517f524f3889000000000000000000000000000000000000000000000000000000008152602060048201818152885160248401528851600160a060020a039094169363524f3889938a9383926044909201919085019080838360005b83811015611f04578181015183820152602001611eec565b50505050905090810190601f168015611f315780820380516001836020036101000a031916815260200191505b5092505050602060405180830381600087803b158015611f5057600080fd5b505af1158015611f64573d6000803e3d6000fd5b505050506040513d6020811015611f7a57600080fd5b50519050670de0b6b3a764000062030d403a0201811115611f9e5760009150612171565b6067546040517f7722865900000000000000000000000000000000000000000000000000000000815260048101888152608060248301908152885160848401528851600160a060020a039094169363772286599386938c938c938c938c9392916044820191606481019160a490910190602089019080838360005b83811015612031578181015183820152602001612019565b50505050905090810190601f16801561205e5780820380516001836020036101000a031916815260200191505b50848103835286518152865160209182019188019080838360005b83811015612091578181015183820152602001612079565b50505050905090810190601f1680156120be5780820380516001836020036101000a031916815260200191505b50848103825285518152855160209182019187019080838360005b838110156120f15781810151838201526020016120d9565b50505050905090810190601f16801561211e5780820380516001836020036101000a031916815260200191505b509750505050505050506020604051808303818588803b15801561214157600080fd5b505af1158015612155573d6000803e3d6000fd5b50505050506040513d602081101561216c57600080fd5b505191505b50949350505050565b60008083151561218d57600091506121ac565b5082820282848281151561219d57fe5b04146121a857600080fd5b8091505b5092915050565b6000808083116121c257600080fd5b82848115156121cd57fe5b04949350505050565b6000828201838110156121a857600080fd5b303b8015905b5090565b600160a060020a038116151561220757600080fd5b603354604051600160a060020a038084169216907f8be0079c531659141344cd1fd0a4f28419497f9722a3daafe3b4186f6b6457e090600090a360338054600160a060020a031916600160a060020a0392909216919091179055565b3b90565b60006118e8612644565b6000828180805b83518110156123c65783517f3000000000000000000000000000000000000000000000000000000000000000908590839081106122b157fe5b90602001015160f860020a900460f860020a02600160f860020a03191610158015612327575083517f39000000000000000000000000000000000000000000000000000000000000009085908390811061230757fe5b90602001015160f860020a900460f860020a02600160f860020a03191611155b156123805781156123465785151561233e576123c6565b600019909501945b600a830292506030848281518110151561235c57fe5b90602001015160f860020a900460f860020a0260f860020a900403830192506123be565b838181518110151561238e57fe5b90602001015160f860020a900460f860020a02600160f860020a031916602e60f860020a0214156123be57600191505b600101612278565b60008611156123d85785600a0a830292505b509095945050505050565b6060806060806060806060806000808e98508d97508c96508b95508a94508451865188518a518c51010101016040519080825280601f01601f19166020018201604052801561243c578160200160208202803883390190505b50935083925060009150600090505b88518110156124a957888181518110151561246257fe5b90602001015160f860020a900460f860020a02838380600101945081518110151561248957fe5b906020010190600160f860020a031916908160001a90535060010161244b565b5060005b875181101561250b5787818151811015156124c457fe5b90602001015160f860020a900460f860020a0283838060010194508151811015156124eb57fe5b906020010190600160f860020a031916908160001a9053506001016124ad565b5060005b865181101561256d57868181518110151561252657fe5b90602001015160f860020a900460f860020a02838380600101945081518110151561254d57fe5b906020010190600160f860020a031916908160001a90535060010161250f565b5060005b85518110156125cf57858181518110151561258857fe5b90602001015160f860020a900460f860020a0283838060010194508151811015156125af57fe5b906020010190600160f860020a031916908160001a905350600101612571565b5060005b84518110156126315784818151811015156125ea57fe5b90602001015160f860020a900460f860020a02838380600101945081518110151561261157fe5b906020010190600160f860020a031916908160001a9053506001016125d3565b50909d9c50505050505050505050505050565b600080612664731d3b2638a7cc9f2cb3d298a3da7a90b67e5506ed612263565b11156126d55760668054600160a060020a031916731d3b2638a7cc9f2cb3d298a3da7a90b67e5506ed17905560408051808201909152600b81527f6574685f6d61696e6e657400000000000000000000000000000000000000000060208201526126cd9061296c565b506001610de4565b60006126f473c03a2615d5efaf5f49f60b7bb6583eaec212fdf1612263565b111561275d5760668054600160a060020a03191673c03a2615d5efaf5f49f60b7bb6583eaec212fdf117905560408051808201909152600c81527f6574685f726f707374656e33000000000000000000000000000000000000000060208201526126cd9061296c565b600061277c73b7a07bcf2ba2f2703b24c0691b5278999c59ac7e612263565b11156127e55760668054600160a060020a03191673b7a07bcf2ba2f2703b24c0691b5278999c59ac7e17905560408051808201909152600981527f6574685f6b6f76616e000000000000000000000000000000000000000000000060208201526126cd9061296c565b600061280473146500cfd35b22e4a392fe0adc06de1a1368ed48612263565b111561286d5760668054600160a060020a03191673146500cfd35b22e4a392fe0adc06de1a1368ed4817905560408051808201909152600b81527f6574685f72696e6b65627900000000000000000000000000000000000000000060208201526126cd9061296c565b600061288c736f485c8bf6fc43ea212e93bbf8ce046c7f1cb475612263565b11156128c0575060668054600160a060020a031916736f485c8bf6fc43ea212e93bbf8ce046c7f1cb4751790556001610de4565b60006128df7320e12a1f859b3feae5fb2a0a32c18f5a65555bbf612263565b1115612913575060668054600160a060020a0319167320e12a1f859b3feae5fb2a0a32c18f5a65555bbf1790556001610de4565b60006129327351efaf4c8b3c9afbd5ab9f4bbc82784ab6ef8faa612263565b1115612966575060668054600160a060020a0319167351efaf4c8b3c9afbd5ab9f4bbc82784ab6ef8faa1790556001610de4565b50600090565b805161297f9060689060208401906129d2565b5050565b6080604051908101604052806000151581526020016000815260200160008152602001600081525090565b81548183558181111561060f5760008381526020902061060f918101908301612a48565b828054600181600116156101000203166002900490600052602060002090601f016020900481019282601f10612a1357805160ff1916838001178555612a40565b82800160010185558215612a40579182015b82811115612a40578251825591602001919060010190612a25565b506121ee9291505b610de491905b808211156121ee5760008155600101612a4e5600a165627a7a72305820b56e2a96dc09bc3da9867f9b42982cb1a5618767353862b3ea18d760dea90eac0029",
  "source": "pragma solidity ^0.4.24;\n\nimport \"./Core.sol\";\nimport \"./BreedTypes.sol\";\nimport \"./usingOraclize.sol\";\nimport \"zos-lib/contracts/Initializable.sol\";\nimport \"openzeppelin-eth/contracts/math/SafeMath.sol\";\nimport \"openzeppelin-eth/contracts/ownership/Ownable.sol\";\n\n/*\n@description StudServiceV2 introducing new pricing model. Refer to StudService for the old one.\n*/\ncontract StudServiceV2 is Ownable, usingOraclize {\n    using SafeMath for uint256;\n\n    uint256 baseFee;\n    uint256[] horsesInStud;\n\n    Core core;\n    BreedTypes breedTypes;\n\n    struct StudInfoV2 {\n        bool inStud;\n\n        uint256 matingPrice;\n        uint256 duration;\n        uint256 studCreatedAt;\n    }\n\n    mapping(bytes32 => uint256) public bloodlineWeights;\n    mapping(bytes32 => uint256) public breedTypeWeights;\n\n    mapping(uint256 => StudInfoV2) internal studs;\n    mapping(uint256 => uint256) internal horseIndex;\n\n    mapping(uint256 => bool) internal timeframes;\n\n    /*\n    @dev We only remove the horse from the mapping ONCE the '__callback' is called, this is for a reason.\n    For Studs we use Oraclize as a service for queries in the future but we also have a function\n    to manually remove the horse from stud but this does not cancel the\n    query that was already sent, so the horse is blocked from being in Stud again until the\n    callback is called and effectively removing it from stud.\n\n    Main case: User puts horse in stud, horse is manually removed, horse is put in stud\n    again thus creating another query, this time the user decides to leave the horse\n    for the whole period of time but the first query which couldn't be cancelled is\n    executed, calling the '__callback' function and removing the horse from Stud and leaving\n    yet another query in air.\n    */\n\n    mapping(uint256 => bool) internal currentlyInStud;\n\n    modifier onlyHorseOwner(uint256 _id) {\n        require(msg.sender == core.ownerOf(_id), \"SS notOwnerOfHorse\");\n        _;\n    }\n\n    function initialize(address _owner, address _core, address _breedTypes) public initializer {\n        Ownable.initialize(_owner);\n        core = Core(_core);\n        breedTypes = BreedTypes(_breedTypes);\n\n        // Nakamoto - Szabo - Finney - Buterin\n        bloodlineWeights[bytes32(\"N\")] = 180;\n        bloodlineWeights[bytes32(\"S\")] = 120;\n        bloodlineWeights[bytes32(\"F\")] = 40;\n        bloodlineWeights[bytes32(\"B\")] = 15;\n\n        // Genesis - Legendary - Exclusive - Elite - Cross - Pacer\n        breedTypeWeights[bytes32(\"genesis\")] = 180;\n        breedTypeWeights[bytes32(\"legendary\")] = 150;\n        breedTypeWeights[bytes32(\"exclusive\")] = 120;\n        breedTypeWeights[bytes32(\"elite\")] = 90;\n        breedTypeWeights[bytes32(\"cross\")] = 80;\n        breedTypeWeights[bytes32(\"pacer\")] = 60;\n\n        timeframes[86400] = true;\n        timeframes[259200] = true;\n        timeframes[604800] = true;\n\n        baseFee = 0.4 ether;\n\n        // OAR = OraclizeAddrResolverI(0x6f485C8BF6fc43eA212E93BBF8ce046C7f1cb475);\n    }\n\n    event HorseInStud(uint256 _horseId, uint256 _matingPrice, uint256 _duration, uint256 _timestamp);\n\n    // we don't need to check here if the horse is on sale or not, this is done by default because\n    // the horse is transferred to another address (Core) when the user puts the horse on auction,\n    // this means they won't be able to place them here as they're not the owner of the horse\n    function putInStud(uint256 _id, uint256 _matingPrice, uint256 _duration) public payable onlyHorseOwner(_id) {\n        // We're checking the horse exists because we're relying on the breed type for genesis to be a default value.\n        // this way we don't get false positives for horses that don't exist\n        require(core.exists(_id), \"SS horseDoesNotExist\");\n        require(bytes32(\"M\") == core.getHorseSex(_id), \"SS horseIsNotMale\");\n        require(msg.value >= oraclize_getPrice(\"URL\"), \"SS oraclizePriceNotMet\");\n        require(!currentlyInStud[_id], \"SS horseIsInStud\");\n\n        // if we happen to receive another time we're going to default to 1 day.\n        uint256 duration = 86400;\n        uint256 minimumBreedPrice = getMinimumBreedPrice(_id);\n\n        require(_matingPrice >= minimumBreedPrice, \"SS matingPriceLowerThanMinimumBreedPrice\");\n\n        // if specified timeframe does not exist, fallback to default\n        if(timeframes[_duration]) {\n            duration = _duration;\n        }\n\n        studs[_id] = StudInfoV2(true, _matingPrice, duration, now);\n\n        horseIndex[_id] = horsesInStud.push(_id) - 1;\n\n        string memory url = \"json(https://api.zed.run/api/v1/remove_horse_stud).horse_id\";\n        string memory payload = strConcat(\"{\\\"stud_info\\\":\", uint2str(_id), \"}\");\n\n        oraclize_query(duration, \"URL\", url, payload);\n\n        currentlyInStud[_id] = true;\n\n        emit HorseInStud(_id, _matingPrice, duration, now);\n    }\n\n    function getMinimumBreedPrice(uint256 _id) public view returns(uint256) {\n        bytes32 breedType;\n        bytes32 breedTypeFromContract = breedTypes.getBreedType(_id);\n\n        // If the horse exists and the returned value from breed type is the default one (0x00000...)\n        // it means it is a genesis horse. Otherwise we will just stick to the value returned by the call\n        if(breedTypeFromContract == bytes32(0)) {\n            breedType = bytes32(\"genesis\");\n        } else {\n            breedType = breedTypeFromContract;\n        }\n\n        // Get horse data\n        bytes32 bloodline = core.getBloodline(_id);\n        uint256 bloodlineWeight = bloodlineWeights[bloodline].mul(0.80 ether).div(100);\n        uint256 breedWeight = breedTypeWeights[breedType].mul(0.20 ether).div(100);\n\n        return bloodlineWeight.add(breedWeight).mul(baseFee).div(1 ether);\n    }\n\n    function __callback(bytes32 _id, string _result) public {\n        require(msg.sender == oraclize_cbAddress(), \"SS notOraclize\");\n\n        uint256 horseId = parseInt(_result);\n\n        // manually remove the horse from stud since removeFromStud/1 allos only the owner\n        delete studs[horseId];\n        _removeHorseFromStud(horseId);\n\n        currentlyInStud[horseId] = false;\n    }\n\n    function removeFromStud(uint256 _id) public {\n        require(msg.sender == core.ownerOf(_id), \"SS unauthorized\");\n        require(isHorseInStud(_id), \"SS horseIsNotInStud\");\n\n        delete studs[_id];\n        // The horse will be removed from Stud (Will not be visible) but whoever is the owner will have\n        // to wait for the initial cooldown or that '__callback' is called to be able to put the horse\n        // in stud again, unless 'removeHorseOWN/1' is called by the 'owner'.\n        _removeHorseFromStud(_id);\n    }\n\n    function studInfo(uint256 _id) public view returns(bool, uint256, uint256, uint256) {\n        StudInfoV2 memory s = studs[_id];\n\n        return(s.inStud, s.matingPrice, s.duration, s.studCreatedAt);\n    }\n\n    function isHorseInStud(uint256 _id) public view returns(bool) {\n        return studs[_id].inStud;\n    }\n\n    function matingPrice(uint256 _id) public view returns(uint256) {\n        return studs[_id].matingPrice;\n    }\n\n    function studTime(uint256 _id) public view returns(uint256) {\n        return studs[_id].duration;\n    }\n\n    function getQueryPrice() public returns(uint256) {\n        return oraclize_getPrice(\"URL\");\n    }\n\n    function getHorsesInStud() public view returns(uint256[]) {\n        return horsesInStud;\n    }\n\n    /*      RESTRICTED      */\n\n    function addTimeframe(uint256 _timeframe) public onlyOwner() {\n        timeframes[_timeframe] = true;\n    }\n\n    function removeHorseOwner(uint256 _horseId) public onlyOwner() {\n        delete studs[_horseId];\n        _removeHorseFromStud(_horseId);\n\n        currentlyInStud[_horseId] = false;\n    }\n\n    function makeAvailableForStud(uint256 _horseId) public onlyOwner() {\n        currentlyInStud[_horseId] = false;\n    }\n\n    function setBreedTypesAddr(address _breedTypes) public onlyOwner() {\n        breedTypes = BreedTypes(_breedTypes);\n    }\n\n    /*      PRIVATE     */\n\n    // We move the last horse to the index of the horse we're about to remove\n    // then delete the last horse from the list.\n    function _removeHorseFromStud(uint256 _horseId) private {\n        uint256 index = horseIndex[_horseId];\n        uint256 lastHorseIndex = horsesInStud.length - 1;\n        uint256 lastHorse = horsesInStud[lastHorseIndex];\n\n        // We need to reassign the index of the last horse, otherwise it'd be out of bounds\n        // and the transaction will fail.\n        horsesInStud[index] = lastHorse;\n        horseIndex[lastHorse] = index;\n\n        delete horsesInStud[lastHorseIndex];\n\n        horsesInStud.length--;\n    }\n}\n",
  "sourcePath": "/Users/eswarasai/Sites/ZED/cryptofield-core/contracts/StudServiceV2.sol",
  "compiler": {
    "name": "solc",
    "version": "0.4.24+commit.e67f0147.Emscripten.clang"
  },
  "schemaVersion": "3.0.6",
  "updatedAt": "2019-06-11T20:54:33.307Z",
  "devdoc": {
    "methods": {
      "initialize(address)": {
        "details": "The Ownable constructor sets the original `owner` of the contract to the sender account."
      },
      "isOwner()": {
        "return": "true if `msg.sender` is the owner of the contract."
      },
      "owner()": {
        "return": "the address of the owner."
      },
      "renounceOwnership()": {
        "details": "Allows the current owner to relinquish control of the contract."
      },
      "transferOwnership(address)": {
        "details": "Allows the current owner to transfer control of the contract to a newOwner.",
        "params": {
          "newOwner": "The address to transfer ownership to."
        }
      }
    }
  },
  "userdoc": {
    "methods": {
      "renounceOwnership()": {
        "notice": "Renouncing to ownership will leave the contract without an owner. It will not be possible to call the functions with the `onlyOwner` modifier anymore."
      }
    }
  }
}