{
  "contractName": "Token",
  "abi": [
    {
      "constant": true,
      "inputs": [
        {
          "name": "interfaceId",
          "type": "bytes4"
        }
      ],
      "name": "supportsInterface",
      "outputs": [
        {
          "name": "",
          "type": "bool"
        }
      ],
      "payable": false,
      "stateMutability": "view",
      "type": "function"
    },
    {
      "constant": true,
      "inputs": [],
      "name": "name",
      "outputs": [
        {
          "name": "",
          "type": "string"
        }
      ],
      "payable": false,
      "stateMutability": "view",
      "type": "function"
    },
    {
      "constant": true,
      "inputs": [
        {
          "name": "tokenId",
          "type": "uint256"
        }
      ],
      "name": "getApproved",
      "outputs": [
        {
          "name": "",
          "type": "address"
        }
      ],
      "payable": false,
      "stateMutability": "view",
      "type": "function"
    },
    {
      "constant": false,
      "inputs": [
        {
          "name": "to",
          "type": "address"
        },
        {
          "name": "tokenId",
          "type": "uint256"
        }
      ],
      "name": "approve",
      "outputs": [],
      "payable": false,
      "stateMutability": "nonpayable",
      "type": "function"
    },
    {
      "constant": true,
      "inputs": [],
      "name": "totalSupply",
      "outputs": [
        {
          "name": "",
          "type": "uint256"
        }
      ],
      "payable": false,
      "stateMutability": "view",
      "type": "function"
    },
    {
      "constant": false,
      "inputs": [
        {
          "name": "_address",
          "type": "address"
        }
      ],
      "name": "setBreedingAddr",
      "outputs": [],
      "payable": false,
      "stateMutability": "nonpayable",
      "type": "function"
    },
    {
      "constant": false,
      "inputs": [
        {
          "name": "from",
          "type": "address"
        },
        {
          "name": "to",
          "type": "address"
        },
        {
          "name": "tokenId",
          "type": "uint256"
        }
      ],
      "name": "transferFrom",
      "outputs": [],
      "payable": false,
      "stateMutability": "nonpayable",
      "type": "function"
    },
    {
      "constant": true,
      "inputs": [
        {
          "name": "owner",
          "type": "address"
        },
        {
          "name": "index",
          "type": "uint256"
        }
      ],
      "name": "tokenOfOwnerByIndex",
      "outputs": [
        {
          "name": "",
          "type": "uint256"
        }
      ],
      "payable": false,
      "stateMutability": "view",
      "type": "function"
    },
    {
      "constant": false,
      "inputs": [
        {
          "name": "_horseId",
          "type": "uint256"
        },
        {
          "name": "_baseValue",
          "type": "uint256"
        }
      ],
      "name": "setBaseValue",
      "outputs": [],
      "payable": false,
      "stateMutability": "nonpayable",
      "type": "function"
    },
    {
      "constant": true,
      "inputs": [
        {
          "name": "_horse",
          "type": "uint256"
        }
      ],
      "name": "getBaseValue",
      "outputs": [
        {
          "name": "",
          "type": "uint256"
        }
      ],
      "payable": false,
      "stateMutability": "view",
      "type": "function"
    },
    {
      "constant": false,
      "inputs": [],
      "name": "unpause",
      "outputs": [],
      "payable": false,
      "stateMutability": "nonpayable",
      "type": "function"
    },
    {
      "constant": false,
      "inputs": [
        {
          "name": "from",
          "type": "address"
        },
        {
          "name": "to",
          "type": "address"
        },
        {
          "name": "tokenId",
          "type": "uint256"
        }
      ],
      "name": "safeTransferFrom",
      "outputs": [],
      "payable": false,
      "stateMutability": "nonpayable",
      "type": "function"
    },
    {
      "constant": true,
      "inputs": [
        {
          "name": "account",
          "type": "address"
        }
      ],
      "name": "isPauser",
      "outputs": [
        {
          "name": "",
          "type": "bool"
        }
      ],
      "payable": false,
      "stateMutability": "view",
      "type": "function"
    },
    {
      "constant": true,
      "inputs": [
        {
          "name": "index",
          "type": "uint256"
        }
      ],
      "name": "tokenByIndex",
      "outputs": [
        {
          "name": "",
          "type": "uint256"
        }
      ],
      "payable": false,
      "stateMutability": "view",
      "type": "function"
    },
    {
      "constant": false,
      "inputs": [
        {
          "name": "to",
          "type": "address"
        },
        {
          "name": "tokenId",
          "type": "uint256"
        },
        {
          "name": "tokenURI",
          "type": "string"
        }
      ],
      "name": "mintWithTokenURI",
      "outputs": [
        {
          "name": "",
          "type": "bool"
        }
      ],
      "payable": false,
      "stateMutability": "nonpayable",
      "type": "function"
    },
    {
      "constant": true,
      "inputs": [],
      "name": "horseDataContract",
      "outputs": [
        {
          "name": "",
          "type": "address"
        }
      ],
      "payable": false,
      "stateMutability": "view",
      "type": "function"
    },
    {
      "constant": true,
      "inputs": [],
      "name": "paused",
      "outputs": [
        {
          "name": "",
          "type": "bool"
        }
      ],
      "payable": false,
      "stateMutability": "view",
      "type": "function"
    },
    {
      "constant": true,
      "inputs": [
        {
          "name": "tokenId",
          "type": "uint256"
        }
      ],
      "name": "ownerOf",
      "outputs": [
        {
          "name": "",
          "type": "address"
        }
      ],
      "payable": false,
      "stateMutability": "view",
      "type": "function"
    },
    {
      "constant": false,
      "inputs": [],
      "name": "renouncePauser",
      "outputs": [],
      "payable": false,
      "stateMutability": "nonpayable",
      "type": "function"
    },
    {
      "constant": true,
      "inputs": [
        {
          "name": "owner",
          "type": "address"
        }
      ],
      "name": "balanceOf",
      "outputs": [
        {
          "name": "",
          "type": "uint256"
        }
      ],
      "payable": false,
      "stateMutability": "view",
      "type": "function"
    },
    {
      "constant": false,
      "inputs": [],
      "name": "renounceOwnership",
      "outputs": [],
      "payable": false,
      "stateMutability": "nonpayable",
      "type": "function"
    },
    {
      "constant": true,
      "inputs": [
        {
          "name": "_horse",
          "type": "uint256"
        }
      ],
      "name": "getHorseSex",
      "outputs": [
        {
          "name": "",
          "type": "bytes32"
        }
      ],
      "payable": false,
      "stateMutability": "view",
      "type": "function"
    },
    {
      "constant": true,
      "inputs": [
        {
          "name": "_horse",
          "type": "uint256"
        }
      ],
      "name": "getBloodline",
      "outputs": [
        {
          "name": "",
          "type": "bytes32"
        }
      ],
      "payable": false,
      "stateMutability": "view",
      "type": "function"
    },
    {
      "constant": true,
      "inputs": [],
      "name": "gender",
      "outputs": [
        {
          "name": "",
          "type": "bytes32"
        }
      ],
      "payable": false,
      "stateMutability": "view",
      "type": "function"
    },
    {
      "constant": false,
      "inputs": [
        {
          "name": "account",
          "type": "address"
        }
      ],
      "name": "addPauser",
      "outputs": [],
      "payable": false,
      "stateMutability": "nonpayable",
      "type": "function"
    },
    {
      "constant": false,
      "inputs": [],
      "name": "pause",
      "outputs": [],
      "payable": false,
      "stateMutability": "nonpayable",
      "type": "function"
    },
    {
      "constant": true,
      "inputs": [],
      "name": "owner",
      "outputs": [
        {
          "name": "",
          "type": "address"
        }
      ],
      "payable": false,
      "stateMutability": "view",
      "type": "function"
    },
    {
      "constant": true,
      "inputs": [],
      "name": "isOwner",
      "outputs": [
        {
          "name": "",
          "type": "bool"
        }
      ],
      "payable": false,
      "stateMutability": "view",
      "type": "function"
    },
    {
      "constant": true,
      "inputs": [
        {
          "name": "",
          "type": "uint256"
        }
      ],
      "name": "horses",
      "outputs": [
        {
          "name": "buyer",
          "type": "address"
        },
        {
          "name": "genotype",
          "type": "uint256"
        },
        {
          "name": "baseValue",
          "type": "uint256"
        },
        {
          "name": "timestamp",
          "type": "uint256"
        },
        {
          "name": "lastTimeSold",
          "type": "uint256"
        },
        {
          "name": "amountOfTimesSold",
          "type": "uint256"
        },
        {
          "name": "horseHash",
          "type": "string"
        },
        {
          "name": "bloodline",
          "type": "bytes32"
        },
        {
          "name": "sex",
          "type": "bytes32"
        },
        {
          "name": "hType",
          "type": "bytes32"
        }
      ],
      "payable": false,
      "stateMutability": "view",
      "type": "function"
    },
    {
      "constant": true,
      "inputs": [],
      "name": "symbol",
      "outputs": [
        {
          "name": "",
          "type": "string"
        }
      ],
      "payable": false,
      "stateMutability": "view",
      "type": "function"
    },
    {
      "constant": false,
      "inputs": [
        {
          "name": "account",
          "type": "address"
        }
      ],
      "name": "addMinter",
      "outputs": [],
      "payable": false,
      "stateMutability": "nonpayable",
      "type": "function"
    },
    {
      "constant": false,
      "inputs": [
        {
          "name": "_horse",
          "type": "uint256"
        },
        {
          "name": "_hash",
          "type": "string"
        }
      ],
      "name": "setHorseHash",
      "outputs": [],
      "payable": false,
      "stateMutability": "nonpayable",
      "type": "function"
    },
    {
      "constant": false,
      "inputs": [],
      "name": "renounceMinter",
      "outputs": [],
      "payable": false,
      "stateMutability": "nonpayable",
      "type": "function"
    },
    {
      "constant": false,
      "inputs": [
        {
          "name": "to",
          "type": "address"
        },
        {
          "name": "approved",
          "type": "bool"
        }
      ],
      "name": "setApprovalForAll",
      "outputs": [],
      "payable": false,
      "stateMutability": "nonpayable",
      "type": "function"
    },
    {
      "constant": true,
      "inputs": [
        {
          "name": "account",
          "type": "address"
        }
      ],
      "name": "isMinter",
      "outputs": [
        {
          "name": "",
          "type": "bool"
        }
      ],
      "payable": false,
      "stateMutability": "view",
      "type": "function"
    },
    {
      "constant": true,
      "inputs": [
        {
          "name": "_horse",
          "type": "uint256"
        }
      ],
      "name": "getTimestamp",
      "outputs": [
        {
          "name": "",
          "type": "uint256"
        }
      ],
      "payable": false,
      "stateMutability": "view",
      "type": "function"
    },
    {
      "constant": false,
      "inputs": [
        {
          "name": "from",
          "type": "address"
        },
        {
          "name": "to",
          "type": "address"
        },
        {
          "name": "tokenId",
          "type": "uint256"
        },
        {
          "name": "_data",
          "type": "bytes"
        }
      ],
      "name": "safeTransferFrom",
      "outputs": [],
      "payable": false,
      "stateMutability": "nonpayable",
      "type": "function"
    },
    {
      "constant": true,
      "inputs": [
        {
          "name": "tokenId",
          "type": "uint256"
        }
      ],
      "name": "tokenURI",
      "outputs": [
        {
          "name": "",
          "type": "string"
        }
      ],
      "payable": false,
      "stateMutability": "view",
      "type": "function"
    },
    {
      "constant": false,
      "inputs": [
        {
          "name": "_address",
          "type": "address"
        }
      ],
      "name": "setHorseDataAddr",
      "outputs": [],
      "payable": false,
      "stateMutability": "nonpayable",
      "type": "function"
    },
    {
      "constant": true,
      "inputs": [
        {
          "name": "owner",
          "type": "address"
        },
        {
          "name": "operator",
          "type": "address"
        }
      ],
      "name": "isApprovedForAll",
      "outputs": [
        {
          "name": "",
          "type": "bool"
        }
      ],
      "payable": false,
      "stateMutability": "view",
      "type": "function"
    },
    {
      "constant": false,
      "inputs": [
        {
          "name": "newOwner",
          "type": "address"
        }
      ],
      "name": "transferOwnership",
      "outputs": [],
      "payable": false,
      "stateMutability": "nonpayable",
      "type": "function"
    },
    {
      "constant": true,
      "inputs": [
        {
          "name": "_horse",
          "type": "uint256"
        }
      ],
      "name": "getHorseData",
      "outputs": [
        {
          "name": "",
          "type": "string"
        },
        {
          "name": "",
          "type": "bytes32"
        },
        {
          "name": "",
          "type": "uint256"
        },
        {
          "name": "",
          "type": "uint256"
        },
        {
          "name": "",
          "type": "uint256"
        },
        {
          "name": "",
          "type": "uint256"
        },
        {
          "name": "",
          "type": "bytes32"
        },
        {
          "name": "",
          "type": "bytes32"
        }
      ],
      "payable": false,
      "stateMutability": "view",
      "type": "function"
    },
    {
      "constant": true,
      "inputs": [],
      "name": "lastHorseSex",
      "outputs": [
        {
          "name": "",
          "type": "bytes32"
        }
      ],
      "payable": false,
      "stateMutability": "view",
      "type": "function"
    },
    {
      "anonymous": false,
      "inputs": [
        {
          "indexed": false,
          "name": "_horseId",
          "type": "uint256"
        },
        {
          "indexed": false,
          "name": "_amountOfTimesSold",
          "type": "uint256"
        }
      ],
      "name": "LogHorseSell",
      "type": "event"
    },
    {
      "anonymous": false,
      "inputs": [
        {
          "indexed": false,
          "name": "_buyer",
          "type": "address"
        },
        {
          "indexed": false,
          "name": "_timestamp",
          "type": "uint256"
        },
        {
          "indexed": false,
          "name": "_tokenId",
          "type": "uint256"
        }
      ],
      "name": "LogOffspringBuy",
      "type": "event"
    },
    {
      "anonymous": false,
      "inputs": [
        {
          "indexed": false,
          "name": "_buyer",
          "type": "address"
        },
        {
          "indexed": false,
          "name": "_timestamp",
          "type": "uint256"
        },
        {
          "indexed": false,
          "name": "_tokenId",
          "type": "uint256"
        }
      ],
      "name": "LogGOPCreated",
      "type": "event"
    },
    {
      "anonymous": false,
      "inputs": [
        {
          "indexed": true,
          "name": "previousOwner",
          "type": "address"
        }
      ],
      "name": "OwnershipRenounced",
      "type": "event"
    },
    {
      "anonymous": false,
      "inputs": [
        {
          "indexed": true,
          "name": "previousOwner",
          "type": "address"
        },
        {
          "indexed": true,
          "name": "newOwner",
          "type": "address"
        }
      ],
      "name": "OwnershipTransferred",
      "type": "event"
    },
    {
      "anonymous": false,
      "inputs": [],
      "name": "Paused",
      "type": "event"
    },
    {
      "anonymous": false,
      "inputs": [],
      "name": "Unpaused",
      "type": "event"
    },
    {
      "anonymous": false,
      "inputs": [
        {
          "indexed": true,
          "name": "account",
          "type": "address"
        }
      ],
      "name": "PauserAdded",
      "type": "event"
    },
    {
      "anonymous": false,
      "inputs": [
        {
          "indexed": true,
          "name": "account",
          "type": "address"
        }
      ],
      "name": "PauserRemoved",
      "type": "event"
    },
    {
      "anonymous": false,
      "inputs": [
        {
          "indexed": true,
          "name": "account",
          "type": "address"
        }
      ],
      "name": "MinterAdded",
      "type": "event"
    },
    {
      "anonymous": false,
      "inputs": [
        {
          "indexed": true,
          "name": "account",
          "type": "address"
        }
      ],
      "name": "MinterRemoved",
      "type": "event"
    },
    {
      "anonymous": false,
      "inputs": [
        {
          "indexed": true,
          "name": "from",
          "type": "address"
        },
        {
          "indexed": true,
          "name": "to",
          "type": "address"
        },
        {
          "indexed": true,
          "name": "tokenId",
          "type": "uint256"
        }
      ],
      "name": "Transfer",
      "type": "event"
    },
    {
      "anonymous": false,
      "inputs": [
        {
          "indexed": true,
          "name": "owner",
          "type": "address"
        },
        {
          "indexed": true,
          "name": "approved",
          "type": "address"
        },
        {
          "indexed": true,
          "name": "tokenId",
          "type": "uint256"
        }
      ],
      "name": "Approval",
      "type": "event"
    },
    {
      "anonymous": false,
      "inputs": [
        {
          "indexed": true,
          "name": "owner",
          "type": "address"
        },
        {
          "indexed": true,
          "name": "operator",
          "type": "address"
        },
        {
          "indexed": false,
          "name": "approved",
          "type": "bool"
        }
      ],
      "name": "ApprovalForAll",
      "type": "event"
    },
    {
      "constant": false,
      "inputs": [
        {
          "name": "name",
          "type": "string"
        },
        {
          "name": "symbol",
          "type": "string"
        }
      ],
      "name": "initialize",
      "outputs": [],
      "payable": false,
      "stateMutability": "nonpayable",
      "type": "function"
    },
    {
      "constant": false,
      "inputs": [
        {
          "name": "name",
          "type": "string"
        },
        {
          "name": "symbol",
          "type": "string"
        },
        {
          "name": "minters",
          "type": "address[]"
        },
        {
          "name": "pausers",
          "type": "address[]"
        }
      ],
      "name": "initialize",
      "outputs": [],
      "payable": false,
      "stateMutability": "nonpayable",
      "type": "function"
    },
    {
      "constant": false,
      "inputs": [
        {
          "name": "_owner",
          "type": "address"
        }
      ],
      "name": "initialize",
      "outputs": [],
      "payable": false,
      "stateMutability": "nonpayable",
      "type": "function"
    },
    {
      "constant": false,
      "inputs": [],
      "name": "initialize",
      "outputs": [],
      "payable": false,
      "stateMutability": "nonpayable",
      "type": "function"
    },
    {
      "constant": false,
      "inputs": [
        {
          "name": "_owner",
          "type": "address"
        },
        {
          "name": "_hash",
          "type": "string"
        },
        {
          "name": "_male",
          "type": "uint256"
        },
        {
          "name": "_female",
          "type": "uint256"
        }
      ],
      "name": "createOffspring",
      "outputs": [
        {
          "name": "",
          "type": "uint256"
        }
      ],
      "payable": true,
      "stateMutability": "payable",
      "type": "function"
    },
    {
      "constant": false,
      "inputs": [
        {
          "name": "_owner",
          "type": "address"
        },
        {
          "name": "_hash",
          "type": "string"
        },
        {
          "name": "_batchNumber",
          "type": "uint256"
        }
      ],
      "name": "mintToken",
      "outputs": [
        {
          "name": "",
          "type": "uint256"
        }
      ],
      "payable": true,
      "stateMutability": "payable",
      "type": "function"
    },
    {
      "constant": false,
      "inputs": [
        {
          "name": "_owner",
          "type": "address"
        },
        {
          "name": "_hash",
          "type": "string"
        },
        {
          "name": "_genotype",
          "type": "uint256"
        },
        {
          "name": "_gender",
          "type": "bytes32"
        }
      ],
      "name": "mintCustomHorse",
      "outputs": [
        {
          "name": "",
          "type": "uint256"
        }
      ],
      "payable": false,
      "stateMutability": "nonpayable",
      "type": "function"
    },
    {
      "constant": true,
      "inputs": [
        {
          "name": "_spender",
          "type": "address"
        },
        {
          "name": "_tokenId",
          "type": "uint256"
        }
      ],
      "name": "isTokenApproved",
      "outputs": [
        {
          "name": "",
          "type": "bool"
        }
      ],
      "payable": false,
      "stateMutability": "view",
      "type": "function"
    },
    {
      "constant": false,
      "inputs": [
        {
          "name": "_tokenId",
          "type": "uint256"
        }
      ],
      "name": "tokenSold",
      "outputs": [],
      "payable": false,
      "stateMutability": "nonpayable",
      "type": "function"
    },
    {
      "constant": true,
      "inputs": [
        {
          "name": "_tokenId",
          "type": "uint256"
        }
      ],
      "name": "exists",
      "outputs": [
        {
          "name": "",
          "type": "bool"
        }
      ],
      "payable": false,
      "stateMutability": "view",
      "type": "function"
    },
    {
      "constant": false,
      "inputs": [
        {
          "name": "_addr",
          "type": "address"
        }
      ],
      "name": "setGOPCreator",
      "outputs": [],
      "payable": false,
      "stateMutability": "nonpayable",
      "type": "function"
    }
  ],
  "bytecode": "0x608060405261019f805460ff1916905534801561001b57600080fd5b5061403c8061002b6000396000f3006080604052600436106102875763ffffffff7c010000000000000000000000000000000000000000000000000000000060003504166301ffc9a7811461028c57806306fdde03146102c2578063081812fc1461034c578063095ea7b31461038057806318160ddd146103a6578063195c8c7e146103cd57806323b872dd146103ee57806325b1a072146104185780632d6ae4fa146104395780632f745c59146104a95780633bdf2c0c146104cd5780633ef5d325146104e85780633f4ba83a1461050057806342842e0e1461051557806346fbf68e1461053f5780634cd88b76146105605780634f558e79146105f75780634f6ccce71461060f57806350bb4e7f146106275780635653de641461069057806357a15c4f146106a857806359660d17146106ce5780635c975abb146106e3578063611b2fed146106f85780636352211e146107545780636ef8d66d1461076c57806370a0823114610781578063715018a6146107a257806376fe8228146107b75780637866ed6e146107cf57806379caad86146107e75780638129fc1c146107fc57806382dc1ec4146108115780638456cb59146108325780638da5cb5b146108475780638f32d59b1461085c5780638f8b5cde1461087157806395d89b4114610957578063983b2d561461096c578063983bd3d41461098d57806398650275146109eb578063a22cb46514610a00578063aa271e1a14610a26578063b633620c14610a47578063b88d4fde14610a5f578063c4d66de814610ace578063c87b56dd14610aef578063d94cc0e014610b07578063e068e8a114610c10578063e8a4b79714610c31578063e985e9c514610c55578063f2fde38b14610c7c578063f66b48da14610c9d578063fffda87014610d65575b600080fd5b34801561029857600080fd5b506102ae600160e060020a031960043516610d7a565b604080519115158252519081900360200190f35b3480156102ce57600080fd5b506102d7610d99565b6040805160208082528351818301528351919283929083019185019080838360005b838110156103115781810151838201526020016102f9565b50505050905090810190601f16801561033e5780820380516001836020036101000a031916815260200191505b509250505060405180910390f35b34801561035857600080fd5b50610364600435610e30565b60408051600160a060020a039092168252519081900360200190f35b34801561038c57600080fd5b506103a4600160a060020a0360043516602435610e62565b005b3480156103b257600080fd5b506103bb610e81565b60408051918252519081900360200190f35b3480156103d957600080fd5b506103a4600160a060020a0360043516610e87565b3480156103fa57600080fd5b506103a4600160a060020a0360043581169060243516604435610ebd565b34801561042457600080fd5b506103a4600160a060020a0360043516610ede565b34801561044557600080fd5b5060408051602060046024803582810135601f81018590048502860185019096528585526103bb958335600160a060020a0316953695604494919390910191908190840183828082843750949750508435955050506020909201359150610f149050565b3480156104b557600080fd5b506103bb600160a060020a03600435166024356110c1565b3480156104d957600080fd5b506103a460043560243561110e565b3480156104f457600080fd5b506103bb60043561118b565b34801561050c57600080fd5b506103a46111a1565b34801561052157600080fd5b506103a4600160a060020a03600435811690602435166044356111fd565b34801561054b57600080fd5b506102ae600160a060020a0360043516611219565b34801561056c57600080fd5b506040805160206004803580820135601f81018490048402850184019095528484526103a494369492936024939284019190819084018382808284375050604080516020601f89358b018035918201839004830284018301909452808352979a9998810197919650918201945092508291508401838280828437509497506112339650505050505050565b34801561060357600080fd5b506102ae600435611354565b34801561061b57600080fd5b506103bb600435611366565b34801561063357600080fd5b50604080516020600460443581810135601f81018490048402850184019095528484526102ae948235600160a060020a031694602480359536959460649492019190819084018382808284375094975061139b9650505050505050565b34801561069c57600080fd5b506103a46004356113cf565b6103bb60048035600160a060020a03169060248035908101910135604435606435611439565b3480156106da57600080fd5b506103646114fe565b3480156106ef57600080fd5b506102ae61150e565b60408051602060046024803582810135601f81018590048502860185019096528585526103bb958335600160a060020a031695369560449491939091019190819084018382808284375094975050933594506115189350505050565b34801561076057600080fd5b506103646004356116be565b34801561077857600080fd5b506103a46116e2565b34801561078d57600080fd5b506103bb600160a060020a03600435166116ed565b3480156107ae57600080fd5b506103a4611720565b3480156107c357600080fd5b506103bb60043561177f565b3480156107db57600080fd5b506103bb600435611795565b3480156107f357600080fd5b506103bb6117ab565b34801561080857600080fd5b506103a46117b2565b34801561081d57600080fd5b506103a4600160a060020a03600435166118a9565b34801561083e57600080fd5b506103a46118c9565b34801561085357600080fd5b50610364611927565b34801561086857600080fd5b506102ae611937565b34801561087d57600080fd5b50610889600435611949565b60408051600160a060020a038c16815260208082018c90529181018a9052606081018990526080810188905260a0810187905260e081018590526101008101849052610120810183905261014060c0820181815287519183019190915286519192909161016084019188019080838360005b838110156109135781810151838201526020016108fb565b50505050905090810190601f1680156109405780820380516001836020036101000a031916815260200191505b509b50505050505050505050505060405180910390f35b34801561096357600080fd5b506102d7611a31565b34801561097857600080fd5b506103a4600160a060020a0360043516611a92565b34801561099957600080fd5b5060408051602060046024803582810135601f81018590048502860185019096528585526103a4958335953695604494919390910191908190840183828082843750949750611aaf9650505050505050565b3480156109f757600080fd5b506103a4611ae8565b348015610a0c57600080fd5b506103a4600160a060020a03600435166024351515611af1565b348015610a3257600080fd5b506102ae600160a060020a0360043516611b0c565b348015610a5357600080fd5b506103bb600435611b20565b348015610a6b57600080fd5b50604080516020601f6064356004818101359283018490048402850184019095528184526103a494600160a060020a038135811695602480359092169560443595369560849401918190840183828082843750949750611b369650505050505050565b348015610ada57600080fd5b506103a4600160a060020a0360043516611b5e565b348015610afb57600080fd5b506102d7600435611dcb565b348015610b1357600080fd5b506040805160206004803580820135601f81018490048402850184019095528484526103a494369492936024939284019190819084018382808284375050604080516020601f89358b018035918201839004830284018301909452808352979a999881019791965091820194509250829150840183828082843750506040805187358901803560208181028481018201909552818452989b9a998901989297509082019550935083925085019084908082843750506040805187358901803560208181028481018201909552818452989b9a998901989297509082019550935083925085019084908082843750949750611e809650505050505050565b348015610c1c57600080fd5b506103a4600160a060020a0360043516611ff0565b348015610c3d57600080fd5b506102ae600160a060020a0360043516602435612026565b348015610c6157600080fd5b506102ae600160a060020a0360043581169060243516612039565b348015610c8857600080fd5b506103a4600160a060020a0360043516612067565b348015610ca957600080fd5b50610cb5600435612083565b6040805160208082018a9052918101889052606081018790526080810186905260a0810185905260c0810184905260e081018390526101008082528a51908201528951909182916101208301918c019080838360005b83811015610d23578181015183820152602001610d0b565b50505050905090810190601f168015610d505780820380516001836020036101000a031916815260200191505b50995050505050505050505060405180910390f35b348015610d7157600080fd5b506103bb61220a565b600160e060020a03191660009081526033602052604090205460ff1690565b60d28054604080516020601f6002600019610100600188161502019095169490940493840181900481028201810190925282815260609390929091830182828015610e255780601f10610dfa57610100808354040283529160200191610e25565b820191906000526020600020905b815481529060010190602001808311610e0857829003601f168201915b505050505090505b90565b6000610e3b82612211565b1515610e4657600080fd5b50600090815260676020526040902054600160a060020a031690565b61019f5460ff1615610e7357600080fd5b610e7d828261222e565b5050565b609e5490565b610e8f611937565b1515610e9a57600080fd5b61023c8054600160a060020a031916600160a060020a0392909216919091179055565b61019f5460ff1615610ece57600080fd5b610ed98383836122d7565b505050565b610ee6611937565b1515610ef157600080fd5b61023f8054600160a060020a031916600160a060020a0392909216919091179055565b61023f5460009081908190606090600160a060020a03163314610f81576040805160e560020a62461bcd02815260206004820152600f60248201527f54206e6f74417574686f72697a65640000000000000000000000000000000000604482015290519081900360640190fd5b610f89610e81565b61023d54604080517f3ef5d325000000000000000000000000000000000000000000000000000000008152600481018a90529051929550600160a060020a0390911691633ef5d325916024808201926020929091908290030181600087803b158015610ff457600080fd5b505af1158015611008573d6000803e3d6000fd5b505050506040513d602081101561101e57600080fd5b505160408051606081018252602681527f68747470733a2f2f6170692e7a65642e72756e2f6170692f76312f686f72736560208201527f732f6765742f0000000000000000000000000000000000000000000000000000918101919091529092506110919061108c85612365565b61248c565b905061109d8884612547565b6110a78382612596565b6110b5888885858a8a6125c9565b50909695505050505050565b60006110cc836116ed565b82106110d757600080fd5b600160a060020a0383166000908152609c602052604090208054839081106110fb57fe5b9060005260206000200154905092915050565b61023c54600090600160a060020a03163314611174576040805160e560020a62461bcd02815260206004820152601060248201527f4342206e6f74417574686f72697a656400000000000000000000000000000000604482015290519081900360640190fd5b50600091825261023e602052604090912060020155565b600090815261023e602052604090206002015490565b6111aa33611219565b15156111b557600080fd5b61019f5460ff1615156111c757600080fd5b61019f805460ff191690556040517fa45f47fdea8a1efdd9029a5691c7f759c32b7c698632b563573e155625d1693390600090a1565b610ed98383836020604051908101604052806000815250611b36565b600061122d61016c8363ffffffff6128e516565b92915050565b60008054610100900460ff168061124d575061124d61291c565b8061125b575060005460ff16155b15156112b3576040805160e560020a62461bcd02815260206004820152602e6024820152600080516020613fd18339815191526044820152600080516020613ff1833981519152606482015290519081900360840190fd5b5060008054600161010061ff00198316811760ff1916919091179092550460ff166112dc612926565b15156112e757600080fd5b82516112fa9060d2906020860190613e99565b50815161130e9060d3906020850190613e99565b506113387f5b5e139f00000000000000000000000000000000000000000000000000000000612956565b600080549115156101000261ff00199092169190911790555050565b600061135e610e81565b909110919050565b6000611370610e81565b821061137b57600080fd5b609e80548390811061138957fe5b90600052602060002001549050919050565b60006113a633611b0c565b15156113b157600080fd5b6113bb8484612547565b6113c58383612596565b5060019392505050565b806113da3382612992565b1515611430576040805160e560020a62461bcd02815260206004820152601560248201527f4e6f74206f776e6572206f7220617070726f7665640000000000000000000000604482015290519081900360640190fd5b610e7d826129f3565b61023c546000908190600160a060020a031633146114a1576040805160e560020a62461bcd02815260206004820152601060248201527f4342206e6f74417574686f72697a656400000000000000000000000000000000604482015290519081900360640190fd5b6114a9610e81565b90506114b58782612547565b6114f48787878080601f016020809104026020016040519081016040528093929190818152602001838380828437820191505050505050838787612a52565b9695505050505050565b61023d54600160a060020a031681565b61019f5460ff1690565b61023f5460009081908190606090600160a060020a03163314611585576040805160e560020a62461bcd02815260206004820152600f60248201527f54206e6f74417574686f72697a65640000000000000000000000000000000000604482015290519081900360640190fd5b61158d610e81565b61023d54604080517f3ef5d325000000000000000000000000000000000000000000000000000000008152600481018990529051929550600160a060020a0390911691633ef5d325916024808201926020929091908290030181600087803b1580156115f857600080fd5b505af115801561160c573d6000803e3d6000fd5b505050506040513d602081101561162257600080fd5b505160408051606081018252602681527f68747470733a2f2f6170692e7a65642e72756e2f6170692f76312f686f72736560208201527f732f6765742f0000000000000000000000000000000000000000000000000000918101919091529092506116909061108c85612365565b905061169c8784612547565b6116a68382612596565b6116b38787858886612d0f565b509095945050505050565b600081815260666020526040812054600160a060020a031680151561122d57600080fd5b6116eb33612fbf565b565b6000600160a060020a038216151561170457600080fd5b50600160a060020a031660009081526068602052604090205490565b611728611937565b151561173357600080fd5b61020454604051600160a060020a03909116907ff8df31144d9c2f0f6b59d69b8b98abd5459d07f2742c4df920b25aae33c6482090600090a26102048054600160a060020a0319169055565b600090815261023e602052604090206008015490565b600090815261023e602052604090206007015490565b6102385481565b60008054610100900460ff16806117cc57506117cc61291c565b806117da575060005460ff16155b1515611832576040805160e560020a62461bcd02815260206004820152602e6024820152600080516020613fd18339815191526044820152600080516020613ff1833981519152606482015290519081900360840190fd5b5060008054600161010061ff00198316811760ff1916919091179092550460ff1661185b612926565b151561186657600080fd5b61188f7f780e9d6300000000000000000000000000000000000000000000000000000000612956565b600080549115156101000261ff0019909216919091179055565b6118b233611219565b15156118bd57600080fd5b6118c681613008565b50565b6118d233611219565b15156118dd57600080fd5b61019f5460ff16156118ee57600080fd5b61019f805460ff191660011790556040517f9e87fac88ff661f02d44f95383c817fece4bce600a3dab7a54406878b965e75290600090a1565b61020454600160a060020a031690565b61020454600160a060020a0316331490565b61023e6020908152600091825260409182902080546001808301546002808501546003860154600487015460058801546006890180548c51601f6000199a831615610100029a909a01909116969096049788018b90048b0286018b01909b52868552600160a060020a039097169994989297919690959094919392830182828015611a155780601f106119ea57610100808354040283529160200191611a15565b820191906000526020600020905b8154815290600101906020018083116119f857829003601f168201915b505050505090806007015490806008015490806009015490508a565b60d38054604080516020601f6002600019610100600188161502019095169490940493840181900481028201810190925282815260609390929091830182828015610e255780601f10610dfa57610100808354040283529160200191610e25565b611a9b33611b0c565b1515611aa657600080fd5b6118c681613051565b611ab7611937565b1515611ac257600080fd5b600082815261023e602090815260409091208251610ed992600690920191840190613e99565b6116eb3361309a565b61019f5460ff1615611b0257600080fd5b610e7d82826130e3565b600061122d6101078363ffffffff6128e516565b600090815261023e602052604090206003015490565b611b41848484610ebd565b611b4d84848484613167565b1515611b5857600080fd5b50505050565b60008054610100900460ff1680611b785750611b7861291c565b80611b86575060005460ff16155b1515611bde576040805160e560020a62461bcd02815260206004820152602e6024820152600080516020613fd18339815191526044820152600080516020613ff1833981519152606482015290519081900360840190fd5b5060008054600161010061ff00198316811760ff191682178455610240805480840182557fd971d7a75d56a87205c10f76d77a1984a94b99f0ba39ec86813b6d42a571a285018054600160a060020a0319908116600160a060020a038916908117909255610241805495860181559096527f3309f6f425a96da5e1b3ccdcabb9705f947cdba87e004f5ce49278874ade3cb89093018054909516909217909355604080518082018252600981527f5a656420546f6b656e000000000000000000000000000000000000000000000060208083019190915282518084018452600281527f5a540000000000000000000000000000000000000000000000000000000000008183015284548451818402810184019095528085529690950460ff1695611da795929492939291830182828015611d4157602002820191906000526020600020905b8154600160a060020a03168152600190910190602001808311611d23575b5050505050610241805480602002602001604051908101604052809291908181526020018280548015611d9d57602002820191906000526020600020905b8154600160a060020a03168152600190910190602001808311611d7f575b5050505050611e80565b611db0826132d4565b600080549115156101000261ff001990921691909117905550565b6060611dd682612211565b1515611de157600080fd5b600082815260d4602090815260409182902080548351601f600260001961010060018616150201909316929092049182018490048402810184019094528084529091830182828015611e745780601f10611e4957610100808354040283529160200191611e74565b820191906000526020600020905b815481529060010190602001808311611e5757829003601f168201915b50505050509050919050565b600080548190610100900460ff1680611e9c5750611e9c61291c565b80611eaa575060005460ff16155b1515611f02576040805160e560020a62461bcd02815260206004820152602e6024820152600080516020613fd18339815191526044820152600080516020613ff1833981519152606482015290519081900360840190fd5b5060008054600161010061ff00198316811760ff1916919091179092550460ff16611f2b613405565b611f336117b2565b611f3d8686611233565b611f46306134d7565b611f4e611ae8565b611f57306135a7565b611f5f6116e2565b600091505b8351821015611f9857611f8d8483815181101515611f7e57fe5b90602001906020020151613051565b816001019150611f64565b600091505b8251821015611fd157611fc68383815181101515611fb757fe5b90602001906020020151613008565b816001019150611f9d565b600080549115156101000261ff00199092169190911790555050505050565b611ff8611937565b151561200357600080fd5b61023d8054600160a060020a031916600160a060020a0392909216919091179055565b60006120328383612992565b9392505050565b600160a060020a03918216600090815260696020908152604080832093909416825291909152205460ff1690565b61206f611937565b151561207a57600080fd5b6118c681613664565b60606000806000806000806000612098613f13565b60008a815261023e60209081526040918290208251610140810184528154600160a060020a0316815260018083015482850152600280840154838701526003840154606084015260048401546080840152600584015460a084015260068401805487516101009482161594909402600019011691909104601f81018690048602830186019096528582529194929360c0860193919291908301828280156121805780601f1061215557610100808354040283529160200191612180565b820191906000526020600020905b81548152906001019060200180831161216357829003601f168201915b50505050508152602001600782015460001916600019168152602001600882015460001916600019168152602001600982015460001916600019168152505090508060c00151816101000151826040015183606001518460a0015185602001518660e001518761012001518797509850985098509850985098509850985050919395975091939597565b6102385490565b600090815260666020526040902054600160a060020a0316151590565b6000612239826116be565b9050600160a060020a03838116908216141561225457600080fd5b33600160a060020a038216148061227057506122708133612039565b151561227b57600080fd5b6000828152606760205260408082208054600160a060020a031916600160a060020a0387811691821790925591518593918516917f8c5be1e5ebec7d5bd14f71427d1e84f3dd0314c0f7b2291e5b200ac8c7c3b92591a4505050565b6122e13382612992565b15156122ec57600080fd5b600160a060020a038216151561230157600080fd5b61230b83826136d7565b6123158382613739565b61231f8282613840565b8082600160a060020a031684600160a060020a03167fddf252ad1be2c89b69c2b068fc378daa952ba7f163c4a11628f55a4df523b3ef60405160405180910390a4505050565b606060008082818515156123ae5760408051808201909152600181527f300000000000000000000000000000000000000000000000000000000000000060208201529450612483565b8593505b83156123c957600190920191600a840493506123b2565b826040519080825280601f01601f1916602001820160405280156123f7578160200160208202803883390190505b5091505060001982015b851561247f5781516000198201917f01000000000000000000000000000000000000000000000000000000000000006030600a8a06010291849190811061244457fe5b9060200101907effffffffffffffffffffffffffffffffffffffffffffffffffffffffffffff1916908160001a905350600a86049550612401565b8194505b50505050919050565b606082826040516020018083805190602001908083835b602083106124c25780518252601f1990920191602091820191016124a3565b51815160209384036101000a600019018019909216911617905285519190930192850191508083835b6020831061250a5780518252601f1990920191602091820191016124eb565b6001836020036101000a03801982511681845116808217855250505050505090500192505050604051602081830303815290604052905092915050565b6125518282613889565b609e80546000838152609f60205260408120829055600182018355919091527fcfe2a20ff701a1f3e14f63bd70d6c6bc6fba8172ec6d5a505cdab3927c0a9de6015550565b61259f82612211565b15156125aa57600080fd5b600082815260d4602090815260409091208251610ed992840190613e99565b60006125d3613f13565b600184101580156125e55750600a8411155b151561263b576040805160e560020a62461bcd02815260206004820152601160248201527f47656e206f7574206f6620626f756e6473000000000000000000000000000000604482015290519081900360640190fd5b61023b546194701015612698576040805160e560020a62461bcd02815260206004820152600b60248201527f474f5020636170206d6574000000000000000000000000000000000000000000604482015290519081900360640190fd5b61023d54604080517f7866ed6e000000000000000000000000000000000000000000000000000000008152600481018790529051600160a060020a0390921691637866ed6e916024808201926020929091908290030181600087803b15801561270057600080fd5b505af1158015612714573d6000803e3d6000fd5b505050506040513d602081101561272a57600080fd5b5051426060830152600160a060020a038916825260c08201889052604082018690526020820185905260e0820181905291507f4d616c65000000000000000000000000000000000000000000000000000000008314156127ba57610239546101008201527f436f6c74000000000000000000000000000000000000000000000000000000006101208201526127ec565b61023a546101008201527f46696c6c790000000000000000000000000000000000000000000000000000006101208201525b600086815261023e602090815260409182902083518154600160a060020a031916600160a060020a03909116178155838201516001820155918301516002830155606083015160038301556080830151600483015560a0830151600583015560c08301518051849392612866926006850192910190613e99565b5060e0820151600782015561010082015160088201556101209091015160099091015561023b8054600101905560408051600160a060020a038a16815242602082015280820188905290517f8bb39788f6fcc3db6d28b8c1980260c5163d715d3b99e1b48d3202af7dc2b4319181900360600190a15050505050505050565b6000600160a060020a03821615156128fc57600080fd5b50600160a060020a03166000908152602091909152604090205460ff1690565b303b8015905b5090565b60006129517f80ac58cd00000000000000000000000000000000000000000000000000000000610d7a565b905090565b600160e060020a0319808216141561296d57600080fd5b600160e060020a0319166000908152603360205260409020805460ff19166001179055565b60008061299e836116be565b905080600160a060020a031684600160a060020a031614806129d9575083600160a060020a03166129ce84610e30565b600160a060020a0316145b806129e957506129e98185612039565b91505b5092915050565b600081815261023e602090815260409182902060058101805460010190819055426004830155835185815292830152825190927f972e3bea11df51754bcb88d2a3d51858ebdd0f5ffb99320d008b2c74901d67e4928290030190a15050565b6000806000612a5f613f13565b612a676138e4565b1515612a9d57610239547f436f6c7400000000000000000000000000000000000000000000000000000000610237559350612ac9565b61023a547f46696c6c790000000000000000000000000000000000000000000000000000006102375593505b600086815261023e602052604080822087835291207f5374616c6c696f6e0000000000000000000000000000000000000000000000006009808401919091557f4d6172650000000000000000000000000000000000000000000000000000000090820155600160a060020a038b16835242606084015260c083018a9052610100830186905260018083015490820154929550909350612b67916138f0565b60208083019190915261023d5460078086015490850154604080517ffe50ce600000000000000000000000000000000000000000000000000000000081526004810193909352602483019190915251600160a060020a039092169263fe50ce60926044808401938290030181600087803b158015612be457600080fd5b505af1158015612bf8573d6000803e3d6000fd5b505050506040513d6020811015612c0e57600080fd5b505160e082015261023754610120820152600087815261023e602090815260409182902083518154600160a060020a031916600160a060020a03909116178155818401516001820155918301516002830155606083015160038301556080830151600483015560a0830151600583015560c08301518051849392612c99926006850192910190613e99565b5060e0820151600782015561010082015160088201556101209091015160099091015560408051600160a060020a038b16815242602082015280820189905290517f5979c04b0d7f0107e1fb66acd8a8950f758e0591c1915a39536e4cf9e6b54cfd9181900360600190a1505050505050505050565b600080612d1a613f13565b61023b546194701015612d77576040805160e560020a62461bcd02815260206004820152600b60248201527f474f5020636170206d6574000000000000000000000000000000000000000000604482015290519081900360640190fd5b61023954610238541415612db75761023a54610238557f46696c6c7900000000000000000000000000000000000000000000000000000061023755612de5565b61023954610238557f436f6c7400000000000000000000000000000000000000000000000000000000610237555b61023d54604080517f7866ed6e000000000000000000000000000000000000000000000000000000008152600481018890529051600160a060020a0390921691637866ed6e916024808201926020929091908290030181600087803b158015612e4d57600080fd5b505af1158015612e61573d6000803e3d6000fd5b505050506040513d6020811015612e7757600080fd5b505161023d54604080517f1c668855000000000000000000000000000000000000000000000000000000008152600481018990529051929550600160a060020a0390911691631c668855916024808201926020929091908290030181600087803b158015612ee457600080fd5b505af1158015612ef8573d6000803e3d6000fd5b505050506040513d6020811015612f0e57600080fd5b50514260608301908152600160a060020a038a8116845260c084018a8152610238546101008601526040808601898152602080880187815260e089018b9052610237546101208a015260008e815261023e83529390932088518154600160a060020a031916961695909517855591516001850155516002840155925160038301556080850151600483015560a085015160058301555180519395508493919261286692600685019290910190613e99565b612fd161016c8263ffffffff61390916565b604051600160a060020a038216907fcd265ebaf09df2871cc7bd4133404a235ba12eff2041bb89d9c714a2621c7c7e90600090a250565b61301a61016c8263ffffffff61394016565b604051600160a060020a038216907f6719d08c1888103bea251a4ed56406bd0c3e69723c8a1686e017e7bbe159b6f890600090a250565b6130636101078263ffffffff61394016565b604051600160a060020a038216907f6ae172837ea30b801fbfcdd4108aa1d5bf8ff775444fd70256b44e6bf3dfc3f690600090a250565b6130ac6101078263ffffffff61390916565b604051600160a060020a038216907fe94479a9f7e1952cc78f2d6baab678adc1b772d936c6583def489e524cb6669290600090a250565b600160a060020a0382163314156130f957600080fd5b336000818152606960209081526040808320600160a060020a03871680855290835292819020805460ff1916861515908117909155815190815290519293927f17307eab39ab6107e8899845ad3d59bd9653f200f220920489ca2b5937696c31929181900390910190a35050565b60008061317c85600160a060020a031661397a565b151561318b57600191506132cb565b6040517f150b7a020000000000000000000000000000000000000000000000000000000081523360048201818152600160a060020a03898116602485015260448401889052608060648501908152875160848601528751918a169463150b7a0294938c938b938b93909160a490910190602085019080838360005b8381101561321e578181015183820152602001613206565b50505050905090810190601f16801561324b5780820380516001836020036101000a031916815260200191505b5095505050505050602060405180830381600087803b15801561326d57600080fd5b505af1158015613281573d6000803e3d6000fd5b505050506040513d602081101561329757600080fd5b5051600160e060020a031981167f150b7a020000000000000000000000000000000000000000000000000000000014925090505b50949350505050565b60008054610100900460ff16806132ee57506132ee61291c565b806132fc575060005460ff16155b1515613354576040805160e560020a62461bcd02815260206004820152602e6024820152600080516020613fd18339815191526044820152600080516020613ff1833981519152606482015290519081900360840190fd5b5060008054600161010061ff00198316811760ff1916919091179092550460ff1661337e82613982565b7f4600000000000000000000000000000000000000000000000000000000000000610238819055604080518082019091527f4d00000000000000000000000000000000000000000000000000000000000000815260208101919091526133e990610239906002613f66565b50600080549115156101000261ff001990921691909117905550565b60008054610100900460ff168061341f575061341f61291c565b8061342d575060005460ff16155b1515613485576040805160e560020a62461bcd02815260206004820152602e6024820152600080516020613fd18339815191526044820152600080516020613ff1833981519152606482015290519081900360840190fd5b5060008054600161010061ff00198316811760ff1916919091179092550460ff166134ae613a52565b61188f7f80ac58cd00000000000000000000000000000000000000000000000000000000612956565b60008054610100900460ff16806134f157506134f161291c565b806134ff575060005460ff16155b1515613557576040805160e560020a62461bcd02815260206004820152602e6024820152600080516020613fd18339815191526044820152600080516020613ff1833981519152606482015290519081900360840190fd5b5060008054600161010061ff00198316811760ff1916919091179092550460ff16613580612926565b151561358b57600080fd5b613593613b1c565b151561359e57600080fd5b611db082613b47565b60008054610100900460ff16806135c157506135c161291c565b806135cf575060005460ff16155b1515613627576040805160e560020a62461bcd02815260206004820152602e6024820152600080516020613fd18339815191526044820152600080516020613ff1833981519152606482015290519081900360840190fd5b5060008054600161010061ff00198316811760ff1916919091179092550460ff16613650612926565b151561365b57600080fd5b611db082613c00565b600160a060020a038116151561367957600080fd5b61020454604051600160a060020a038084169216907f8be0079c531659141344cd1fd0a4f28419497f9722a3daafe3b4186f6b6457e090600090a36102048054600160a060020a031916600160a060020a0392909216919091179055565b81600160a060020a03166136ea826116be565b600160a060020a0316146136fd57600080fd5b600081815260676020526040902054600160a060020a031615610e7d5760009081526067602052604090208054600160a060020a031916905550565b60008060006137488585613caa565b6000848152609d6020908152604080832054600160a060020a0389168452609c9092529091205490935061378390600163ffffffff613d3316565b600160a060020a0386166000908152609c60205260409020805491935090839081106137ab57fe5b9060005260206000200154905080609c600087600160a060020a0316600160a060020a03168152602001908152602001600020848154811015156137eb57fe5b6000918252602080832090910192909255600160a060020a0387168152609c90915260409020805490613822906000198301613f96565b506000938452609d6020526040808520859055908452909220555050565b600061384c8383613d4a565b50600160a060020a039091166000908152609c6020908152604080832080546001810182559084528284208101859055938352609d909152902055565b600160a060020a038216151561389e57600080fd5b6138a88282613840565b6040518190600160a060020a038416906000907fddf252ad1be2c89b69c2b068fc378daa952ba7f163c4a11628f55a4df523b3ef908290a45050565b60014360001901401690565b600082820161010c8111156120325761010c91506129ec565b600160a060020a038116151561391e57600080fd5b600160a060020a0316600090815260209190915260409020805460ff19169055565b600160a060020a038116151561395557600080fd5b600160a060020a0316600090815260209190915260409020805460ff19166001179055565b6000903b1190565b60008054610100900460ff168061399c575061399c61291c565b806139aa575060005460ff16155b1515613a02576040805160e560020a62461bcd02815260206004820152602e6024820152600080516020613fd18339815191526044820152600080516020613ff1833981519152606482015290519081900360840190fd5b50600080546102048054600160a060020a031916600160a060020a03949094169390931790925561ff001980831661010090811760ff19166001179091169281900460ff16151502919091179055565b60008054610100900460ff1680613a6c5750613a6c61291c565b80613a7a575060005460ff16155b1515613ad2576040805160e560020a62461bcd02815260206004820152602e6024820152600080516020613fd18339815191526044820152600080516020613ff1833981519152606482015290519081900360840190fd5b5060008054600161010061ff00198316811760ff1916919091179092550460ff1661188f7f01ffc9a700000000000000000000000000000000000000000000000000000000612956565b60006129517f5b5e139f00000000000000000000000000000000000000000000000000000000610d7a565b60008054610100900460ff1680613b615750613b6161291c565b80613b6f575060005460ff16155b1515613bc7576040805160e560020a62461bcd02815260206004820152602e6024820152600080516020613fd18339815191526044820152600080516020613ff1833981519152606482015290519081900360840190fd5b5060008054600161010061ff00198316811760ff1916919091179092550460ff16613bf182611b0c565b1515611db057611db082613051565b60008054610100900460ff1680613c1a5750613c1a61291c565b80613c28575060005460ff16155b1515613c80576040805160e560020a62461bcd02815260206004820152602e6024820152600080516020613fd18339815191526044820152600080516020613ff1833981519152606482015290519081900360840190fd5b5060008054600161010061ff00198316811760ff1916919091179092550460ff16611db082613dce565b81600160a060020a0316613cbd826116be565b600160a060020a031614613cd057600080fd5b600160a060020a038216600090815260686020526040902054613cfa90600163ffffffff613d3316565b600160a060020a039092166000908152606860209081526040808320949094559181526066909152208054600160a060020a0319169055565b60008083831115613d4357600080fd5b5050900390565b600081815260666020526040902054600160a060020a031615613d6c57600080fd5b60008181526066602090815260408083208054600160a060020a031916600160a060020a03871690811790915583526068909152902054613dae906001613e87565b600160a060020a0390921660009081526068602052604090209190915550565b60008054610100900460ff1680613de85750613de861291c565b80613df6575060005460ff16155b1515613e4e576040805160e560020a62461bcd02815260206004820152602e6024820152600080516020613fd18339815191526044820152600080516020613ff1833981519152606482015290519081900360840190fd5b5060008054600161010061ff00198316811760ff1916919091179092550460ff16613e7882611219565b1515611db057611db082613008565b60008282018381101561203257600080fd5b828054600181600116156101000203166002900490600052602060002090601f016020900481019282601f10613eda57805160ff1916838001178555613f07565b82800160010185558215613f07579182015b82811115613f07578251825591602001919060010190613eec565b50612922929150613fb6565b604080516101408101825260008082526020820181905291810182905260608082018390526080820183905260a0820183905260c082015260e08101829052610100810182905261012081019190915290565b8260028101928215613f07579160200282015b82811115613f075782518255602090920191600190910190613f79565b815481835581811115610ed957600083815260209020610ed99181019083015b610e2d91905b808211156129225760008155600101613fbc5600436f6e747261637420696e7374616e63652068617320616c7265616479206265656e20696e697469616c697a6564000000000000000000000000000000000000a165627a7a723058204487ba87f7ef2f4956702397beac1d551b47307c802503a7abc18234b1af90630029",
  "source": "pragma solidity ^0.4.24;\n\nimport \"openzeppelin-eth/contracts/token/ERC721/StandaloneERC721.sol\";\nimport \"./CryptofieldBase.sol\";\n\ncontract Token is StandaloneERC721, CryptofieldBase {\n    address gopcreator;\n    address[] private minters;\n    address[] private pausers;\n\n    function initialize(address _owner) public initializer {\n        minters.push(_owner);\n        pausers.push(_owner);\n\n        StandaloneERC721.initialize(\"Zed Token\", \"ZT\", minters, pausers);\n        CryptofieldBase.initialize(_owner);\n    }\n\n    modifier ownerOfToken(uint256 _tokenId) {\n        require(ownerOf(_tokenId) == msg.sender, \"Not owner\");\n        _;\n    }\n\n    modifier onlyApprovedOrOwner(uint256 _tokenId) {\n        require(_isApprovedOrOwner(msg.sender, _tokenId), \"Not owner or approved\");\n        _;\n    }\n\n    /*\n    @dev Simply creates a new token and calls base contract to add the horse information.\n    @dev Used for offsprings mostly, called from 'Breeding'\n    */\n    function createOffspring(address _owner, string _hash, uint256 _male, uint256 _female)\n    external\n    payable\n    onlyBreeding()\n    returns(uint256) {\n        uint256 tokenId = totalSupply();\n\n        _mint(_owner, tokenId);\n        buyOffspring(_owner, _hash, tokenId, _male, _female);\n\n        return tokenId;\n    }\n\n    /*\n    @dev Creates a G1P.\n    @dev Mostly used for Private and public sales to calculate genotypes.\n    */\n    function mintToken(address _owner, string _hash, uint256 _batchNumber)\n    public\n    payable\n    returns(uint256) {\n        require(msg.sender == gopcreator, \"T notAuthorized\");\n        uint256 tokenId = totalSupply();\n        uint256 baseValue = horseDataContract.getBaseValue(_batchNumber);\n\n        string memory uri = _uriStringConcat(\"https://api.zed.run/api/v1/horses/get/\", uint2str(tokenId));\n\n        _mint(_owner, tokenId);\n        _setTokenURI(tokenId, uri);\n        buyGOP(_owner, _hash, tokenId, _batchNumber, baseValue);\n\n        return tokenId;\n    }\n\n    function mintCustomHorse(address _owner, string _hash, uint256 _genotype, bytes32 _gender)\n    public\n    returns(uint256) {\n        require(msg.sender == gopcreator, \"T notAuthorized\");\n\n        uint256 tokenId = totalSupply();\n        uint256 baseValue = horseDataContract.getBaseValue(_genotype);\n\n        string memory uri = _uriStringConcat(\"https://api.zed.run/api/v1/horses/get/\", uint2str(tokenId));\n\n        _mint(_owner, tokenId);\n        _setTokenURI(tokenId, uri);\n        createHorse(_owner, _hash, tokenId, baseValue, _genotype, _gender);\n\n        return tokenId;\n    }\n\n    // Check if an address has been granted approval of a token.\n    function isTokenApproved(address _spender, uint256 _tokenId) public view returns(bool) {\n        return _isApprovedOrOwner(_spender, _tokenId);\n    }\n\n    /*\n    @dev Calls the 'horseSold' function after applying the modifier.\n    */\n    function tokenSold(uint256 _tokenId) external onlyApprovedOrOwner(_tokenId) {\n        horseSold(_tokenId);\n    }\n\n    /*\n    @dev Returns whether a horse exists or not.\n    */\n    function exists(uint256 _tokenId) public view returns(bool) {\n        return _tokenId < totalSupply();\n    }\n\n    /*  RESTRICTED  */\n\n    function setGOPCreator(address _addr) public onlyOwner() {\n        gopcreator = _addr;\n    }\n\n    /* INTERNAL */\n    function _uriStringConcat(string _a, string _b) internal pure returns(string) {\n        return string(abi.encodePacked(_a, _b));\n    }\n\n    function uint2str(uint i) internal pure returns(string) {\n        if (i == 0) return \"0\";\n\n        uint j = i;\n        uint len;\n\n        while (j != 0){\n            len++;\n            j /= 10;\n        }\n\n        bytes memory bstr = new bytes(len);\n        uint k = len - 1;\n\n        while(i != 0){\n            bstr[k--] = byte(48 + i % 10);\n            i /= 10;\n        }\n\n        return string(bstr);\n    }\n}\n",
  "sourcePath": "/Users/eswarasai/Sites/ZED/cryptofield-core/contracts/Token.sol",
  "compiler": {
    "name": "solc",
    "version": "0.4.24+commit.e67f0147.Emscripten.clang"
  },
  "schemaVersion": "3.0.6",
  "updatedAt": "2019-06-11T20:54:33.310Z",
  "devdoc": {
    "methods": {
      "balanceOf(address)": {
        "details": "Gets the balance of the specified address",
        "params": {
          "owner": "address to query the balance of"
        },
        "return": "uint256 representing the amount owned by the passed address"
      },
      "getApproved(uint256)": {
        "details": "Gets the approved address for a token ID, or zero if no address set Reverts if the token ID does not exist.",
        "params": {
          "tokenId": "uint256 ID of the token to query the approval of"
        },
        "return": "address currently approved for the given token ID"
      },
      "initialize()": {
        "details": "Constructor function"
      },
      "initialize(string,string)": {
        "details": "Constructor function"
      },
      "isApprovedForAll(address,address)": {
        "details": "Tells whether an operator is approved by a given owner",
        "params": {
          "operator": "operator address which you want to query the approval of",
          "owner": "owner address which you want to query the approval of"
        },
        "return": "bool whether the given operator is approved by the given owner"
      },
      "isOwner()": {
        "return": "true if `msg.sender` is the owner of the contract."
      },
      "mintWithTokenURI(address,uint256,string)": {
        "details": "Function to mint tokens",
        "params": {
          "to": "The address that will receive the minted tokens.",
          "tokenId": "The token id to mint.",
          "tokenURI": "The token URI of the minted token."
        },
        "return": "A boolean that indicates if the operation was successful."
      },
      "name()": {
        "details": "Gets the token name",
        "return": "string representing the token name"
      },
      "owner()": {
        "return": "the address of the owner."
      },
      "ownerOf(uint256)": {
        "details": "Gets the owner of the specified token ID",
        "params": {
          "tokenId": "uint256 ID of the token to query the owner of"
        },
        "return": "owner address currently marked as the owner of the given token ID"
      },
      "pause()": {
        "details": "called by the owner to pause, triggers stopped state"
      },
      "paused()": {
        "return": "true if the contract is paused, false otherwise."
      },
      "renounceOwnership()": {
        "details": "Allows the current owner to relinquish control of the contract."
      },
      "safeTransferFrom(address,address,uint256)": {
        "details": "Safely transfers the ownership of a given token ID to another address If the target address is a contract, it must implement `onERC721Received`, which is called upon a safe transfer, and return the magic value `bytes4(keccak256(\"onERC721Received(address,address,uint256,bytes)\"))`; otherwise, the transfer is reverted.   * Requires the msg sender to be the owner, approved, or operator",
        "params": {
          "from": "current owner of the token",
          "to": "address to receive the ownership of the given token ID",
          "tokenId": "uint256 ID of the token to be transferred"
        }
      },
      "safeTransferFrom(address,address,uint256,bytes)": {
        "details": "Safely transfers the ownership of a given token ID to another address If the target address is a contract, it must implement `onERC721Received`, which is called upon a safe transfer, and return the magic value `bytes4(keccak256(\"onERC721Received(address,address,uint256,bytes)\"))`; otherwise, the transfer is reverted. Requires the msg sender to be the owner, approved, or operator",
        "params": {
          "_data": "bytes data to send along with a safe transfer check",
          "from": "current owner of the token",
          "to": "address to receive the ownership of the given token ID",
          "tokenId": "uint256 ID of the token to be transferred"
        }
      },
      "supportsInterface(bytes4)": {
        "details": "implement supportsInterface(bytes4) using a lookup table"
      },
      "symbol()": {
        "details": "Gets the token symbol",
        "return": "string representing the token symbol"
      },
      "tokenByIndex(uint256)": {
        "details": "Gets the token ID at a given index of all the tokens in this contract Reverts if the index is greater or equal to the total number of tokens",
        "params": {
          "index": "uint256 representing the index to be accessed of the tokens list"
        },
        "return": "uint256 token ID at the given index of the tokens list"
      },
      "tokenOfOwnerByIndex(address,uint256)": {
        "details": "Gets the token ID at a given index of the tokens list of the requested owner",
        "params": {
          "index": "uint256 representing the index to be accessed of the requested tokens list",
          "owner": "address owning the tokens list to be accessed"
        },
        "return": "uint256 token ID at the given index of the tokens list owned by the requested address"
      },
      "tokenURI(uint256)": {
        "details": "Returns an URI for a given token ID Throws if the token ID does not exist. May return an empty string.",
        "params": {
          "tokenId": "uint256 ID of the token to query"
        }
      },
      "totalSupply()": {
        "details": "Gets the total amount of tokens stored by the contract",
        "return": "uint256 representing the total amount of tokens"
      },
      "transferOwnership(address)": {
        "details": "Allows the current owner to transfer control of the contract to a newOwner.",
        "params": {
          "newOwner": "The address to transfer ownership to."
        }
      },
      "unpause()": {
        "details": "called by the owner to unpause, returns to normal state"
      }
    }
  },
  "userdoc": {
    "methods": {
      "renounceOwnership()": {
        "notice": "Renouncing to ownership will leave the contract without an owner. It will not be possible to call the functions with the `onlyOwner` modifier anymore."
      }
    }
  }
}